:100000000C9462000C94B1210C948A210C948A0007
:100010000C948A000C948A000C948A000C948A0038
:100020000C948A000C948A000C948A000C948A0028
:100030000C948A000C948A000C948A000C948A0018
:100040000C9440210C948A000C940E210C94E8200E
:100050000C948A000C948A000C948A000C948A00F8
:100060000C94D8210C948A00000000002400270082
:100070002A0000000000250028002B0000000000DE
:1000800023002600290004040404040404040202DA
:100090000202020203030303030301020408102007
:1000A0004080010204081020010204081020000012
:1000B0000008000201000003040700000000000027
:1000C0000000D42411241FBECFEFD8E0DEBFCDBF87
:1000D00011E0A0E0B1E0EAE5F7E702C005900D927B
:1000E000AE35B107D9F726E0AEE5B1E001C01D920B
:1000F000A43DB207E1F710E0C2E6D0E004C02197CA
:10010000FE010E94A53BC136D107C9F70E946828AD
:100110000C94AB3B0C94000091E090934A028093C6
:100120006C0210924B0210926D020895089508958A
:1001300090911D0280911C022FEF3FEF981748F419
:10014000E92FF0E0E850FE4F208130E09F5F909370
:100150001D02C901089590911D0280911C022FEF8C
:100160003FEF981748F4E92FF0E0E850FE4F208168
:1001700030E09F5F90931D02C901089521E030E0B7
:10018000A90102C0440F551F8A95E2F7CA01342F16
:100190008095EFE2F6E09385662349F0932B9387F1
:1001A0002683B79656E0E43AF507A9F70895982311
:1001B000F6CFDF92EF92FF920F931F93CF93DF93CF
:1001C000843008F05FC0A0912405B0912505C0914E
:1001D0002605D091270590912A05092F10E048E0C7
:1001E000849F90011124F90183E0EE0FFF1F8A958F
:1001F000E1F7EA0FFB1F67E070E080E0CB58DF4FCC
:10020000EE24E394F12C2A31310514F5438140FFAB
:100210000AC04281413039F44781062E01C0440FA3
:100220000A94EAF784272330310591F44881D62EC9
:100230005B965C915B9750FF1BC04423F9F04781AC
:10024000411101C0492F01C0440FDA94EAF7842715
:100250002F5F3F4F6150710938966F3F760799F6CF
:10026000DF91CF911F910F91FF90EF90DF90089554
:10027000442311F0A801E7CFA701E5CF5F964C9189
:100280005F97E1CF80E0ECCFFF920F931F93CF9366
:10029000DF9308E115E0C0E0D0E0F801F1908F01B4
:1002A0008D2F0E94D900F812C1E0DF5FD430A9F78A
:1002B00090911C05809115059813C1E090911D0542
:1002C000809116059813C1E090911E058091170545
:1002D0009813C1E08C2FDF91CF911F910F91FF9068
:1002E000089580911C0290911D02891B990B08951D
:1002F000E6E1F5E02FE030E0281B310981E090E0F5
:10030000A0E0B0E004C0880F991FAA1FBB1F2A9568
:10031000D2F780959081892380830895CF93DF93CE
:10032000D62FC42F0E9478018D2F0E9478018C2F28
:10033000DF91CF910C9478018130A1F028F08230C8
:10034000E1F0833029F108954EE06FE08DE00E94E6
:100350008E0190911605892F80958870892780934A
:10036000160508954CE06FE08DE00E948E0190919B
:100370001605892F80958270F1CF4CE06EE08FE0FA
:100380000E948E0190911605892F80958470E6CF8A
:100390004CE06EE08DE00E948E0190911605892F51
:1003A00080958170DBCFCF93DF93880F6091FF043E
:1003B000EFE2F6E0ACEBB4E049E0480F4450550BF7
:1003C000885F8450990B71E0ED01C40FD51F28811F
:1003D000260FED01C80FD91F3881361B35872687B8
:1003E0002C91208F7783B7961A9626E0E43AF2078D
:1003F00059F7DF91CF910895AF92BF92CF92DF92DC
:10040000EF92FF920F931F93CF93DF936C017B01C9
:100410008B01040F151FEB015E01AE18BF08C0175A
:10042000D10759F06991D601ED91FC910190F081CD
:10043000E02DC6010995892B79F7C501DF91CF9190
:100440001F910F91FF90EF90DF90CF90BF90AF90F2
:100450000895FC01538D448D252F30E0842F90E0CA
:10046000821B930B541710F0CF96089501970895AF
:10047000FC01918D828D981761F0A28DAE0FBF2F78
:10048000B11D5D968C91928D9F5F9F73928F90E0CE
:1004900008958FEF9FEF0895FC01918D828D98173D
:1004A00031F0828DE80FF11D858D90E008958FEF7A
:1004B0009FEF0895FC01918D228D892F90E0805C43
:1004C0009F4F821B91098F73992708958FE692E0C1
:1004D0000E945A0221E0892B09F420E0822F08951E
:1004E00080E090E0892B29F00E94660281110C9433
:1004F00000000895FC01A48DA80FB92FB11DA35AC7
:10050000BF4F2C91848D90E001968F739927848F33
:10051000A689B7892C93A089B1898C918370806456
:100520008C93938D848D981306C00288F389E02DF7
:1005300080818F7D80830895EF92FF920F931F93A8
:10054000CF93DF93EC0181E0888F9B8D8C8D981386
:100550001AC0E889F989808185FF15C09FB7F89492
:10056000EE89FF896083E889F989808183708064DE
:1005700080839FBF81E090E0DF91CF911F910F9129
:10058000FF90EF900895F62E0B8D10E00F5F1F4F38
:100590000F731127E02E8C8D8E110CC00FB607FC47
:1005A000FACFE889F989808185FFF5CFCE010E94D5
:1005B0007A02F1CFEB8DEC0FFD2FF11DE35AFF4FC7
:1005C000F0829FB7F8940B8FEA89FB898081806263
:1005D000CFCFCF93DF93EC01888D8823B9F0AA8920
:1005E000BB89E889F9898C9185FD03C0808186FDEE
:1005F0000DC00FB607FCF7CF8C9185FFF2CF80813D
:1006000085FFEDCFCE010E947A02E9CFDF91CF9135
:100610000895833081F028F4813099F08230A9F078
:1006200008958730A9F08830C9F08430B1F4809102
:1006300080008F7D03C0809180008F778093800041
:10064000089584B58F7784BD089584B58F7DFBCFE1
:100650008091B0008F778093B00008958091B000B2
:100660008F7DF9CFCF93DF93282F30E0F901E2554A
:10067000FF4F8491F901E656FF4FD491F901EA57F3
:10068000FF4FC491CC23A1F081110E940903EC2FEC
:10069000F0E0EE0FFF1FE458FF4FA591B491EC91ED
:1006A000ED2381E090E009F480E0DF91CF9108959F
:1006B00080E090E0FACF1F93CF93DF93282F30E0B4
:1006C000F901E255FF4F8491F901E656FF4FD491AD
:1006D000F901EA57FF4FC491CC23A9F0162F8111DD
:1006E0000E940903EC2FF0E0EE0FFF1FEE58FF4FC2
:1006F000A591B4918FB7F894EC91111108C0D095E1
:10070000DE23DC938FBFDF91CF911F910895DE2B05
:10071000F8CFCF93DF9390E0FC01E656FF4F249192
:100720008A579F4FFC0184918823D1F090E0880F75
:10073000991FFC01E859FF4FA591B491FC01EE58B7
:10074000FF4FC591D49161110EC09FB7F8948C9161
:10075000E22FE0958E238C932881E223E8839FBFCC
:10076000DF91CF9108958FB7F894EC91E22BEC9341
:100770008FBFF6CF8E508770806480937C0080910D
:100780007A00806480937A0080917A0086FDFCCFA5
:10079000809178009091790008953FB7F894809106
:1007A000A7019091A801A091A901B091AA0126B535
:1007B000A89B05C02F3F19F00196A11DB11D3FBF99
:1007C000BA2FA92F982F8827BC01CD01620F711D68
:1007D000811D911D42E0660F771F881F991F4A9562
:1007E000D1F708958F929F92AF92BF92CF92DF92EE
:1007F000EF92FF924B015C010E94CD036B017C01E3
:100800000E94CD036C197D098E099F09683E7340D3
:1008100081059105A8F321E0821A9108A108B10889
:1008200088EEC80E83E0D81EE11CF11C81149104EF
:10083000A104B10429F7FF90EF90DF90CF90BF9013
:10084000AF909F908F9008952FB7F8946091A30177
:100850007091A4018091A5019091A6012FBF0895E8
:10086000089520917F01260F3327331F2132310550
:10087000ECF420914402FC0190E080E0243069F027
:1008800082E00895A0917F012191AC01415A5E4F11
:10089000A40FB52FB11D2C930196861798F3809164
:1008A0007F01680F60937F0180E0089581E00895E3
:1008B0001092440281E08093430210921E0261E094
:1008C00082E10E945B0361E083E10E945B03E9EB4C
:1008D000F0E080818E7F808380818D7F808388E4BB
:1008E0008093B80085E48093BC00089510921D02A7
:1008F00010921C0210924B0210926D020E9458043A
:1009000086E990E090931B0280931A0287E990E0B9
:1009100090931902809318020895CF93DF9391E08A
:1009200090935E018823B9F0C091B800D091BA00CD
:100930008091BC008A7B8093BC0060E082E10E94D1
:100940005B0360E083E10E945B030E945804D09344
:10095000BA00C093B800DF91CF910895CF92DF9293
:10096000EF92FF920F931F93CF93DF93D0916D027D
:1009700081E0D13208F09CC0C0916C020E94CD038E
:100980006B017C018091440281116CC082E08093F4
:10099000440281E0809343028FEF809342021092E1
:1009A0004102D0934002ACE4B2E0E0E2F2E080E049
:1009B000D8138DC010921F0280911F02CC0FC82B3C
:1009C000C0931F0280911E02813009F084C01092F2
:1009D0001E020E94CD036B017C0180911F02809357
:1009E000BB008091460290914702A0914802B091CD
:1009F0004902892B8A2B8B2BA1F00E94CD030091F9
:100A000046021091470220914802309149026C1928
:100A10007D098E099F09061717072807390708F46B
:100A200042C08091BC0083FDD8CF85EC8093BC0090
:100A30000E94CD036B017C0180914402823009F455
:100A40004CC0809142028F3F09F469C080914202FC
:100A5000803209F466C080914202803309F463C099
:100A600084E026C08091460290914702A0914802FE
:100A7000B0914902892B8A2B8B2B09F483CF0E94DA
:100A8000CD03009146021091470220914802309117
:100A900049026C197D098E099F0906171707280757
:100AA000390708F06FCF809145020E948D0485E0E0
:100AB00010924B0210926D0210924A02DF91CF9178
:100AC0001F910F91FF90EF90DF90CF9008959D912F
:100AD00091938F5F6DCF85EEA9CF80914602909163
:100AE0004702A0914802B0914902892B8A2B8B2B97
:100AF00009F4A2CF0E94CD03009146021091470253
:100B000020914802309149026C197D098E099F0994
:100B1000061717072807390708F08ECFC4CF80E0E3
:100B2000C7CF82E0C5CF83E0C3CFCF92DF92EF92F1
:100B3000FF920F931F93CF93DF93D82FC62F61326D
:100B400008F098C00E94CD036B017C0180914402A3
:100B500081116BC081E080934402809343029FEF38
:100B600090934202109241029C0F90934002809316
:100B70001F0280911F02DD0FD82BD0931F0280919E
:100B80001E02813009F078C010921E020E94CD032F
:100B90006B017C0180911F028093BB008091460213
:100BA00090914702A0914802B0914902892B8A2B6B
:100BB0008B2BA1F00E94CD030091460210914702B9
:100BC00020914802309149026C197D098E099F09D4
:100BD000061717072807390708F448C08091BC009A
:100BE00083FDD8CF85EC8093BC000E94CD036B01C0
:100BF0007C0180914402813009F440C0809141021F
:100C00008C1710F4C0914102E0E2F2E0A8EFB1E0ED
:100C100080E08C1355C08C2FDF91CF911F910F91E5
:100C2000FF90EF90DF90CF900895809146029091D1
:100C30004702A0914802B0914902892B8A2B8B2B45
:100C400009F484CF0E94CD0300914602109147021F
:100C500020914802309149026C197D098E099F0943
:100C6000061717072807390708F070CF809145024B
:100C70000E948D04C0E0CFCF85EEB5CF80914602B3
:100C800090914702A0914802B0914902892B8A2B8A
:100C90008B2B09F4AECF0E94CD0300914602109138
:100CA000470220914802309149026C197D098E0952
:100CB0009F09061717072807390708F09ACFD6CFDC
:100CC00091919D938F5FA5CF0895E0911D02809132
:100CD0001C02E81730F4F0E0E850FE4F808190E00D
:100CE00008958FEF9FEF0895CF92DF92EF92FF92DA
:100CF0000F931F93CF93DF937C01CB018A01209147
:100D00004A02222389F0EB016B01C40ED51ECC15DB
:100D1000DD0569F06991D701ED91FC910190F081B9
:100D2000E02DC7010995F3CF642F0E943104C8015B
:100D3000DF91CF911F910F91FF90EF90DF90CF90B7
:100D40000895CF93DF931F92CDB7DEB769832091CB
:100D50004A022223F9F020916D02203258F021E05E
:100D600030E0FC013383228390E080E00F90DF913C
:100D7000CF91089580914B02E82FF0E0E45BFD4FA6
:100D8000998190838F5F80934B0280936D0281E005
:100D900090E0ECCF61E0CE0101960E943104F7CFE4
:100DA000682F8CE093E00C94A106682F8CE093E010
:100DB0000C94A106E62FF0E023E0F595E7952A953F
:100DC000E1F7E80FF91F8081677020E830E002C08A
:100DD000359527956A95E2F7442319F0282B20834F
:100DE000089520952823FBCF5F926F927F928F9278
:100DF0009F92AF92BF92CF92DF92EF92FF920F93AA
:100E00001F93CF93DF93CDB7DEB728970FB6F89433
:100E1000DEBF0FBECDBF8C01562ED42ED61A6D2C40
:100E2000712C730147E0E40EF11C93E0F594E79414
:100E30009A95E1F7CE2CCC0CCC0CCC0CCD181982A9
:100E4000B12CA12C20E8822E912CA614B7045CF0C2
:100E5000DE011196F801E00EF11EEE15FF0541F1DD
:100E60008D918193FACF6A2D252D2A0DE22FF0E086
:100E700083E0F595E7958A95E1F7E00FF11F808112
:100E800090E02770A40102C0559547952A95E2F796
:100E90009A018423932341E0892B09F440E06C0DEF
:100EA000CE0101960E94DA065FEFA51AB50ACDCFF2
:100EB0008D2D28960FB6F894DEBF0FBECDBFDF9103
:100EC000CF911F910F91FF90EF90DF90CF90BF9047
:100ED000AF909F908F907F906F905F900895DF927A
:100EE000EF92FF920F931F93CF93DF931F92CDB793
:100EF000DEB74091B601442309F458C08091B40193
:100F0000882309F453C09091B701907F21F180911B
:100F1000C6019091C701892B09F448C060E08CEBB1
:100F200091E00E94F406482F8093B6018091B701AA
:100F3000E091C601F091C7012091CC013091CD0123
:100F40006CEB71E085FF04C081E090E009952EC054
:100F500090E080E0FBCF4817E9F08F3FD9F0809117
:100F6000C6019091C701892B09F160E08CEB91E0FB
:100F70000E94F4068093B6012091CC013091CD01FE
:100F8000E091C601F091C701482F6CEB71E082E05F
:100F900090E0DCCF8091B501811111C08091C40136
:100FA0009091C50160E0892B09F0ABC00F90DF91F3
:100FB000CF911F910F91FF90EF90DF9008954430F3
:100FC00069F34830F1F54091BC01242F2F7029833B
:100FD00030E0C901F4E0880F991FFA95E1F750EF6E
:100FE0008527822B932B4817190679F4E091C401C9
:100FF000F091C5013097D1F24091CA015091CB01D7
:1010000064E0CE0101960995D1CF8091C6019091FF
:10101000C70148E0892B51F260E08CEB91E00E941F
:10102000F4068093B6012091CC013091CD01E0917E
:10103000C601F091C701482F6CEB71E084E090E0AD
:1010400085CF4A3119F0423209F075C0642F70E043
:10105000DB011196B595A79590E080E0D12C00E8D2
:1010600010E0A817B907E1F09C0153E035952795EA
:101070005A95E1F724543E4FF901208130E0582F72
:101080005770780102C0F594E7945A95E2F72E2143
:101090003F2151E0232B09F450E0D5260196E1CF02
:1010A000842F869590E050E000E810E086179707BF
:1010B000DCF4DC0123E0B595A7952A95E1F7A4546B
:1010C000BE4F2C9130E0F82FF770D80102C0B595D3
:1010D000A795FA95E2F72A233B23F1E0232B09F4A5
:1010E000F0E05F270196E2CFD1101DC05523D9F063
:1010F0008091C4019091C501892B09F457CF4150CB
:1011000061E08CEB91E00E94F4068093B60140917F
:10111000CA015091CB01E091C401F091C501682F43
:101120008CEB91E070CF8091C6019091C701892B23
:1011300009F072CF3BCF8091C6019091C701892BF6
:1011400009F434CF60E08CEB91E00E94F4068093C8
:10115000B6012091CC013091CD01E091C601F09112
:10116000C701482F6CEB71E083E090E0EFCE0E9466
:101170006F071092B6019091B701892F8F7093700D
:10118000933019F48093B70108958061FBCF0F93DA
:101190001F930E9424040091B8011091B90120917D
:1011A000BA013091BB01601B710B820B930B6A314A
:1011B00071058105910520F01F910F910C94B708DE
:1011C0001F910F9108951F93CF93DF93D82F162F60
:1011D000C1E08111C2E00E94C7088091B7018C2351
:1011E00091E009F490E0911709F44AC00E942404A8
:1011F0006093B8017093B9018093BA019093BB01D9
:101200008091B7011123F9F08C2B8093B701809165
:10121000B701982F93709330B9F582FF22C0609187
:10122000B601603498F080628093B7018091B40178
:10123000882331F19091B601891322C0DF91CF91BB
:101240001F910C94B708C0958C23DFCF81E0860FE7
:101250008093B6014D2F41708CEB91E00E94DA062D
:10126000E5CF8B7084618093B701E091C801F09164
:10127000C9016091CE017091CF0181E0309741F5B5
:10128000DF91CF911F9108959111FACF82FFF8CF8E
:1012900080618093B7010E946F071092B601909110
:1012A000B701892F8F7093709330B1F48093B70199
:1012B0008091B7018B708093B701E091C801F091E4
:1012C000C9013097E9F26091CE017091CF0180E0C1
:1012D000DF91CF911F9109948061E8CFFF920F9326
:1012E0001F93CF93DF93EC01FB01142FCB01BE01C1
:1012F000615F7F4F9F01215F3F4FF62E072FDC017B
:101300004D91CD01DB014D93BD0182179307B9F7D4
:101310008185928589279385892794858927958555
:10132000892796858927978589278F8BED81FE816F
:101330008081811120C08FE692E00E94E90260E086
:101340008FE00E945B034FE050E06F2D702F8FE61F
:1013500092E00E94FC0164E070E080E090E00E9476
:10136000F20361E08FE00E945B038FE692E00E944F
:10137000E90281E089831A830E94240469877A87BD
:101380008B879C871E861D86DF91CF911F910F91C1
:10139000FF90089520912603209344036093450312
:1013A000E0912903F0912A03A6E4B3E09F012A5FAC
:1013B0003F4F51915D93E217F307D9F710924C0319
:1013C000FC01ADE4B3E0069621912D93E817F907EF
:1013D000D9F764E473E086E293E00C946E090F930E
:1013E0001F93CF93DF938C01C62FD42F83E00E94ED
:1013F0008C006C2F8CE093E00E94A106F8016181C3
:101400008CE093E00E94A1066D2F8CE093E00E9497
:10141000A106F80161816C276D278CE093E00E94A2
:10142000A1060E94AE04C82F61E070E080E090E069
:101430000E94F20381E0C11180E0DF91CF911F9102
:101440000F910895FC0121E030E001C0220F6A9560
:10145000EAF78185442339F0282B281719F081E019
:1014600080872187089520952823F7CFCF93DF9396
:1014700097E2899FE0011124C15DD94F6230B1F03C
:101480006330D9F040E0613009F441E060E0CE0122
:101490000E94220A40E062E0CE010E94220A40E05F
:1014A00061E0CE01DF91CF910C94220A40E060E030
:1014B000CE010E94220A41E0EECF40E060E0CE0182
:1014C0000E94220A40E062E0CE010E94220A41E02E
:1014D000E7CF1F93CF93DF93EC01162F4B81411180
:1014E00002C0662329F06BE0CE010E94EF098C83D5
:1014F0004A81411102C0112339F06CE0CE01DF9125
:10150000CF911F910C94EF09DF91CF911F91089516
:10151000CF93DF93EC0188810E948C0060E08CE027
:1015200093E00E94A1060E94AE048111F4CFDF91E6
:10153000CF910895FF920F931F93CF93DF938C0168
:10154000EB01F42E0E94880AF80180810E948C0031
:101550008D2F90E00E94D506CE0199270E94D506D6
:101560006F2D8CE093E00E94A1060E94AE048823B8
:1015700039F08FEFDF91CF911F910F91FF90089578
:1015800081E0F8CFE62FF0E0379623E0F595E79578
:101590002A95E1F72E2F382FE555FE4FDC018A2FD3
:1015A000831B821718F48D918293F9CF683111F063
:1015B000603299F48091AB019091AC01A091AD01A2
:1015C000B091AE018093AF019093B001A093B101AF
:1015D000B093B2016E5F6093B301089582E00E9400
:1015E000320361E0892B09F460E080E00E94E308A7
:1015F00083E00E94320361E0892B09F460E081E01E
:101600000C94E3081F93CF93DF93EC01162F0E94F5
:10161000240444E0149F90011124C20FD31F688357
:1016200079838A839B83DF91CF911F910895FC0179
:10163000938190FF0DC091FF04C092FB882780F931
:1016400008958281823020F4878191E0892708956E
:1016500080E00895FC01938190FF0CC091FF04C0CD
:1016600092FB882780F9089582818250833010F49C
:101670008781089580E00895882389F087E2689F34
:10168000F0011124E15DF94F808190E0882311F091
:101690009185987081E091110AC080E00895809151
:1016A00013069091140680579F4F0C942A0B0895AF
:1016B0000F931F93CF938823A9F087E2689FF001CF
:1016C0001124E15DF94F8081C0E0882331F0C185AC
:1016D000C1FD20C0C2FD20C0C1708C2FCF911F91D1
:1016E0000F9108950091130610911406C8018856B1
:1016F0009F4F0E942A0BC82FC80180569F4F0E94FF
:101700002A0B8111C2E0C80188559F4F0E942A0B05
:10171000882319F3C3E0E1CFC2E0DFCFFC012381CE
:1017200020FF0CC022812250233028F40E942A0B73
:1017300091E0892708950E94170BFACF81E0089560
:101740001F93CF93DF93EC0188E60E948C0060E04A
:101750008CE093E00E94A1062D811AE0822F612F78
:101760000E94853B682F660F680F660F620F8CE042
:1017700093E00E94A1062C81822F612F0E94853B5D
:10178000682F660F680F660F620F8CE093E00E946F
:10179000A1062B81822F612F0E94853B682F660F47
:1017A000680F660F620F8CE093E00E94A10660E074
:1017B0008CE093E00E94A1062A81822F612F0E9473
:1017C000853B682F660F680F660F620F8CE093E011
:1017D0000E94A1062981822F612F0E94853B682FDC
:1017E000660F680F660F620F8CE093E00E94A106FF
:1017F0002881822F612F0E94853B682F660F680F1A
:10180000660F620F8CE093E00E94A106DF91CF91FA
:101810001F910C94AE04CF93DF93D62FC42FFC01FD
:10182000808180620E948C006D2F8CE093E00E948A
:10183000A1066C2F8CE093E00E94A106DF91CF916E
:101840000C94AE04CF93DF93EC0168830E9476047E
:10185000888180620E948C000E94AE0481110CC0BD
:1018600040E060E0CE010E940B0C4FEF61E0CE0142
:10187000DF91CF910C940B0CDF91CF9108950895D7
:10188000DC019C96EC919C979D962C91E21730F48C
:10189000E80FF92FF11D848590E008958FEF9FEFF9
:1018A0000895FC0194A585A52FEF3FEF981740F40C
:1018B000DF01A90FB11D1C962C9130E09F5F94A70A
:1018C000C9010895FC0185A594A5891B990B08956C
:1018D000CF92DF92EF92FF920F931F93CF93DF93FC
:1018E0006C01EB017B01E40EF51E10E000E0CE156B
:1018F000DF0561F06991D601ED91FC910190F081D5
:10190000E02DC6010995080F191FF1CFC801DF911D
:10191000CF911F910F91FF90EF90DF90CF9008959E
:1019200090E080E008950E94950510921D0280933A
:101930001C02089588E60E948C0060E08CE093E031
:101940000E94A1060E94AE0461E070E088E690E08B
:101950000E94930C0E94AB00805887FB882780F977
:1019600008951F93CF93DF93D82F83E00E948C00BC
:1019700069E08CE093E00E94A1066D2F8CE093E07B
:101980000E94A10689E08D2790E00E94D0060E9467
:10199000AE04C82F61E070E080E090E00E94F203A6
:1019A000CC2341F01092770510927805DF91CF910A
:1019B0001F91089563E070E083E090E00E94930C33
:1019C00011E090911C0280911D029817C1F0C23065
:1019D00048F40E94AB00EC2FF0E0E159FA4F808709
:1019E000CF5FEFCF0E94AB00209177053091780553
:1019F000232711E02817190699F310E0F1CF1123DE
:101A000089F22091780530E0322F22276091770506
:101A1000260F311DC9016AE070E00E94913B6150C0
:101A200071096336710510F684E0D89FE001112436
:101A3000C758DA4FB90190E080E00E94093A20E0EF
:101A400030E040E251E40E946139688379838A83FF
:101A50009B83ACCF0F931F93CF93DF93EC01162F93
:101A600083E00E948C00612F8CE093E00E94A1062D
:101A700069818CE093E00E94A1068981812790E032
:101A80000E94D0060E94AE04082F61E070E080E062
:101A900090E00E94F203011124C063E070E083E053
:101AA00090E00E94930C11E090911C0280911D0225
:101AB0009817A9F0023040F40E94AB00FE01E00F3D
:101AC000F11D81A30F5FF0CF0E94AB0029A13AA1C5
:101AD000232711E028171906A9F310E0F3CF1111FD
:101AE00003C019A21AA210E0812FDF91CF911F919C
:101AF0000F910895CF92DF92FF920F931F93CF9390
:101B0000DF936C0188E60E948C0060E08CE093E03B
:101B10000E94A1060E94AE0467E070E088E690E0B3
:101B20000E94930C0E94AB008F77282F30E094E046
:101B3000359527959A95E1F7922F990F990FC22F16
:101B4000C91BCC0FC80F0E94AB009C0144E0359527
:101B500027954A95E1F72F703327922F990F990F08
:101B6000D22FD91BDD0FD80F0E94AB009C0154E08F
:101B7000359527955A95E1F72F703327922F990FB6
:101B8000990F122F191B110F180F0E94AB000E9402
:101B9000AB009C0164E0359527956A95E1F72F70BD
:101BA0003327922F990F990F022F091B000F080F4F
:101BB0000E94AB009C0174E0359527957A95E1F77A
:101BC0002F703327922F990F990FF22EF91AFF0CCD
:101BD000F80E0E94AB009C01E4E035952795EA954C
:101BE000E1F72F703327922F990F990F291B220F9E
:101BF000820FF6018083F18202831383D483C5832D
:101C0000C601DF91CF911F910F91FF90DF90CF9090
:101C100008950F931F93CF93DF9300D000D000D08F
:101C2000CDB7DEB78C010E949A0C882331F1CE012A
:101C300001960E947A0D298130E0F801868190E0BA
:101C400028173907E0F028173907B9F49A818781F6
:101C50009817A8F0981311C09B818085981778F089
:101C600098130BC09C818185981748F0981305C084
:101C700081E02D819285291718F080E001C081E074
:101C800026960FB6F894DEBF0FBECDBFDF91CF9181
:101C90001F910F9108951F93CF93DF93EC01162F9F
:101CA000888180620E948C00612F8CE093E00E940A
:101CB000A1060E94AE048881806261E070E090E03D
:101CC0000E94930C0E94AB00DF91CF911F91089569
:101CD000CF93C62FC770683060F063E10E944B0E4F
:101CE00090E002C095958795CA95E2F78170CF91F3
:101CF000089562E1F3CF413059F058F0433071F06C
:101D0000862F0E94320321E0892B41F0822F089513
:101D100001960E94680E21E08111F8CF20E0F6CFF5
:101D2000FF920F931F93CF93DF93EC01162F042F95
:101D3000862F8770F82E64E1183008F065E1CE0137
:101D40000E944B0E41E050E060E070E004C0440FA0
:101D5000551F661F771FFA94D2F7002369F0482BAE
:101D600062E1183008F063E1CE01DF91CF911F915D
:101D70000F91FF900C940B0C40954823F1CFFC0180
:101D8000862F413051F028F0433059F0622F0C94E7
:101D90005B03422FCF010C94900E422FCF0101968E
:101DA000FACF0895FC01262F938190FF17C08281FE
:101DB0008250833098F4A481B5814181608191FF84
:101DC00007C092FB222720F92783CD010C94BF0E78
:101DD00081E0211101C080E08783F7CF08954F9201
:101DE0005F926F927F928F929F92AF92BF92CF92AB
:101DF000DF92EF92FF920F931F93CF93DF93182FF1
:101E0000F62ED42E80911106909112062091F001A9
:101E1000211112C0FC01EF54FF4F608140E65AEEE1
:101E2000649F9001659F300D11243093EF01209342
:101E3000EE0121E02093F0018C549F4FFC01808142
:101E40009091E60191110EC048EE53E0849F9001FD
:101E5000859F300D11243093E5012093E40191E03A
:101E60009093E60181117FC0C0911506D0911606AE
:101E700007E0010F0E942404F4E00F9F5001112499
:101E8000CA0DDB1D488059806A807B80AB01BC0194
:101E900044195509660977098091EE019091EF0187
:101EA000B0E0A0E0CC24C394481759076A077B0729
:101EB00008F4C12CC12FD0E0E0911106F091120678
:101EC000E055FF4F8081C052DA4F813091F4F1101C
:101ED00010C081E0D8120DC0FE01EE5BFF4FD08232
:101EE000602F80911506909116060E94020BCC245B
:101EF000C3944E01E2E48E0E911CF401808188238C
:101F000009F469C0E0901506F09016060E942404BA
:101F1000EA0CFB1CF70140805180628073806419D9
:101F2000750986099709693E73408105910508F492
:101F300052C0F4011082111110C0E0911106F0910D
:101F40001206EB58FF4F8081882309F44AC0CE5B0C
:101F5000DF4F888163E0811101C06D2D812F0E94C8
:101F6000360A602F74C0F1107FCFC0911506D09152
:101F700016060E9424042AE0210F44E0249F9001C9
:101F80001124C20FD31F88809980AA80BB80AB0127
:101F9000BC01481959096A097B098091E4019091B3
:101FA000E501B0E0A0E0481759076A077B0708F091
:101FB0005BCF80E0DF91CF911F910F91FF90EF9069
:101FC000DF90CF90BF90AF909F908F907F906F9059
:101FD0005F904F900895CC2061F3112309F4ADCFA9
:101FE000B6CFC0911306D0911406FE01E556FF4FFF
:101FF000208120FF32C03896208120FF2EC03896E5
:10200000208120FF2AC07E01F8E9EF0EF11C8E012D
:1020100000561F4FC855DF4F22E0D21651F143E062
:10202000D41641F081E060E0D8121AC080912206F7
:102030008823A9F060E0C7010E94D20E60E0C801C9
:102040000E94D20E61E0CE010E94D20E67E0809124
:102050001506909116060E94020B81E0ABCF61E05D
:10206000C7010E94D20E60E0C8010E94D20E60E05B
:10207000EACF60E0C7010E94D20E61E0C8010E9471
:10208000D20E60E0CE010E94D20ED4CF8F929F92EA
:10209000AF92BF92DF92EF92FF920F931F93CF9375
:1020A000DF93D82FC62FD42EE22E0E943C0BF82EA1
:1020B0008091DC0181111CC0809111069091120663
:1020C000EBE3F11001C0ECE3E80FF92FF11DE0594B
:1020D000FF4F408120E63AEE429FC001439F900DA2
:1020E00011249093DB018093DA0181E08093DC017D
:1020F000A0901506B09016061AE01C0F0E9424044A
:1021000044E0149F90011124A20EB31EF5018080BB
:102110009180A280B380AB01BC01481959096A09BA
:102120007B098091DA019091DB01B0E0A0E04817D3
:1021300059076A077B0708F48AC0011108C06DE0DF
:102140006C0F80911506909116060E94020BF2E02A
:10215000FE1510F1F01609F47AC0612F8091150672
:10216000909116060E94020BDD2309F43EC027E27F
:10217000C29FC0011124402F63E0815D994FDF9120
:10218000CF911F910F91FF90EF90DF90BF90AF9094
:102190009F908F900C94220A43E0E41258C0F016EE
:1021A00009F455C0612F80911506909116060E9482
:1021B000020BEC2EF12C87E1E80EF11C83E0EE0C13
:1021C000FF1C8A95E1F7D11024C0809113069091ED
:1021D000140660E08E0D9F1D0E94D20EDD2329F0B3
:1021E000E7E2CE9FC0011124C6CF809113069091E3
:1021F0001406602F80579F4FDF91CF911F910F9151
:10220000FF90EF90DF90BF90AF909F908F900C94D5
:10221000D20EDD2391F0F7E2CF9FC001112440E000
:1022200063E0815D994F0E94220A8091130690918C
:102230001406602F8E0D9F1DDFCF809113069091A5
:10224000140660E080579F4F0E94D20EEECFDF91C0
:10225000CF911F910F91FF90EF90DF90BF90AF90C3
:102260009F908F900895811128C061E082E00E94C4
:10227000BE0082E00E94D3018091BF049BEF980FC3
:102280009F3128F48093460681E080933406809144
:10229000C9049BEF980F9F3128F480936D0681E06D
:1022A00080935B068091D3049BEF980F9F3128F4B5
:1022B0008093940681E080938206E091D505F091A9
:1022C000D605838180FF0FC0418160818CE695E057
:1022D0000E947B0E811107C061E08091D50590912D
:1022E000D6050C94D20E08958F929F92AF92BF9212
:1022F000CF92DF92EF92FF920F931F93CF93DF93D2
:10230000EC018C0108581F4F88549E4F7C01FE0140
:10231000E657FE4F6F01662381F061E0C8010E941D
:10232000D20E63E0C7010E94020BF601808180FF9C
:1023300045C081E0EF51FF4F8083F601808180FF2F
:102340003DC00E942404F70184849584A684B78448
:10235000681979098A099B09653F714081059105D2
:1023600088F05E0125E9A21A2DEFB20AF5018081FD
:10237000813041F460E0C8010E94D20EF5018081F5
:102380008F5F80830E942404F70184849584A6844F
:10239000B784681979098A099B09693E73408105E8
:1023A000910560F0C559DD4F8881823039F461E0D4
:1023B000C8010E94D20E88818F5F88830E94240406
:1023C0004B015C01F601208130E0A8EEB3E00E94F1
:1023D000E038F701C484D584E684F7848C189D081E
:1023E000AE08BF08681579058A059B05A8F4C801E1
:1023F0000E942A0B882381F060E0C801DF91CF9111
:102400001F910F91FF90EF90DF90CF90BF90AF9012
:102410009F908F900C94D20EDF91CF911F910F91CE
:10242000FF90EF90DF90CF90BF90AF909F908F90F4
:1024300008954F925F926F927F92AF92BF92DF9218
:10244000EF92FF920F931F93CF93DF93EC018C01D8
:1024500000591F4FFC01E25AFD4FD080DA94DA9404
:102460009C0129543E4F7901662381F031E03D15EE
:1024700068F461E0C8010E94D20E66E0CE01885483
:102480009E4F0E94020B81E0F7018083F70180815B
:10249000882361F10E9424045E01F7E9AF1AFDEF81
:1024A000BF0AF50140805180712C612CE15BF1097C
:1024B000208D318D428D538D621B730B840B950BD8
:1024C000461657066806790630F460E0C8010E9497
:1024D000D20EF7011082F50180819181892B11F4D0
:1024E000F7011082F7018081811162C0F1E0FD15D2
:1024F00008F440C0CE01885A9F4F0E94170B9E01DE
:1025000028543E4F7901882349F066E0C9010E94B2
:10251000020B81E0FE01E25AFF4F80830E942404F7
:10252000F701408C518C628C738C64197509860993
:1025300097096739710581059105D0F1C25ADF4FBE
:1025400088818823A9F11882C8010E942A0B61E0C2
:10255000811160E0C801DF91CF911F910F91FF9031
:10256000EF90DF90BF90AF907F906F905F904F9013
:102570000C94D20EFE01E759FD4F80819181892B89
:1025800029F50E942404C854DE4F488C598C6A8C6B
:102590007B8C641975098609970961337547810534
:1025A000910530F060E0C8010E94D20EF701108260
:1025B000DF91CF911F910F91FF90EF90DF90BF902F
:1025C000AF907F906F905F904F900895CB56DE4F05
:1025D00088818250823060F7BCCF61E084E793E06D
:1025E0000E94741161E084E793E00C941912FF9249
:1025F0000F931F93CF93DF93EC01162FF42E01E07E
:10260000683008F400E0602FCE010E944B0E177076
:1026100041E050E060E070E004C0440F551F661FC9
:10262000771F1A95D2F7F1100AC0482B602FCE0100
:10263000DF91CF911F910F91FF900C940B0C40955F
:102640004823F4CFCF93DF93EC01962F688349831F
:102650008B8181608B832C813D818A81823028F53A
:102660004130F1F038F0433051F060E0892F0E94A2
:10267000890305C040E0692FC9010E94F71260E09C
:10268000CE010E94D20E8B8180FF1AC049816881E1
:102690008C819D810E947B0E8F83DF91CF91089565
:1026A00040E0692FC9010196E8CF413039F020F0B0
:1026B000433029F361E0DACF41E0DDCF41E0F1CFF3
:1026C00080E0EACF0F931F93CF93DF93EC018B0150
:1026D0000E94880A88810E948C00812F90E00E94CD
:1026E000D506C80199270E94D5060E94AE0461E074
:1026F00088810E94950510921D0280931C020E9401
:10270000AB00DF91CF911F910F910895EF92FF924F
:102710001F93CF93DF937C01EB01142FFC01828187
:10272000882379F0C7010E9462131817C1F0412F66
:10273000BE01C701DF91CF911F91FF90EF900C94E4
:102740009A0ACB010E947638181749F0612FCE0102
:10275000DF91CF911F91FF90EF900C947E38DF9125
:10276000CF911F91FF90EF900895CF92DF92EF925B
:10277000FF920F931F93CF93DF936C012BE0C20E58
:10278000D11C9B012A5F3F4FF601DB014D91BD013A
:102790004193A217B307C9F710E000E07C01BAE645
:1027A000EB0EF11CEC01C554DF4FF60141916F01B6
:1027B000D7016D917C91655B7F4F600F711F8881A0
:1027C00099810E9486130F5F1F4F0630110569F72C
:1027D000DF91CF911F910F91FF90EF90DF90CF90FD
:1027E00008953F924F925F926F927F928F929F9245
:1027F000AF92BF92CF92DF92EF92FF920F931F930F
:10280000CF93DF93CDB7DEB728970FB6F894DEBF2E
:102810000FBECDBFFC01E259FF4F0081118129E0BD
:10282000629F000D111D1124312CE35BFF4FFA83D1
:10283000E9839C014BE0649F200D311D11243887F2
:102840002F832F5E3F4F3C832B838F8198854B9640
:102850009E838D834F8058849AE1490E511C6F806E
:102860007884E9E16E0E711CEF80F884F8E1EF0ED8
:10287000F11CCF80D88427E1C20ED11CAF80B88470
:1028800034E1A30EB11C8F80988443E1840E911C27
:102890008F819885429698878F83E981FA8180811C
:1028A0009181EFEFE30DE83068F4F0E0E65AFB4E7B
:1028B0000C94A53B861489148B148D148F149114D9
:1028C00093149514EB81FC814081B8010E9486131A
:1028D00033940F5F1F4FF9E03F12DFCF28960FB6FA
:1028E000F894DEBF0FBECDBFDF91CF911F910F9146
:1028F000FF90EF90DF90CF90BF90AF909F908F9020
:102900007F906F905F904F903F900895EF81F88592
:10291000DBCFF401D9CFF501D7CFF601D5CFF70141
:10292000D3CFF301D1CFF201CFCFED81FE81CCCF58
:10293000FC01EF58FF4F40E021E0319143272F5F2A
:102940002B34D9F7FC01E759FF4F40833196608162
:1029500071816150710985549F4FFC018081918183
:102960000C9486131F93CF93DF93EC01162F70E026
:10297000FC01E60FF71FE059FF4F4083FC01E659C9
:10298000FF4F80819181680F791FEF5AFF4F80813F
:1029900091810E948613A895112331F0CE01DF9119
:1029A000CF911F910C949814DF91CF911F910895AE
:1029B000CF93462FFC012281222329F06CE677E099
:1029C000CF910C949A0AC62F8CE697E00E94763835
:1029D000C81731F06C2F8CE697E0CF910C947E38BD
:1029E000CF910895FC01228121110C946213CB0137
:1029F0000C9476382F923F924F925F926F927F9213
:102A00008F929F92AF92BF92CF92DF92EF92FF92FE
:102A10000F931F93CF93DF93CDB7DEB7A5970FB674
:102A2000F894DEBF0FBECDBF80931F060E94240422
:102A300000911B0610911C0620911D0630911E0668
:102A4000601B710B820B930B6938734181059105F3
:102A500008F427C10E94240460931B0670931C068F
:102A600080931D0690931E0680911F06809011068C
:102A700090901206813009F46DC208F400C38230D0
:102A800009F4A0C20091E0051091E105D8011A9661
:102A90004D915D916D917C911D97409305065093EA
:102AA000060660930706709308061E964D915D9189
:102AB0006D917C9151974093090650930A0660935B
:102AC0000B0670930C0652964D915D916D917C9121
:102AD000559740930D0650930E0660930F06709322
:102AE0001006E0911106F0911206EA56FF4FE081C0
:102AF000B4E0EB9FF0011124E052FA4F45A156A13A
:102B000067A170A5409301065093020660930306E7
:102B10007093040662EEE62E65E0F62EEFE2F6E034
:102B200084EA96E0D8012C91222309F4E2C22081A4
:102B3000222309F4DEC24785508961897289D70151
:102B40004D935D936D937D937D01B7968E179F078F
:102B500049F7A8958091110690911206FC01EA565A
:102B6000FF4F2081223008F041C0E0911306F09120
:102B70001406E055FF4FFA83E98320911F062223B4
:102B800009F4BCC289569F4FDC011C9161E0CF0162
:102B9000173351F1C0900106D0900206E090030671
:102BA000F0900406C701B6010E94463A4B015C0151
:102BB000612F70E090E080E00E940B3A9B01AC0135
:102BC000C501B4010E945C3987FF0BC020E030E0F2
:102BD0004EEF52ECC701B6010E945C3961E08111F1
:102BE00001C060E089819A810E94D20E7090210616
:102BF000072D10E0F801EE0FFF1FEE0FFF1FE05250
:102C0000FA4FC5A0D6A0E7A0F0A4C701B6010E9464
:102C1000463A4B015C01F801779653E0EE0FFF1F37
:102C20005A95E1F78091130690911406E80FF91F69
:102C3000FA83E9838091110690911206E6E3E70D8D
:102C4000E80FF92FF11DE059FF4F608170E090E02F
:102C500080E00E940B3A9B01AC01C501B4010E94C7
:102C60005C3987FF11C020E030E04EEF52ECC70125
:102C7000B6010E945C39882339F0F801EB5DF94F09
:102C8000808161E0811101C060E089819A810E94A8
:102C9000D20E809121068F5F833008F031C280937D
:102CA00021060E9424040091170610911806209115
:102CB000190630911A06601B710B820B930B6D3253
:102CC00071408105910508F49CC30E94240460931F
:102CD0001706709318068093190690931A06209091
:102CE000200622E0221508F484C3422D50E05F83C1
:102CF0004E83FA01EE0FFF1FEE0FFF1FE052FA4F57
:102D000082809380A480B58020E030E04EEF52ECCA
:102D1000C501B4010E945C39882309F46AC3EE81BD
:102D2000FF81EE0FFF1FEE0FFF1FE451FA4FF280FD
:102D3000138154815F8B85818B8B20E030E04EEFD7
:102D400052EC6F2D712F8F899B890E945C398823EB
:102D500009F44FC3A0911106B0911206BC83AB8356
:102D6000211007C0FD01EB58FF4F8081882309F433
:102D7000CAC1E091E005F091E105B081BD83E09129
:102D80001306F0911406F987E887ED56FF4F00818E
:102D9000FD810170FF2359F087E22E813F81829FE0
:102DA000F001839FF00D1124E15DF94F008121E0D6
:102DB00030E0022C01C0220F0A94EAF7809100064D
:102DC000002309F4A2C1822BEE81FF81E052FA4F69
:102DD000328D3A8FE58CEDE2E20D4B815C814E0F36
:102DE000511DFA01E059FF4F50815B8FEAE02E9EA2
:102DF000E02D1124EC5FAB81BC81AE0FB11DFD0154
:102E0000E059FF4FB081B88BEB81FC81E755FF4F54
:102E100020812A87EB81FC81E355FF4F3081388F79
:102E2000EB81FC81E255FF4F4081498B8093000686
:102E3000002309F4DEC26E2C712CB301072C000CA8
:102E4000880B990B0E940B3A6C8F7D8F8E8F9F8F12
:102E50009B01AC016F2D712F8F899B890E94133BC1
:102E600018160CF055C16E2D70E090E080E00E94C5
:102E7000093A6C877E87382EE92EEB81FC81E95474
:102E8000FF4FC080D12CB6010D2C000C880B990B84
:102E90000E940B3A2F2D312F4F895B890E94F03809
:102EA0009B01AC016C8D7D8D8E8D9F8D0E945C3958
:102EB00087FF0DC0B3016C0D7D1D072E000C880B24
:102EC000990B0E940B3AF62E172F8F8B9B8B6F2D31
:102ED000712F8F899B890E94DA398BEF860F8F3192
:102EE00068F487E2AE81BF818A9FF0018B9FF00D6D
:102EF0001124E15DF94F678B81E08583A885B98551
:102F00005B968C91BD8180FF19C3BB2309F468C116
:102F100087E22E813F81829FF001839FF00D112473
:102F2000E15DF94F30813983332321F08485882393
:102F300009F419C38885998548960E948E0B898368
:102F4000882309F410C341E04983222009F40BC30C
:102F5000198209C3A40146585F4F5A834983AAEFD7
:102F6000EA2EA5E0FA2E0EEE15E0640158E9C50E32
:102F7000D11C84E7880E911CA981BA818C91F7013C
:102F800081937F0111968C918283D4018C91E98188
:102F9000FA81811172C0608170E090E080E00E944F
:102FA000093AD8016D937D938D939C9313978981F2
:102FB0009A810A969A8389830C5F1F4FC816D90697
:102FC000D9F660CDA090E005B090E105D401A958F4
:102FD000BF4FBA83A983EAEFCE2EE5E0DE2EFEEEE8
:102FE000EF2EF5E0FF2E0FE216E0B5E98B0E911CF7
:102FF000E981FA818581D6018D936D0186811296D2
:103000008C93F5018081882351F1D8018C9188231C
:1030100031F153964D905D906D907C90569720E0E5
:1030200030E04EEF52ECC301B2010E945C398823BC
:10303000B1F0F701408251826282738229813A8124
:10304000265F3F4F3A83298334E0E30EF11C095D8C
:103050001F4F49815A818416950651F613CDA981D7
:10306000BA816C9170E090E080E00E94093AF7012B
:103070006083718382839383E1CF61818DCFF4017B
:10308000E858FF4FFA83E9837AEFE72E75E0F72ED1
:103090000EEE15E06401F6E9CF0ED11C24E7820E96
:1030A000911CA981BA818C91F70181937F011196BE
:1030B0008C918283D4018C91E981FA81811117C0AE
:1030C000608170E090E080E00E94093AD8016D9341
:1030D0007D938D939C931397E981FA813A96FA83B5
:1030E000E9830C5F1F4FCE16DF06D9F6CBCC61818A
:1030F000E8CF40E050E06EEF72EC21CD15E04ACD14
:1031000010922106CECD1D823ACE209582235CCE30
:10311000FA8DEF2FF0E0FA83E983BF01FF0F880BF0
:10312000990B0E940B3A2B013C01AC019B016F2DC6
:10313000712F8F899B890E945C3987FF4AC02A8D35
:10314000622F70E090E080E00E94093A6C877E87F1
:10315000382EE92EEB81FC81E954FF4FC080D12C41
:10316000B6010D2C000C880B990B0E940B3A9B01A9
:10317000AC016F2D712F8F899B890E94EF389B01C5
:10318000AC01C301B2010E945C3987FF0EC06981A6
:103190007A816C197D09072E000C880B990B0E940F
:1031A0000B3AF62E172F8F8B9B8B6F2D712F8F89DC
:1031B0009B890E94DA398BEF860F8F3108F09ECE03
:1031C00087E24E815F81849FF001859FF00D11247D
:1031D00090CEFC861E873F88EB8890CE8D81C0C143
:1031E0008885998548960E948E0BBCC12FEF288751
:1031F0001A861FC23FEF38871CC2113009F41DC167
:1032000048F0123009F416C3133009F430C1F12C20
:1032100016C000E04C855D8588859985481759075B
:103220000CF05BC1A989BA89A817B9070CF050C185
:10323000FF24F394EE85FF85E817F90744F320E0B7
:1032400030E0A901C301B2010E945C39881F8827C0
:10325000881F8887B889B230C1F4EB8DE33008F459
:10326000DCC220E030E0A901C301B2010E945C3958
:1032700087FD36C12C8D3D8D4E8D5F8DC501B4010E
:103280000E94133B18160CF43AC12981222321F025
:1032900000E0332009F436C187E24E815F81849FCC
:1032A000F001859FF00D1124E15DF94F50815983A4
:1032B000552319F0838582FD05C0198200E0332073
:1032C00009F422C18E819F8180529A4FA8898B5B1D
:1032D0009F4FA1111BC1FC010083E8E4E20D2B818B
:1032E0003C812E0F311DF901E059FF4F8081811182
:1032F00010C12B893C894D895E896AA17BA18CA173
:103300009DA10E94133B87FD07C1311005C101112A
:1033100006C1B981BB2309F465C000E02B8D488547
:10332000622D8D810E944610E0911106F0911206E7
:10333000EE54FF4F8081882309F4F8C08A3509F4E0
:10334000F8C09091D20191110EC040E65AEE849FD0
:103350009001859F300D11243093D1012093D0012D
:1033600081E08093D201622D8D810E94580BE82E5E
:10337000622D8D810E943C0B811134C0E0911506B5
:10338000F0911606FA83E9830DE0020D0E942404F1
:10339000F4E00F9F9001112449815A81420F531F7D
:1033A000DA018D909D90AD90BC90AB01BC014819A5
:1033B00059096A097B098091D0019091D101B0E04F
:1033C000A0E084179507A607B70760F441E06E2DCB
:1033D000822D0E94EF0E602F8091150690911606A7
:1033E0000E94020B1F1529F04F2D612F822D0E9484
:1033F000EF0E809120068F5F833008F09CC0809391
:103400002006A5960FB6F894DEBF0FBECDBFDF91A4
:10341000CF911F910F91FF90EF90DF90CF90BF90D1
:10342000AF909F908F907F906F905F904F903F9064
:103430002F900895032DEECE00E02C853D85488524
:103440005985241735070CF048C089899A89841753
:103450009507F4F5FF24F394AA85BB854A175B070B
:103460000CF4EDCED4CE032DE8CF032DE3C1AA8515
:10347000BB85E885F985EA17FB070CF0C8CE28A1C3
:1034800039A148855985421753070CF0E7C1688D6B
:10349000798D8F8954E1859F601971091124072E58
:1034A000000C880B990B0E940B3A2DEC3CEC4CEC79
:1034B0005DE30E94183B9B01AC01C701B6010E946D
:1034C000EF380E94D339A885B985A617B7072CF025
:1034D00092E0F92EB4CE032DD2CF83E0F82EAFCEFA
:1034E000FA8D6F2F70E090E080E00E940B3A9B0114
:1034F000AC01C501B4010E945C3987FFC6CE00E073
:10350000F12CC3CEF12CC8CEF12CDCCEDC011C9208
:10351000F0CEF12C00E0EDCE301609F463CF2B8D08
:103520004885622D8D810E9446105CCFFF24F39464
:1035300059CFF12C57CF1092200663CFBB2309F44B
:1035400007CD87E2AE81BF818A9FF0018B9FF00D8E
:103550001124E15DF94F8081882309F43FCE8485F1
:1035600091E089278983A50194016C857E85832D4F
:103570009E2D0E94EF382B013C0120E030E040E21C
:1035800051E40E94183B6B8B7C8B8D8B9E8B20E0D3
:1035900030E0A9010E94133B18164CF02B893C899E
:1035A0004D895E8950582B8B3C8B4D8B5E8B6A8589
:1035B000669570E090E080E00E940B3A6AA37BA3DE
:1035C0008CA39DA3E0E3E20D4B815C814E0F511D66
:1035D000FA01E059FF4F508158A38889813061F08A
:1035E000823009F03EC120E030E0A901C301B20100
:1035F0000E945C3987FF12C0E3E3E20DAB81BC811E
:10360000AE0FB11DFD01E059FF4FB081B8A3E889AD
:10361000E13009F4EBCDE23009F023C120E030E0E5
:10362000A901C301B2010E945C3987FDE3CDF1E03D
:10363000F88788A165E00E94853B8F5F8F8B58A13A
:10364000452F50E059A348A320E030E040E251E488
:103650006C857E85832D9E2D0E94183B6B017C011D
:10366000A8856A2FAA0F770B880B990B0E940B3A3B
:103670009B01AC01C701B6010E94183B6B017C01A4
:10368000BA856B2F70E090E080E00E940B3A20E05A
:1036900030E040E05FE30E94183B9B01AC01C701B2
:1036A000B6010E94EF386B017C01E8A1F9A1BF01CE
:1036B000FF0F880B990B0E940B3A20E030E040E0AE
:1036C0005FE30E94183B9B01AC01C701B6010E9459
:1036D000F0380E94D3397B876A879B0148A159A1A2
:1036E000241B350B3F872E87072E000C880B990B68
:1036F0000E940B3A6B017C01A989A451BB0BCD013F
:10370000BF89B89FB001B99F700D1124072E000C1E
:10371000880B990B0E940B3A2DEC3CEC4CEC5DE3D2
:103720000E94183B9B01AC01C701B6010E94EF3813
:103730000E94D33979A368A3E989FF89EF9FB0017B
:103740001124072E000C880B990B0E940B3A2DECCC
:103750003CEC4CEC5DE30E94183B9B01AC01C701C3
:10376000B6010E94EF380E94D3397A8B698B3F896A
:10377000288D329F90011124398F288FB901330F82
:10378000880B990B0E940B3A2DEC3CEC4CEC5DE362
:103790000E94183B9B01AC01C701B6010E94EF38A3
:1037A0000E94D3397D876C87622D8D810E94580BD2
:1037B000182F622D8D810E943C0B382E20E030E0C6
:1037C00040E251E4C501B4010E94183B0E94D33984
:1037D0004885242F440F330B269FD001279FB00D1F
:1037E000369FB00D1124B987A887EE85FF85EA17AB
:1037F000FB070CF002CD2A853B85A217B30784F4A2
:10380000113009F430CE08F415CE123009F42DCE63
:10381000133009F460CE032DFACC00E0F12C21CD59
:10382000113009F409CE08F4F4CC00E0123009F0AC
:10383000EECC00E0EC85FD8528853985E217F3079D
:103840000CF04BCE4A855B85241735070CF0DFCC96
:1038500088A199A1281739070CF43ACEFF24F394D4
:10386000EECCE1E0E887C4CC4F925F926F927F92FA
:103870008F929F92AF92BF92CF92DF92EF92FF9280
:103880000F931F93CF93DF93CDB7DEB72C970FB66F
:10389000F894DEBF0FBECDBFFC01908526E0F22E6E
:1038A0006E0127E0C20ED11CD6012F2D1D922A9544
:1038B000E9F71185028573842485E5843685913C7A
:1038C00009F4DCC208F089C0903B09F45BC138F50B
:1038D0009D3A09F432C150F4923009F40CC19A3A7D
:1038E00009F40AC1933B08F411C176C29E3A09F467
:1038F00031C19F3AB9F7A0911803B0911903A756A7
:10390000BE4FED91FC9111975BE0159FE00DF11D0D
:103910001124078B708E218FE28E338F2DC1963B41
:1039200009F465C230F5913B09F49DC1933BD1F692
:103930002091180330911903B8E01B9F5001112406
:10394000F901E556FE4F0190F081E02DEA0DFB1DD7
:103950008381982F9270A90149565E4F7A010230F7
:1039600008F40BC2992309F41BC292E089278383D0
:1039700017C29F3B09F471C2903C09F0B3CFE091AC
:103980001803F0911903E956FE4F0190F081E02DE4
:10399000B4E01B9FB0011124E60FF71F80809180D7
:1039A000A280B380C501B4010E94463A2B013C01BC
:1039B0000E94DA396F83A3019201C501B4010E940C
:1039C000EF3820E030E040E251E40E94183B0E94D2
:1039D000463A0E94DA396887FFC1983C09F4B8C2B8
:1039E000D8F5953C09F484C2E0F4923C09F45AC23B
:1039F000933C09F077CFA0911803B0911903A55615
:103A0000BE4F88E0189FB0011124ED91FC91E60FA4
:103A1000F71F80818F838181888782818987838155
:103A20002BC2963C09F47BC2973C09F05BCFE09136
:103A30001803F0911903E756FE4F0190F081E02D35
:103A400081818F83828188878381898784818A8726
:103A500085818B87868110C29C3C09F4F1C280F578
:103A6000993C09F4DCC29B3C09F03CCFF601A091E3
:103A70001803B0911903A556BE4F2D913C918E01AC
:103A8000055F1F4FD90187E090E040E013965C91FD
:103A9000139752FB662760F970E07B01082E01C086
:103AA000EE0C0A94EAF74E251896019778F74193A1
:103AB000205C3F4F0E171F0729F71B861C868CC101
:103AC0009E3C09F4E5C2903D09F00CCFE09018034C
:103AD000F090190361E0011101C060E0123009F4B7
:103AE0002EC308F017C3112309F422C3113009F0C3
:103AF00073C180E032C3FFCF19830A837B822C839A
:103B0000ED823E83CE0101960E94A00B2C960FB64B
:103B1000F894DEBF0FBECDBFDF91CF911F910F9103
:103B2000FF90EF90DF90CF90BF90AF909F908F90DD
:103B30007F906F905F904F900895E0911803F091FF
:103B40001903E756FE4F402F612F808191810E941B
:103B5000B214DCCFA0911803B0911903A756BE4F41
:103B6000ED91FC9111974BE0149FE00DF11D112494
:103B7000018B728A238BE48A612F8D919C910E9424
:103B8000F113C4CFC0901803D090190378E0179FA9
:103B90005001112489E6C81A8EEFD80AD60114966E
:103BA000ED91FC911597EA0DFB1D228314968D91E2
:103BB0009C91472D602F8A0D9B1D0E9422131F9DF3
:103BC00080011124D6011496ED91FC911597EA0D10
:103BD000FB1D4081B80116968D919C910E94861321
:103BE000D6011496ED91FC911597EA0DFB1DB801D5
:103BF0006F5F7F4F418116968D919C910E94861335
:103C0000D6011496ED91FC911597EA0DFB1DB801B4
:103C10006E5F7F4F428116968D919C910E94861314
:103C2000B8016D5F7F4F40E0F601868197810E9469
:103C30008613B8016C5F7F4F40E0D60116968D91D8
:103C40009C910E948613F60184819581A80EB91E6D
:103C5000B8016B5F7F4FD50113964C918681978198
:103C60000E94861353CFE0901803F0901903B9E631
:103C7000EB1ABEEFFB0AF70184819581F8E01F9FE4
:103C800050011124DC01AA0DBB1DFC0160E04F01B5
:103C9000881A990A208102136AC02181721267C0B2
:103CA0002C91021306C011962C911197721609F4EB
:103CB0005EC08FEF8083818313821682178226E095
:103CC000629F600111244FEFB601D70116968D91C6
:103CD0009C910E948613D7011496ED91FC91159743
:103CE000E80DF91DB6016F5F7F4F418116968D91EA
:103CF0009C910E948613F70184819581880E991EFC
:103D0000B6016B5F7F4FD40113964C9186819781EA
:103D10000E948613F70184819581472D602F8A0DBB
:103D20009B1D0E942213F6E01F9F80011124D701E2
:103D30001496ED91FC911597EA0DFB1D4081B80199
:103D400016968D919C910E948613D7011496ED9141
:103D5000FC911597EA0DFB1DB8016F5F7F4F418104
:103D600016968D919C910E948613F7016DCF6F5F1F
:103D700038966A3109F08BCFCDCF911103C092E014
:103D800089278383D7011496ED91FC91EA0DFB1DE1
:103D90009381892F809584700111E8CD9B7F938357
:103DA000F7018481958160E08A0D9B1D0E94D20EEF
:103DB000D70114968D919C91A80EB91EB6E01B9F59
:103DC000B00111246B5F7F4FF5014381D701169637
:103DD0008D919C910E948613F601AEE5B3E0CE0171
:103DE0000D9621912D938E179F07D9F78FCEA09016
:103DF0001803B0901903B8E01B9F40011124E9E6B5
:103E0000AE1AEEEFBE0AD5011496ED91FC9115970E
:103E1000E80DF91D83818E7F83831496ED91FC91CB
:103E20001597E80DF91D8FEF80831F9D80011124E8
:103E30004FEFB80116968D919C910E948613F50163
:103E400084819581880E991EB8016B5F7F4FD401E4
:103E500013964C9186819781BDCFCE0101960E9429
:103E60007A0D89818F838A8188878B8189878C816C
:103E70008A878D818B878E818C87AECFE0911803E6
:103E8000F0911903E956FE4F0190F081E02D24E0F6
:103E9000129FB0011124E60FF71F83A094A0A5A0E4
:103EA000B6A080CDE0911803F0911903E556FE4FBE
:103EB0008081918148E0149FF0011124E80FF91FDF
:103EC00020812F832181288758E0059FF00111244C
:103ED000E80FF91F2081298721812A8778E0779EC2
:103EE000F0011124E80FF91F80818B878181C4CFF5
:103EF000E0911803F0911903E756FE4F0190F0810D
:103F0000E02D9BE0199FE00DF11D112481898F8325
:103F1000828988878389898784898A875DCFE091B0
:103F20001803F0911903E756FE4F0190F081E02D40
:103F3000ABE01A9FE00DF11D112487898F83808DDE
:103F40008887818D8987828D8A87838D8B8744CFEF
:103F5000E0911803F09119039601CF0185569E4F09
:103F6000DC014D915C917E01BBE0EB0EF11C8A01FE
:103F700087E090E060E0D80113967C9170FB882484
:103F800080F8912C5401082E01C0AA0C0A94EAF77B
:103F90006A25085F1F4F019770F7D9016D939D0146
:103FA000405C5F4FEA16FB0611F7E956FE4FA08111
:103FB000B1815E968C918B8700851185F801808197
:103FC00080620E948C000E94AE04F82ED8011196E7
:103FD0008C9180620E948C000E94AE04F8012281C4
:103FE000F0E22F9F90011124286041E050E0FF2073
:103FF00011F050E040E05695542F442757954795CF
:10400000242B41E050E0882311F050E040E086E0AE
:10401000440F551F8A95E1F7242B2C87DDCEE091C4
:104020001803F0911903E756FE4F0190F081E02D3F
:10403000E554FF4F6FEF808191810E94D814CCCE60
:10404000F601A0911803B0911903A556BE4F2D910A
:104050003C918E01055F1F4FD90187E090E060E041
:1040600013967C91139771FB442740F950E07A0135
:10407000082E01C0EE0C0A94EAF76E2518960197F7
:1040800078F76193205C3F4F0E171F0729F715CD76
:10409000E0911803F0911903E956FE4F8281938154
:1040A0001B3438F4FC01E10FF11DE059FF4F408152
:1040B0004F830B3440F4080F192F111DF801E059FC
:1040C000FF4F40814887AAE4A71538F0FC01E70DAF
:1040D000F11DE059FF4F408149872B3438F4FC0132
:1040E000E20FF11DE059FF4F20812A87BAE4BE1587
:1040F00038F0FC01EE0DF11DE059FF4F20812B87B8
:104100003B3408F069CE830F911DFC01E059FF4F4D
:104110008081B2CE1330D1F0153009F05DCE61E070
:10412000C7010E94741161E0C7010E94191254CEA8
:10413000F701EF55FE4F81818F7B8183DACCF70148
:10414000EF55FE4F80818F77808346CEF701EF5584
:10415000FE4F81818F77818381E00E94BE003CCE3B
:1041600085ED8093BC008091460290914702A0911A
:104170004802B09149020796A11DB11D23E0B695F2
:10418000A795979587952A95D1F72091BC0024FD96
:1041900003C0109244020895409146025091470294
:1041A0006091480270914902452B462B472B69F3D9
:1041B0000097A105B10541F02AE22A95F1F700C068
:1041C0000197A109B109E1CF809145020C948D04BA
:1041D0001F920F920FB60F9211242F933F934F937C
:1041E0005F936F937F938F939F93AF93BF93EF935F
:1041F000FF938FE692E00E947A02FF91EF91BF91C8
:10420000AF919F918F917F916F915F914F913F916E
:104210002F910F900FBE0F901F9018951F920F9225
:104220000FB60F9211242F938F939F93EF93FF93C9
:10423000E0917F02F09180028081E0918502F0910F
:10424000860282FD1BC09081809188028F5F8F73F0
:1042500020918902821741F0E0918802F0E0E15953
:10426000FD4F958F80938802FF91EF919F918F91E1
:104270002F910F900FBE0F901F9018958081F4CF53
:104280001F920F920FB60F9211242F933F938F938B
:104290009F93AF93BF938091A3019091A401A091AC
:1042A000A501B091A6013091A20123E0230F2D3783
:1042B00058F50196A11DB11D2093A2018093A30181
:1042C0009093A401A093A501B093A6018091A701AA
:1042D0009091A801A091A901B091AA010196A11DF8
:1042E000B11D8093A7019093A801A093A901B09359
:1042F000AA01BF91AF919F918F913F912F910F9004
:104300000FBE0F901F90189526E8230F0296A11D4F
:10431000B11DD2CF1F920F920FB60F9211242F937F
:104320003F934F935F936F937F938F939F93AF933D
:10433000BF93EF93FF93E0910201F0910301099580
:10434000FF91EF91BF91AF919F918F917F916F916D
:104350005F914F913F912F910F900FBE0F901F9043
:1043600018951F920F920FB60F9211242F933F931F
:104370004F935F936F937F938F939F93AF93BF936D
:10438000EF93FF93E0910001F09101010995FF91F6
:10439000EF91BF91AF919F918F917F916F915F91BD
:1043A0004F913F912F910F900FBE0F901F90189536
:1043B0001F920F920FB60F9211242F933F934F939A
:1043C0005F936F937F938F939F93AF93BF93EF937D
:1043D000FF938091B900887F803609F44AC0F0F5D8
:1043E000883209F4A7C018F5803109F49BC0B8F4ED
:1043F000882309F4F9C0883009F494C0FF91EF9143
:10440000BF91AF919F918F917F916F915F914F91EC
:104410003F912F910F900FBE0F901F9018958831EC
:1044200009F488C0803251F78093420214C080346E
:1044300009F49DC040F48033B9F38833F9F68093D2
:10444000420285ECB0C0803509F485C0883509F496
:1044500096C0883499F60E94B020D0CF883909F4EC
:104460008CC038F5883729F050F4883611F0803741
:1044700029F683E0809344021092A10157C0883846
:1044800009F47BC0803919F0803809F0B7CF8091EA
:10449000A101803208F071C0E091A10181E08E0F8E
:1044A0008093A1018091BB00F0E0EF57FE4F808325
:1044B0003DC0803B39F0E0F4803A09F479C0883A95
:1044C00009F09CCF84E08093440210928001109206
:1044D0007F01E0911A02F0911B02099580917F0102
:1044E00081110FC081E080937F0110925F0109C0AC
:1044F000803C09F4A6CF883C09F4A3CF883B09F09F
:104500007DCFE091800181E08E0F80938001F0E00B
:10451000E15AFE4F80818093BB0090918001809191
:104520007F0129C080911F028093BB0085EC80939E
:10453000BC0064CF9091410280914002981758F5D9
:10454000E091410281E08E0F80934102F0E0E05E55
:10455000FD4F8081E9CFE091410281E08E0F809391
:1045600041028091BB00F0E0E05EFD4F80839091BE
:104570004102809140029817C8F285E8D8CFE091B7
:10458000410281E08E0F809341028091BB00F0E0F8
:10459000E05EFD4F80838091430281115CCF81E01A
:1045A00080931E0284EA8093BC001092440226CFBE
:1045B00085EC8093BC00109244028091A10180326E
:1045C00030F4E091A101F0E0EF57FE4F10826091CE
:1045D000A10170E0E0911802F091190281E891E0E8
:1045E00009951092A1010ACF1092420234CF71E0D6
:1045F0002B98239A24982C9A00000000000094D154
:1046000023982B9A91D1A8940000000000001B9BD6
:1046100077D1D2F088941C990894771F48F72B988B
:10462000239A803019F024982C9A02C02C98249A4E
:1046300000000000000078D123982B9AA894000075
:1046400000001B9B5DD170D1000000002B98239AC5
:10465000872F9927089580E208950894881F01C044
:10466000880FD9F02B98239A00000000000020F456
:10467000000024982C9A03C02C98249A00C054D18E
:1046800023982B9AA8940000000000001B9B38D1AF
:1046900012F4882715C048D1E3CF2B98239A000045
:1046A000000024982C9A40D19927882723982B9A88
:1046B000A89400001B9B24D162F31C9B81E034D1A1
:1046C000000000002B98239A089581E00895CF936D
:1046D000DF93EC01862F0E942D23811108C08FA546
:1046E000811102C083E08FA790E080E002C081E0EA
:1046F00090E0DF91CF9108952B98239A2C98249ADB
:1047000013D123982B9A10D11B9BFAD024982C9A62
:104710000BD108958F93F1E0E4EF8F918F931B9B62
:10472000EFD02C98249A00D198DF882321F4E4DF7D
:10473000319709F0F2CF99270F90089508952B989B
:10474000239AF2D024982C9AEFD023982B9AECD06D
:104750001B9BD6D02C98249AE7D07FDF089581E068
:1047600008951B9BCDD02C98249ADED076DF089537
:1047700081E00895CF93C091D206880FCC2371F0C9
:104780000E949F23882341F080E08093D30681E03C
:104790008093D206CF91089582E0F7CF0E94B12393
:1047A000811101C0C2E0C093D306F1CFCF93C82FCF
:1047B0000E94BA2366E084EA96E00E94672360E0E4
:1047C00084EA96E00E9467230E947C231092D2061E
:1047D0001092D3066AE070E080E090E00E94F2035D
:1047E0008C2F0E94BA2367E084EA96E00E94672338
:1047F00060E084EA96E00E9467230E947C23109286
:10480000D2061092D306C43719F481E080936E0269
:10481000CF910895FF920F931F93CF93DF93DC0105
:10482000EC91F0E0062E02C0F595E7950A94E2F7C8
:10483000E170FF274E171F0621F1F22E162FEC0113
:10484000802F0E94BA2381E090E0A0E0B0E004C095
:10485000880F991FAA1FBB1F1A95D2F7288182279C
:1048600088836F2D84EA96E00E946723688184EA3A
:1048700096E00E9467230E947C231092D206109239
:10488000D306DF91CF911F910F91FF9008950F9361
:1048900041E0613009F440E08031A8F090EF980FDA
:1048A000983050F06FE1681B05E723E087E091E066
:1048B0000E940A240F91089567E0691B04E723E032
:1048C00086E091E0F5CF883038F068EF680F05E7B3
:1048D00022E085E091E0ECCF04E722E0682F84E05D
:1048E00091E0E6CF249823982C9A2B9A8827992731
:1048F0001C9B08951B9B089581E0089581E0089515
:10490000B1E0A0E9002409D032F40A94E1F711974C
:10491000C9F7289408C0A89406C0A8941B9901C0A0
:10492000289400000895089591E09A95F1F708956C
:104930000895CF93DF93EC018CE0ECE0F1E0DE0131
:1049400001900D928A95E1F78CE0ECE0F1E0DE0158
:104950001C9601900D928A95E1F780911801909133
:104960001901A0911A01888F998FAA8F80911B013C
:1049700090911C01A0911D018B8F9C8FAD8F1E8E7D
:1049800080E090E0AEEFB2EC8F8F98A3A9A3BAA31A
:104990008CE0ECE0F1E0DE01939601900D928A95B7
:1049A000E1F7DF91CF910895CF93109272021092A8
:1049B000710288EE93E0A0E0B0E0809373029093E0
:1049C0007402A0937502B09376022BE231E030932B
:1049D000700220936F0225EC30E030937C0220932C
:1049E0007B0224EC30E030937E0220937D0220ECA9
:1049F00030E03093800220937F0221EC30E030934E
:104A000082022093810222EC30E0309384022093D2
:104A1000830226EC30E030938602209385021092C8
:104A200088021092890210928A0210928B021092D0
:104A30000F0310920E038093100390931103A09321
:104A40001203B09313038DE391E090930D038093D1
:104A50000C03E4E7F3E0CFEFC083C1831382168237
:104A60001782389624E0E434F207B1F780E58093AA
:104A700044040E947604C093EC03C093ED0394E0D9
:104A80009093EE031092EF031092F2031092F3034F
:104A9000C093CC03C093CD0381E08093CE031092EA
:104AA000CF031092D2031092D303C093E403C093B8
:104AB000E5039093E6031092E7031092EA03109245
:104AC000EB03C0937C03C0937D0310927E0310928E
:104AD0007F031092820310928303C0937403C093E8
:104AE0007503809376031092770310927A031092E5
:104AF0007B03C093DC03C093DD0392E09093DE035D
:104B00001092DF031092E2031092E303C093840338
:104B1000C0938503809386031092870310928A03C3
:104B200010928B03C0938C03C0938D0380938E03EC
:104B300010928F031092920310929303C0939C03E0
:104B4000C0939D0380939E0310929F031092A20333
:104B50001092A303C0930404C09305049093060429
:104B60001092070410920A0410920B04C0930C04D4
:104B7000C0930D0490930E0410920F04109212042F
:104B800010921304C0931404C09315049093160458
:104B90001092170410921A0410921B04C0931C0464
:104BA000C0931D0490931E0410921F0410922204BF
:104BB00010922304C0932404C093250490932604E8
:104BC0001092270410922A0410922B04C0932C04F4
:104BD000C0932D0490932E0410922F04109232044F
:104BE00010923304C0933404C09335049093360478
:104BF0001092370410923A0410923B04C0933C0484
:104C0000C0933D0490933E0410923F0410924204DE
:104C100010924304C0939403C0939503809396032A
:104C20001092970310929A0310929B03C093D4039F
:104C3000C093D5038093D6031092D7031092DA0362
:104C40001092DB03C093A403C093A5038093A60333
:104C50001092A7031092AA031092AB03C093AC0367
:104C6000C093AD038093AE031092AF031092B203D2
:104C70001092B303C093B403C093B5038093B603FB
:104C80001092B7031092BA031092BB03C093BC03F7
:104C9000C093BD038093BE031092BF031092C20362
:104CA0001092C303C093C403C093C5038093C6038B
:104CB0001092C7031092CA031092CB03C093F4035F
:104CC000C093F5039093F6031092F7031092FA0342
:104CD0001092FB03C093FC03C093FD039093FE036B
:104CE0001092FF03109202041092030410925004D9
:104CF00084EF91E0909352048093510486E0EEE1BA
:104D0000F1E0A3E5B4E001900D928A95E1F7E9E5C1
:104D1000F4E091E0168297839087118612863B9685
:104D200074E0E13BF707B1F7209151043091520450
:104D30003093B3042093B2042F5A3F4F3093B504FD
:104D40002093B4043093B7042093B6041092050561
:104D50001092060510920705109208051092090599
:104D600010920A0524E434E03093040520930305EF
:104D70001092B8041092B9042EE12093BA04109254
:104D8000BB041092BC049093BD041092BE0475E164
:104D90007093BF0466E06093C0042093C1045EE09A
:104DA0005093C2044CE14093C30432E13093C404F5
:104DB0008AE18093C5041092C6041092C704109231
:104DC000C8047093C9046093CA042093CB04509321
:104DD000CC044093CD043093CE048093CF04109242
:104DE000D0041092D1041092D2047093D304609333
:104DF000D4042093D5045093D6044093D704309321
:104E0000D8048093D9049093DA049093DB043CE3B4
:104E10003093DC042DE02093DD041092DE0427E1C2
:104E20002093DF043093E0049093E1041092E204B5
:104E30001092E3041092E4041092E5041092E60448
:104E40001092E70494E19093E8049093E90490931E
:104E5000EA042AE02093EB042093EC042093ED0471
:104E60008093EE048093EF048093F0049093F10418
:104E70009093F2041092F3041092F4042093F70438
:104E800081E48093F60484E68093F5041092F8049C
:104E90001092F9048AE58093FA043093FB0410928F
:104EA000FC0482E08093FD048093FE041092FF04D2
:104EB000109200051092010510920205EDE5F4E054
:104EC00088E494E0C1E0918380831282C383C48329
:104ED000158216823B96A4E0E53BFA07A1F7E8E1CC
:104EE000F5E087E0DF011D928A95E9F70E9424042E
:104EF00060931F05709320058093210590932205F0
:104F000010922305C093290510922A0510926F056F
:104F10001092720580E69AEEA0E0B0E080937305EF
:104F200090937405A0937505B0937605109277055C
:104F3000109278058CE0ECE0F1E0A9E7B5E0019093
:104F40000D928A95E1F710928505109286051092D0
:104F50008705109288058BE895E00E9499241092AD
:104F6000C9051092CA051092C4051092C505109289
:104F7000C6051092C7058FEF8093D1058CED93E0A5
:104F80009093D6058093D50584E793E09093D80558
:104F90008093D70582EE95E00E9499241092200616
:104FA0001092210610921B0610921C0610921D06EC
:104FB00010921E06109226031092270310922803C7
:104FC0000E94240460932F03709330038093310375
:104FD000909332031092340310923303E5E3F3E02D
:104FE0001192B3E0E434FB07D9F7109266030E94F4
:104FF000240460936703709368038093690390931C
:105000006A0310926B030E94240460936C037093F4
:105010006D0380936E0390936F030E94240460934A
:10502000700370937103809372039093730384E70A
:1050300093E09093190380931803EFE2F6E06FEF8B
:1050400024E055E043E280E090E0AEEFB2EC31E8DE
:105050001082618312821382148215821682178253
:10506000108611862287238714865587468787876F
:10507000908BA18BB28B838B948BA58BB68B378B4C
:10508000108E118E128E138E148E158E168E178E14
:1050900010A211A212A2B79676E0E43AF707C1F681
:1050A0001092A7061092A60688EE93E0A0E0B0E06A
:1050B0008093A8069093A906A093AA06B093AB0686
:1050C0008FE491E09093A5068093A406CF91089574
:1050D000CF93DF93CDB7DEB7A3970FB6F894DEBFBB
:1050E0000FBECDBF789484B5826084BD84B58160E5
:1050F00084BD85B5826085BD85B5816085BD8091A3
:105100006E00816080936E0010928100809181001A
:105110008260809381008091810081608093810012
:10512000809180008160809380008091B1008460D4
:105130008093B1008091B00081608093B000809135
:105140007A00846080937A0080917A0082608093F4
:105150007A0080917A00816080937A0080917A0051
:10516000806880937A001092C10088E19FE00FB6BA
:10517000F894A895809360000FBE9093600060E063
:105180008AE00E94890360E081E10E94890360E077
:1051900080E10E94890361E08FE00E94890364E658
:1051A00070E080E090E00E94F20361E08FE00E94F6
:1051B0005B0380E10E94320320E036E940E050E0EA
:1051C000892B21F420E032EC41E050E0E0917F02B5
:1051D000F091800282E08083E0917B02F0917C027A
:1051E000108200917D0210917E0260E079E08DE3F3
:1051F00090E00E94BE38215031094109510956956D
:10520000479537952795D8012C9310928702E09106
:105210008302F091840286E08083E0918102F09124
:105220008202808180618083E0918102F09182021C
:10523000808188608083E0918102F0918202808188
:1052400080688083E0918102F091820280818F7D6D
:105250008083809144040E948C000E94AE0491E0FF
:10526000811190E0909346040E9476040E949A0C6B
:1052700081110BC0198281E08A838B831C821D827D
:105280001E82CE0101960E94A00BF3E5EF2EF4E002
:10529000FF2E10E000E06091B2047091B304655BF2
:1052A0007F4F600F711F80910305909104050E944C
:1052B000F214F70181937F010F5F1F4F0630110534
:1052C00051F76CE677E080910305909104050E9408
:1052D000F21491E08F3F09F090E090930A0578EB8B
:1052E000E72E74E0F72E10E000E08F3F09F08BC14D
:1052F00089838A838B838C838D838E83BE016F5FCA
:105300007F4F88E494E00E94B513E8EBEE2EE4E0D2
:10531000FE2E10E0D7014D917D01612F88E494E0CD
:105320000E94B2141F5F1B34A9F710E0612F88E4BC
:1053300094E00E94F1131F5F1830C1F788E494E0F5
:105340000E94981460E080910305909104050E94EA
:10535000D814A89567E08CE695E00E94220C60E0E6
:105360008DE695E00E94220C64E7E62E63E0F62EBF
:1053700010926E0508E414E0109371050093700517
:105380008CE295E09093160680931506F092140631
:10539000E09213068FE695E09093E1058093E00597
:1053A00010931206009311061092D0061092D106A7
:1053B0001092D3061092D2060E94722464E170E02B
:1053C00080E090E00E94F203A89584E70E94D62333
:1053D00064E170E080E090E00E94F203A89585E728
:1053E0000E94D623A89582EC9AE09093C501809301
:1053F000C4011092CB011092CA018FEF8093B401C7
:1054000081E08093B5011092B6010E94240460935C
:10541000B8017093B9018093BA019093BB01809158
:10542000B701877088618093B70160E082E00E94D5
:10543000890360E083E00E9489032EEE3AE0309316
:10544000010120930001809169008C7F816080932D
:105450006900E89A3093030120930201809169006A
:10546000837F846080936900E99A0E94EE0AA89580
:1054700010930E0500930D0582EE95E090930C05B8
:1054800080930B05F0921005E0920F0584E494E000
:1054900090931205809311058CE695E09093140586
:1054A00080931305A8958091B8048093D2051701C5
:1054B0008CE695E0D10115969C938E931497B8E0F5
:1054C0002B0E311CE4E42E16E4E03E0699F7E09042
:1054D000D20550900A05552009F46AC040E06CE0FE
:1054E00084E793E00E94221340E06DE08CEC93E0AF
:1054F0000E94221340E068E08CE793E00E942213B0
:1055000040E069E084E893E00E94221340E06AE012
:105510008CE893E00E94221340E06BE08CEB93E078
:105520000E94221344E069E084EC93E00E9422137D
:105530009091C703892F8095847012E09127892765
:105540008093C70344E068E08CEA93E00E94221352
:105550008091AF0381278B7F8093AF0340E066E0AB
:105560008CEE93E00E94221340E065E084EE93E02D
:105570000E94221340E064E08CED93E00E9422132D
:1055800040E063E08CEF93E00E94221340E062E091
:1055900084EF93E00E94221340E061E084E094E015
:1055A0000E94221340E060E084E294E00E94221313
:1055B0005E01F8E1AF0EB11CCC24DD24CA18DB0873
:1055C00004E713E053EFF52E4E012EE1820E911CFD
:1055D000EA94EA943501552009F4D4C236016A0CE4
:1055E0007B1C412C31E0431609F4C2C2431608F477
:1055F00033C162E0461609F4BEC285E0481609F4DC
:10560000BEC240E02BC16091B2047091B304600F40
:10561000711F80910305909104050E94F214F70117
:1056200081937F010F5F1F4F0B34110561F709E56F
:1056300014E0D12CC12CF12CE12C6091B6047091B6
:10564000B7046C0D7D1D6E0D7F1D8091030590913B
:1056500004050E94F214EFEFEE0DE83068F4F0E07C
:10566000EC5CF44D0C94A53B102C132C172C1A2C2D
:105670001E2C212C252C282CD8018C93BFEFEB1A43
:10568000FB0AE9E0EE16F104C1F6055F1F4FF9E0F1
:10569000CF0ED11C28E4C216D10469F66091B20481
:1056A0007091B304615071098091030590910405D4
:1056B0000E94F214E9EBF4E090E021E031919327AD
:1056C0002F5F2B34D9F79093B104891709F441CE99
:1056D0001092B8041092B9042EE12093BA041092EB
:1056E000BB041092BC0491E09093BD041092BE04E0
:1056F00075E17093BF0466E06093C0042093C10419
:105700005EE05093C2044CE14093C30432E1309315
:10571000C4048AE18093C5041092C6041092C704A1
:105720001092C8047093C9046093CA042093CB04F8
:105730005093CC044093CD043093CE048093CF0497
:105740001092D0041092D1041092D2047093D3041A
:105750006093D4042093D5045093D6044093D70487
:105760003093D8048093D9049093DA049093DB04A7
:105770003CE33093DC042DE02093DD041092DE0442
:1057800027E12093DF043093E0049093E10410922A
:10579000E2041092E3041092E4041092E5041092E3
:1057A000E6041092E70494E19093E8049093E904EE
:1057B0009093EA042AE02093EB042093EC042093D6
:1057C000ED048093EE048093EF048093F0049093B3
:1057D000F1049093F2041092F3041092F4042093D5
:1057E000F70481E48093F60484E68093F504109234
:1057F000F8041092F9048AE58093FA043093FB04CC
:105800001092FC0482E08093FD048093FE041092C9
:10581000FF0410920005109201051092020599CD27
:10582000F80181832BCFD80112968C9327CFF801F2
:10583000838324CFD80116968C9320CFF8018783D9
:105840001DCFD80118968C9319CFF801818716CFF8
:10585000D8011A968C9312CFD8014C91B30184E4ED
:1058600094E00E9486134394FFEF6F1A7F0A26E0AC
:105870004212B8CEF8016081F1E0FF1508F4ACC126
:10588000FE1508F4A9C1D80111964C918CE695E05B
:105890000E947B0E682FC8010E94D20E085F1F4F26
:1058A000F394B6E0CB0ED11CEDE0FE1293CEA8959A
:1058B00084E793E0909325058093240588E494E0A1
:1058C000909327058093260548E1E42E45E0F42EC9
:1058D00010E0812F0E94D900D7018D937D011F5FB9
:1058E0001430B9F710921C051092150510921D0581
:1058F0001092160510921E05109217054091BA04D9
:1059000028EE33E0429FC001439F900D11249093F5
:10591000DE058093DD052091DC0430E0A8EEB3E0E5
:105920000E94E0386093D9057093DA058093DB0517
:105930009093DC05A8958AE00E943203892B39F404
:105940006FEF80910305909104050E94D814809117
:105950001803909119038C010C521F4FFC01E15266
:10596000FF4F8B519F4FB12C21912F3F09F4B394DE
:105970008E179F07C9F7C12C412C512C32013EE0F4
:10598000F32E8F2D0E94BA03092E000CAA0BBB0B1D
:10599000480E591E6A1E7B1E8F2D0E94BA0381700D
:1059A000C80E61E070E080E090E00E94F203F394A2
:1059B000B6E1FB12E6CF0E941E38D12CF12CE12C6F
:1059C0002FE130E040E050E00E948C3804C0CC0C65
:1059D000DD1CEE1CFF1C6A95D2F7C701B6016429D5
:1059E000752986299729611571058105910511F0A1
:1059F0000E946D38E6E0BE121DC09E012F5F3F4F32
:105A000079015E0137E0A30EB11C6701412C512CD6
:105A100032014A940E941E38A30192010E948C38E0
:105A2000D7016D937D01AA15BB05A1F7B601C80189
:105A30000E94B513E0901803F090190387010152FA
:105A40001F4F1093650300936403D09066038CE6A8
:105A500093E090932E0380932D038BE693E0909335
:105A60002C0380932B031092260310932A03009398
:105A70002903F0925403E09253030E941E3820E75A
:105A800037E140E050E00E948C3868517C4F8F4FE6
:105A90009F4F60932203709323038093240390937A
:105AA000250386E293E090931B0380931A03F09200
:105AB0001D03E0921C0310921E0310932003009319
:105AC0001F03D09221030E942404609370037093FB
:105AD00071038093720390937303FE013F96FF8FCF
