:1080000082013C5B82013B1982013D2E82013B1AB9
:1080100082013B1B82013B1C82013B1D82013B1EF6
:1080200082013B1F82013B2082013B2182013B22D6
:1080300082013B2382013B2482013B2582013B26B6
:1080400082013B2782013B2882013B2982013B2A96
:1080500082013B2B82013B2C82013B2D8201359E0C
:1080600082013403820135C882013B2E82013B2FFD
:1080700082013B3082013B3182013B3282013B3342
:10808000013CB400D600100000012C64B600B80416
:108090002A03CC840E872609B604B400B700875B98
:1080A00002AC008571854FCC83B0901E0004200087
:1080B000CD832720D720DE20DD20E420E84F72F298
:1080C00001270D2B209372FB011F01AE0000201A27
:1080D000BE0272B00006B601B2054FAE00042430F5
:1080E000AE0000202B9050AE000490A3001A251182
:1080F000E6016F01EA026F02EA036F03404F492075
:108100000F640166026603462402AA01905A26F112
:1081100090AE0004A30004260490AE000088B600D0
:10812000B8042B21BE0272BB0006BF02B601B9051E
:10813000B7018485240C5C360136023603462402DE
:10814000AA01CC83B090F6B700000190E603E203E9
:10815000B70390E602E202B70290E601E201B7013E
:1081600084852B1788BA01BA02BA038426033F001C
:10817000875A483903390239012AF6CC83B08D0178
:108180003C882000B604A480B800B700CD83272027
:1081900071206D206E2071207472F90172A2007E30
:1081A00017015F894B0090AE00034B0090E6042757
:1081B0002C3D032710BE024272FB031F0324060C52
:1081C0000226020C013D02270CBE014272FB021F77
:1081D0000224020C01BE004272FB011F01905A26CC
:1081E000C95B02320003849085905D2702AA01904A
:1081F000855D2B0648390359905ABF0193CC83B053
:1082000027038725FDCC840E5B02CC84025F3800F7
:1082100056BF005FBF025B02878726FDCC840EB687
:1082200004A480B800B700CD832720F020EB20EA1B
:1082300020DB20D472F20117013F04BE02905FB62A
:10824000019097B306B20524095890590C022602F2
:108250000C0172B000062402905A72B200044FB7AB
:10826000023501000358905990B3042602B3062545
:108270000C72B000062402905A72B200043903391D
:10828000024924E13303330243509059AE007F7218
:10829000F0015B022D26A300FF2503CC840202908F
:1082A0005049380056BF0036023603240C4D2709CA
:1082B0003C0326053C0226015CBF0087B7019050B5
:1082C0004F469936013602360346CC83B0BF002AAA
:1082D000055020023F003F039E4D261202270CA6A8
:1082E000874A5824FC38004656B700BF0187A68E3F
:1082F00020F0BE01B6005849A07F2529A11025090C
:10830000AE7FFF3D002A015C87995640AB0FA10864
:108310002509884F0184A008200154A00124FB3DB9
:10832000002A0150875F879085B60148B60049272B
:1083300030A1FF271C721E0001884B00B60548B60D
:108340000449273EA1FF2733721E00055F9751ECB9
:108350000AAD4B2648AD4F2240250290FC5D90ECC3
:1083600002AD3B270E5F5C5A3803390239012AF708
:108370008920C9AD3122225D90EC04AD29221890EC
:10838000EC06AD225D270D5F5C5A380739063905CA
:108390002AF720BA90EC085B02AC00857187B60121
:1083A00048BA02BA0381BE0650BE0459A3FF008139
:1083B0005D9C2C24A3FFE72C0D4FB703B702B70138
:1083C000380046B70087340136023603462402AA35
:1083D000015CA3000126EF5F7201000302AA01A362
:1083E00000FE2C1E380138004146B700360141A17D
:1083F00081250E3C03260A3C0226063C0126023C4F
:108400000087AEFF00380056BF005FBF02875F5A8B
:10841000BF00BF028788A608200588A60C20008818
:108420007B02887B02891E061F045F977B086B0610
:10843000FE1F07858487891E06BF082007891E0640
:10844000BF0C20001E041F061E021F04855B02874E
:10845000887B03887B03887B03887B076B04B601DA
:108460006B05B6026B06B6036B078487887B0388AF
:108470007B03887B03887B076B04B6056B05B60618
:108480006B06B6076B078487887B03887B03887B32
:1084900003887B076B04B6096B05B60A6B06B60B3F
:1084A0006B078487887B03887B03887B03887B0733
:1084B0006B04B60D6B05B60E6B06B60F6B078487A3
:1084C000887B05B7097B06B70A7B07B70B200F88A7
:1084D0007B05B70D7B06B70E7B07B70F20007B042B
:1084E0006B07846B03846B03846B03848788A6000B
:1084F000200F88A604200A88A608200588A60C203C
:108500000088897B04887B04891E081F045F977B91
:108510000A6B061F09FE1F071E095C5CFE1F09850A
:108520008487891E06BF001E08BF022021891E06FF
:10853000BF041E08BF062016891E06BF081E08BFFE
:108540000A200B891E06BF0C1E08BF0E20001E034A
:108550001F071E041F08855B04878D0085438D005F
:108560008538878D00843D8D008538878D00843661
:108570008745040045050145060245070387450870
:1085800000450901450A02450B0387450C00450DCE
:1085900001450E02450F03874500044501054502CC
:1085A0000645030787450804450905450A06450BA6
:1085B0000787450C04450D05450E06450F07874501
:1085C000000845010945020A45030B874504084593
:1085D000050945060A45070B8745000C45010D4571
:1085E000020E45030F8745040C45050D45060E4553
:1085F000070F8745090D450A0E450B0F87AE00088A
:1086000020006C0326096C0226056C0126017C877C
:10861000AE000820006D03260D6D0226076D0126B1
:10862000017A6A016A026A0387AE0004B603EB03AB
:10863000B703B602E902B702B601E901B701B60015
:10864000F9B70087AE0004B603E003B703B602E251
:1086500002B702B601E201B701B600F2B70087B671
:1086600000BE06429FB700B601BE05429FBB00B7E1
:1086700000B602BE04429FBB00B700B603BE034271
:108680009FBB00B700B601BE06423F0172BB0000AF
:10869000BF00B602BE054272BB0000BF00B603BEFB
:1086A000044272BB0000BF00B602BE06423F027227
:1086B000BB0001BF0124023C00B603BE054272BBF1
:1086C0000001BF0124023C00B603BE06423F037214
:1086D000BB0002BF022405BE005CBF0087BE0026AF
:1086E0001E90BE04260CBE0290BE0665BF0290BF5F
:1086F0000687BF04450206450307BF00BF0287A6E1
:10870000203D00260DBE01BF004503023F033A0392
:10871000A0085F905F992017905959B304260390E1
:10872000B306250B72B2000624015A72B000043958
:10873000033902390139004A2ADEBF0490BF06BE60
:108740000053BF00BE0253BF02878D013C88200446
:108750008D013C884B004B003D002A0BAE00008D84
:1087600000878F030103023D042A09AE00048D0037
:10877000878F03018D0086DD844D2707AE00008DB5
:1087800000878F844D2707AE00048D00878F876098
:10879000034FE202E7024FE201E7014FF2F787BE23
:1087A00000B3042604BE02B30687BE00B30426103D
:1087B000BE02B3068A84A47BA5012702AA04888688
:1087C00087BF025F3D022A0153BF008700B100BC92
:1087D00000C700D300E000ED00FB010901190128EA
:1087E0000139014A015C016F0183019701AD01C3A9
:1087F00001DA01F1020A0223023E025902750292D5
:1088000002B002CF02EE030F033003520375039947
:1088100003BD03E20408042F0456047E04A704D019
:1088200004FA0524054F057A05A505D105FD062A9C
:108830000656068306B006DD07090735076307906D
:1088400007BC07E808140840086C089708C108EC42
:108850000916093F0968099009B809DF0A060A2BB9
:108860000A510A760A9A0ABD0AE00B020B210B4450
:108870000B640B830BA20BC00BDD0BFA0C160C3137
:108880000C4C0C660C7F0C980CB00CC70CDE0CF476
:108890000D0A0D1F0D330D470D5A0D6D0D7F0D91F6
:1088A0000DA20DB30DC30DD30DE20DF20E000E0E91
:1088B0000E1C0E280E360E430E4F0E5B0E660E710A
:1088C0000E7C0E870E910E9B0EA40EAD0EB70EBF42
:1088D0000EC88D0084F78D0084FC8D0085C292BC8B
:1088E0000009B7015F5C92AF0009B7025C92AF006C
:1088F00009B703AE001872BB0002BF0292BC0001B0
:10890000A101261D92BC0009B7015F5C92AF00096E
:10891000B7025C92AF0009B7038D013A55B7082042
:10892000023F083D082704AC008A40A6023500003B
:108930000135500002351E00038D0139D0A10027FA
:1089400004AC008A2EAE00068D00858172BB000249
:10895000BF0292BC0001A1002704AC008A40AE0017
:10896000048992BC0009B7055F5C92AF0009B706A5
:108970005C92AF0009B707AE000A72BB0006BF06E3
:1089800092BC0005B7015F5C92AF0005B7025C9234
:10899000AF0005B703858D0125DABE00A3000026D0
:1089A00005BE02A300332548AE00068D0085817206
:1089B000BB0002BF02A60192BD00018D0085818D22
:1089C00001246092BC0009B7015F5C92AF0009B757
:1089D000025C92AF0009B703AE000D72BB0002BF8C
:1089E000025F9E92BD000190AE00019F91A7000121
:1089F000AE00078992BC0009B7055F5C92AF000921
:108A0000B7065C92AF0009B707AE000A72BB00065A
:108A1000BF0692BC0005B7015F5C92AF0005B702CC
:108A20005C92AF0005B703858D0127B12012AE001F
:108A3000068D00858172BB0002BF024F92BD00010E
:108A4000A6043500000135500002351E00038D01DB
:108A500039D0A1002704AC008C5BAE00078D0085E7
:108A60008172BB0002BF0292BC0001A1002704ACCE
:108A7000008C6D5F8992BC0009B7055F5C92AF0006
:108A800009B7065C92AF0009B707AE000A72BB00D7
:108A900006BF0692BC0005B7015F5C92AF0005B748
:108AA000025C92AF0005B703858D0125DABE00A3F5
:108AB00000002605BE02A300332404AC008C6DAE7A
:108AC00000078D00858172BB0002BF02A60192BD26
:108AD000000192BC0009B7015F5C92AF0009B702C8
:108AE0005C92AF0009B703AE000D72BB0002BF027B
:108AF00092BC00019590AE000191AF000197A300D8
:108B0000022615AE00038D00858172BB0002BF02F4
:108B10008D00A5FFAC008C1D92BC0009B7015F5C05
:108B200092AF0009B7025C92AF0009B703AE000D27
:108B300072BB0002BF0292BC00019590AE00019191
:108B4000AF0001975D2704AC008C1D92BC0009B7F3
:108B5000015F5C92AF0009B7025C92AF0009B703F6
:108B6000AE001872BB0002BF0292BC0001A1002639
:108B7000088D0085818D01255D92BC0009B7015FDC
:108B80005C92AF0009B7025C92AF0009B703AE0078
:108B90001872BB0002BF0292BC0001A102267E92A5
:108BA000BC0009B7015F5C92AF0009B7025C92AFED
:108BB0000009B7038D012EB54CAE00128D008581E2
:108BC00072BB0002BF0292BD0001AE00128D008593
:108BD0008172BB0002BF0292BC0001A1042612AE4A
:108BE00000128D00858172BB0002BF024F92BD0052
:108BF00001AE00128D00858172BB0002BF0292BCE3
:108C000000018892BC0009B7015F5C92AF0009B710
:108C1000025C92AF0009B703848D010B84AE00079C
:108C20008992BC0009B7055F5C92AF0009B7065C8A
:108C300092AF0009B707AE000A72BB0006BF0692EA
:108C4000BC0005B7015F5C92AF0005B7025C92AF54
:108C50000005B703858D0127B12012AE00078D00F6
:108C6000858172BB0002BF024F92BD0001A608358C
:108C700000000135500002351E00038D0139D0A1DE
:108C8000002704AC008E4BAE00088D00858172BBBE
:108C90000002BF0292BC0001A1002704AC008D9D20
:108CA0005F5C8992BC0009B7055F5C92AF0009B7B1
:108CB000065C92AF0009B707AE000A72BB0006BFA0
:108CC0000692BC0005B7015F5C92AF0005B7025C7D
:108CD00092AF0005B703858D0125DABE00A3000021
:108CE0002605BE02A300332404AC008E5DAE00084E
:108CF0008D00858172BB0002BF02A60192BD0001FA
:108D000092BC0009B7015F5C92AF0009B7025C92A8
:108D1000AF0009B703AE000D72BB0002BF0292BCE8
:108D200000019590AE000191AF0001975D262E9253
:108D3000BC0009B7015F5C92AF0009B7025C92AF5B
:108D40000009B703AE001872BB0002BF0292BC005C
:108D500001A10026088D0085818D0124DFAE00076A
:108D60008992BC0009B7055F5C92AF0009B7065C49
:108D700092AF0009B707AE000A72BB0006BF0692A9
:108D8000BC0005B7015F5C92AF0005B7025C92AF13
:108D90000005B703858D0127B1AC008E5D92BC0044
:108DA00009B7015F5C92AF0009B7025C92AF00099E
:108DB000B703AE000D72BB0002BF0292BC0001956A
:108DC00090AE000191AF000197A300022704AC0010
:108DD0008E5D5F5C8992BC0009B7055F5C92AF0055
:108DE00009B7065C92AF0009B707AE000A72BB0074
:108DF00006BF0692BC0005B7015F5C92AF0005B7E5
:108E0000025C92AF0005B703858D0125DABE00A391
:108E100000002605BE02A300332542AE00038D00EC
:108E2000858172BB0002BF028D00B36DA6018892DE
:108E3000BC0009B7015F5C92AF0009B7025C92AF5A
:108E40000009B703848D011FA52012AE00088D0014
:108E5000858172BB0002BF024F92BD000192BC002F
:108E600009B7015F5C92AF0009B7025C92AF0009DD
:108E7000B703AE001872BB0002BF0292BC0001A192
:108E800002265492BC0009B7015F5C92AF0009B79B
:108E9000025C92AF0009B7038D013A0FA10027379A
:108EA00092BC0009B7015F5C92AF0009B7025C9207
:108EB000AF0009B703AE000D72BB0002BF0292BC47
:108EC00000019590AE000191AF0001975D26088DDD
:108ED0000085818D01074DA68035000001355000C9
:108EE00002350000038D0139D0A1002704AC0092A7
:108EF00013AE00098D00858172BB0002BF0292BCD7
:108F00000001A1002704AC009096AE00028992BC3B
:108F10000009B7055F5C92AF0009B7065C92AF002D
:108F200009B707AE000A72BB0006BF0692BC000577
:108F3000B7015F5C92AF0005B7025C92AF0005B766
:108F400003858D0125DABE00A300002605BE02A31D
:108F500000152404AC009225AE00098D00858172B5
:108F6000BB0002BF02A60192BD000192BC0009B77E
:108F7000015F5C92AF0009B7025C92AF0009B703D2
:108F8000AE000D72BB0002BF0292BC00019590AE14
:108F9000000191AF000197A300022613AE00038DDC
:108FA00000858172BB0002BF028D00EDAD206B3DDC
:108FB00008266792BC0009B7015F5C92AF0009B751
:108FC000025C92AF0009B703AE000D72BB0002BF96
:108FD0000292BC00019590AE000191AF0001975D37
:108FE000263092BC0009B7015F5C92AF0009B7025E
:108FF0005C92AF0009B703AE002672BB0002BF024D
:1090000092BC0001A100260A8D0085818D0123E11B
:1090100020088D0085818D010D6EAE00028992BC05
:109020000009B7055F5C92AF0009B7065C92AF001C
:1090300009B707AE000A72BB0006BF0692BC000566
:10904000B7015F5C92AF0005B7025C92AF0005B755
:1090500003858D0127B1AE00078992BC0009B705D1
:109060005F5C92AF0009B7065C92AF0009B707AE2C
:10907000000A72BB0006BF0692BC0005B7015F5C28
:1090800092AF0005B7025C92AF0005B703858D0172
:1090900027B1AC0092253D082704AC00916E92BC2C
:1090A0000009B7015F5C92AF0009B7025C92AF00A4
:1090B00009B703AE000D72BB0002BF0292BC0001F3
:1090C0009590AE000191AF0001975D2704AC00922E
:1090D0002592BC0009B7015F5C92AF0009B7025C42
:1090E00092AF0009B7038D013A0FA1002704AC002D
:1090F0009225AE000B8D00858172BB0002BF0292EB
:10910000BC0001A1002604AC009225AE00028992A9
:10911000BC0009B7055F5C92AF0009B7065C92AF6F
:109120000009B707AE000A72BB0006BF0692BC007A
:1091300005B7015F5C92AF0005B7025C92AF000516
:10914000B703858D0125DABE00A300002605BE0207
:10915000A301F52404AC009225AE00038D008581A7
:1091600072BB0002BF028D010A8BAC00922592BC3B
:109170000009B7015F5C92AF0009B7025C92AF00D3
:1091800009B703AE000D72BB0002BF0292BC000122
:109190009590AE000191AF0001975D2704AC00925D
:1091A00025AE000B8D00858172BB0002BF0292BC10
:1091B0000001A100276FAE00028992BC0009B7052B
:1091C0005F5C92AF0009B7065C92AF0009B707AECB
:1091D000000A72BB0006BF0692BC0005B7015F5CC7
:1091E00092AF0005B7025C92AF0005B703858D0111
:1091F00025DABE00A300002605BE02A301F5252541
:10920000AE00038D00858172BB0002BF028D010A92
:109210008B2012AE00098D00858172BB0002BF0257
:109220004F92BD0001A60135000001355000023506
:109230001E00038D0139D0A1002704AC009537AE84
:10924000000A8D00858172BB0002BF0292BC000142
:10925000A1002704AC0093E4AE00038992BC00098E
:10926000B7055F5C92AF0009B7065C92AF0009B723
:1092700007AE000A72BB0006BF0692BC0005B7012C
:109280005F5C92AF0005B7025C92AF0005B7038543
:109290008D0125DABE00A300002605BE02A300153D
:1092A0002404AC00955BAE000A8D00858172BB0082
:1092B00002BF02A60192BD000192BC0009B7015F86
:1092C0005C92AF0009B7025C92AF0009B703AE0031
:1092D0000D72BB0002BF0292BC00019590AE00016E
:1092E00091AF000197A300022613AE00038D008505
:1092F0008172BB0002BF028D00E7D6206B3D0826BD
:109300006792BC0009B7015F5C92AF0009B7025CCD
:1093100092AF0009B703AE000D72BB0002BF02920C
:10932000BC00019590AE000191AF0001975D263021
:1093300092BC0009B7015F5C92AF0009B7025C9272
:10934000AF0009B703AE002672BB0002BF0292BC99
:109350000001A100260A8D0085818D0123E12008EE
:109360008D0085818D010E5CAE00038992BC0009E1
:10937000B7055F5C92AF0009B7065C92AF0009B712
:1093800007AE000A72BB0006BF0692BC0005B7011B
:109390005F5C92AF0005B7025C92AF0005B7038532
:1093A0008D0127B1AE00078992BC0009B7055F5C4B
:1093B00092AF0009B7065C92AF0009B707AE000A8A
:1093C00072BB0006BF0692BC0005B7015F5C92AF9E
:1093D0000005B7025C92AF0005B703858D0127B188
:1093E000AC00955B3D082704AC0094A592BC000935
:1093F000B7015F5C92AF0009B7025C92AF0009B79A
:1094000003AE000D72BB0002BF0292BC000195903A
:10941000AE000191AF0001975D2704AC00955B920F
:10942000BC0009B7015F5C92AF0009B7025C92AF64
:109430000009B7038D013A0FA1002704AC00955B2A
:10944000AE00038992BC0009B7055F5C92AF0009CA
:10945000B7065C92AF0009B707AE000A72BB000600
:10946000BF0692BC0005B7015F5C92AF0005B70272
:109470005C92AF0005B703858D0125DABE00A3001D
:10948000002605BE02A301F52404AC00955BAE00E6
:109490000B8D00858172BB0002BF02A60192BD0048
:1094A00001AC00955B92BC0009B7015F5C92AF0014
:1094B00009B7025C92AF0009B703AE000D72BB00A2
:1094C00002BF0292BC00019590AE000191AF000175
:1094D000975D2704AC00955BAE00038992BC000940
:1094E000B7055F5C92AF0009B7065C92AF0009B7A1
:1094F00007AE000A72BB0006BF0692BC0005B701AA
:109500005F5C92AF0005B7025C92AF0005B70385C0
:109510008D0125DABE00A300002605BE02A301F5D9
:109520002539AE000B8D00858172BB0002BF02A6FB
:109530000192BD00012024AE000A8D00858172BB1E
:109540000002BF024F92BD0001AE000B8D0085816D
:1095500072BB0002BF024F92BD000192BC0009B76E
:10956000015F5C92AF0009B7025C92AF0009B703DC
:10957000AE000D72BB0002BF0292BC00019590AE1E
:10958000000191AF000197A30001267FAE0006897C
:1095900092BC0009B7055F5C92AF0009B7065C9208
:1095A000AF0009B707AE000A72BB0006BF0692BC47
:1095B0000005B7015F5C92AF0005B7025C92AF0097
:1095C00005B703858D0125DABE00A300002605BE80
:1095D00002A301F52404AC0096E892BC0009B7018F
:1095E0005F5C92AF0009B7025C92AF0009B703AEAF
:1095F000000D72BB0002BF025F9E92BD000190AEE3
:1096000000019F91A70001AC0096E892BC0009B749
:10961000015F5C92AF0009B7025C92AF0009B7032B
:10962000AE000D72BB0002BF0292BC00019590AE6D
:10963000000191AF000197A300022704AC0096E857
:10964000AE00088992BC0009B7055F5C92AF0009C3
:10965000B7065C92AF0009B707AE000A72BB0006FE
:10966000BF0692BC0005B7015F5C92AF0005B70270
:109670005C92AF0005B703858D0125DABE00A3001B
:10968000002605BE02A303E9255E92BC0009B701CE
:109690005F5C92AF0009B7025C92AF0009B703AEFE
:1096A000000D72BB0002BF025F9E92BD000190AE32
:1096B00000019F91A7000135010000A6058892BC1A
:1096C0000009B7015F5C92AF0009B7025C92AF007E
:1096D00009B703848D013196AE03E8BF025FBF0076
:1096E0008D0131D88D013ADA92BC0009B7015F5C77
:1096F00092AF0009B7025C92AF0009B7038D013A3F
:1097000001B70092BC0009B7015F5C92AF0009B7D6
:10971000025C92AF0009B703AE001772BB0002BF34
:109720000292BC0001B100277792BC0009B7015F2B
:109730005C92AF0009B7025C92AF0009B7038D01DC
:109740003A01B70092BC0009B7015F5C92AF000913
:10975000B7025C92AF0009B703AE001772BB0002FC
:10976000BF02B60092BD000192BC0009B7015F5C68
:1097700092AF0009B7025C92AF0009B7038D013ABE
:1097800001B700A60B8892BC0009B7015F5C92AFDD
:109790000009B7025C92AF0009B703848D013196CE
:1097A00092BC0009B7015F5C92AF0009B7025C92FE
:1097B000AF0009B7038D013A0FB70092BC0009B79B
:1097C000015F5C92AF0009B7025C92AF0009B7037A
:1097D000AE001E72BB0002BF0292BC0001B10027A6
:1097E0007792BC0009B7015F5C92AF0009B7025CD9
:1097F00092AF0009B7038D013A0FB70092BC000980
:10980000B7015F5C92AF0009B7025C92AF0009B785
:1098100003AE001E72BB0002BF02B60092BD000183
:1098200092BC0009B7015F5C92AF0009B7025C927D
:10983000AF0009B7038D013A0FB700A6058892BCA7
:109840000009B7015F5C92AF0009B7025C92AF00FC
:1098500009B703848D01319692BC0009B7015F5CA2
:1098600092AF0009B7025C92AF0009B7038D013ACD
:109870001DB70092BC0009B7015F5C92AF0009B749
:10988000025C92AF0009B703AE001F72BB0002BFBB
:109890000292BC0001B100277792BC0009B7015FBA
:1098A0005C92AF0009B7025C92AF0009B7038D016B
:1098B0003A1DB70092BC0009B7015F5C92AF000986
:1098C000B7025C92AF0009B703AE001F72BB000283
:1098D000BF02B60092BD000192BC0009B7015F5CF7
:1098E00092AF0009B7025C92AF0009B7038D013A4D
:1098F0001DB700A6068892BC0009B7015F5C92AF55
:109900000009B7025C92AF0009B703848D0131965C
:1099100092BC0009B7015F5C92AF0009B7025C928C
:10992000AF0009B7038D013A2BB70092BC0009B70D
:10993000015F5C92AF0009B7025C92AF0009B70308
:10994000AE002072BB0002BF0292BC0001B1002732
:109950007792BC0009B7015F5C92AF0009B7025C67
:1099600092AF0009B7038D013A2BB70092BC0009F2
:10997000B7015F5C92AF0009B7025C92AF0009B714
:1099800003AE002072BB0002BF02B60092BD000110
:1099900092BC0009B7015F5C92AF0009B7025C920C
:1099A000AF0009B7038D013A2BB700A6078892BC18
:1099B0000009B7015F5C92AF0009B7025C92AF008B
:1099C00009B703848D01319692BC0009B7015F5C31
:1099D00092AF0009B7025C92AF0009B7038D01385E
:1099E00043BF04AE00138D00858172BB0002BF022D
:1099F00092BC00019590AE000191AF000197B304B5
:109A00002604AC009B3692BC0009B7055F5C92AFA0
:109A10000009B7065C92AF0009B707AE000A72BB37
:109A20000006BF0692BC0005B7015F5C92AF00055F
:109A3000B7025C92AF0005B7038D013574BE00A379
:109A400000002605BE02A300102404AC009B369241
:109A5000BC0009B7055F5C92AF0009B7065C92AF26
:109A60000009B707AE000A72BB0006BF0692BC0031
:109A700005B7015F5C92AF0005B7025C92AF0005CD
:109A8000B7038D013574AE00158D0085A872BB003B
:109A900006BF0692BC0005B70C5F5C92AF0005B72D
:109AA0000D5C92AF0005B70E5C92AF0005B70F8D4D
:109AB0000085B28D008644BE00A300002605BE02CC
:109AC000A301F5257192BC0009B7015F5C92AF005C
:109AD00009B7025C92AF0009B7038D013843909338
:109AE000AE00138D00858172BB0002BF02909E9272
:109AF000BD00015F5C909F92A7000192BC0009B776
:109B0000015F5C92AF0009B7025C92AF0009B70336
:109B10008D013843BF065FBF04A61C8892BC0009B4
:109B2000B7015F5C92AF0009B7025C92AF0009B762
:109B300003848D01321992BC0009B7015F5C92AFBA
:109B40000009B7025C92AF0009B7038D01385BBF13
:109B50000492BC0009B7015F5C92AF0009B7025CD8
:109B600092AF0009B703AE001A72BB0002BF0292A7
:109B7000BC00019590AE000191AF000197B304269F
:109B800004AC009C0792BC0009B7015F5C92AF0077
:109B900009B7025C92AF0009B7038D01385B90935F
:109BA00092BC0009B7015F5C92AF0009B7025C92FA
:109BB000AF0009B703AE001A72BB0002BF02909E4D
:109BC00092BD00015F5C909F92A7000192BC0009CA
:109BD000B7015F5C92AF0009B7025C92AF0009B7B2
:109BE000038D01385BBF065FBF04A6148892BC00DA
:109BF00009B7015F5C92AF0009B7025C92AF000940
:109C0000B703848D01321992BC0009B7015F5C92E1
:109C1000AF0009B7025C92AF0009B7038D0138733A
:109C2000BF0492BC0009B7015F5C92AF0009B702A4
:109C30005C92AF0009B703AE001C72BB0002BF020A
:109C400092BC00019590AE000191AF000197B30462
:109C50002604AC009CD892BC0009B7015F5C92AFAF
:109C60000009B7025C92AF0009B7038D0138739009
:109C70009392BC0009B7015F5C92AF0009B7025C28
:109C800092AF0009B703AE001C72BB0002BF029086
:109C90009E92BD00015F5C909F92A7000192BC0064
:109CA00009B7015F5C92AF0009B7025C92AF00098F
:109CB000B7038D013873BF065FBF04A6188892BC36
:109CC0000009B7015F5C92AF0009B7025C92AF0078
:109CD00009B703848D013219AC00855A8D0084F7D1
:109CE0008D0084A48D0085C2AE000B8D008581722D
:109CF000BB0002BF0292BC0001B7055F5C92AF00DF
:109D000001B7065C92AF0001B707AE001172BB004D
:109D100006BF0692BC0005905F9097AE00048D00D0
:109D2000858172BB0002BF0292BC0001B7045F5C78
:109D300092AF0001B70590B3042671AE000B8D0001
:109D4000858172BB0002BF0292BC0001B70D5F5C4F
:109D500092AF0001B70E5C92AF0001B70FAE0012D8
:109D600072BB000EBF0E92BC000DB7045F5C92AFD9
:109D7000000DB7055C92AF000DB7065C92AF000D09
:109D8000B707AE00068D00858172BB0002BF02924C
:109D9000BC00019590AE000191AF000197BF025F3A
:109DA000BF008D00879F2604AC00A5F7AE000B8D89
:109DB00000858172BB0002BF0292BC0001B7055F43
:109DC0005C92AF0001B7065C92AF0001B707AE002E
:109DD0001172BB0006BF0692BC0005905F9097AE63
:109DE00000048D00858172BB0002BF02909E92BD6F
:109DF00000015F5C909F92A70001AE000B8D008573
:109E00008172BB0002BF0292BC0001B7055F5C9289
:109E1000AF0001B7065C92AF0001B707AE00127247
:109E2000BB0006BF0692BC0005B7005F5C92AF00A6
:109E300005B7015C92AF0005B7025C92AF0005B7B1
:109E400003AE00068D0085A872BB0006BF06B602F1
:109E500092BD00055F5CB60392A700054F8D0134EB
:109E6000C835010000AE000B8D00858172BB000279
:109E7000BF0292BC0001B7055F5C92AF0001B7065C
:109E80005C92AF0001B707AE001172BB0006BF06BF
:109E900092BC00055F975C90AE000A8D013B529F1B
:109EA0008D00DBC635010000AE000B8D0085817290
:109EB000BB0002BF0292BC0001B7055F5C92AF001D
:109EC00001B7065C92AF0001B707AE001172BB008C
:109ED00006BF0692BC00055F975C90AE000A8D013C
:109EE0003B6B909F8D00DECAAE000B8D00858172AA
:109EF000BB0002BF0292BC0001B7055F5C92AF00DD
:109F000001B7065C92AF0001B707AE001172BB004B
:109F100006BF0692BC0005A1002604AC00A061AEFD
:109F2000000B8D00858172BB0002BF0292BC000154
:109F3000B7055F5C92AF0001B7065C92AF0001B756
:109F400007AE001172BB0006BF0692BC0005A1035C
:109F50002604AC00A061AE000B8D00858172BB00B1
:109F600002BF0292BC0001B7055F5C92AF0001B76F
:109F7000065C92AF0001B707AE001172BB0006BFCE
:109F80000692BC0005A1082604AC00A061AE000B3F
:109F90008D00858172BB0002BF0292BC0001B70533
:109FA0005F5C92AF0001B7065C92AF0001B707AEED
:109FB000001172BB0006BF0692BC0005A109260471
:109FC000AC00A061AE000B8D00858172BB0002BFAA
:109FD0000292BC0001B7055F5C92AF0001B7065C5E
:109FE00092AF0001B707AE001172BB0006BF069228
:109FF000BC0005A10A276AAE000B8D00858172BBEB
:10A000000002BF0292BC0001B7055F5C92AF000185
:10A01000B7065C92AF0001B707AE001172BB000635
:10A02000BF0692BC0005A10B2737AE000B8D008543
:10A030008172BB0002BF0292BC0001B7055F5C9257
:10A04000AF0001B7065C92AF0001B707AE00117216
:10A05000BB0006BF0692BC0005A10C2704AC00A102
:10A06000D7AE000B8D00858172BB0002BF0292BC8F
:10A070000001B7055F5C92AF0001B7065C92AF00CC
:10A0800001B707AE001272BB0006BF0692BC000506
:10A09000B7005F5C92AF0005B7015C92AF0005B7F7
:10A0A000025C92AF0005B703AE000BBF065FBF04B2
:10A0B0008D0087AA2E04AC00A17C3501000045006C
:10A0C00008AE000B8D00858172BB0002BF0292BCFE
:10A0D0000001B7055F5C92AF0001B7065C92AF006C
:10A0E00001B707AE001272BB0006BF0692BC0005A6
:10A0F000B7005F5C92AF0005B7015C92AF0005B797
:10A10000025C92AF0005B7038D0087500000000A83
:10A11000B6034508008D00C708350100004500085A
:10A12000AE000B8D00858172BB0002BF0292BC00A5
:10A1300001B7055F5C92AF0001B7065C92AF00010A
:10A14000B707AE001272BB0006BF0692BC0005B78F
:10A15000005F5C92AF0005B7015C92AF0005B702EB
:10A160005C92AF0005B7038D00874A0000000AB675
:10A17000074508008D00D248AC00A5F73501000066
:10A18000450004AE000B8D00858172BB0002BF024A
:10A1900092BC0001B7055F5C92AF0001B7065C920C
:10A1A000AF0001B707AE001272BB0006BF0692BC3B
:10A1B0000005B7005F5C92AF0005B7015C92AF008D
:10A1C00005B7025C92AF0005B703B6034504008DE6
:10A1D00000D248AC00A5F7AE000B8D00858172BBA4
:10A1E0000002BF0292BC0001B7055F5C92AF0001A4
:10A1F000B7065C92AF0001B707AE001172BB000654
:10A20000BF0692BC0005A1012604AC00A2E2AE008C
:10A210000B8D00858172BB0002BF0292BC0001B7AA
:10A22000055F5C92AF0001B7065C92AF0001B70713
:10A23000AE001172BB0006BF0692BC0005A1042649
:10A2400004AC00A2E2AE000B8D00858172BB00025F
:10A25000BF0292BC0001B7055F5C92AF0001B70678
:10A260005C92AF0001B707AE001172BB0006BF06DB
:10A2700092BC0005A105276AAE000B8D0085817296
:10A28000BB0002BF0292BC0001B7055F5C92AF0049
:10A2900001B7065C92AF0001B707AE001172BB00B8
:10A2A00006BF0692BC0005A1062737AE000B8D0045
:10A2B000858172BB0002BF0292BC0001B7055F5CE2
:10A2C00092AF0001B7065C92AF0001B707AE001174
:10A2D00072BB0006BF0692BC0005A1072704AC00B4
:10A2E000A577AE000B8D00858172BB0002BF029284
:10A2F000BC0001B7055F5C92AF0001B7065C92AF8E
:10A300000001B707AE001272BB0006BF0692BC0088
:10A3100005B7005F5C92AF0005B7015C92AF000526
:10A32000B7025C92AF0005B7033D002B04AC00A45C
:10A330000B8D012E13350100004500085F5ABF0642
:10A34000BF04AE000B8D00858172BB0002BF02927C
:10A35000BC0001B70D5F5C92AF0001B70E5C92AF1D
:10A360000001B70FAE001272BB000EBF0E92BC0010
:10A370000DB7005F5C92AF000DB7015C92AF000DAE
:10A38000B7025C92AF000DB7038D00865F8D00872A
:10A39000500000000AB6034508008D00D248350180
:10A3A00000004500085F5ABF06BF04AE000B8D00D9
:10A3B000858172BB0002BF0292BC0001B70D5F5CD9
:10A3C00092AF0001B70E5C92AF0001B70FAE001262
:10A3D00072BB000EBF0E92BC000DB7005F5C92AF67
:10A3E000000DB7015C92AF000DB7025C92AF000D9B
:10A3F000B7038D00865F8D00874A0000000AB6070C
:10A400004508008D00D57EAC00A5F7AE000B8D0091
:10A41000858172BB0002BF0292BC0001B7055F5C80
:10A4200092AF0001B7065C92AF0001B707AE001211
:10A4300072BB0006BF0692BC0005B7005F5C92AF1E
:10A440000005B7015C92AF0005B7025C92AF000552
:10A45000B703AE0064BF065FBF048D0087AA2F0458
:10A46000AC00A52635010000450008AE000B8D00AC
:10A47000858172BB0002BF0292BC0001B7055F5C20
:10A4800092AF0001B7065C92AF0001B707AE0012B1
:10A4900072BB0006BF0692BC0005B7005F5C92AFBE
:10A4A0000005B7015C92AF0005B7025C92AF0005F2
:10A4B000B7038D0087500000000AB6034508008DE1
:10A4C00000D24835010000450008AE000B8D008524
:10A4D0008172BB0002BF0292BC0001B7055F5C92B3
:10A4E000AF0001B7065C92AF0001B707AE00127271
:10A4F000BB0006BF0692BC0005B7005F5C92AF00D0
:10A5000005B7015C92AF0005B7025C92AF0005B7DA
:10A51000038D00874A0000000AB6074508008D0039
:10A52000D57EAC00A5F7AE000B8D00858172BB0017
:10A5300002BF0292BC0001B7055F5C92AF0001B799
:10A54000065C92AF0001B707AE001272BB0006BFF7
:10A550000692BC0005B7005F5C92AF0005B7015CD6
:10A5600092AF0005B7025C92AF0005B703BE028D43
:10A5700001310CAC00A5F7AE000B8D00858172BBDC
:10A580000002BF0292BC0001B7055F5C92AF000100
:10A59000B7065C92AF0001B707AE001172BB0006B0
:10A5A000BF0692BC0005A102264DAE000B8D0085B2
:10A5B0008172BB0002BF0292BC0001B7055F5C92D2
:10A5C000AF0001B7065C92AF0001B707AE00127290
:10A5D000BB0006BF0692BC0005B7005F5C92AF00EF
:10A5E00005B7015C92AF0005B7025C92AF0005B7FA
:10A5F00003BE028D01310C8D0084CFAC00855E8DD1
:10A600000084888D0085C2AE00088992BC0009B71D
:10A61000055F5C92AF0009B7065C92AF0009B7070F
:10A62000AE000A72BB0006BF0692BC0005B7015F10
:10A630005C92AF0005B7025C92AF0005B703858D51
:10A640000127B192BC0009B7015F5C92AF0009B766
:10A65000025C92AF0009B703AE001172BB0002BFEB
:10A660000292BC00014D27584A2604AC00A7524A6A
:10A670002604AC00A7BC4A2604AC00A8474A26041E
:10A68000AC00A8CD4A2604AC00A9534A2604AC006D
:10A69000A9D34A2604AC00AA534A2604AC00AADE79
:10A6A0004A2604AC00AB684A2604AC00ABF34A2649
:10A6B00004AC00AC7E4A2604AC00AD02AC00AD0A8E
:10A6C00092BC0009B7015F5C92AF0009B7025C92CF
:10A6D000AF0009B703AE001172BB0002BF02A601B2
:10A6E00092BD000192BC0009B7015F5C92AF000906
:10A6F000B7025C92AF0009B703AE000F72BB000255
:10A70000BF0292BC00019590AE000191AF0001978D
:10A710008D0087C192BC0009B7055F5C92AF00094C
:10A72000B7065C92AF0009B707AE001272BB000615
:10A73000BF06B60092BD00055F5CB60192A700059A
:10A740005CB60292A700055CB60392A70005AC00B8
:10A75000AD0A92BC0009B7015F5C92AF0009B70275
:10A760005C92AF0009B703AE001172BB0002BF02DA
:10A77000A60292BD000192BC0009B7015F5C92AFD6
:10A780000009B7025C92AF0009B703AE001272BBBA
:10A790000002BF02AE0064BF065FBF04B60492BDF4
:10A7A00000015F5CB60592A700015CB60692A700A7
:10A7B000015CB60792A70001AC00AD0A92BC00098B
:10A7C000B7015F5C92AF0009B7025C92AF0009B7B6
:10A7D00003AE001172BB0002BF02A60392BD0001CE
:10A7E00092BC0009B7015F5C92AF0009B7025C92AE
:10A7F000AF0009B703AE001872BB0002BF0292BCE3
:10A8000000015F97BF025FBF0092BC0009B7055F00
:10A810005C92AF0009B7065C92AF0009B707AE00C3
:10A820001272BB0006BF06B60092BD00055F5CB6A3
:10A830000192A700055CB60292A700055CB60392E0
:10A84000A70005AC00AD0A92BC0009B7015F5C929D
:10A85000AF0009B7025C92AF0009B703AE001172F6
:10A86000BB0002BF02A60492BD000192BC0009B762
:10A87000015F5C92AF0009B7025C92AF0009B703B9
:10A880008D013A39B70092BC0009B7015F5C92AF05
:10A890000009B7025C92AF0009B703AE001272BBA9
:10A8A0000002BF025FB60097BF065FBF04B6049206
:10A8B000BD00015F5CB60592A700015CB60692A7D9
:10A8C00000015CB60792A70001AC00AD0A92BC0083
:10A8D00009B7015F5C92AF0009B7025C92AF000953
:10A8E000B703AE001172BB0002BF02A60592BD0005
:10A8F0000192BC0009B7015F5C92AF0009B7025C2E
:10A9000092AF0009B7038D013A47B70092BC000926
:10A91000B7015F5C92AF0009B7025C92AF0009B764
:10A9200003AE001272BB0002BF025FB60097BF0603
:10A930005FBF04B60492BD00015F5CB60592A7003C
:10A94000015CB60692A700015CB60792A70001ACB5
:10A9500000AD0A92BC0009B7015F5C92AF0009B775
:10A96000025C92AF0009B703AE001172BB0002BFD8
:10A9700002A60692BD000192BC0009B7015F5C927D
:10A98000AF0009B7025C92AF0009B7038D01385BD5
:10A99000BF0292BC0009B7055F5C92AF0009B70621
:10A9A0005C92AF0009B707AE001272BB0006BF068B
:10A9B0005FBF00B60092BD00055F5CB60192A700C4
:10A9C000055CB60292A700055CB60392A70005AC31
:10A9D00000AD0A92BC0009B7015F5C92AF0009B7F5
:10A9E000025C92AF0009B703AE001172BB0002BF58
:10A9F00002A60792BD000192BC0009B7015F5C92FC
:10AA0000AF0009B7025C92AF0009B7038D0138733C
:10AA1000BF0292BC0009B7055F5C92AF0009B706A0
:10AA20005C92AF0009B707AE001272BB0006BF060A
:10AA30005FBF00B60092BD00055F5CB60192A70043
:10AA4000055CB60292A700055CB60392A70005ACB0
:10AA500000AD0A92BC0009B7015F5C92AF0009B774
:10AA6000025C92AF0009B703AE001172BB0002BFD7
:10AA700002A60892BD000192BC0009B7015F5C927A
:10AA8000AF0009B7025C92AF0009B703AE001672BF
:10AA9000BB0002BF0292BC00015F97BF025FBF0014
:10AAA00092BC0009B7055F5C92AF0009B7065C92E3
:10AAB000AF0009B707AE001272BB0006BF06B600B2
:10AAC00092BD00055F5CB60192A700055CB60292DC
:10AAD000A700055CB60392A70005AC00AD0A92BCC6
:10AAE0000009B7015F5C92AF0009B7025C92AF004A
:10AAF00009B703AE001172BB0002BF02A60992BDE6
:10AB0000000192BC0009B7015F5C92AF0009B70277
:10AB10005C92AF0009B7035F5C72BB0002BF029298
:10AB2000BC00015F97BF025FBF0092BC0009B70580
:10AB30005F5C92AF0009B7065C92AF0009B707AE41
:10AB4000001272BB0006BF06B60092BD00055F5C36
:10AB5000B60192A700055CB60292A700055CB60399
:10AB600092A70005AC00AD0A92BC0009B7015F5C7A
:10AB700092AF0009B7025C92AF0009B703AE0011B3
:10AB800072BB0002BF02A60A92BD000192BC00097E
:10AB9000B7015F5C92AF0009B7025C92AF0009B7E2
:10ABA00003AE002572BB0002BF0292BC00015F979A
:10ABB000BF025FBF0092BC0009B7055F5C92AF00A7
:10ABC00009B7065C92AF0009B707AE001272BB006E
:10ABD00006BF06B60092BD00055F5CB60192A700F5
:10ABE000055CB60292A700055CB60392A70005AC0F
:10ABF00000AD0A92BC0009B7015F5C92AF0009B7D3
:10AC0000025C92AF0009B703AE001172BB0002BF35
:10AC100002A60B92BD000192BC0009B7015F5C92D5
:10AC2000AF0009B7025C92AF0009B703AE0026720D
:10AC3000BB0002BF0292BC00015F97BF025FBF0072
:10AC400092BC0009B7055F5C92AF0009B7065C9241
:10AC5000AF0009B707AE001272BB0006BF06B60010
:10AC600092BD00055F5CB60192A700055CB602923A
:10AC7000A700055CB60392A70005AC00AD0A92BC24
:10AC80000009B7015F5C92AF0009B7025C92AF00A8
:10AC900009B703AE001172BB0002BF02A60C92BD41
:10ACA000000192BC0009B7015F5C92AF0009B702D6
:10ACB0005C92AF0009B7038D013A55B70092BC0012
:10ACC00009B7015F5C92AF0009B7025C92AF00095F
:10ACD000B703AE001272BB0002BF025FB60097BF9F
:10ACE000065FBF04B60492BD00015F5CB60592A783
:10ACF00000015CB60692A700015CB60792A70001AE
:10AD000020088D0085818D010A8B8D0084C0878D80
:10AD10000084888D0085C2AE000B8D00858172BBDA
:10AD20000002BF0292BC0001B7055F5C92AF000158
:10AD3000B7065C92AF0001B707AE000D72BB00060C
:10AD4000BF0692BC00059590AE000191AF0005973B
:10AD5000A30001273CAE000B8D00858172BB000271
:10AD6000BF0292BC0001B7055F5C92AF0001B7065D
:10AD70005C92AF0001B707AE000D72BB0006BF06C4
:10AD800092BC00059590AE000191AF0005975D263D
:10AD900038AE000B8D0085A872BB0006BF0692BCC2
:10ADA0000005B7015F5C92AF0005B7025C92AF008F
:10ADB00005B7038D013A0FA100270EBC005412AA5B
:10ADC00002BD005412AC00AEAFAE000B8D00858109
:10ADD00072BB0002BF0292BC0001B7055F5C92AF7C
:10ADE0000001B7065C92AF0001B707AE000D72BB61
:10ADF0000006BF0692BC00059590AE000191AF0021
:10AE000005975D2704AC00AEA5AE000B8D0085A8AC
:10AE100072BB0006BF0692BC0005B7015F5C92AF33
:10AE20000005B7025C92AF0005B7038D013A0FA190
:10AE3000002672AE000B8D00858172BB0002BF023E
:10AE400092BC0001B7055F5C92AF0001B7065C924F
:10AE5000AF0001B707AE001872BB0006BF0692BC78
:10AE60000005A102263FAE000B8D00858172BB005C
:10AE700002BF0292BC0001B7055F5C92AF0001B750
:10AE8000065C92AF0001B707AE002672BB0006BF9A
:10AE90000692BC0005A100260CBC005412AA02BDFB
:10AEA000005412200ABC005412A4FDBD005412AE7E
:10AEB000000B8D0085A872BB0006BF0692BC000582
:10AEC000B7015F5C92AF0005B7025C92AF0005B7B7
:10AED000038D013A2BA1002749AE000B8D0085811F
:10AEE00072BB0002BF0292BC0001B7055F5C92AF6B
:10AEF0000001B7065C92AF0001B707AE001872BB45
:10AF00000006BF0692BC0005A1002616BC00541323
:10AF1000AA02BD005413BC00540FAA20BD00540F58
:10AF20002014BC005413A4FDBD005413BC00540FE6
:10AF3000A4DFBD00540FAE000B8D00858172BB00F5
:10AF400002BF0292BC0001B7055F5C92AF0001B77F
:10AF5000065C92AF0001B707AE001672BB0006BFD9
:10AF60000692BC0005A1002704AC00AFFAAE000BAE
:10AF70008D0085A872BB0006BF0692BC0005B70114
:10AF80005F5C92AF0005B7025C92AF0005B7038D1E
:10AF9000013A0FA100264BAE000B8D00858172BBDC
:10AFA0000002BF0292BC0001B7055F5C92AF0001D6
:10AFB000B7065C92AF0001B707AE001872BB00067F
:10AFC000BF0692BC0005A1022618BC005410A47F45
:10AFD000BD005410BC005414A4F7BD005414AC00C0
:10AFE000B081BC005410AA80BD005410BC005414A1
:10AFF000A4F7BD005414AC00B081AE000B8D0085E9
:10B00000A872BB0006BF0692BC0005B7015F5C9248
:10B01000AF0005B7025C92AF0005B7038D013A0F90
:10B02000A1002649AE000B8D00858172BB0002BFD6
:10B030000292BC0001B7055F5C92AF0001B7065CED
:10B0400092AF0001B707AE001872BB0006BF0692B0
:10B05000BC0005A1022616BC005410A47FBD0054FC
:10B0600010BC005414A4F7BD0054142014BC0054A8
:10B0700010A47FBD005410BC005414AA08BD005495
:10B0800014AE000B8D0085A872BB0006BF0692BCF3
:10B090000005B7015F5C92AF0005B7025C92AF009C
:10B0A00005B7038D013A1DA1002733AE000B8D00BB
:10B0B000858172BB0002BF0292BC0001B7055F5CD4
:10B0C00092AF0001B7065C92AF0001B707AE00185F
:10B0D00072BB0006BF0692BC0005A100275DAE0052
:10B0E0000B8D0085A872BB0006BF0692BC0005B799
:10B0F000015F5C92AF0005B7025C92AF0005B70339
:10B100008D013A55A100273FAE000B8D008581725D
:10B11000BB0002BF0292BC0001B7055F5C92AF00AA
:10B1200001B7065C92AF0001B707AE001872BB0012
:10B1300006BF0692BC0005A101260CBC00540CAA57
:10B1400002BD00540C200ABC00540CA4FDBD0054E8
:10B150000CAE000B8D00858172BB0002BF0292BC59
:10B160000001B7055F5C92AF0001B7065C92AF00CB
:10B1700001B707AE000272BB0006BF0692BC000515
:10B18000A100270CBC00540CAA08BD00540C200AD6
:10B19000BC00540CA4F7BD00540CAE000B8D008510
:10B1A0008172BB0002BF0292BC0001B7055F5C92D6
:10B1B000AF0001B7065C92AF0001B707AE000372A3
:10B1C000BB0006BF0692BC0005A100270CBC0054C2
:10B1D00010AA20BD005410200ABC005410A4DFBDEA
:10B1E000005410AE000B8D00858172BB0002BF02BF
:10B1F00092BC0001B7055F5C92AF0001B7065C929C
:10B20000AF0001B707AE000472BB0006BF0692BCD8
:10B210000005A100270CBC00540DAA02BD00540D6E
:10B22000200ABC00540DA4FDBD00540DAE000B8DD2
:10B2300000858172BB0002BF0292BC0001B7055FAE
:10B240005C92AF0001B7065C92AF0001B707AE0099
:10B250000572BB0006BF0692BC0005A100270CBC0E
:10B2600000540CAA80BD00540C200ABC00540CA44D
:10B270007FBD00540CAE000B8D00858172BB0002B7
:10B28000BF0292BC0001B7055F5C92AF0001B70638
:10B290005C92AF0001B70792BC0005A100270CBC6F
:10B2A000005419AA02BD005419200ABC005419A464
:10B2B000FDBD005419AE000B8D0085A872BB0006C1
:10B2C000BF0692BC0005B7015F5C92AF0005B702F4
:10B2D0005C92AF0005B7038D0122E0A100270CBCF2
:10B2E00000540DAA04BD00540D200ABC00540DA446
:10B2F000FBBD00540DAE000B8D0085A872BB00068F
:10B30000BF0692BC0005B7015F5C92AF0005B702B3
:10B310005C92AF0005B7038D012FE6A100273FAE79
:10B32000000B8D00858172BB0002BF0292BC000140
:10B33000B7055F5C92AF0001B7065C92AF0001B742
:10B3400007AE001872BB0006BF0692BC0005A10242
:10B35000270CBC005414AA10BD005414200ABC00D1
:10B360005414A4EFBD0054148D0084C0878D008454
:10B37000888D0085C292BC0009B7015F5C92AF0066
:10B3800009B7025C92AF0009B703AE001172BB00AF
:10B3900002BF0292BC00014D274E4A274FA0022651
:10B3A00004AC00B4564A2604AC00B4B84A2604AC37
:10B3B00000B5134A2604AC00B56E4A2604AC00B5AD
:10B3C000C94A2604AC00B6244A2604AC00B69C4AFE
:10B3D0002604AC00B7134A2604AC00B78B4A2604F7
:10B3E000AC00B801AC00B869AC00B86992BC000907
:10B3F000B7055F5C92AF0009B7065C92AF0009B772
:10B4000007AE001272BB0006BF0692BC0005B70073
:10B410005F5C92AF0005B7015C92AF0005B7025CBC
:10B4200092AF0005B70392BC0009B7055F5C92AF0D
:10B430000009B7065C92AF0009B707AE000F72BBF8
:10B440000006BF06B60292BD00055F5CB60392A778
:10B450000005AC00B86992BC0009B7055F5C92AF0B
:10B460000009B7065C92AF0009B707AE001272BBC5
:10B470000006BF0692BC0005B7005F5C92AF0005F6
:10B48000B7015C92AF0005B7025C92AF0005B7034D
:10B4900092BC0009B7055F5C92AF0009B7065C92E9
:10B4A000AF0009B707AE001872BB0006BF06B603AF
:10B4B00092BD0005AC00B86992BC0009B7055F5C9D
:10B4C00092AF0009B7065C92AF0009B707AE001251
:10B4D00072BB0006BF0692BC0005B7005F5C92AF6E
:10B4E0000005B7015C92AF0005B7025C92AF0005A2
:10B4F000B703B6038892BC0009B7015F5C92AF0046
:10B5000009B7025C92AF0009B703848D013966ACBC
:10B5100000B86992BC0009B7055F5C92AF0009B73B
:10B52000065C92AF0009B707AE001272BB0006BFFF
:10B530000692BC0005B7005F5C92AF0005B7015CE6
:10B5400092AF0005B7025C92AF0005B703B603885F
:10B5500092BC0009B7015F5C92AF0009B7025C9230
:10B56000AF0009B703848D013978AC00B86992BC8B
:10B570000009B7055F5C92AF0009B7065C92AF00A7
:10B5800009B707AE001272BB0006BF0692BC0005E9
:10B59000B7005F5C92AF0005B7015C92AF0005B7E2
:10B5A000025C92AF0005B703BE028992BC0009B7E6
:10B5B000015F5C92AF0009B7025C92AF0009B7036C
:10B5C000858D012AEAAC00B86992BC0009B7055F15
:10B5D0005C92AF0009B7065C92AF0009B707AE00F6
:10B5E0001272BB0006BF0692BC0005B7005F5C92FA
:10B5F000AF0005B7015C92AF0005B7025C92AF00E7
:10B6000005B703BE028992BC0009B7015F5C92AF27
:10B610000009B7025C92AF0009B703858D012B4A80
:10B62000AC00B86992BC0009B7015F5C92AF000939
:10B63000B7025C92AF0009B703AE001272BB000202
:10B64000BF0292BC0001B7045F5C92AF0001B70576
:10B650005C92AF0001B7065C92AF0001B707BE0471
:10B66000A300002605BE06A3000027063501000042
:10B6700020023F0092BC0009B7015F5C92AF000955
:10B68000B7025C92AF0009B703AE001672BB0002AE
:10B69000BF02B60092BD0001AC00B86992BC0009BF
:10B6A000B7015F5C92AF0009B7025C92AF0009B7C7
:10B6B00003AE001272BB0002BF0292BC0001B704CD
:10B6C0005F5C92AF0001B7055C92AF0001B7065C0A
:10B6D00092AF0001B707BE04A300002605BE06A373
:10B6E000000027063501000020023F0092BC00093F
:10B6F000B7015F5C92AF0009B7025C92AF0009B777
:10B70000035F5C72BB0002BF02B60092BD0001ACD9
:10B7100000B86992BC0009B7015F5C92AF0009B73D
:10B72000025C92AF0009B703AE001272BB0002BF09
:10B730000292BC0001B7045F5C92AF0001B7055CE8
:10B7400092AF0001B7065C92AF0001B707BE04A339
:10B7500000002605BE06A3000027063501000020D4
:10B76000023F0092BC0009B7015F5C92AF0009B7CD
:10B77000025C92AF0009B703AE002572BB0002BFA6
:10B7800002B60092BD0001AC00B86992BC0009B7D6
:10B79000015F5C92AF0009B7025C92AF0009B7038A
:10B7A000AE001272BB0002BF0292BC0001B7045F80
:10B7B0005C92AF0001B7055C92AF0001B7065C92E6
:10B7C000AF0001B707BE04A300002605BE06A30014
:10B7D0000027063501000020023F0092BC0009B797
:10B7E000015F5C92AF0009B7025C92AF0009B7033A
:10B7F000AE002672BB0002BF02B60092BD0001205F
:10B800006892BC0009B7015F5C92AF0009B7025CA7
:10B8100092AF0009B703AE001272BB0002BF0292E2
:10B82000BC0001B7045F5C92AF0001B7055C92AF4A
:10B830000001B7065C92AF0001B707BE04A3000089
:10B840002605BE06A300002704A60120014F88920A
:10B85000BC0009B7015F5C92AF0009B7025C92AF10
:10B860000009B703848D01398A92BC0009B7015FD2
:10B870005C92AF0009B7025C92AF0009B7038D017B
:10B880002A8992BC0009B7015F5C92AF0009B70238
:10B890005C92AF0009B7038D00F2EE8D00F05DAE53
:10B8A0002710BF025FBF008D0131D88D013ADA8DBC
:10B8B0000084C0878D0084F78D0084FC52038D00C6
:10B8C00085C2AE00058D00858172BB0002BF029269
:10B8D000BC00016B01AE00078D00858172BB0002C8
:10B8E000BF0292BC0001B700AE00068D00858172D8
:10B8F000BB0002BF0292BC00018D0139AE1F02AE37
:10B9000000098D00858172BB0002BF0292BC00015C
:10B91000B700AE00088D00858172BB0002BF0292A5
:10B92000BC00018D0139AEBF0C3F0F3F0E7B01A162
:10B93000042704AC00BB601E025A27515A2604ACEF
:10B9400000B9C35A2604AC00B9F95A2604AC00BAAF
:10B95000335A2604AC00BA6D5A2604AC00BA7B5A9E
:10B960002604AC00BA895A2604AC00BAC55A26048B
:10B97000AC00BAD35A2604AC00BAE15A2604AC0093
:10B98000BAF05A2604AC00BB28AC00BDEAAE0016E3
:10B990008D0085A872BB0006BF0692BC0005B701EA
:10B9A0005F5C92AF0005B7025C92AF0005B7038DF4
:10B9B0000137DE8D01329B8D0085818D011B4AACE4
:10B9C00000BDEAAE00168D0085A872BB0006BF065A
:10B9D00092BC0005B7015F5C92AF0005B7025C92B4
:10B9E000AF0005B7038D0137DE8D0138438D00852B
:10B9F000818D011B4AAC00BDEAAE00168D0085A802
:10BA000072BB0006BF0692BC0005B7015F5C92AF37
:10BA10000005B7025C92AF0005B7038D0137DE8DDC
:10BA2000012BAABF0EBE0E8D0085818D011B4AAC75
:10BA300000BDEAAE00168D0085A872BB0006BF06E9
:10BA400092BC0005B7015F5C92AF0005B7025C9243
:10BA5000AF0005B7038D0137DE8D012361BF0EBE38
:10BA60000E8D0085818D011B4AAC00BDEABE0E8D96
:10BA70000085818D011B4AAC00BDEABE0E8D00859C
:10BA8000818D011B4AAC00BDEAAE00168D0085A871
:10BA900072BB0006BF0692BC0005B7015F5C92AFA7
:10BAA0000005B7025C92AF0005B7038D0137DE9247
:10BAB000BC00018D013D1D5F978D0085818D011BAF
:10BAC0004AAC00BDEABE0E8D0085818D011B4AACDB
:10BAD00000BDEA5F5C8D0085818D011B4AAC00BD15
:10BAE000EAAE00648D0085818D011B4AAC00BDEA81
:10BAF000AE00168D0085A872BB0006BF0692BC0082
:10BB000005B7015F5C92AF0005B7025C92AF00051C
:10BB1000B7038D0137DE8D013A015F978D00858176
:10BB20008D011B4AAC00BDEAAE00168D0085A872DF
:10BB3000BB0006BF0692BC0005B7015F5C92AF0078
:10BB400005B7025C92AF0005B7038D0137DE8D01AA
:10BB50003A555F978D0085818D011B4AAC00BDEA87
:10BB60007B01A1062704AC00BDEA1E025D27435AF3
:10BB700027705A2604AC00BC121D00032604AC003A
:10BB8000BC4A5A2604AC00BCDC5A2604AC00BCE01B
:10BB90005A2604AC00BCE41D00022604AC00BD60C3
:10BBA0005A2604AC00BC405A2604AC00BD97AC0039
:10BBB000BDD0AE00168D0085A872BB0006BF0692F0
:10BBC000BC0005B7015F5C92AF0005B7025C92AFA5
:10BBD0000005B7038D0137DEBE0C8D010F4AAC00A6
:10BBE000BDD0AE00168D0085A872BB0006BF0692C0
:10BBF000BC0005B7015F5C92AF0005B7025C92AF75
:10BC00000005B7038D0137DEBE0C8D01179EAC0019
:10BC1000BDD0BE0C89AE00168D0085A872BB000693
:10BC2000BF0692BC0005B7015F5C92AF0005B7028A
:10BC30005C92AF0005B703858D0103ADAC00BDD0AC
:10BC4000A680BD0050D3AC00BDD0AE00088D0085ED
:10BC50008172BB0002BF0292BC0001905F9097AE60
:10BC6000000ABF00938D013B3489AE00168D00851C
:10BC7000A872BB0006BF0692BC0005B7015F5C92CC
:10BC8000AF0005B7025C92AF0005B703858D0129AF
:10BC9000C5AE00098D00858172BB0002BF0292BC57
:10BCA0000001905F9097AE000ABF00938D013B3476
:10BCB00089AE00168D0085A872BB0006BF0692BC37
:10BCC0000005B7015F5C92AF0005B7025C92AF0060
:10BCD00005B703858D012A27AC00BDD0AC00BDD0CF
:10BCE000AC00BDD0AE00168D0085A872BB0006BFAB
:10BCF0000692BC0005B7015F5C92AF0005B7025C1D
:10BD000092AF0005B7038D0137DEAE001872BB009D
:10BD100002BF0292BC0001A1022743B60DA102247A
:10BD20003DAE00168D0085A872BB0006BF0692BC12
:10BD30000005B7015F5C92AF0005B7025C92AF00EF
:10BD400005B7038D0137DEBE0C5D2704A601200177
:10BD50004FAE001672BB0002BF0292BD0001207000
:10BD6000AE00168D0085A872BB0006BF0692BC000F
:10BD700005B7015F5C92AF0005B7025C92AF0005AA
:10BD8000B7038D0137DEAE001872BB0002BF02B6EA
:10BD90000D92BD00012039BE0C5D2706350100085B
:10BDA00020023F08AE00168D0085A872BB0006BFBA
:10BDB0000692BC0005B7015F5C92AF0005B7025C5C
:10BDC00092AF0005B7038D0137DEB6088D01398AC1
:10BDD000AE000889AE00048D0085A872BB0006BFC6
:10BDE00006858D0085818D0119245B03AC00855A81
:10BDF0008D0084F78D0085C25FBF005CBF028D019E
:10BE0000365FA1002704A60120014FAE00028D007D
:10BE1000858172BB0002BF0292BD00015FBF005C62
:10BE20005CBF028D01365FA1002704A60120014FEF
:10BE3000AE00038D00858172BB0002BF0292BD007F
:10BE400001AE0003BF025FBF008D01365FA1002776
:10BE500004A60120014FAE00048D00858172BB0055
:10BE600002BF0292BD0001AE0004BF025FBF008DA1
:10BE700001365FA1002704A60120014FAE00058D09
:10BE800000858172BB0002BF0292BD0001AE0005B9
:10BE9000BF025FBF008D01365FB708B608A102255B
:10BEA00032AE00278D00858172BB0002BF02A60161
:10BEB00092BD0001AE00278D00858172BB0002BFDC
:10BEC0000292BC0001B700A6058D0085818D01316D
:10BED00096201A3D082704A60120014FAE00278DA9
:10BEE00000858172BB0002BF0292BD0001AE000658
:10BEF000BF025FBF008D01365FB708B608A10225FB
:10BF000031AE00288D00858172BB0002BF024F92C6
:10BF1000BD0001AE00288D00858172BB0002BF020A
:10BF200092BC0001B700A6068D0085818D01319677
:10BF3000201A3D082704A60120014FAE00288D00DD
:10BF4000858172BB0002BF0292BD0001AE0007BF37
:10BF5000025FBF008D01365FB708B608A102253128
:10BF6000AE00298D00858172BB0002BF024F92BDD9
:10BF70000001AE00298D00858172BB0002BF0292D4
:10BF8000BC0001B700A6078D0085818D0131962088
:10BF90001A3D082704A60120014FAE00298D008517
:10BFA0008172BB0002BF0292BD0001AE00318D0064
:10BFB000858172BB0002BF02AE00039E92BD0001EC
:10BFC00090AE00019F91A70001AE0009BF025FBFC4
:10BFD000008D01365FAE002B8D00858172BB0002A3
:10BFE000BF0292BD0001AE000ABF025FBF008D011B
:10BFF000365FAE002C8D00858172BB0002BF0292BD
:10C00000BD0001AE000CBF025FBF008D01365FAE08
:10C0100000188D00858172BB0002BF0292BD000135
:10C02000AE000BBF025FBF008D01365FB708B608D8
:10C03000A1022531AE00168D00858172BB0002BFC2
:10C04000024F92BD0001AE00168D00858172BB00CB
:10C0500002BF0292BC0001B700A60B8D0085818D46
:10C06000013196201A3D082704A60120014FAE0099
:10C07000168D00858172BB0002BF0292BD0001AE29
:10C08000000FBF025FBF008D01365FB708B608A181
:10C090000225305F5C8D00858172BB0002BF02A665
:10C0A0000192BD00015F5C8D00858172BB0002BF03
:10C0B0000292BC0001B700A60F8D0085818D013171
:10C0C0009620193D082704A60120014F5F5C8D00D2
:10C0D000858172BB0002BF0292BD0001AE0010BF9D
:10C0E000025FBF008D01365FB708B608A102253296
:10C0F000AE00258D00858172BB0002BF02A60192B1
:10C10000BD0001AE00258D00858172BB0002BF021B
:10C1100092BC0001B700A6108D0085818D0131967B
:10C12000201A3D082704A60120014FAE00258D00EE
:10C13000858172BB0002BF0292BD0001AE0011BF3B
:10C14000025FBF008D01365FB708B608A102253136
:10C15000AE00268D00858172BB0002BF024F92BDEA
:10C160000001AE00268D00858172BB0002BF0292E5
:10C17000BC0001B700A6118D0085818D013196208C
:10C180001A3D082704A60120014FAE00268D008528
:10C190008172BB0002BF0292BD0001AE0012BF025D
:10C1A0005FBF008D01365FB708B608A1022531AE2A
:10C1B000002A8D00858172BB0002BF024F92BD0034
:10C1C00001AE002A8D00858172BB0002BF0292BCC5
:10C1D0000001B700A6128D0085818D013196201ACD
:10C1E0003D082704A60120014FAE002A8D0085815D
:10C1F00072BB0002BF0292BD0001AE001CBF025F15
:10C20000BF008D0126CCAE00338D0085A872BB0027
:10C2100006BF06B60292BD00055F5CB60392A7009A
:10C2200005AE0014BF025FBF008D0126CCAE003505
:10C230008D0085A872BB0006BF06B60292BD000540
:10C240005F5CB60392A70005AE0018BF025FBF0097
:10C250008D0126CCAE00378D0085A872BB0006BFCD
:10C2600006B60292BD00055F5CB60392A70005AE5C
:10C270000020BF025FBF008D0126CCAE000F8D00F5
:10C2800085A872BB0006BF06B60292BD00055F5CC2
:10C29000B60392A70005AC00855E8D0084F78D0083
:10C2A00084FC5211C600704D2604AC00C702C600C3
:10C2B000586B0BAE00583F01BF028D013A396B0A33
:10C2C000AE00583F01BF028D013A476B09C6005AC4
:10C2D0006B08AE00583F01BF028D012EB56B05AE55
:10C2E00000583F01BF028D0138431F06AE00583F82
:10C2F00001BF028D01329BBF0CA6646B04A6416B8B
:10C3000003AE00583F01BF028D01385B1F10AE0025
:10C31000583F01BF028D0138731F0E55006E000E8D
:10C32000B60EA101260635FF0008200435010008DD
:10C330001E0E130624061E0E1F06200A1E061310CC
:10C3400024041E101F067B0AB70FB60EA101260497
:10C350007B09B70FA6055F01B60F026241B70A411C
:10C360003C0A5FB60F978D0082D48D00817E3F001E
:10C3700000008D008598B6088D013B83BF001E0626
:10C380008D013B348D0082D48D0080B08D0082F20F
:10C390001F013F00450F011E0172B000001F0C1E5F
:10C3A00001CF00DA7B035F971CFFEC3F00450A01D9
:10C3B0008D013B348D0082CD8D00817E3DCCCCCD76
:10C3C0008D0085981E018D0082CD8D0080AA8D0084
:10C3D00082F2CF00DC7B045F971CFFEC3F00450A34
:10C3E000018D013B348D0082CD8D00817E3DCCCC12
:10C3F000CD8D0085981E018D0082CD8D0080AA8D87
:10C400000082F2CF00DE1E0CCF00E07B03B70041BC
:10C41000B60A41B600428D0082CD8D00817E3DCCB2
:10C42000CCCD8D0085981E018D0082CD8D0080AA17
:10C430008D0082F2CF00E27B04B70041B60A41B61C
:10C4400000428D0082CD8D00817E3DCCCCCD8D0013
:10C4500085981E018D0082CD8D0080AA8D0082F20C
:10C46000CF00E43F093F0BB6088D013B83BF00BE00
:10C470000C8D013B34BF021E0CB3022506A601B78A
:10C480000B201AB6088D013B83BF00BE0C8D013B0B
:10C4900034130125043F0B20047B08B70BC6007042
:10C4A000A102262E3D0B2724AE009A3F01BF028D2C
:10C4B000013A63A102250DAE009A3F01BF028D0132
:10C4C0003A632002A601B709AC00C64D3F09AC0093
:10C4D000C64DC60070A1012704AC00C64D7B054DBA
:10C4E00027154A276F4A2604AC00C5AD4A2604AC7E
:10C4F00000C600AC00C64DB6088D013B83BF00BE30
:10C500000C8D013B34BF02CE00E4B3022506A60326
:10C51000B709203CB6088D013B83BF00BE0C8D01DE
:10C520003B34BF02CE00E2B3022506A602B70920C3
:10C530001FB6088D013B83BF00BE0C8D013B34BF8D
:10C5400002CE00E0B3022506A601B70920023F098A
:10C55000AC00C64DB6088D013B83BF00BE0C8D01FB
:10C560003B34BF02CE00E4B3022506A603B7092080
:10C5700038B6088D013B83BF00BE0C8D013B34BF34
:10C5800002CE00E2B3022506A602B709201BB608B8
:10C590008D013B83BF00BE0C8D013B34C300DA2507
:10C5A000043F092004A601B709AC00C64DB6088DAA
:10C5B000013B83BF00BE0C8D013B34BF02CE00E4C3
:10C5C000B3022506A603B7092034B6088D013B83C4
:10C5D000BF00BE0C8D013B34C300DA25043F0920A7
:10C5E0001DB6088D013B83BF00BE0C8D013B34C3DB
:10C5F00000DC2506A601B7092004A602B709204DD4
:10C60000B6088D013B83BF00BE0C8D013B34C300D7
:10C61000DA25043F092036B6088D013B83BF00BEF2
:10C620000C8D013B34C300DC2506A601B709201D93
:10C63000B6088D013B83BF00BE0C8D013B34C300A7
:10C64000DE2506A602B7092004A603B709B60BA18A
:10C6500001260220023F090D0B27043F093F0BAEC4
:10C6600000583F01BF028D012FE6A100270BC60035
:10C6700070A10126043F093F0BAE00583F01BF02E5
:10C680008D013A0FA100265DC6005A4D27083501DD
:10C690000071725F005AC600714D273BAE000489DD
:10C6A000AE00628D013C27858D0125DABE00A30016
:10C6B000002605BE02A307D1250E4FAE00583F014C
:10C6C000BF028D010B84203A7B05AE00583F01BFAD
:10C6D000028D010B84202B4FAE00583F01BF028D0D
:10C6E000010B84201D3D0B2704A60120014FC7002C
:10C6F0005AB609AE00583F01BF028D010B84725F2C
:10C7000000715B11AC00855AB7013D002604AC00F6
:10C71000CAA2BC005417A4EFBD005417BC005414A7
:10C72000A4FEBD005414BC005410A4EFBD0054106E
:10C73000BC00540DA4FEBD00540DBC005417A4F75A
:10C74000BD005417BC005413A47FBD005413BC009B
:10C750005410A4F7BD005410B6014D276D4A2604AD
:10C76000AC00C80A4A2604AC00C8224A2604AC0021
:10C77000C8584A2604AC00C88E4A2604AC00C8BA81
:10C780004A2604AC00C8F04A2604AC00C9304A2648
:10C7900004AC00C9524A2604AC00C99C4A2604AC29
:10C7A00000C9DCA03B2604AC00C9EA4A2604AC0060
:10C7B000CA76A0022604AC00CA42A0042604AC003B
:10C7C000CA20A0032704AC00CAA0BC005417AA10BA
:10C7D000BD005417BC005414AA01BD005414BC0081
:10C7E0005410AA10BD005410BC00540DAA01BD0085
:10C7F000540DBC005417AA08BD005417BC005410B7
:10C80000AA08BD005410AC00CAE8BC005417AA081E
:10C81000BD005417BC005410AA08BD005410AC0051
:10C82000CAE8BC005417AA10BD005417BC0054102D
:10C83000AA10BD005410BC00540DAA01BD00540D37
:10C84000BC005417AA08BD005417BC005413AA809A
:10C85000BD005413AC00CAE8BC005417AA10BD00B8
:10C860005417BC00540DAA01BD00540DBC00541750
:10C87000AA08BD005417BC005413AA80BD0054136D
:10C88000BC005410AA08BD005410AC00CAE8BC009B
:10C890005414AA01BD005414BC005417AA08BD00CA
:10C8A0005417BC005413AA80BD005413BC0054108C
:10C8B000AA08BD005410AC00CAE8BC005417AA1066
:10C8C000BD005417BC005414AA01BD005414BC0090
:10C8D000540DAA01BD00540DBC005413AA80BD0024
:10C8E0005413BC005410AA08BD005410AC00CAE890
:10C8F000BC005417AA10BD005417BC005414AA0160
:10C90000BD005414BC005410AA10BD005410BC004B
:10C91000540DAA01BD00540DBC005413AA80BD00E3
:10C920005413BC005410AA08BD005410AC00CAE84F
:10C93000BC005417AA10BD005417BC005417AA0815
:10C94000BD005417BC005410AA08BD005410AC0020
:10C95000CAE8BC005417AA10BD005417BC005414F8
:10C96000AA01BD005414BC005410AA10BD005410FC
:10C97000BC00540DAA01BD00540DBC005417AA08F8
:10C98000BD005417BC005413AA80BD005413BC0052
:10C990005410AA08BD005410AC00CAE8BC005417DB
:10C9A000AA10BD005417BC005414AA01BD005414B1
:10C9B000BC00540DAA01BD00540DBC005417AA08B8
:10C9C000BD005417BC005413AA80BD005413BC0012
:10C9D0005410AA08BD005410AC00CAE8BC0054139F
:10C9E000AA80BD005413AC00CAE8BC005417AA10BA
:10C9F000BD005417BC005414AA01BD005414BC005F
:10CA00005410AA10BD005410BC00540DAA01BD0062
:10CA1000540DBC005413AA80BD005413AC00CAE8E6
:10CA2000BC005414AA01BD005414BC005410AA1038
:10CA3000BD005410BC00540DAA01BD00540DAC0043
:10CA4000CAE8BC005414AA01BD005414BC00541020
:10CA5000AA10BD005410BC005417AA08BD005417FA
:10CA6000BC005413AA80BD005413BC005410AA0883
:10CA7000BD0054102072BC005417AA10BD005417FA
:10CA8000BC005414AA01BD005414BC005410AA10D8
:10CA9000BD005410BC005413AA80BD00541320489C
:10CAA0002046BC005417A4EFBD005417BC0054141A
:10CAB000A4FEBD005414BC005410A4EFBD005410DB
:10CAC000BC00540DA4FEBD00540DBC005417A4F7C7
:10CAD000BD005417BC005413A47FBD005413BC0008
:10CAE0005410A4F7BD005410878D0084888D0085F4
:10CAF000C2AE000B8D00858172BB0002BF0292BCEA
:10CB00000001B7055F5C92AF0001B7065C92AF0011
:10CB100001B707AE000D72BB0006BF0692BC000550
:10CB20009590AE000191AF0005975D2704AC00CD54
:10CB30003EBC005410A4BFBD005410AE000B8D00CD
:10CB400085A872BB0006BF0692BC0005B7015F5CFA
:10CB500092AF0005B7025C92AF0005B7038D013AB2
:10CB60000FA1002704AC00CC07AE000B8D0085811F
:10CB700072BB0002BF0292BC0001B7055F5C92AFBE
:10CB80000001B7065C92AF0001B707AE001872BB98
:10CB90000006BF0692BC0005A1002733AE000B8D36
:10CBA00000858172BB0002BF0292BC0001B7055F25
:10CBB0005C92AF0001B7065C92AF0001B707AE0010
:10CBC0001872BB0006BF0692BC0005A1012638AE54
:10CBD00000088D00858172BB0002BF0292BC00017B
:10CBE000A1002704AC00CE95AE00088D00858172AF
:10CBF000BB0002BF02A60192BD00018D0085818DA0
:10CC000001307BAC00CE95BC00540CAA20BD005472
:10CC10000CBC005417AA40BD005417AE00088D008C
:10CC2000858172BB0002BF0292BC0001A100273CBB
:10CC3000AE00088D00858172BB0002BF024F92BD1D
:10CC40000001AE000B8D0085A872BB0006BF0692E6
:10CC5000BC0005B7015F5C92AF0005B7025C92AF04
:10CC60000005B7038D01329B8D01310CAE000689A2
:10CC7000AE000B8D00858172BB0002BF0292BC002A
:10CC800001B7055F5C92AF0001B7065C92AF00018F
:10CC9000B707AE000A72BB0006BF0692BC0005B71C
:10CCA000015F5C92AF0005B7025C92AF0005B7036D
:10CCB000858D0125DABE00A300002605BE02A30172
:10CCC000F52404AC00CE95AE000B8D0085A872BB98
:10CCD0000006BF0692BC0005B7015F5C92AF00057D
:10CCE000B7025C92AF0005B7038D01329B8D013115
:10CCF0000CAE000689AE000B8D00858172BB000270
:10CD0000BF0292BC0001B7055F5C92AF0001B7069D
:10CD10005C92AF0001B707AE000A72BB0006BF0607
:10CD200092BC0005B7015F5C92AF0005B7025C9250
:10CD3000AF0005B703858D0127B1AC00CE95AE00DD
:10CD40000B8D00858172BB0002BF0292BC0001B74F
:10CD5000055F5C92AF0001B7065C92AF0001B707B8
:10CD6000AE000D72BB0006BF0692BC00059590AEEA
:10CD7000000191AF000597A300012704AC00CE95F8
:10CD8000BC005417A4BFBD005417AE000B8D008526
:10CD9000A872BB0006BF0692BC0005B7015F5C929B
:10CDA000AF0005B7025C92AF0005B7038D013843B1
:10CDB000BF04AE00098D00858172BB0002BF0292E4
:10CDC000BC00019590AE000191AF000197B304261D
:10CDD00004AC00CE95BC005410AA40BD005410AE67
:10CDE000000B8D0085A872BB0006BF0692BC000533
:10CDF000B7015F5C92AF0005B7025C92AF0005B768
:10CE0000038D0138438D01310CAE000689AE000B55
:10CE10008D00858172BB0002BF0292BC0001B70584
:10CE20005F5C92AF0001B7065C92AF0001B707AE3E
:10CE3000000A72BB0006BF0692BC0005B7015F5C2A
:10CE400092AF0005B7025C92AF0005B703858D0174
:10CE500027B1AE000B8D0085A872BB0006BF0692FD
:10CE6000BC0005B7015F5C92AF0005B7025C92AFF2
:10CE70000005B7038D0138439093AE00098D0085FE
:10CE80008172BB0002BF02909E92BD00015F5C9068
:10CE90009F92A700018D0084C0878D0084888D003B
:10CEA00085C2AE00338D00858172BB0002BF029245
:10CEB000BC00019590AE000191AF000197A3003234
:10CEC0002520AE00338D00858172BB0002BF029227
:10CED000BC00019590AE000191AF000197A3015FE6
:10CEE0002548AE00338D00858172BB0002BF02AEC3
:10CEF00000D29E92BD000190AE00019F91A700015B
:10CF0000AE00338D00858172BB0002BF0292BC006F
:10CF1000019590AE000191AF000197BF065FBF047D
:10CF2000A61C8D0085818D013219AE00358D0085DE
:10CF30008172BB0002BF0292BC00019590AE00015D
:10CF400091AF000197A300322520AE00358D0085FA
:10CF50008172BB0002BF0292BC00019590AE00013D
:10CF600091AF000197A3015F2548AE00358D008584
:10CF70008172BB0002BF02AE003C9E92BD000190D8
:10CF8000AE00019F91A70001AE00358D0085817232
:10CF9000BB0002BF0292BC00019590AE000191AFB0
:10CFA000000197BF065FBF04A6148D0085818D0127
:10CFB0003219AE00378D00858172BB0002BF02922C
:10CFC000BC00019590AE000191AF000197A3003223
:10CFD0002520AE00378D00858172BB0002BF029212
:10CFE000BC00019590AE000191AF000197A3015FD5
:10CFF0002548AE00378D00858172BB0002BF02AEAE
:10D00000014A9E92BD000190AE00019F91A70001D0
:10D01000AE00378D00858172BB0002BF0292BC005A
:10D02000019590AE000191AF000197BF065FBF046C
:10D03000A6188D0085818D013219AE000F8D0085F7
:10D040008172BB0002BF0292BC00019590AE00014C
:10D0500091AF000197A3FFCE2F20AE000F8D00856A
:10D060008172BB0002BF0292BC00019590AE00012C
:10D0700091AF000197A300332F49AE000F8D0085BB
:10D080008172BB0002BF025F9E92BD000190AE00A4
:10D09000019F91A70001AE000F8D00858172BB003A
:10D0A00002BF0292BC00019590AE000191AF000159
:10D0B000978D0087C18D008598A6208D0085818D74
:10D0C000013219AE00188D00858172BB0002BF02CB
:10D0D00092BC0001A103252FAE00188D008581723E
:10D0E000BB0002BF024F92BD0001AE00188D00854B
:10D0F0008172BB0002BF0292BC0001B700A60C8D7A
:10D100000085818D013196AE002B8D00858172BB2B
:10D110000002BF0292BC0001A1332415AE002B8D8A
:10D1200000858172BB0002BF0292BC0001A10026F3
:10D1300030AE002B8D00858172BB0002BF02A614A9
:10D1400092BD0001AE002B8D00858172BB0002BF35
:10D150000292BC0001B700A6098D0085818D0131C6
:10D1600096AE002C8D00858172BB0002BF0292BC7E
:10D170000001A1332415AE002C8D00858172BB0007
:10D1800002BF0292BC0001A1002630AE002C8D002F
:10D19000858172BB0002BF02A60A92BD0001AE00EB
:10D1A0002C8D00858172BB0002BF0292BC0001B7CA
:10D1B00000A60A8D0085818D013196AE00288D0074
:10D1C000858172BB0002BF0292BC0001A1002773DF
:10D1D000AE00298D00858172BB0002BF0292BC00A7
:10D1E00001A100275EAE00288D00858172BB000280
:10D1F000BF024F92BD0001AE00298D00858172BB38
:10D200000002BF024F92BD0001AE00298D00858152
:10D2100072BB0002BF0292BC0001B700A6078D00DE
:10D2200085818D013196AE00298D00858172BB000C
:10D2300002BF0292BC0001B700A6068D0085818D59
:10D240000131968D0084C087B7013D002604AC00F3
:10D25000D555BC005417A4FBBD005417BC00541393
:10D26000A4BFBD005413BC005410A4FBBD00541057
:10D27000BC00540CA4BFBD00540CBC005417A4FD4A
:10D28000BD005417BC005413A4DFBD005413BC00F0
:10D290005410A4FDBD005410B6014D275A4A26046F
:10D2A000AC00D3374A2604AC00D34F4A2604AC0066
:10D2B000D3854A2604AC00D3BB4A2604AC00D3E78E
:10D2C0004A2604AC00D41D4A2604AC00D45D4A268C
:10D2D00004AC00D47F4A2604AC00D4C94A2604AC6E
:10D2E00000D507A03C2604AC00D529A0032604AC39
:10D2F00000D513AC00D553BC005417AA04BD00548C
:10D3000017BC005413AA40BD005413BC005410AA0B
:10D3100004BD005410BC00540CAA40BD00540CBC09
:10D32000005417AA02BD005417BC005410AA02BD35
:10D33000005410AC00D57DBC005417AA02BD0054A7
:10D3400017BC005410AA02BD005410AC00D57DBC1F
:10D35000005417AA04BD005417BC005410AA04BD01
:10D36000005410BC00540CAA40BD00540CBC005426
:10D3700017AA02BD005417BC005413AA20BD0054C4
:10D3800013AC00D57DBC005417AA04BD005417BCD3
:10D3900000540CAA40BD00540CBC005417AA02BD96
:10D3A000005417BC005413AA20BD005413BC0054F1
:10D3B00010AA02BD005410AC00D57DBC005413AAC5
:10D3C00040BD005413BC005417AA02BD005417BC42
:10D3D000005413AA20BD005413BC005410AA02BD6F
:10D3E000005410AC00D57DBC005417AA04BD0054F5
:10D3F00017BC005413AA40BD005413BC00540CAA1F
:10D4000040BD00540CBC005413AA20BD005413BCF2
:10D41000005410AA02BD005410AC00D57DBC0054CD
:10D4200017AA04BD005417BC005413AA40BD0054F1
:10D4300013BC005410AA04BD005410BC00540CAA24
:10D4400040BD00540CBC005413AA20BD005413BCB2
:10D45000005410AA02BD005410AC00D57DBC00548D
:10D4600017AA04BD005417BC005417AA02BD0054EB
:10D4700017BC005410AA02BD005410AC00D57DBCEE
:10D48000005417AA04BD005417BC005413AA40BD91
:10D49000005413BC005410AA04BD005410BC005426
:10D4A0000CAA40BD00540CBC005417AA02BD005485
:10D4B00017BC005413AA20BD005413BC005410AA7A
:10D4C00002BD005410AC00D57DBC005417AA04BDA9
:10D4D000005417BC005413AA40BD005413BC0054A0
:10D4E0000CAA40BD00540CBC005417AA02BD005445
:10D4F00017BC005413AA20BD005413BC005410AA3A
:10D5000002BD0054102076BC005413AA20BD005464
:10D5100013206ABC005413AA40BD005413BC00542D
:10D5200010AA04BD0054102054BC005417AA04BD16
:10D53000005417BC005413AA40BD005413BC00543F
:10D5400010AA04BD005410BC005413AA20BD0054FE
:10D5500013202A2028BC00540DA4F9BD00540DBC92
:10D56000005410A49FBD005410BC005414A4F9BD75
:10D57000005414BC005417A4BFBD00541787B70152
:10D580003D002604AC00D86DBC005417A4FEBD00BD
:10D590005417BC005413A4EFBD005413BC00541026
:10D5A000A4FEBD005410BC00540CA4EFBD00540CEC
:10D5B000BC005416A47FBD005416BC005413A4F73D
:10D5C000BD005413BC00540FA47FBD00540FB6011E
:10D5D0004D27524A2604AC00D6654A2604AC00D634
:10D5E0007D4A2604AC00D6B34A2604AC00D6E94AEC
:10D5F0002604AC00D7154A2604AC00D74B4A2604B3
:10D60000AC00D78B4A2604AC00D7AD4A2604AC0048
:10D61000D7F74A2604AC00D835A03C2604AC00D885
:10D6200041AC00D86BBC005417AA01BD005417BC14
:10D63000005413AA10BD005413BC005410AA01BD1D
:10D64000005410BC00540CAA10BD00540CBC005473
:10D6500016AA80BD005416BC00540FAA80BD005409
:10D660000FAC00D8B3BC005416AA80BD005416BC41
:10D6700000540FAA80BD00540FAC00D8B3BC0054B6
:10D6800017AA01BD005417BC005410AA01BD0054D4
:10D6900010BC00540CAA10BD00540CBC005416AAB7
:10D6A00080BD005416BC005413AA08BD005413AC2E
:10D6B00000D8B3BC005417AA01BD005417BC0054D5
:10D6C0000CAA10BD00540CBC005416AA80BD005416
:10D6D00016BC005413AA08BD005413BC00540FAA72
:10D6E00080BD00540FAC00D8B3BC005413AA10BDC9
:10D6F000005413BC005416AA80BD005416BC00543C
:10D7000013AA08BD005413BC00540FAA80BD0054D6
:10D710000FAC00D8B3BC005417AA01BD005417BC0D
:10D72000005413AA10BD005413BC00540CAA10BD21
:10D7300000540CBC005413AA08BD005413BC005480
:10D740000FAA80BD00540FAC00D8B3BC005417AA78
:10D7500001BD005417BC005413AA10BD005413BCE3
:10D76000005410AA01BD005410BC00540CAA10BDF6
:10D7700000540CBC005413AA08BD005413BC005440
:10D780000FAA80BD00540FAC00D8B3BC005417AA38
:10D7900001BD005417BC005416AA80BD005416BC2D
:10D7A00000540FAA80BD00540FAC00D8B3BC005485
:10D7B00017AA01BD005417BC005413AA10BD005491
:10D7C00013BC005410AA01BD005410BC00540CAA94
:10D7D00010BD00540CBC005416AA80BD005416BCE9
:10D7E000005413AA08BD005413BC00540FAA80BDF6
:10D7F00000540FAC00D8B3BC005417AA01BD0054AC
:10D8000017BC005413AA10BD005413BC00540CAA3A
:10D8100010BD00540CBC005416AA80BD005416BCA8
:10D82000005413AA08BD005413BC00540FAA80BDB5
:10D8300000540F207EBC005413AA08BD00541320CE
:10D8400072BC005417AA01BD005417BC005413AA9F
:10D8500010BD005413BC005410AA01BD005410BCEC
:10D86000005413AA08BD00541320482046BC00549D
:10D8700017A4FBBD005417BC005413A4BFBD005433
:10D8800013BC005410A4FBBD005410BC00540CA4E5
:10D89000BFBD00540CBC005417A4FDBD005417BC00
:10D8A000005413A4DFBD005413BC005410A4FDBDEC
:10D8B000005410878D0084888D0085C2AE000D8DC8
:10D8C00000858172BB0002BF0292BC00019590AE40
:10D8D000000191AF0001975D2666AE000589AE009C
:10D8E0000A8D0085A872BB0006BF0692BC0005B772
:10D8F000015F5C92AF0005B7025C92AF0005B70311
:10D90000858D0125DABE00A300002605BE02A30115
:10D91000F525108D0085818D0114818D0085818D07
:10D9200001338FAE00258D00858172BB0002BF02DE
:10D9300092BC0001A10027088D0085818D00EADAE4
:10D940008D0085818D012FE6A1002604AC00DA1A36
:10D95000AE00188D00858172BB0002BF0292BC0030
:10D9600001A1002719AE00188D00858172BB00024D
:10D97000BF0292BC0001A1012704AC00DA45AE024F
:10D9800055350000013553000235F000038D013A92
:10D99000C5AE000D89AE000A8D0085A872BB0006D9
:10D9A000BF0692BC0005B7015F5C92AF0005B702ED
:10D9B0005C92AF0005B703858D0125DABE00A30098
:10D9C000002605BE02A303E9257BAE00028D00857B
:10D9D0008172BB0002BF024F92BD0001AE00038DF9
:10D9E00000858172BB0002BF024F92BD0001AE00F4
:10D9F000048D00858172BB0002BF024F92BD000101
:10DA0000AE00058D00858172BB0002BF024F92BD42
:10DA10000001A680BD0050D3202BAE000D89AE00C2
:10DA20000A8D0085A872BB0006BF0692BC0005B730
:10DA3000015F5C92AF0005B7025C92AF0005B703CF
:10DA4000858D0127B1AE00188D00858172BB000263
:10DA5000BF0292BC0001A1002604AC00DBC1AE00F5
:10DA60000A89AE000A8D0085A872BB0006BF069227
:10DA7000BC0005B7015F5C92AF0005B7025C92AFD6
:10DA80000005B703858D0125DABE00A30000260539
:10DA9000BE02A301F52404AC00DBC1AE000A89AECE
:10DAA000000A8D0085A872BB0006BF0692BC000567
:10DAB000B7015F5C92AF0005B7025C92AF0005B79B
:10DAC00003858D0127B1AE00358D00858172BB00C5
:10DAD00002BF0292BC0001B7045F5C92AF0001B7C5
