:1080000082013FB782013E758201408A82013E763D
:1080100082013E7782013E7882013E7982013E7A7A
:1080200082013E7B82013E7C82013E7D82013E7E5A
:1080300082013E7F82013E8082013E8182013E823A
:1080400082013E8382013E8482013E8582013E861A
:1080500082013E8782013E8882013E89820138FA90
:108060008201375F8201392482013E8A82013E8B80
:1080700082013E8C82013E8D82013E8E82013E8FC6
:1080800001401000D600100000012FC0B600B80457
:108090002A03CC840E872609B604B400B700875B98
:1080A00002AC008571854FCC83B0901E0004200087
:1080B000CD832720D720DE20DD20E420E84F72F298
:1080C00001270D2B209372FB011F01AE0000201A27
:1080D000BE0272B00006B601B2054FAE00042430F5
:1080E000AE0000202B9050AE000490A3001A251182
:1080F000E6016F01EA026F02EA036F03404F492075
:108100000F640166026603462402AA01905A26F112
:1081100090AE0004A30004260490AE000088B600D0
:10812000B8042B21BE0272BB0006BF02B601B9051E
:10813000B7018485240C5C360136023603462402DE
:10814000AA01CC83B090F6B700000190E603E203E9
:10815000B70390E602E202B70290E601E201B7013E
:1081600084852B1788BA01BA02BA038426033F001C
:10817000875A483903390239012AF6CC83B08D0178
:108180003FE42000B604A480B800B700CD832720C8
:1081900071206D206E2071207472F90172A2007E30
:1081A00017015F894B0090AE00034B0090E6042757
:1081B0002C3D032710BE024272FB031F0324060C52
:1081C0000226020C013D02270CBE014272FB021F77
:1081D0000224020C01BE004272FB011F01905A26CC
:1081E000C95B02320003849085905D2702AA01904A
:1081F000855D2B0648390359905ABF0193CC83B053
:1082000027038725FDCC840E5B02CC84025F3800F7
:1082100056BF005FBF025B02878726FDCC840EB687
:1082200004A480B800B700CD832720F020EB20EA1B
:1082300020DB20D472F20117013F04BE02905FB62A
:10824000019097B306B20524095890590C022602F2
:108250000C0172B000062402905A72B200044FB7AB
:10826000023501000358905990B3042602B3062545
:108270000C72B000062402905A72B200043903391D
:10828000024924E13303330243509059AE007F7218
:10829000F0015B022D26A300FF2503CC840202908F
:1082A0005049380056BF0036023603240C4D2709CA
:1082B0003C0326053C0226015CBF0087B7019050B5
:1082C0004F469936013602360346CC83B0BF002AAA
:1082D000055020023F003F039E4D261202270CA6A8
:1082E000874A5824FC38004656B700BF0187A68E3F
:1082F00020F0BE01B6005849A07F2529A11025090C
:10830000AE7FFF3D002A015C87995640AB0FA10864
:108310002509884F0184A008200154A00124FB3DB9
:10832000002A0150875F879085B60148B60049272B
:1083300030A1FF271C721E0001884B00B60548B60D
:108340000449273EA1FF2733721E00055F9751ECB9
:108350000AAD4B2648AD4F2240250290FC5D90ECC3
:1083600002AD3B270E5F5C5A3803390239012AF708
:108370008920C9AD3122225D90EC04AD29221890EC
:10838000EC06AD225D270D5F5C5A380739063905CA
:108390002AF720BA90EC085B02AC00857187B60121
:1083A00048BA02BA0381BE0650BE0459A3FF008139
:1083B0005D9C2C24A3FFE72C0D4FB703B702B70138
:1083C000380046B70087340136023603462402AA35
:1083D000015CA3000126EF5F7201000302AA01A362
:1083E00000FE2C1E380138004146B700360141A17D
:1083F00081250E3C03260A3C0226063C0126023C4F
:108400000087AEFF00380056BF005FBF02875F5A8B
:10841000BF00BF028788A608200588A60C20008818
:108420007B02887B02891E061F045F977B086B0610
:10843000FE1F07858487891E06BF082007891E0640
:10844000BF0C20001E041F061E021F04855B02874E
:10845000887B03887B03887B03887B076B04B601DA
:108460006B05B6026B06B6036B078487887B0388AF
:108470007B03887B03887B076B04B6056B05B60618
:108480006B06B6076B078487887B03887B03887B32
:1084900003887B076B04B6096B05B60A6B06B60B3F
:1084A0006B078487887B03887B03887B03887B0733
:1084B0006B04B60D6B05B60E6B06B60F6B078487A3
:1084C000887B05B7097B06B70A7B07B70B200F88A7
:1084D0007B05B70D7B06B70E7B07B70F20007B042B
:1084E0006B07846B03846B03846B03848788A6000B
:1084F000200F88A604200A88A608200588A60C203C
:108500000088897B04887B04891E081F045F977B91
:108510000A6B061F09FE1F071E095C5CFE1F09850A
:108520008487891E06BF001E08BF022021891E06FF
:10853000BF041E08BF062016891E06BF081E08BFFE
:108540000A200B891E06BF0C1E08BF0E20001E034A
:108550001F071E041F08855B04878D0085438D005F
:108560008538878D00843D8D008538878D00843661
:108570008745040045050145060245070387450870
:1085800000450901450A02450B0387450C00450DCE
:1085900001450E02450F03874500044501054502CC
:1085A0000645030787450804450905450A06450BA6
:1085B0000787450C04450D05450E06450F07874501
:1085C000000845010945020A45030B874504084593
:1085D000050945060A45070B8745000C45010D4571
:1085E000020E45030F8745040C45050D45060E4553
:1085F000070F8745090D450A0E450B0F87AE00088A
:1086000020006C0326096C0226056C0126017C877C
:10861000AE000820006D03260D6D0226076D0126B1
:10862000017A6A016A026A0387AE0004B603EB03AB
:10863000B703B602E902B702B601E901B701B60015
:10864000F9B70087AE0004B603E003B703B602E251
:1086500002B702B601E201B701B600F2B70087B671
:1086600000BE06429FB700B601BE05429FBB00B7E1
:1086700000B602BE04429FBB00B700B603BE034271
:108680009FBB00B700B601BE06423F0172BB0000AF
:10869000BF00B602BE054272BB0000BF00B603BEFB
:1086A000044272BB0000BF00B602BE06423F027227
:1086B000BB0001BF0124023C00B603BE054272BBF1
:1086C0000001BF0124023C00B603BE06423F037214
:1086D000BB0002BF022405BE005CBF0087BE0026AF
:1086E0001E90BE04260CBE0290BE0665BF0290BF5F
:1086F0000687BF04450206450307BF00BF0287A6E1
:10870000203D00260DBE01BF004503023F033A0392
:10871000A0085F905F992017905959B304260390E1
:10872000B306250B72B2000624015A72B000043958
:10873000033902390139004A2ADEBF0490BF06BE60
:108740000053BF00BE0253BF02878D013FE42004E7
:108750008D013FE44B004B003D002A0BAE00008D25
:1087600000878F030103023D042A09AE00048D0037
:10877000878F03018D0086DD844D2707AE00008DB5
:1087800000878F844D2707AE00048D00878F876098
:10879000034FE202E7024FE201E7014FF2F787BE23
:1087A00000B3042604BE02B30687BE00B30426103D
:1087B000BE02B3068A84A47BA5012702AA04888688
:1087C00087BF025F3D022A0153BF008700B100BC92
:1087D00000C700D300E000ED00FB010901190128EA
:1087E0000139014A015C016F0183019701AD01C3A9
:1087F00001DA01F1020A0223023E025902750292D5
:1088000002B002CF02EE030F033003520375039947
:1088100003BD03E20408042F0456047E04A704D019
:1088200004FA0524054F057A05A505D105FD062A9C
:108830000656068306B006DD07090735076307906D
:1088400007BC07E808140840086C089708C108EC42
:108850000916093F0968099009B809DF0A060A2BB9
:108860000A510A760A9A0ABD0AE00B020B210B4450
:108870000B640B830BA20BC00BDD0BFA0C160C3137
:108880000C4C0C660C7F0C980CB00CC70CDE0CF476
:108890000D0A0D1F0D330D470D5A0D6D0D7F0D91F6
:1088A0000DA20DB30DC30DD30DE20DF20E000E0E91
:1088B0000E1C0E280E360E430E4F0E5B0E660E710A
:1088C0000E7C0E870E910E9B0EA40EAD0EB70EBF42
:1088D0000EC88D0084F78D0084FC8D0085C292BC8B
:1088E0000009B7015F5C92AF0009B7025C92AF006C
:1088F00009B703AE001872BB0002BF0292BC0001B0
:10890000A101261D92BC0009B7015F5C92AF00096E
:10891000B7025C92AF0009B7038D013DB1B70820E3
:10892000023F083D082704AC008A40A6023500003B
:108930000135500002351E00038D013D2CA100279A
:1089400004AC008A2EAE00068D00858172BB000249
:10895000BF0292BC0001A1002704AC008A40AE0017
:10896000048992BC0009B7055F5C92AF0009B706A5
:108970005C92AF0009B707AE000A72BB0006BF06E3
:1089800092BC0005B7015F5C92AF0005B7025C9234
:10899000AF0005B703858D012936BE00A300002670
:1089A00005BE02A300332548AE00068D0085817206
:1089B000BB0002BF02A60192BD00018D0085818D22
:1089C0000127BC92BC0009B7015F5C92AF0009B7F8
:1089D000025C92AF0009B703AE000D72BB0002BF8C
:1089E000025F9E92BD000190AE00019F91A7000121
:1089F000AE00078992BC0009B7055F5C92AF000921
:108A0000B7065C92AF0009B707AE000A72BB00065A
:108A1000BF0692BC0005B7015F5C92AF0005B702CC
:108A20005C92AF0005B703858D012B0D2012AE00BF
:108A3000068D00858172BB0002BF024F92BD00010E
:108A4000A6043500000135500002351E00038D01DB
:108A50003D2CA1002704AC008C5BAE00078D008587
:108A60008172BB0002BF0292BC0001A1002704ACCE
:108A7000008C6D5F8992BC0009B7055F5C92AF0006
:108A800009B7065C92AF0009B707AE000A72BB00D7
:108A900006BF0692BC0005B7015F5C92AF0005B748
:108AA000025C92AF0005B703858D012936BE00A395
:108AB00000002605BE02A300332404AC008C6DAE7A
:108AC00000078D00858172BB0002BF02A60192BD26
:108AD000000192BC0009B7015F5C92AF0009B702C8
:108AE0005C92AF0009B703AE000D72BB0002BF027B
:108AF00092BC00019590AE000191AF000197A300D8
:108B0000022615AE00038D00858172BB0002BF02F4
:108B10008D00A5FFAC008C1D92BC0009B7015F5C05
:108B200092AF0009B7025C92AF0009B703AE000D27
:108B300072BB0002BF0292BC00019590AE00019191
:108B4000AF0001975D2704AC008C1D92BC0009B7F3
:108B5000015F5C92AF0009B7025C92AF0009B703F6
:108B6000AE001872BB0002BF0292BC0001A1002639
:108B7000088D0085818D0128B992BC0009B7015F7D
:108B80005C92AF0009B7025C92AF0009B703AE0078
:108B90001872BB0002BF0292BC0001A102267E92A5
:108BA000BC0009B7015F5C92AF0009B7025C92AFED
:108BB0000009B7038D0132114CAE00128D00858182
:108BC00072BB0002BF0292BD0001AE00128D008593
:108BD0008172BB0002BF0292BC0001A1042612AE4A
:108BE00000128D00858172BB0002BF024F92BD0052
:108BF00001AE00128D00858172BB0002BF0292BCE3
:108C000000018892BC0009B7015F5C92AF0009B710
:108C1000025C92AF0009B703848D010D82AE00079C
:108C20008992BC0009B7055F5C92AF0009B7065C8A
:108C300092AF0009B707AE000A72BB0006BF0692EA
:108C4000BC0005B7015F5C92AF0005B7025C92AF54
:108C50000005B703858D012B0D2012AE00078D0096
:108C6000858172BB0002BF024F92BD0001A608358C
:108C700000000135500002351E00038D013D2CA17E
:108C8000002704AC008E4BAE00088D00858172BBBE
:108C90000002BF0292BC0001A1002704AC008D9D20
:108CA0005F5C8992BC0009B7055F5C92AF0009B7B1
:108CB000065C92AF0009B707AE000A72BB0006BFA0
:108CC0000692BC0005B7015F5C92AF0005B7025C7D
:108CD00092AF0005B703858D012936BE00A30000C1
:108CE0002605BE02A300332404AC008E5DAE00084E
:108CF0008D00858172BB0002BF02A60192BD0001FA
:108D000092BC0009B7015F5C92AF0009B7025C92A8
:108D1000AF0009B703AE000D72BB0002BF0292BCE8
:108D200000019590AE000191AF0001975D262E9253
:108D3000BC0009B7015F5C92AF0009B7025C92AF5B
:108D40000009B703AE001872BB0002BF0292BC005C
:108D500001A10026088D0085818D01283BAE00070A
:108D60008992BC0009B7055F5C92AF0009B7065C49
:108D700092AF0009B707AE000A72BB0006BF0692A9
:108D8000BC0005B7015F5C92AF0005B7025C92AF13
:108D90000005B703858D012B0DAC008E5D92BC00E4
:108DA00009B7015F5C92AF0009B7025C92AF00099E
:108DB000B703AE000D72BB0002BF0292BC0001956A
:108DC00090AE000191AF000197A300022704AC0010
:108DD0008E5D5F5C8992BC0009B7055F5C92AF0055
:108DE00009B7065C92AF0009B707AE000A72BB0074
:108DF00006BF0692BC0005B7015F5C92AF0005B7E5
:108E0000025C92AF0005B703858D012936BE00A331
:108E100000002605BE02A300332542AE00038D00EC
:108E2000858172BB0002BF028D00B36DA6018892DE
:108E3000BC0009B7015F5C92AF0009B7025C92AF5A
:108E40000009B703848D0123012012AE00088D00B4
:108E5000858172BB0002BF024F92BD000192BC002F
:108E600009B7015F5C92AF0009B7025C92AF0009DD
:108E7000B703AE001872BB0002BF0292BC0001A192
:108E800002265492BC0009B7015F5C92AF0009B79B
:108E9000025C92AF0009B7038D013D6BA10027373B
:108EA00092BC0009B7015F5C92AF0009B7025C9207
:108EB000AF0009B703AE000D72BB0002BF0292BC47
:108EC00000019590AE000191AF0001975D26088DDD
:108ED0000085818D01094BA68035000001355000C9
:108EE00002350000038D013D2CA1002704AC009247
:108EF00013AE00098D00858172BB0002BF0292BCD7
:108F00000001A1002704AC009096AE00028992BC3B
:108F10000009B7055F5C92AF0009B7065C92AF002D
:108F200009B707AE000A72BB0006BF0692BC000577
:108F3000B7015F5C92AF0005B7025C92AF0005B766
:108F400003858D012936BE00A300002605BE02A3BD
:108F500000152404AC009225AE00098D00858172B5
:108F6000BB0002BF02A60192BD000192BC0009B77E
:108F7000015F5C92AF0009B7025C92AF0009B703D2
:108F8000AE000D72BB0002BF0292BC00019590AE14
:108F9000000191AF000197A300022613AE00038DDC
:108FA00000858172BB0002BF028D00EC2A206B3D60
:108FB00008266792BC0009B7015F5C92AF0009B751
:108FC000025C92AF0009B703AE000D72BB0002BF96
:108FD0000292BC00019590AE000191AF0001975D37
:108FE000263092BC0009B7015F5C92AF0009B7025E
:108FF0005C92AF0009B703AE002672BB0002BF024D
:1090000092BC0001A100260A8D0085818D01273DBB
:1090100020088D0085818D010F6CAE00028992BC05
:109020000009B7055F5C92AF0009B7065C92AF001C
:1090300009B707AE000A72BB0006BF0692BC000566
:10904000B7015F5C92AF0005B7025C92AF0005B755
:1090500003858D012B0DAE00078992BC0009B70571
:109060005F5C92AF0009B7065C92AF0009B707AE2C
:10907000000A72BB0006BF0692BC0005B7015F5C28
:1090800092AF0005B7025C92AF0005B703858D0172
:109090002B0DAC0092253D082704AC00916E92BCCC
:1090A0000009B7015F5C92AF0009B7025C92AF00A4
:1090B00009B703AE000D72BB0002BF0292BC0001F3
:1090C0009590AE000191AF0001975D2704AC00922E
:1090D0002592BC0009B7015F5C92AF0009B7025C42
:1090E00092AF0009B7038D013D6BA1002704AC00CE
:1090F0009225AE000B8D00858172BB0002BF0292EB
:10910000BC0001A1002604AC009225AE00028992A9
:10911000BC0009B7055F5C92AF0009B7065C92AF6F
:109120000009B707AE000A72BB0006BF0692BC007A
:1091300005B7015F5C92AF0005B7025C92AF000516
:10914000B703858D012936BE00A300002605BE02A7
:10915000A301F52404AC009225AE00038D008581A7
:1091600072BB0002BF028D010C89AC00922592BC3B
:109170000009B7015F5C92AF0009B7025C92AF00D3
:1091800009B703AE000D72BB0002BF0292BC000122
:109190009590AE000191AF0001975D2704AC00925D
:1091A00025AE000B8D00858172BB0002BF0292BC10
:1091B0000001A100276FAE00028992BC0009B7052B
:1091C0005F5C92AF0009B7065C92AF0009B707AECB
:1091D000000A72BB0006BF0692BC0005B7015F5CC7
:1091E00092AF0005B7025C92AF0005B703858D0111
:1091F0002936BE00A300002605BE02A301F52525E1
:10920000AE00038D00858172BB0002BF028D010C90
:10921000892012AE00098D00858172BB0002BF0259
:109220004F92BD0001A60135000001355000023506
:109230001E00038D013D2CA1002704AC009537AE24
:10924000000A8D00858172BB0002BF0292BC000142
:10925000A1002704AC0093E4AE00038992BC00098E
:10926000B7055F5C92AF0009B7065C92AF0009B723
:1092700007AE000A72BB0006BF0692BC0005B7012C
:109280005F5C92AF0005B7025C92AF0005B7038543
:109290008D012936BE00A300002605BE02A30015DD
:1092A0002404AC00955BAE000A8D00858172BB0082
:1092B00002BF02A60192BD000192BC0009B7015F86
:1092C0005C92AF0009B7025C92AF0009B703AE0031
:1092D0000D72BB0002BF0292BC00019590AE00016E
:1092E00091AF000197A300022613AE00038D008505
:1092F0008172BB0002BF028D00D362206B3D082645
:109300006792BC0009B7015F5C92AF0009B7025CCD
:1093100092AF0009B703AE000D72BB0002BF02920C
:10932000BC00019590AE000191AF0001975D263021
:1093300092BC0009B7015F5C92AF0009B7025C9272
:10934000AF0009B703AE002672BB0002BF0292BC99
:109350000001A100260A8D0085818D01273D20088E
:109360008D0085818D01105AAE00038992BC0009E1
:10937000B7055F5C92AF0009B7065C92AF0009B712
:1093800007AE000A72BB0006BF0692BC0005B7011B
:109390005F5C92AF0005B7025C92AF0005B7038532
:1093A0008D012B0DAE00078992BC0009B7055F5CEB
:1093B00092AF0009B7065C92AF0009B707AE000A8A
:1093C00072BB0006BF0692BC0005B7015F5C92AF9E
:1093D0000005B7025C92AF0005B703858D012B0D28
:1093E000AC00955B3D082704AC0094A592BC000935
:1093F000B7015F5C92AF0009B7025C92AF0009B79A
:1094000003AE000D72BB0002BF0292BC000195903A
:10941000AE000191AF0001975D2704AC00955B920F
:10942000BC0009B7015F5C92AF0009B7025C92AF64
:109430000009B7038D013D6BA1002704AC00955BCB
:10944000AE00038992BC0009B7055F5C92AF0009CA
:10945000B7065C92AF0009B707AE000A72BB000600
:10946000BF0692BC0005B7015F5C92AF0005B70272
:109470005C92AF0005B703858D012936BE00A300BD
:10948000002605BE02A301F52404AC00955BAE00E6
:109490000B8D00858172BB0002BF02A60192BD0048
:1094A00001AC00955B92BC0009B7015F5C92AF0014
:1094B00009B7025C92AF0009B703AE000D72BB00A2
:1094C00002BF0292BC00019590AE000191AF000175
:1094D000975D2704AC00955BAE00038992BC000940
:1094E000B7055F5C92AF0009B7065C92AF0009B7A1
:1094F00007AE000A72BB0006BF0692BC0005B701AA
:109500005F5C92AF0005B7025C92AF0005B70385C0
:109510008D012936BE00A300002605BE02A301F579
:109520002539AE000B8D00858172BB0002BF02A6FB
:109530000192BD00012024AE000A8D00858172BB1E
:109540000002BF024F92BD0001AE000B8D0085816D
:1095500072BB0002BF024F92BD000192BC0009B76E
:10956000015F5C92AF0009B7025C92AF0009B703DC
:10957000AE000D72BB0002BF0292BC00019590AE1E
:10958000000191AF000197A30001267FAE0006897C
:1095900092BC0009B7055F5C92AF0009B7065C9208
:1095A000AF0009B707AE000A72BB0006BF0692BC47
:1095B0000005B7015F5C92AF0005B7025C92AF0097
:1095C00005B703858D012936BE00A300002605BE20
:1095D00002A301F52404AC0096E892BC0009B7018F
:1095E0005F5C92AF0009B7025C92AF0009B703AEAF
:1095F000000D72BB0002BF025F9E92BD000190AEE3
:1096000000019F91A70001AC0096E892BC0009B749
:10961000015F5C92AF0009B7025C92AF0009B7032B
:10962000AE000D72BB0002BF0292BC00019590AE6D
:10963000000191AF000197A300022704AC0096E857
:10964000AE00088992BC0009B7055F5C92AF0009C3
:10965000B7065C92AF0009B707AE000A72BB0006FE
:10966000BF0692BC0005B7015F5C92AF0005B70270
:109670005C92AF0005B703858D012936BE00A300BB
:10968000002605BE02A303E9255E92BC0009B701CE
:109690005F5C92AF0009B7025C92AF0009B703AEFE
:1096A000000D72BB0002BF025F9E92BD000190AE32
:1096B00000019F91A7000135010000A6058892BC1A
:1096C0000009B7015F5C92AF0009B7025C92AF007E
:1096D00009B703848D0134F2AE03E8BF025FBF0017
:1096E0008D0135348D013E3692BC0009B7015F5CB7
:1096F00092AF0009B7025C92AF0009B7038D013D3C
:109700005DB70092BC0009B7015F5C92AF0009B77A
:10971000025C92AF0009B703AE001772BB0002BF34
:109720000292BC0001B100277792BC0009B7015F2B
:109730005C92AF0009B7025C92AF0009B7038D01DC
:109740003D5DB70092BC0009B7015F5C92AF0009B4
:10975000B7025C92AF0009B703AE001772BB0002FC
:10976000BF02B60092BD000192BC0009B7015F5C68
:1097700092AF0009B7025C92AF0009B7038D013DBB
:109780005DB700A60B8892BC0009B7015F5C92AF81
:109790000009B7025C92AF0009B703848D0134F26F
:1097A00092BC0009B7015F5C92AF0009B7025C92FE
:1097B000AF0009B7038D013D6BB70092BC0009B73C
:1097C000015F5C92AF0009B7025C92AF0009B7037A
:1097D000AE001E72BB0002BF0292BC0001B10027A6
:1097E0007792BC0009B7015F5C92AF0009B7025CD9
:1097F00092AF0009B7038D013D6BB70092BC000921
:10980000B7015F5C92AF0009B7025C92AF0009B785
:1098100003AE001E72BB0002BF02B60092BD000183
:1098200092BC0009B7015F5C92AF0009B7025C927D
:10983000AF0009B7038D013D6BB700A6058892BC48
:109840000009B7015F5C92AF0009B7025C92AF00FC
:1098500009B703848D0134F292BC0009B7015F5C43
:1098600092AF0009B7025C92AF0009B7038D013DCA
:1098700079B70092BC0009B7015F5C92AF0009B7ED
:10988000025C92AF0009B703AE001F72BB0002BFBB
:109890000292BC0001B100277792BC0009B7015FBA
:1098A0005C92AF0009B7025C92AF0009B7038D016B
:1098B0003D79B70092BC0009B7015F5C92AF000927
:1098C000B7025C92AF0009B703AE001F72BB000283
:1098D000BF02B60092BD000192BC0009B7015F5CF7
:1098E00092AF0009B7025C92AF0009B7038D013D4A
:1098F00079B700A6068892BC0009B7015F5C92AFF9
:109900000009B7025C92AF0009B703848D0134F2FD
:1099100092BC0009B7015F5C92AF0009B7025C928C
:10992000AF0009B7038D013D87B70092BC0009B7AE
:10993000015F5C92AF0009B7025C92AF0009B70308
:10994000AE002072BB0002BF0292BC0001B1002732
:109950007792BC0009B7015F5C92AF0009B7025C67
:1099600092AF0009B7038D013D87B70092BC000993
:10997000B7015F5C92AF0009B7025C92AF0009B714
:1099800003AE002072BB0002BF02B60092BD000110
:1099900092BC0009B7015F5C92AF0009B7025C920C
:1099A000AF0009B7038D013D87B700A6078892BCB9
:1099B0000009B7015F5C92AF0009B7025C92AF008B
:1099C00009B703848D0134F292BC0009B7015F5CD2
:1099D00092AF0009B7025C92AF0009B7038D013B5B
:1099E0009FBF04AE00138D00858172BB0002BF02D1
:1099F00092BC00019590AE000191AF000197B304B5
:109A00002604AC009B3692BC0009B7055F5C92AFA0
:109A10000009B7065C92AF0009B707AE000A72BB37
:109A20000006BF0692BC0005B7015F5C92AF00055F
:109A3000B7025C92AF0005B7038D0138D0BE00A31A
:109A400000002605BE02A300102404AC009B369241
:109A5000BC0009B7055F5C92AF0009B7065C92AF26
:109A60000009B707AE000A72BB0006BF0692BC0031
:109A700005B7015F5C92AF0005B7025C92AF0005CD
:109A8000B7038D0138D0AE00158D0085A872BB00DC
:109A900006BF0692BC0005B70C5F5C92AF0005B72D
:109AA0000D5C92AF0005B70E5C92AF0005B70F8D4D
:109AB0000085B28D008644BE00A300002605BE02CC
:109AC000A301F5257192BC0009B7015F5C92AF005C
:109AD00009B7025C92AF0009B7038D013B9F9093D9
:109AE000AE00138D00858172BB0002BF02909E9272
:109AF000BD00015F5C909F92A7000192BC0009B776
:109B0000015F5C92AF0009B7025C92AF0009B70336
:109B10008D013B9FBF065FBF04A61C8892BC000955
:109B2000B7015F5C92AF0009B7025C92AF0009B762
:109B300003848D01357592BC0009B7015F5C92AF5B
:109B40000009B7025C92AF0009B7038D013BB7BFB4
:109B50000492BC0009B7015F5C92AF0009B7025CD8
:109B600092AF0009B703AE001A72BB0002BF0292A7
:109B7000BC00019590AE000191AF000197B304269F
:109B800004AC009C0792BC0009B7015F5C92AF0077
:109B900009B7025C92AF0009B7038D013BB7909300
:109BA00092BC0009B7015F5C92AF0009B7025C92FA
:109BB000AF0009B703AE001A72BB0002BF02909E4D
:109BC00092BD00015F5C909F92A7000192BC0009CA
:109BD000B7015F5C92AF0009B7025C92AF0009B7B2
:109BE000038D013BB7BF065FBF04A6148892BC007B
:109BF00009B7015F5C92AF0009B7025C92AF000940
:109C0000B703848D01357592BC0009B7015F5C9282
:109C1000AF0009B7025C92AF0009B7038D013BCFDB
:109C2000BF0492BC0009B7015F5C92AF0009B702A4
:109C30005C92AF0009B703AE001C72BB0002BF020A
:109C400092BC00019590AE000191AF000197B30462
:109C50002604AC009CD892BC0009B7015F5C92AFAF
:109C60000009B7025C92AF0009B7038D013BCF90AA
:109C70009392BC0009B7015F5C92AF0009B7025C28
:109C800092AF0009B703AE001C72BB0002BF029086
:109C90009E92BD00015F5C909F92A7000192BC0064
:109CA00009B7015F5C92AF0009B7025C92AF00098F
:109CB000B7038D013BCFBF065FBF04A6188892BCD7
:109CC0000009B7015F5C92AF0009B7025C92AF0078
:109CD00009B703848D013575AC00855A8D0084F772
:109CE0008D0084A48D0085C2AE000B8D008581722D
:109CF000BB0002BF0292BC0001B7055F5C92AF00DF
:109D000001B7065C92AF0001B707AE001172BB004D
:109D100006BF0692BC0005905F9097AE00048D00D0
:109D2000858172BB0002BF0292BC0001B7045F5C78
:109D300092AF0001B70590B3042671AE000B8D0001
:109D4000858172BB0002BF0292BC0001B70D5F5C4F
:109D500092AF0001B70E5C92AF0001B70FAE0012D8
:109D600072BB000EBF0E92BC000DB7045F5C92AFD9
:109D7000000DB7055C92AF000DB7065C92AF000D09
:109D8000B707AE00068D00858172BB0002BF02924C
:109D9000BC00019590AE000191AF000197BF025F3A
:109DA000BF008D00879F2604AC00A5F7AE000B8D89
:109DB00000858172BB0002BF0292BC0001B7055F43
:109DC0005C92AF0001B7065C92AF0001B707AE002E
:109DD0001172BB0006BF0692BC0005905F9097AE63
:109DE00000048D00858172BB0002BF02909E92BD6F
:109DF00000015F5C909F92A70001AE000B8D008573
:109E00008172BB0002BF0292BC0001B7055F5C9289
:109E1000AF0001B7065C92AF0001B707AE00127247
:109E2000BB0006BF0692BC0005B7005F5C92AF00A6
:109E300005B7015C92AF0005B7025C92AF0005B7B1
:109E400003AE00068D0085A872BB0006BF06B602F1
:109E500092BD00055F5CB60392A700054F8D0138E7
:109E60002435010000AE000B8D00858172BB00021D
:109E7000BF0292BC0001B7055F5C92AF0001B7065C
:109E80005C92AF0001B707AE001172BB0006BF06BF
:109E900092BC00055F975C90AE000A8D013EAE9FBC
:109EA0008D00E01A35010000AE000B8D0085817237
:109EB000BB0002BF0292BC0001B7055F5C92AF001D
:109EC00001B7065C92AF0001B707AE001172BB008C
:109ED00006BF0692BC00055F975C90AE000A8D013C
:109EE0003EC7909F8D00E31EAE000B8D00858172F2
:109EF000BB0002BF0292BC0001B7055F5C92AF00DD
:109F000001B7065C92AF0001B707AE001172BB004B
:109F100006BF0692BC0005A1002604AC00A061AEFD
:109F2000000B8D00858172BB0002BF0292BC000154
:109F3000B7055F5C92AF0001B7065C92AF0001B756
:109F400007AE001172BB0006BF0692BC0005A1035C
:109F50002604AC00A061AE000B8D00858172BB00B1
:109F600002BF0292BC0001B7055F5C92AF0001B76F
:109F7000065C92AF0001B707AE001172BB0006BFCE
:109F80000692BC0005A1082604AC00A061AE000B3F
:109F90008D00858172BB0002BF0292BC0001B70533
:109FA0005F5C92AF0001B7065C92AF0001B707AEED
:109FB000001172BB0006BF0692BC0005A109260471
:109FC000AC00A061AE000B8D00858172BB0002BFAA
:109FD0000292BC0001B7055F5C92AF0001B7065C5E
:109FE00092AF0001B707AE001172BB0006BF069228
:109FF000BC0005A10A276AAE000B8D00858172BBEB
:10A000000002BF0292BC0001B7055F5C92AF000185
:10A01000B7065C92AF0001B707AE001172BB000635
:10A02000BF0692BC0005A10B2737AE000B8D008543
:10A030008172BB0002BF0292BC0001B7055F5C9257
:10A04000AF0001B7065C92AF0001B707AE00117216
:10A05000BB0006BF0692BC0005A10C2704AC00A102
:10A06000D7AE000B8D00858172BB0002BF0292BC8F
:10A070000001B7055F5C92AF0001B7065C92AF00CC
:10A0800001B707AE001272BB0006BF0692BC000506
:10A09000B7005F5C92AF0005B7015C92AF0005B7F7
:10A0A000025C92AF0005B703AE000BBF065FBF04B2
:10A0B0008D0087AA2E04AC00A17C3501000045006C
:10A0C00008AE000B8D00858172BB0002BF0292BCFE
:10A0D0000001B7055F5C92AF0001B7065C92AF006C
:10A0E00001B707AE001272BB0006BF0692BC0005A6
:10A0F000B7005F5C92AF0005B7015C92AF0005B797
:10A10000025C92AF0005B7038D0087500000000A83
:10A11000B6034508008D00CBD0350100004500088E
:10A12000AE000B8D00858172BB0002BF0292BC00A5
:10A1300001B7055F5C92AF0001B7065C92AF00010A
:10A14000B707AE001272BB0006BF0692BC0005B78F
:10A15000005F5C92AF0005B7015C92AF0005B702EB
:10A160005C92AF0005B7038D00874A0000000AB675
:10A17000074508008D00D69CAC00A5F7350100000E
:10A18000450004AE000B8D00858172BB0002BF024A
:10A1900092BC0001B7055F5C92AF0001B7065C920C
:10A1A000AF0001B707AE001272BB0006BF0692BC3B
:10A1B0000005B7005F5C92AF0005B7015C92AF008D
:10A1C00005B7025C92AF0005B703B6034504008DE6
:10A1D00000D69CAC00A5F7AE000B8D00858172BB4C
:10A1E0000002BF0292BC0001B7055F5C92AF0001A4
:10A1F000B7065C92AF0001B707AE001172BB000654
:10A20000BF0692BC0005A1012604AC00A2E2AE008C
:10A210000B8D00858172BB0002BF0292BC0001B7AA
:10A22000055F5C92AF0001B7065C92AF0001B70713
:10A23000AE001172BB0006BF0692BC0005A1042649
:10A2400004AC00A2E2AE000B8D00858172BB00025F
:10A25000BF0292BC0001B7055F5C92AF0001B70678
:10A260005C92AF0001B707AE001172BB0006BF06DB
:10A2700092BC0005A105276AAE000B8D0085817296
:10A28000BB0002BF0292BC0001B7055F5C92AF0049
:10A2900001B7065C92AF0001B707AE001172BB00B8
:10A2A00006BF0692BC0005A1062737AE000B8D0045
:10A2B000858172BB0002BF0292BC0001B7055F5CE2
:10A2C00092AF0001B7065C92AF0001B707AE001174
:10A2D00072BB0006BF0692BC0005A1072704AC00B4
:10A2E000A577AE000B8D00858172BB0002BF029284
:10A2F000BC0001B7055F5C92AF0001B7065C92AF8E
:10A300000001B707AE001272BB0006BF0692BC0088
:10A3100005B7005F5C92AF0005B7015C92AF000526
:10A32000B7025C92AF0005B7033D002B04AC00A45C
:10A330000B8D01316F350100004500085F5ABF06E3
:10A34000BF04AE000B8D00858172BB0002BF02927C
:10A35000BC0001B70D5F5C92AF0001B70E5C92AF1D
:10A360000001B70FAE001272BB000EBF0E92BC0010
:10A370000DB7005F5C92AF000DB7015C92AF000DAE
:10A38000B7025C92AF000DB7038D00865F8D00872A
:10A39000500000000AB6034508008D00D69C350128
:10A3A00000004500085F5ABF06BF04AE000B8D00D9
:10A3B000858172BB0002BF0292BC0001B70D5F5CD9
:10A3C00092AF0001B70E5C92AF0001B70FAE001262
:10A3D00072BB000EBF0E92BC000DB7005F5C92AF67
:10A3E000000DB7015C92AF000DB7025C92AF000D9B
:10A3F000B7038D00865F8D00874A0000000AB6070C
:10A400004508008D00D9D2AC00A5F7AE000B8D0039
:10A41000858172BB0002BF0292BC0001B7055F5C80
:10A4200092AF0001B7065C92AF0001B707AE001211
:10A4300072BB0006BF0692BC0005B7005F5C92AF1E
:10A440000005B7015C92AF0005B7025C92AF000552
:10A45000B703AE0064BF065FBF048D0087AA2F0458
:10A46000AC00A52635010000450008AE000B8D00AC
:10A47000858172BB0002BF0292BC0001B7055F5C20
:10A4800092AF0001B7065C92AF0001B707AE0012B1
:10A4900072BB0006BF0692BC0005B7005F5C92AFBE
:10A4A0000005B7015C92AF0005B7025C92AF0005F2
:10A4B000B7038D0087500000000AB6034508008DE1
:10A4C00000D69C35010000450008AE000B8D0085CC
:10A4D0008172BB0002BF0292BC0001B7055F5C92B3
:10A4E000AF0001B7065C92AF0001B707AE00127271
:10A4F000BB0006BF0692BC0005B7005F5C92AF00D0
:10A5000005B7015C92AF0005B7025C92AF0005B7DA
:10A51000038D00874A0000000AB6074508008D0039
:10A52000D9D2AC00A5F7AE000B8D00858172BB00BF
:10A5300002BF0292BC0001B7055F5C92AF0001B799
:10A54000065C92AF0001B707AE001272BB0006BFF7
:10A550000692BC0005B7005F5C92AF0005B7015CD6
:10A5600092AF0005B7025C92AF0005B703BE028D43
:10A57000013468AC00A5F7AE000B8D00858172BB7D
:10A580000002BF0292BC0001B7055F5C92AF000100
:10A59000B7065C92AF0001B707AE001172BB0006B0
:10A5A000BF0692BC0005A102264DAE000B8D0085B2
:10A5B0008172BB0002BF0292BC0001B7055F5C92D2
:10A5C000AF0001B7065C92AF0001B707AE00127290
:10A5D000BB0006BF0692BC0005B7005F5C92AF00EF
:10A5E00005B7015C92AF0005B7025C92AF0005B7FA
:10A5F00003BE028D0134688D0084CFAC00855E8D72
:10A600000084888D0085C2AE00088992BC0009B71D
:10A61000055F5C92AF0009B7065C92AF0009B7070F
:10A62000AE000A72BB0006BF0692BC0005B7015F10
:10A630005C92AF0005B7025C92AF0005B703858D51
:10A64000012B0D92BC0009B7015F5C92AF0009B706
:10A65000025C92AF0009B703AE001172BB0002BFEB
:10A660000292BC00014D27584A2604AC00A7524A6A
:10A670002604AC00A7BC4A2604AC00A8474A26041E
:10A68000AC00A8CD4A2604AC00A9534A2604AC006D
:10A69000A9D34A2604AC00AA534A2604AC00AADE79
:10A6A0004A2604AC00AB684A2604AC00ABF34A2649
:10A6B00004AC00AC7E4A2604AC00AD02AC00AD0A8E
:10A6C00092BC0009B7015F5C92AF0009B7025C92CF
:10A6D000AF0009B703AE001172BB0002BF02A601B2
:10A6E00092BD000192BC0009B7015F5C92AF000906
:10A6F000B7025C92AF0009B703AE000F72BB000255
:10A70000BF0292BC00019590AE000191AF0001978D
:10A710008D0087C192BC0009B7055F5C92AF00094C
:10A72000B7065C92AF0009B707AE001272BB000615
:10A73000BF06B60092BD00055F5CB60192A700059A
:10A740005CB60292A700055CB60392A70005AC00B8
:10A75000AD0A92BC0009B7015F5C92AF0009B70275
:10A760005C92AF0009B703AE001172BB0002BF02DA
:10A77000A60292BD000192BC0009B7015F5C92AFD6
:10A780000009B7025C92AF0009B703AE001272BBBA
:10A790000002BF02AE0064BF065FBF04B60492BDF4
:10A7A00000015F5CB60592A700015CB60692A700A7
:10A7B000015CB60792A70001AC00AD0A92BC00098B
:10A7C000B7015F5C92AF0009B7025C92AF0009B7B6
:10A7D00003AE001172BB0002BF02A60392BD0001CE
:10A7E00092BC0009B7015F5C92AF0009B7025C92AE
:10A7F000AF0009B703AE001872BB0002BF0292BCE3
:10A8000000015F97BF025FBF0092BC0009B7055F00
:10A810005C92AF0009B7065C92AF0009B707AE00C3
:10A820001272BB0006BF06B60092BD00055F5CB6A3
:10A830000192A700055CB60292A700055CB60392E0
:10A84000A70005AC00AD0A92BC0009B7015F5C929D
:10A85000AF0009B7025C92AF0009B703AE001172F6
:10A86000BB0002BF02A60492BD000192BC0009B762
:10A87000015F5C92AF0009B7025C92AF0009B703B9
:10A880008D013D95B70092BC0009B7015F5C92AFA6
:10A890000009B7025C92AF0009B703AE001272BBA9
:10A8A0000002BF025FB60097BF065FBF04B6049206
:10A8B000BD00015F5CB60592A700015CB60692A7D9
:10A8C00000015CB60792A70001AC00AD0A92BC0083
:10A8D00009B7015F5C92AF0009B7025C92AF000953
:10A8E000B703AE001172BB0002BF02A60592BD0005
:10A8F0000192BC0009B7015F5C92AF0009B7025C2E
:10A9000092AF0009B7038D013DA3B70092BC0009C7
:10A91000B7015F5C92AF0009B7025C92AF0009B764
:10A9200003AE001272BB0002BF025FB60097BF0603
:10A930005FBF04B60492BD00015F5CB60592A7003C
:10A94000015CB60692A700015CB60792A70001ACB5
:10A9500000AD0A92BC0009B7015F5C92AF0009B775
:10A96000025C92AF0009B703AE001172BB0002BFD8
:10A9700002A60692BD000192BC0009B7015F5C927D
:10A98000AF0009B7025C92AF0009B7038D013BB776
:10A99000BF0292BC0009B7055F5C92AF0009B70621
:10A9A0005C92AF0009B707AE001272BB0006BF068B
:10A9B0005FBF00B60092BD00055F5CB60192A700C4
:10A9C000055CB60292A700055CB60392A70005AC31
:10A9D00000AD0A92BC0009B7015F5C92AF0009B7F5
:10A9E000025C92AF0009B703AE001172BB0002BF58
:10A9F00002A60792BD000192BC0009B7015F5C92FC
:10AA0000AF0009B7025C92AF0009B7038D013BCFDD
:10AA1000BF0292BC0009B7055F5C92AF0009B706A0
:10AA20005C92AF0009B707AE001272BB0006BF060A
:10AA30005FBF00B60092BD00055F5CB60192A70043
:10AA4000055CB60292A700055CB60392A70005ACB0
:10AA500000AD0A92BC0009B7015F5C92AF0009B774
:10AA6000025C92AF0009B703AE001172BB0002BFD7
:10AA700002A60892BD000192BC0009B7015F5C927A
:10AA8000AF0009B7025C92AF0009B703AE001672BF
:10AA9000BB0002BF0292BC00015F97BF025FBF0014
:10AAA00092BC0009B7055F5C92AF0009B7065C92E3
:10AAB000AF0009B707AE001272BB0006BF06B600B2
:10AAC00092BD00055F5CB60192A700055CB60292DC
:10AAD000A700055CB60392A70005AC00AD0A92BCC6
:10AAE0000009B7015F5C92AF0009B7025C92AF004A
:10AAF00009B703AE001172BB0002BF02A60992BDE6
:10AB0000000192BC0009B7015F5C92AF0009B70277
:10AB10005C92AF0009B7035F5C72BB0002BF029298
:10AB2000BC00015F97BF025FBF0092BC0009B70580
:10AB30005F5C92AF0009B7065C92AF0009B707AE41
:10AB4000001272BB0006BF06B60092BD00055F5C36
:10AB5000B60192A700055CB60292A700055CB60399
:10AB600092A70005AC00AD0A92BC0009B7015F5C7A
:10AB700092AF0009B7025C92AF0009B703AE0011B3
:10AB800072BB0002BF02A60A92BD000192BC00097E
:10AB9000B7015F5C92AF0009B7025C92AF0009B7E2
:10ABA00003AE002572BB0002BF0292BC00015F979A
:10ABB000BF025FBF0092BC0009B7055F5C92AF00A7
:10ABC00009B7065C92AF0009B707AE001272BB006E
:10ABD00006BF06B60092BD00055F5CB60192A700F5
:10ABE000055CB60292A700055CB60392A70005AC0F
:10ABF00000AD0A92BC0009B7015F5C92AF0009B7D3
:10AC0000025C92AF0009B703AE001172BB0002BF35
:10AC100002A60B92BD000192BC0009B7015F5C92D5
:10AC2000AF0009B7025C92AF0009B703AE0026720D
:10AC3000BB0002BF0292BC00015F97BF025FBF0072
:10AC400092BC0009B7055F5C92AF0009B7065C9241
:10AC5000AF0009B707AE001272BB0006BF06B60010
:10AC600092BD00055F5CB60192A700055CB602923A
:10AC7000A700055CB60392A70005AC00AD0A92BC24
:10AC80000009B7015F5C92AF0009B7025C92AF00A8
:10AC900009B703AE001172BB0002BF02A60C92BD41
:10ACA000000192BC0009B7015F5C92AF0009B702D6
:10ACB0005C92AF0009B7038D013DB1B70092BC00B3
:10ACC00009B7015F5C92AF0009B7025C92AF00095F
:10ACD000B703AE001272BB0002BF025FB60097BF9F
:10ACE000065FBF04B60492BD00015F5CB60592A783
:10ACF00000015CB60692A700015CB60792A70001AE
:10AD000020088D0085818D010C898D0084C0878D80
:10AD10000084888D0085C2AE000B8D00858172BBDA
:10AD20000002BF0292BC0001B7055F5C92AF000158
:10AD3000B7065C92AF0001B707AE000D72BB00060C
:10AD4000BF0692BC00059590AE000191AF0005973B
:10AD5000A30001273CAE000B8D00858172BB000271
:10AD6000BF0292BC0001B7055F5C92AF0001B7065D
:10AD70005C92AF0001B707AE000D72BB0006BF06C4
:10AD800092BC00059590AE000191AF0005975D263D
:10AD900038AE000B8D0085A872BB0006BF0692BCC2
:10ADA0000005B7015F5C92AF0005B7025C92AF008F
:10ADB00005B7038D013D6BA100270EBC005412AAFC
:10ADC00002BD005412AC00AEAFAE000B8D00858109
:10ADD00072BB0002BF0292BC0001B7055F5C92AF7C
:10ADE0000001B7065C92AF0001B707AE000D72BB61
:10ADF0000006BF0692BC00059590AE000191AF0021
:10AE000005975D2704AC00AEA5AE000B8D0085A8AC
:10AE100072BB0006BF0692BC0005B7015F5C92AF33
:10AE20000005B7025C92AF0005B7038D013D6BA131
:10AE3000002672AE000B8D00858172BB0002BF023E
:10AE400092BC0001B7055F5C92AF0001B7065C924F
:10AE5000AF0001B707AE001872BB0006BF0692BC78
:10AE60000005A102263FAE000B8D00858172BB005C
:10AE700002BF0292BC0001B7055F5C92AF0001B750
:10AE8000065C92AF0001B707AE002672BB0006BF9A
:10AE90000692BC0005A100260CBC005412AA02BDFB
:10AEA000005412200ABC005412A4FDBD005412AE7E
:10AEB000000B8D0085A872BB0006BF0692BC000582
:10AEC000B7015F5C92AF0005B7025C92AF0005B7B7
:10AED000038D013D87A1002749AE000B8D008581C0
:10AEE00072BB0002BF0292BC0001B7055F5C92AF6B
:10AEF0000001B7065C92AF0001B707AE001872BB45
:10AF00000006BF0692BC0005A1002616BC00541323
:10AF1000AA02BD005413BC00540FAA20BD00540F58
:10AF20002014BC005413A4FDBD005413BC00540FE6
:10AF3000A4DFBD00540FAE000B8D00858172BB00F5
:10AF400002BF0292BC0001B7055F5C92AF0001B77F
:10AF5000065C92AF0001B707AE001672BB0006BFD9
:10AF60000692BC0005A1002704AC00AFFAAE000BAE
:10AF70008D0085A872BB0006BF0692BC0005B70114
:10AF80005F5C92AF0005B7025C92AF0005B7038D1E
:10AF9000013D6BA100264BAE000B8D00858172BB7D
:10AFA0000002BF0292BC0001B7055F5C92AF0001D6
:10AFB000B7065C92AF0001B707AE001872BB00067F
:10AFC000BF0692BC0005A1022618BC005410A47F45
:10AFD000BD005410BC005414A4F7BD005414AC00C0
:10AFE000B081BC005410AA80BD005410BC005414A1
:10AFF000A4F7BD005414AC00B081AE000B8D0085E9
:10B00000A872BB0006BF0692BC0005B7015F5C9248
:10B01000AF0005B7025C92AF0005B7038D013D6B31
:10B02000A1002649AE000B8D00858172BB0002BFD6
:10B030000292BC0001B7055F5C92AF0001B7065CED
:10B0400092AF0001B707AE001872BB0006BF0692B0
:10B05000BC0005A1022616BC005410A47FBD0054FC
:10B0600010BC005414A4F7BD0054142014BC0054A8
:10B0700010A47FBD005410BC005414AA08BD005495
:10B0800014AE000B8D0085A872BB0006BF0692BCF3
:10B090000005B7015F5C92AF0005B7025C92AF009C
:10B0A00005B7038D013D79A1002733AE000B8D005C
:10B0B000858172BB0002BF0292BC0001B7055F5CD4
:10B0C00092AF0001B7065C92AF0001B707AE00185F
:10B0D00072BB0006BF0692BC0005A100275DAE0052
:10B0E0000B8D0085A872BB0006BF0692BC0005B799
:10B0F000015F5C92AF0005B7025C92AF0005B70339
:10B100008D013DB1A100273FAE000B8D00858172FE
:10B11000BB0002BF0292BC0001B7055F5C92AF00AA
:10B1200001B7065C92AF0001B707AE001872BB0012
:10B1300006BF0692BC0005A101260CBC00540CAA57
:10B1400002BD00540C200ABC00540CA4FDBD0054E8
:10B150000CAE000B8D00858172BB0002BF0292BC59
:10B160000001B7055F5C92AF0001B7065C92AF00CB
:10B1700001B707AE000272BB0006BF0692BC000515
:10B18000A100270CBC00540CAA08BD00540C200AD6
:10B19000BC00540CA4F7BD00540CAE000B8D008510
:10B1A0008172BB0002BF0292BC0001B7055F5C92D6
:10B1B000AF0001B7065C92AF0001B707AE000372A3
:10B1C000BB0006BF0692BC0005A100270CBC0054C2
:10B1D00010AA20BD005410200ABC005410A4DFBDEA
:10B1E000005410AE000B8D00858172BB0002BF02BF
:10B1F00092BC0001B7055F5C92AF0001B7065C929C
:10B20000AF0001B707AE000472BB0006BF0692BCD8
:10B210000005A100270CBC00540DAA02BD00540D6E
:10B22000200ABC00540DA4FDBD00540DAE000B8DD2
:10B2300000858172BB0002BF0292BC0001B7055FAE
:10B240005C92AF0001B7065C92AF0001B707AE0099
:10B250000572BB0006BF0692BC0005A100270CBC0E
:10B2600000540CAA80BD00540C200ABC00540CA44D
:10B270007FBD00540CAE000B8D00858172BB0002B7
:10B28000BF0292BC0001B7055F5C92AF0001B70638
:10B290005C92AF0001B70792BC0005A100270CBC6F
:10B2A000005419AA02BD005419200ABC005419A464
:10B2B000FDBD005419AE000B8D0085A872BB0006C1
:10B2C000BF0692BC0005B7015F5C92AF0005B702F4
:10B2D0005C92AF0005B7038D01263CA100270CBC92
:10B2E00000540DAA04BD00540D200ABC00540DA446
:10B2F000FBBD00540DAE000B8D0085A872BB00068F
:10B30000BF0692BC0005B7015F5C92AF0005B702B3
:10B310005C92AF0005B7038D013342A100273FAE19
:10B32000000B8D00858172BB0002BF0292BC000140
:10B33000B7055F5C92AF0001B7065C92AF0001B742
:10B3400007AE001872BB0006BF0692BC0005A10242
:10B35000270CBC005414AA10BD005414200ABC00D1
:10B360005414A4EFBD0054148D0084C0878D008454
:10B37000888D0085C292BC0009B7015F5C92AF0066
:10B3800009B7025C92AF0009B703AE001172BB00AF
:10B3900002BF0292BC00014D27524A2604AC00B401
:10B3A00047A0022604AC00B4B14A2604AC00B51391
:10B3B0004A2604AC00B56E4A2604AC00B5C94A263C
:10B3C00004AC00B6244A2604AC00B67F4A2604AC7E
:10B3D00000B6F74A2604AC00B76E4A2604AC00B7A4
:10B3E000E64A2604AC00B85CAC00B8C492BC0009C4
:10B3F000B7055F5C92AF0009B7065C92AF0009B772
:10B4000007AE001272BB0006BF0692BC0005B70073
:10B410005F5C92AF0005B7015C92AF0005B7025CBC
:10B4200092AF0005B703B6038892BC0009B7015F6D
:10B430005C92AF0009B7025C92AF0009B703848D3C
:10B44000011B22AC00B8C492BC0009B7055F5C9236
:10B45000AF0009B7065C92AF0009B707AE001272E1
:10B46000BB0006BF0692BC0005B7005F5C92AF0050
:10B4700005B7015C92AF0005B7025C92AF0005B75B
:10B480000392BC0009B7055F5C92AF0009B7065C88
:10B4900092AF0009B707AE000F72BB0006BF06B639
:10B4A0000292BD00055F5CB60392A70005AC00B830
:10B4B000C492BC0009B7055F5C92AF0009B7065C97
:10B4C00092AF0009B707AE001272BB0006BF06922A
:10B4D000BC0005B7005F5C92AF0005B7015C92AF9E
:10B4E0000005B7025C92AF0005B70392BC0009B734
:10B4F000055F5C92AF0009B7065C92AF0009B70721
:10B50000AE001872BB0006BF06B60392BD0005ACC4
:10B5100000B8C492BC0009B7055F5C92AF0009B7E0
:10B52000065C92AF0009B707AE001272BB0006BFFF
:10B530000692BC0005B7005F5C92AF0005B7015CE6
:10B5400092AF0005B7025C92AF0005B703B603885F
:10B5500092BC0009B7015F5C92AF0009B7025C9230
:10B56000AF0009B703848D013CC2AC00B8C492BCE3
:10B570000009B7055F5C92AF0009B7065C92AF00A7
:10B5800009B707AE001272BB0006BF0692BC0005E9
:10B59000B7005F5C92AF0005B7015C92AF0005B7E2
:10B5A000025C92AF0005B703B6038892BC0009B7EE
:10B5B000015F5C92AF0009B7025C92AF0009B7036C
:10B5C000848D013CD4AC00B8C492BC0009B7055FBF
:10B5D0005C92AF0009B7065C92AF0009B707AE00F6
:10B5E0001272BB0006BF0692BC0005B7005F5C92FA
:10B5F000AF0005B7015C92AF0005B7025C92AF00E7
:10B6000005B703BE028992BC0009B7015F5C92AF27
:10B610000009B7025C92AF0009B703858D012E4681
:10B62000AC00B8C492BC0009B7055F5C92AF0009DA
:10B63000B7065C92AF0009B707AE001272BB0006F6
:10B64000BF0692BC0005B7005F5C92AF0005B70172
:10B650005C92AF0005B7025C92AF0005B703BE0273
:10B660008992BC0009B7015F5C92AF0009B7025C28
:10B6700092AF0009B703858D012EA6AC00B8C49225
:10B68000BC0009B7015F5C92AF0009B7025C92AFE2
:10B690000009B703AE001272BB0002BF0292BC00E9
:10B6A00001B7045F5C92AF0001B7055C92AF000187
:10B6B000B7065C92AF0001B707BE04A300002605E1
:10B6C000BE06A3000027063501000020023F0092BD
:10B6D000BC0009B7015F5C92AF0009B7025C92AF92
:10B6E0000009B703AE001672BB0002BF02B600929B
:10B6F000BD0001AC00B8C492BC0009B7015F5C9208
:10B70000AF0009B7025C92AF0009B703AE00127236
:10B71000BB0002BF0292BC0001B7045F5C92AF00A5
:10B7200001B7055C92AF0001B7065C92AF0001B7AC
:10B7300007BE04A300002605BE06A30000270635A9
:10B7400001000020023F0092BC0009B7015F5C923B
:10B75000AF0009B7025C92AF0009B7035F5C72BB30
:10B760000002BF02B60092BD0001AC00B8C492BC9A
:10B770000009B7015F5C92AF0009B7025C92AF00AD
:10B7800009B703AE001272BB0002BF0292BC0001F7
:10B79000B7045F5C92AF0001B7055C92AF0001B7E0
:10B7A000065C92AF0001B707BE04A300002605BEE9
:10B7B00006A3000027063501000020023F0092BCCE
:10B7C0000009B7015F5C92AF0009B7025C92AF005D
:10B7D00009B703AE002572BB0002BF02B60092BDDE
:10B7E0000001AC00B8C492BC0009B7015F5C92AF25
:10B7F0000009B7025C92AF0009B703AE001272BB3A
:10B800000002BF0292BC0001B7045F5C92AF00016E
:10B81000B7055C92AF0001B7065C92AF0001B707B5
:10B82000BE04A300002605BE06A3000027063501BE
:10B83000000020023F0092BC0009B7015F5C92AF9C
:10B840000009B7025C92AF0009B703AE002672BBD5
:10B850000002BF02B60092BD0001206892BC000940
:10B86000B7015F5C92AF0009B7025C92AF0009B705
:10B8700003AE001272BB0002BF0292BC0001B7040B
:10B880005F5C92AF0001B7055C92AF0001B7065C48
:10B8900092AF0001B707BE04A300002605BE06A3B1
:10B8A00000002704A60120014F8892BC0009B701BF
:10B8B0005F5C92AF0009B7025C92AF0009B70384E6
:10B8C0008D013CE692BC0009B7015F5C92AF0009B4
:10B8D000B7025C92AF0009B7038D012DE592BC0061
:10B8E00009B7015F5C92AF0009B7025C92AF000933
:10B8F000B7038D00F1E38D00F47FAE2710BF025F28
:10B90000BF008D0135348D013E368D0084C0878D9A
:10B910000084F78D0084FC52038D0085C2AE0005C3
:10B920008D00858172BB0002BF0292BC00016B01D9
:10B93000AE00078D00858172BB0002BF0292BC0081
:10B9400001B700AE00068D00858172BB0002BF0208
:10B9500092BC00018D013D0A1F02AE00098D0085D9
:10B960008172BB0002BF0292BC0001B700AE0008AA
:10B970008D00858172BB0002BF0292BC00018D0167
:10B980003D0ABF0C3F0F3F0E7B01A1042704AC0012
:10B99000BBBB1E025A27515A2604AC00BA1E5A26B7
:10B9A00004AC00BA545A2604AC00BA8E5A2604AC31
:10B9B00000BAC85A2604AC00BAD65A2604AC00BA5B
:10B9C000E45A2604AC00BB205A2604AC00BB2E5A15
:10B9D0002604AC00BB3C5A2604AC00BB4B5A2604E0
:10B9E000AC00BB83AC00BE45AE00168D0085A872CE
:10B9F000BB0006BF0692BC0005B7015F5C92AF00BA
:10BA000005B7025C92AF0005B7038D013B3A8D018B
:10BA100035F78D0085818D011E0AAC00BE45AE0054
:10BA2000168D0085A872BB0006BF0692BC0005B744
:10BA3000015F5C92AF0005B7025C92AF0005B703EF
:10BA40008D013B3A8D013B9F8D0085818D011E0A42
:10BA5000AC00BE45AE00168D0085A872BB0006BFC7
:10BA60000692BC0005B7015F5C92AF0005B7025CAF
:10BA700092AF0005B7038D013B3A8D012F06BF0E33
:10BA8000BE0E8D0085818D011E0AAC00BE45AE0044
:10BA9000168D0085A872BB0006BF0692BC0005B7D4
:10BAA000015F5C92AF0005B7025C92AF0005B7037F
:10BAB0008D013B3A8D0126BDBF0EBE0E8D008581E6
:10BAC0008D011E0AAC00BE45BE0E8D0085818D0124
:10BAD0001E0AAC00BE45BE0E8D0085818D011E0A7A
:10BAE000AC00BE45AE00168D0085A872BB0006BF37
:10BAF0000692BC0005B7015F5C92AF0005B7025C1F
:10BB000092AF0005B7038D013B3A92BC00018D0155
:10BB100040795F978D0085818D011E0AAC00BE457E
:10BB2000BE0E8D0085818D011E0AAC00BE455F5C96
:10BB30008D0085818D011E0AAC00BE45AE00648D6E
:10BB40000085818D011E0AAC00BE45AE00168D0039
:10BB500085A872BB0006BF0692BC0005B7015F5CFA
:10BB600092AF0005B7025C92AF0005B7038D013BB1
:10BB70003A8D013D5D5F978D0085818D011E0AAC78
:10BB800000BE45AE00168D0085A872BB0006BF063C
:10BB900092BC0005B7015F5C92AF0005B7025C92F2
:10BBA000AF0005B7038D013B3A8D013DB15F978D25
:10BBB0000085818D011E0AAC00BE457B01A10627D0
:10BBC00004AC00BE451E025D27435A27705A260466
:10BBD000AC00BC6D1D00032604AC00BCA55A2604B5
:10BBE000AC00BD375A2604AC00BD3B5A2604AC005D
:10BBF000BD3F1D00022604AC00BDBB5A2604AC00AC
:10BC0000BC9B5A2604AC00BDF2AC00BE2BAE0016A5
:10BC10008D0085A872BB0006BF0692BC0005B70167
:10BC20005F5C92AF0005B7025C92AF0005B7038D71
:10BC3000013B3ABE0C8D011148AC00BE2BAE001684
:10BC40008D0085A872BB0006BF0692BC0005B70137
:10BC50005F5C92AF0005B7025C92AF0005B7038D41
:10BC6000013B3ABE0C8D01199CAC00BE2BBE0C8969
:10BC7000AE00168D0085A872BB0006BF0692BC0000
:10BC800005B7015F5C92AF0005B7025C92AF00059B
:10BC9000B703858D0105ABAC00BE2BA680BD00505F
:10BCA000D3AC00BE2BAE00088D00858172BB0002B4
:10BCB000BF0292BC0001905F9097AE000ABF009354
:10BCC0008D013E9089AE00168D0085A872BB0006DE
:10BCD000BF0692BC0005B7015F5C92AF0005B702DA
:10BCE0005C92AF0005B703858D012D21AE00098D53
:10BCF00000858172BB0002BF0292BC0001905F9080
:10BD000097AE000ABF00938D013E9089AE00168D5C
:10BD10000085A872BB0006BF0692BC0005B7015F94
:10BD20005C92AF0005B7025C92AF0005B703858D4A
:10BD3000012D83AC00BE2BAC00BE2BAC00BE2BAEE5
:10BD400000168D0085A872BB0006BF0692BC0005D8
:10BD5000B7015F5C92AF0005B7025C92AF0005B718
:10BD6000038D013B3AAE001872BB0002BF0292BCC9
:10BD70000001A1022743B60DA102243DAE00168D9D
:10BD80000085A872BB0006BF0692BC0005B7015F24
:10BD90005C92AF0005B7025C92AF0005B7038D015E
:10BDA0003B3ABE0C5D2704A60120014FAE0016727F
:10BDB000BB0002BF0292BD00012070AE00168D00D4
:10BDC00085A872BB0006BF0692BC0005B7015F5C88
:10BDD00092AF0005B7025C92AF0005B7038D013B3F
:10BDE0003AAE001872BB0002BF02B60D92BD000150
:10BDF0002039BE0C5D27063501000820023F08AE41
:10BE000000168D0085A872BB0006BF0692BC000517
:10BE1000B7015F5C92AF0005B7025C92AF0005B757
:10BE2000038D013B3AB6088D013CE6AE000889AEB1
:10BE300000048D0085A872BB0006BF06858D0085B5
:10BE4000818D011BE45B03AC00855A8D0084F73BB8
:10BE5000000D8D0085C25FBF005CBF028D0139BB44
:10BE6000A1002704A60120014FAE00028D008581AC
:10BE700072BB0002BF0292BD00015FBF005C5CBFED
:10BE8000028D0139BBA1002704A60120014FAE009D
:10BE9000038D00858172BB0002BF0292BD0001AE1E
:10BEA0000003BF025FBF008D0139BBA1002704A6BC
:10BEB0000120014FAE00048D00858172BB0002BFDE
:10BEC0000292BD0001AE0004BF025FBF008D0139C8
:10BED000BBA1002704A60120014FAE00058D0085FF
:10BEE0008172BB0002BF0292BD0001AE0005BF021D
:10BEF0005FBF008D0139BBB708B608A1022532AE7D
:10BF000000278D00858172BB0002BF02A60192BD91
:10BF10000001AE00278D00858172BB0002BF029236
:10BF2000BC0001B700A6058D0085818D0134F2208B
:10BF30001A3D082704A60120014FAE00278D008579
:10BF40008172BB0002BF0292BD0001AE0006BF02BB
:10BF50005FBF008D0139BBB708B608A1022531AE1D
:10BF600000288D00858172BB0002BF024F92BD0088
:10BF700001AE00288D00858172BB0002BF0292BC19
:10BF80000001B700A6068D0085818D0134F2201ACC
:10BF90003D082704A60120014FAE00288D008581B1
:10BFA00072BB0002BF0292BD0001AE0007BF025F7C
:10BFB000BF008D0139BBB708B608A1022531AE001C
:10BFC000298D00858172BB0002BF024F92BD000126
:10BFD000AE00298D00858172BB0002BF0292BC00B9
:10BFE00001B700A6078D0085818D0134F2201A3D2E
:10BFF000082704A60120014FAE00298D008581721B
:10C00000BB0002BF0292BD00018D0085818D012120
:10C01000CFB70D3D0D2721AE00318D00858172BB5C
:10C020000002BF025FB60D979E92BD000190AE0068
:10C03000019F91A70001201DAE00318D0085817206
:10C04000BB0002BF025F5C9E92BD000190AE00018A
:10C050009F91A70001AE0009BF025FBF008D0139AB
:10C06000BBAE002B8D00858172BB0002BF0292BD6A
:10C070000001AE000ABF025FBF008D0139BBAE00F8
:10C080002C8D00858172BB0002BF0292BD0001AE03
:10C09000000CBF025FBF008D0139BBAE00188D00E0
:10C0A000858172BB0002BF0292BD0001AE000BBFD2
:10C0B000025FBF008D0139BBB708B608A102253168
:10C0C000AE00168D00858172BB0002BF024F92BD8B
:10C0D0000001AE00168D00858172BB0002BF029286
:10C0E000BC0001B700A60B8D0085818D0134F220C4
:10C0F0001A3D082704A60120014FAE00168D0085C9
:10C100008172BB0002BF0292BD0001AE000FBF02F0
:10C110005FBF008D0139BBB708B608A10225305FAB
:10C120005C8D00858172BB0002BF02A60192BD003A
:10C13000015F5C8D00858172BB0002BF0292BC0072
:10C1400001B700A60F8D0085818D0134F220193DC5
:10C15000082704A60120014F5F5C8D00858172BB1A
:10C160000002BF0292BD0001AE0010BF025FBF001F
:10C170008D0139BBB708B608A1022532AE00258D66
:10C1800000858172BB0002BF02A60192BD0001AE14
:10C1900000258D00858172BB0002BF0292BC0001A8
:10C1A000B700A6108D0085818D0134F2201A3D085C
:10C1B0002704A60120014FAE00258D00858172BBAA
:10C1C0000002BF0292BD0001AE0011BF025FBF00BE
:10C1D0008D0139BBB708B608A1022531AE00268D06
:10C1E00000858172BB0002BF024F92BD0001AE000C
:10C1F000268D00858172BB0002BF0292BC0001B790
:10C2000000A6118D0085818D0134F2201A3D08278A
:10C2100004A60120014FAE00268D00858172BB006F
:10C2200002BF0292BD0001AE0012BF025FBF008DCF
:10C230000139BBB708B608A1022531AE002A8D002E
:10C24000858172BB0002BF024F92BD0001AE002A81
:10C250008D00858172BB0002BF0292BC0001B70055
:10C26000A6128D0085818D0134F2201A3D08270425
:10C27000A60120014FAE002A8D00858172BB00020D
:10C28000BF0292BD0001AE001CBF025FBF008D0166
:10C290002A2890BE02AE00338D00858172BB000259
:10C2A000BF02909E92BD00015F5C909F92A700012B
:10C2B000AE0014BF025FBF008D012A2890BE02AEFF
:10C2C00000358D00858172BB0002BF02909E92BD39
:10C2D00000015F5C909F92A70001AE0018BF025F53
:10C2E000BF008D012A2890BE02AE00378D008581E7
:10C2F00072BB0002BF02909E92BD00015F5C909FE6
:10C3000092A70001AE0020BF025FBF008D012A2866
:10C3100090BE02AE000F8D00858172BB0002BF028D
:10C32000909E92BD00015F5C909F92A70001320039
:10C330000DAC00855E8D0084F78D0084FC5211C623
:10C3400000704D2604AC00C79DC600586B0BAE00B4
:10C35000583F01BF028D013D956B0AAE00583F0169
:10C36000BF028D013DA36B09C6005A6B08AE005891
:10C370003F01BF028D0132116B05AE00583F01BF76
:10C38000028D013B9F1F06AE00583F01BF028D0189
:10C3900035F7BF0CA6646B04A6416B03AE00583F93
:10C3A00001BF028D013BB71F10AE00583F01BF0215
:10C3B0008D013BCF1F0E55006E000EB60EA101265B
:10C3C0000635FF00082004350100081E0E13062460
:10C3D000061E0E1F06200A1E06131024041E101F20
:10C3E000067B0AB70FB60EA10126047B09B70FA67C
:10C3F000055F01B60F026241B70A413C0A5FB60F02
:10C40000978D0082D48D00817E3F0000008D0085D5
:10C4100098B6088D013EDFBF001E068D013E908D4F
:10C420000082D48D0080B08D0082F21F013F004554
:10C430000F011E0172B000001F0C1E01CF00DA7B3D
:10C44000035F971CFFEC3F00450A018D013E908D74
:10C450000082CD8D00817E3DCCCCCD8D0085981E97
:10C46000018D0082CD8D0080AA8D0082F2CF00DC8C
:10C470007B045F971CFFEC3F00450A018D013E9055
:10C480008D0082CD8D00817E3DCCCCCD8D008598F8
:10C490001E018D0082CD8D0080AA8D0082F2CF001A
:10C4A000DE1E0CCF00E07B03B70041B60A41B600A8
:10C4B000428D0082CD8D00817E3DCCCCCD8D00851E
:10C4C000981E018D0082CD8D0080AA8D0082F2CF52
:10C4D00000E27B04B70041B60A41B600428D0082FB
:10C4E000CD8D00817E3DCCCCCD8D0085981E018DFB
:10C4F0000082CD8D0080AA8D0082F2CF00E43F093A
:10C500003F0BB6088D013EDFBF00BE0C8D013E9093
:10C51000BF021E0CB3022506A601B70B201AB608EF
:10C520008D013EDFBF00BE0C8D013E90130125043E
:10C530003F0B20047B08B70BC60070A102262E3DDE
:10C540000B2724AE009A3F01BF028D013DBFA1021F
:10C55000250DAE009A3F01BF028D013DBF2002A60E
:10C5600001B709AC00C6E83F09AC00C6E8C60070D8
:10C57000A1012704AC00C6E87B054D27154A276FAB
:10C580004A2604AC00C6484A2604AC00C69BAC0050
:10C59000C6E8B6088D013EDFBF00BE0C8D013E909F
:10C5A000BF02CE00E4B3022506A603B709203CB6BD
:10C5B000088D013EDFBF00BE0C8D013E90BF02CE54
:10C5C00000E2B3022506A602B709201FB6088D01B6
:10C5D0003EDFBF00BE0C8D013E90BF02CE00E0B337
:10C5E000022506A601B70920023F09AC00C6E8B63D
:10C5F000088D013EDFBF00BE0C8D013E90BF02CE14
:10C6000000E4B3022506A603B7092038B6088D0159
:10C610003EDFBF00BE0C8D013E90BF02CE00E2B3F4
:10C62000022506A602B709201BB6088D013EDFBF12
:10C6300000BE0C8D013E90C300DA25043F092004A2
:10C64000A601B709AC00C6E8B6088D013EDFBF0001
:10C65000BE0C8D013E90BF02CE00E4B3022506A6BB
:10C6600003B7092034B6088D013EDFBF00BE0C8D34
:10C67000013E90C300DA25043F09201DB6088D0154
:10C680003EDFBF00BE0C8D013E90C300DC2506A638
:10C6900001B7092004A602B709204DB6088D013E56
:10C6A000DFBF00BE0C8D013E90C300DA25043F09B8
:10C6B0002036B6088D013EDFBF00BE0C8D013E90D6
:10C6C000C300DC2506A601B709201DB6088D013E72
:10C6D000DFBF00BE0C8D013E90C300DE2506A60222
:10C6E000B7092004A603B709B60BA1012602200250
:10C6F0003F090D0B27043F093F0BAE00583F01BF18
:10C70000028D013342A100270BC60070A10126044F
:10C710003F093F0BAE00583F01BF028D013D6BA1A9
:10C7200000265DC6005A4D270835010071725F0072
:10C730005AC600714D273BAE000489AE00628D01E0
:10C740003F83858D012936BE00A300002605BE0269
:10C75000A307D1250E4FAE00583F01BF028D010D3A
:10C7600082203A7B05AE00583F01BF028D010D8249
:10C77000202B4FAE00583F01BF028D010D82201DBE
:10C780003D0B2704A60120014FC7005AB609AE0091
:10C79000583F01BF028D010D82725F00715B11ACC9
:10C7A00000855A8D0084888D0085C2AE00318D00D1
:10C7B000858172BB0002BF0292BC00019590AE0061
:10C7C0000191AF0001975D2720AE00318D0085817A
:10C7D00072BB0002BF0292BC00019590AE000191B5
:10C7E000AF000197A300212541AE00318D00858166
:10C7F00072BB0002BF025F5C9E92BD000190AE0062
:10C80000019F91A70001AE00318D00858172BB00B0
:10C8100002BF0292BC00019590AE000191AF0001F1
:10C82000979F8D0085818D011B22AE00338D008581
:10C830008172BB0002BF0292BC00019590AE000164
:10C8400091AF000197A300322520AE00338D008503
:10C850008172BB0002BF0292BC00019590AE000144
:10C8600091AF000197A3015F2548AE00338D00858D
:10C870008172BB0002BF02AE00D29E92BD00019049
:10C88000AE00019F91A70001AE00338D008581723B
:10C89000BB0002BF0292BC00019590AE000191AFB7
:10C8A000000197BF065FBF04A61C8D0085818D0126
:10C8B0003575AE00358D00858172BB0002BF0292D6
:10C8C000BC00019590AE000191AF000197A300322A
:10C8D0002520AE00358D00858172BB0002BF02921B
:10C8E000BC00019590AE000191AF000197A3015FDC
:10C8F0002548AE00358D00858172BB0002BF02AEB7
:10C90000003C9E92BD000190AE00019F91A70001E6
:10C91000AE00358D00858172BB0002BF0292BC0063
:10C92000019590AE000191AF000197BF065FBF0473
:10C93000A6148D0085818D013575AE00378D00857B
:10C940008172BB0002BF0292BC00019590AE000153
:10C9500091AF000197A300322520AE00378D0085EE
:10C960008172BB0002BF0292BC00019590AE000133
:10C9700091AF000197A3015F2548AE00378D008578
:10C980008172BB0002BF02AE014A9E92BD000190BF
:10C99000AE00019F91A70001AE00378D0085817226
:10C9A000BB0002BF0292BC00019590AE000191AFA6
:10C9B000000197BF065FBF04A6188D0085818D0119
:10C9C0003575AE000F8D00858172BB0002BF0292EB
:10C9D000BC00019590AE000191AF000197A3FFCE7E
:10C9E0002F20AE000F8D00858172BB0002BF029226
:10C9F000BC00019590AE000191AF000197A30033F8
:10CA00002F49AE000F8D00858172BB0002BF025F0F
:10CA10009E92BD000190AE00019F91A70001AE0063
:10CA20000F8D00858172BB0002BF0292BC00019590
:10CA300090AE000191AF0001978D0087C18D0085F8
:10CA400098A6208D0085818D013575AE00188D006A
:10CA5000858172BB0002BF0292BC0001A103252F99
:10CA6000AE00188D00858172BB0002BF024F92BDDF
:10CA70000001AE00188D00858172BB0002BF0292DA
:10CA8000BC0001B700A60C8D0085818D0134F2AE8B
:10CA9000002B8D00858172BB0002BF0292BC000199
:10CAA000A1332415AE002B8D00858172BB0002BF1F
:10CAB0000292BC0001A1002630AE002B8D008581C2
:10CAC00072BB0002BF02A61492BD0001AE002B8D06
:10CAD00000858172BB0002BF0292BC0001B700A6B4
:10CAE000098D0085818D0134F2AE002C8D00858189
:10CAF00072BB0002BF0292BC0001A1332415AE003C
:10CB00002C8D00858172BB0002BF0292BC0001A186
:10CB1000002630AE002C8D00858172BB0002BF0262
:10CB2000A60A92BD0001AE002C8D00858172BB006B
:10CB300002BF0292BC0001B700A60A8D0085818D5C
:10CB40000134F2AE00288D00858172BB0002BF0265
:10CB500092BC0001A1002773AE00298D008581726F
:10CB6000BB0002BF0292BC0001A100275EAE0028FC
:10CB70008D00858172BB0002BF024F92BD0001AEE5
:10CB800000298D00858172BB0002BF024F92BD005B
:10CB900001AE00298D00858172BB0002BF0292BCEC
:10CBA0000001B700A6078D0085818D0134F2AE002B
:10CBB000298D00858172BB0002BF0292BC0001B7C3
:10CBC00000A6068D0085818D0134F28D0084C0871A
:10CBD000B7013D002604AC00CF6ABC005417A4EF97
:10CBE000BD005417BC005414A4FEBD005414BC0076
:10CBF0005410A4EFBD005410BC00540DA4FEBD00A1
:10CC0000540DBC005417A4F7BD005417BC005413B6
:10CC1000A47FBD005413BC005410A4F7BD005410F1
:10CC2000B6014D276D4A2604AC00CCD24A2604AC8E
:10CC300000CCEA4A2604AC00CD204A2604AC00CD44
:10CC4000564A2604AC00CD824A2604AC00CDB84A30
:10CC50002604AC00CDF84A2604AC00CE1A4A2604BD
:10CC6000AC00CE644A2604AC00CEA4A03B2604ACA3
:10CC700000CEB24A2604AC00CF3EA0022604AC008F
:10CC8000CF0AA0042604AC00CEE8A0032704AC0021
:10CC9000CF68BC005417AA10BD005417BC00541430
:10CCA000AA01BD005414BC005410AA10BD005410B9
:10CCB000BC00540DAA01BD00540DBC005417AA08B5
:10CCC000BD005417BC005410AA08BD005410AC009D
:10CCD000CFB0BC005417AA08BD005417BC005410B4
:10CCE000AA08BD005410AC00CFB0BC005417AA1065
:10CCF000BD005417BC005410AA10BD005410BC0055
:10CD0000540DAA01BD00540DBC005417AA08BD0063
:10CD10005417BC005413AA80BD005413AC00CFB00C
:10CD2000BC005417AA10BD005417BC00540DAA0132
:10CD3000BD00540DBC005417AA08BD005417BC0018
:10CD40005413AA80BD005413BC005410AA08BD009F
:10CD50005410AC00CFB0BC005414AA01BD00541450
:10CD6000BC005417AA08BD005417BC005413AA8075
:10CD7000BD005413BC005410AA08BD005410AC00F0
:10CD8000CFB0BC005417AA10BD005417BC005414F7
:10CD9000AA01BD005414BC00540DAA01BD00540DDD
:10CDA000BC005413AA80BD005413BC005410AA0840
:10CDB000BD005410AC00CFB0BC005417AA10BD0089
:10CDC0005417BC005414AA01BD005414BC005410E4
:10CDD000AA10BD005410BC00540DAA01BD00540D92
:10CDE000BC005413AA80BD005413BC005410AA0800
:10CDF000BD005410AC00CFB0BC005417AA10BD0049
:10CE00005417BC005417AA08BD005417BC00541096
:10CE1000AA08BD005410AC00CFB0BC005417AA1033
:10CE2000BD005417BC005414AA01BD005414BC002A
:10CE30005410AA10BD005410BC00540DAA01BD002E
:10CE4000540DBC005417AA08BD005417BC0054135D
:10CE5000AA80BD005413BC005410AA08BD00541091
:10CE6000AC00CFB0BC005417AA10BD005417BC00D2
:10CE70005414AA01BD005414BC00540DAA01BD00F5
:10CE8000540DBC005417AA08BD005417BC0054131D
:10CE9000AA80BD005413BC005410AA08BD00541051
:10CEA000AC00CFB0BC005413AA80BD005413AC003A
:10CEB000CFB0BC005417AA10BD005417BC005414C6
:10CEC000AA01BD005414BC005410AA10BD00541097
:10CED000BC00540DAA01BD00540DBC005413AA801F
:10CEE000BD005413AC00CFB0BC005414AA01BD0067
:10CEF0005414BC005410AA10BD005410BC00540DB2
:10CF0000AA01BD00540DAC00CFB0BC005414AA015E
:10CF1000BD005414BC005410AA10BD005410BC0035
:10CF20005417AA08BD005417BC005413AA80BD00B2
:10CF30005413BC005410AA08BD0054102072BC0049
:10CF40005417AA10BD005417BC005414AA01BD0008
:10CF50005414BC005410AA10BD005410BC0054134B
:10CF6000AA80BD00541320482046BC005417A4EFEB
:10CF7000BD005417BC005414A4FEBD005414BC00E2
:10CF80005410A4EFBD005410BC00540DA4FEBD000D
:10CF9000540DBC005417A4F7BD005417BC00541323
:10CFA000A47FBD005413BC005410A4F7BD0054105E
:10CFB000878D0084888D0085C2AE000B8D00858131
:10CFC00072BB0002BF0292BC0001B7055F5C92AF6A
:10CFD0000001B7065C92AF0001B707AE000D72BB4F
:10CFE0000006BF0692BC00059590AE000191AF000F
:10CFF00005975D2704AC00D206BC005410A4BFBD49
:10D00000005410AE000B8D0085A872BB0006BF0651
:10D0100092BC0005B7015F5C92AF0005B7025C925D
:10D02000AF0005B7038D013D6BA1002704AC00D014
:10D03000CFAE000B8D00858172BB0002BF0292BC97
:10D040000001B7055F5C92AF0001B7065C92AF00CC
:10D0500001B707AE001872BB0006BF0692BC000500
:10D06000A1002733AE000B8D00858172BB0002BF8B
:10D070000292BC0001B7055F5C92AF0001B7065C8D
:10D0800092AF0001B707AE001872BB0006BF069250
:10D09000BC0005A1012638AE00088D00858172BB59
:10D0A0000002BF0292BC0001A1002704AC00D35DC6
:10D0B000AE00088D00858172BB0002BF02A60192FE
:10D0C000BD00018D0085818D0133D7AC00D35DBCDF
:10D0D00000540CAA20BD00540CBC005417AA40BD3B
:10D0E000005417AE00088D00858172BB0002BF029C
:10D0F00092BC0001A100273CAE00088D0085817222
:10D10000BB0002BF024F92BD0001AE000B8D008537
:10D11000A872BB0006BF0692BC0005B7015F5C9217
:10D12000AF0005B7025C92AF0005B7038D0135F77C
:10D130008D013468AE000689AE000B8D00858172CA
:10D14000BB0002BF0292BC0001B7055F5C92AF005A
:10D1500001B7065C92AF0001B707AE000A72BB00D0
:10D1600006BF0692BC0005B7015F5C92AF0005B731
:10D17000025C92AF0005B703858D012936BE00A37E
:10D1800000002605BE02A301F52404AC00D35DAE69
:10D19000000B8D0085A872BB0006BF0692BC00057F
:10D1A000B7015F5C92AF0005B7025C92AF0005B7B4
:10D1B000038D0135F78D013468AE000689AE000B92
:10D1C0008D00858172BB0002BF0292BC0001B705D1
:10D1D0005F5C92AF0001B7065C92AF0001B707AE8B
:10D1E000000A72BB0006BF0692BC0005B7015F5C77
:10D1F00092AF0005B7025C92AF0005B703858D01C1
:10D200002B0DAC00D35DAE000B8D00858172BB0091
:10D2100002BF0292BC0001B7055F5C92AF0001B78C
:10D22000065C92AF0001B707AE000D72BB0006BFEF
:10D230000692BC00059590AE000191AF000597A342
:10D2400000012704AC00D35DBC005417A4BFBD008F
:10D250005417AE000B8D0085A872BB0006BF069266
:10D26000BC0005B7015F5C92AF0005B7025C92AFEE
:10D270000005B7038D013B9FBF04AE00098D0085FB
:10D280008172BB0002BF0292BC00019590AE00010A
:10D2900091AF000197B3042604AC00D35DBC0054E9
:10D2A00010AA40BD005410AE000B8D0085A872BBC3
:10D2B0000006BF0692BC0005B7015F5C92AF000597
:10D2C000B7025C92AF0005B7038D013B9F8D01341F
:10D2D00068AE000689AE000B8D00858172BB00022E
:10D2E000BF0292BC0001B7055F5C92AF0001B706B8
:10D2F0005C92AF0001B707AE000A72BB0006BF0622
:10D3000092BC0005B7015F5C92AF0005B7025C926A
:10D31000AF0005B703858D012B0DAE000B8D008589
:10D32000A872BB0006BF0692BC0005B7015F5C9205
:10D33000AF0005B7025C92AF0005B7038D013B9FBC
:10D340009093AE00098D00858172BB0002BF0290F0
:10D350009E92BD00015F5C909F92A700018D0084AA
:10D36000C0878D0084888D0085C2AE00088992BC7C
:10D370000009B7055F5C92AF0009B7065C92AF0089
:10D3800009B707AE000A72BB0006BF0692BC0005D3
:10D39000B7015F5C92AF0005B7025C92AF0005B7C2
:10D3A00003858D012B0D92BC0009B7055F5C92AF20
:10D3B0000009B7065C92AF0009B707AE001272BB56
:10D3C0000006BF0692BC0005B7005F5C92AF000587
:10D3D000B7015C92AF0005B7025C92AF0005B703DE
:10D3E00090BE0292BC0009B7015F5C92AF0009B722
:10D3F000025C92AF0009B703AE001172BB0002BF1E
:10D400000292BC0001A100261090A300022E04ACE1
:10D4100000D658905AAC00D65892BC0009B7015FAC
:10D420005C92AF0009B7025C92AF0009B703AE008F
:10D430001172BB0002BF0292BC0001A101265592ED
:10D44000BC0009B7055F5C92AF0009B7065C92AFFC
:10D450000009B707AE001272BB0006BF0692BC00FF
:10D4600005B7005F5C92AF0005B7015C92AF0005A5
:10D47000B7025C92AF0005B703AEFFCFBF065F5A9D
:10D48000BF048D0087AA2E04AC00D65872A9FFFBFA
:10D49000AC00D65892BC0009B7015F5C92AF00099E
:10D4A000B7025C92AF0009B703AE001172BB000275
:10D4B000BF0292BC0001A1032613905D2609AE00B5
:10D4C000029093AC00D658905AAC00D65892BC004B
:10D4D00009B7015F5C92AF0009B7025C92AF000927
:10D4E000B703AE001172BB0002BF0292BC0001A1E3
:10D4F00004272692BC0009B7015F5C92AF0009B710
:10D50000025C92AF0009B703AE001172BB0002BF0C
:10D510000292BC0001A105261290A300062E04ACC5
:10D5200000D65872A9FFFBAC00D65892BC0009B7D0
:10D53000015F5C92AF0009B7025C92AF0009B703CC
:10D54000AE001172BB0002BF0292BC0001A106270F
:10D550002692BC0009B7015F5C92AF0009B7025C7C
:10D5600092AF0009B703AE001172BB0002BF029276
:10D57000BC0001A107261C90A3015F2F04AC00D6BC
:10D580005890A300332E04AC00D65872A9FFFBAC10
:10D5900000D65892BC0009B7015F5C92AF0009B792
:10D5A000025C92AF0009B703AE001172BB0002BF6C
:10D5B0000292BC0001A1082604AC00D65592BC0022
:10D5C00009B7015F5C92AF0009B7025C92AF000936
:10D5D000B703AE001172BB0002BF0292BC0001A1F2
:10D5E00009277292BC0009B7015F5C92AF0009B7CE
:10D5F000025C92AF0009B703AE001172BB0002BF1C
:10D600000292BC0001A10A274C92BC0009B7015F3D
:10D610005C92AF0009B7025C92AF0009B703AE009D
:10D620001172BB0002BF0292BC0001A10B2726921F
:10D63000BC0009B7015F5C92AF0009B7025C92AF12
:10D640000009B703AE001172BB0002BF0292BC001A
:10D6500001A10C26035F909392BC0009B7055F5CA3
:10D6600092AF0009B7065C92AF0009B707AE00128F
:10D6700072BB0006BF06938D0087C1B60092BD0045
:10D68000055F5CB60192A700055CB60292A7000593
:10D690005CB60392A700058D0084C087B7013D00EA
:10D6A0002604AC00D9A9BC005417A4FBBD00541734
:10D6B000BC005413A4BFBD005413BC005410A4FB01
:10D6C000BD005410BC00540CA4BFBD00540CBC00E1
:10D6D0005417A4FDBD005417BC005413A4DFBD00B3
:10D6E0005413BC005410A4FDBD005410B6014D27C6
:10D6F0005A4A2604AC00D78B4A2604AC00D7A34A6A
:10D700002604AC00D7D94A2604AC00D80F4A260418
:10D71000AC00D83B4A2604AC00D8714A2604AC00C1
:10D72000D8B14A2604AC00D8D34A2604AC00D91D8F
:10D730004A2604AC00D95BA03C2604AC00D97DA0ED
:10D74000032604AC00D967AC00D9A7BC005417AAC3
:10D7500004BD005417BC005413AA40BD005413BCB0
:10D76000005410AA04BD005410BC00540CAA40BDC3
:10D7700000540CBC005417AA02BD005417BC00543E
:10D7800010AA02BD005410AC00D9D1BC005417AA95
:10D7900002BD005417BC005410AA02BD005410ACC6
:10D7A00000D9D1BC005417AA04BD005417BC0054C2
:10D7B00010AA04BD005410BC00540CAA40BD005473
:10D7C0000CBC005417AA02BD005417BC005413AA85
:10D7D00020BD005413AC00D9D1BC005417AA04BD1D
:10D7E000005417BC00540CAA40BD00540CBC00549B
:10D7F00017AA02BD005417BC005413AA20BD005440
:10D8000013BC005410AA02BD005410AC00D9D1BC06
:10D81000005413AA40BD005413BC005417AA02BD03
:10D82000005417BC005413AA20BD005413BC00546C
:10D8300010AA02BD005410AC00D9D1BC005417AAE4
:10D8400004BD005417BC005413AA40BD005413BCBF
:10D8500000540CAA40BD00540CBC005413AA20BDB7
:10D86000005413BC005410AA02BD005410AC00D9DF
:10D87000D1BC005417AA04BD005417BC005413AA0D
:10D8800040BD005413BC005410AA04BD005410BC89
:10D8900000540CAA40BD00540CBC005413AA20BD77
:10D8A000005413BC005410AA02BD005410AC00D99F
:10D8B000D1BC005417AA04BD005417BC005417AAC9
:10D8C00002BD005417BC005410AA02BD005410AC95
:10D8D00000D9D1BC005417AA04BD005417BC005491
:10D8E00013AA40BD005413BC005410AA04BD005438
:10D8F00010BC00540CAA40BD00540CBC005417AA24
:10D9000002BD005417BC005413AA20BD005413BC20
:10D91000005410AA02BD005410AC00D9D1BC005470
:10D9200017AA04BD005417BC005413AA40BD0054EC
:10D9300013BC00540CAA40BD00540CBC005417AAE0
:10D9400002BD005417BC005413AA20BD005413BCE0
:10D95000005410AA02BD0054102076BC005413AA33
:10D9600020BD005413206ABC005413AA40BD0054CB
:10D9700013BC005410AA04BD0054102054BC005421
:10D9800017AA04BD005417BC005413AA40BD00548C
:10D9900013BC005410AA04BD005410BC005413AAB8
:10D9A00020BD005413202A2028BC00540DA4F9BD2A
:10D9B00000540DBC005410A49FBD005410BC005472
:10D9C00014A4F9BD005414BC005417A4BFBD0054E6
:10D9D0001787B7013D002604AC00DCC1BC0054171A
:10D9E000A4FEBD005417BC005413A4EFBD00541393
:10D9F000BC005410A4FEBD005410BC00540CA4EF95
:10DA0000BD00540CBC005416A47FBD005416BC00CD
:10DA10005413A4F7BD005413BC00540FA47FBD00E1
:10DA2000540FB6014D27524A2604AC00DAB94A26F3
:10DA300004AC00DAD14A2604AC00DB074A2604AC69
:10DA400000DB3D4A2604AC00DB694A2604AC00DB5F
:10DA50009F4A2604AC00DBDF4A2604AC00DC014A06
:10DA60002604AC00DC4B4A2604AC00DC89A03C2632
:10DA700004AC00DC95AC00DCBFBC005417AA01BDAF
:10DA8000005417BC005413AA10BD005413BC00541A
:10DA900010AA01BD005410BC00540CAA10BD0054C3
:10DAA0000CBC005416AA80BD005416BC00540FAA2A
:10DAB00080BD00540FAC00DD07BC005416AA80BD29
:10DAC000005416BC00540FAA80BD00540FAC00DDFA
:10DAD00007BC005417AA01BD005417BC005410AA7B
