:100000000C948A000C94B2000C94B2000C94B200D0
:100010000C94B2000C94B2000C94B2000C94B20098
:100020000C94B2000C94B2000C94B2000C94B20088
:100030000C94B2000C94B2000C94B2000C94B20078
:100040000C9474070C94B2000C94E4070C94BE0753
:100050000C94B2000C94B2000C94B2000C94B20058
:100060000C9416080C94B20008000000BE922449BB
:10007000123EABAAAA2ABECDCCCC4C3E00000080DA
:10008000BEABAAAAAA3E00000000BF000000803F4D
:100090000000000000084178D3BB4387D1133D190D
:1000A0000E3CC3BD4282AD2B3E68EC8276BED98F3A
:1000B000E1A93E4C80EFFFBE01C4FF7F3F0000007E
:1000C000000000000000240027002A0000000000BB
:1000D000250028002B000404040404040404020284
:1000E00002020202030303030303010204081020B7
:1000F00040800102040810200102040810200000C2
:1001000000080002010000030407000000000000D6
:100110000000350911241FBECFEFD8E0DEBFCDBFF0
:1001200011E0A0E0B1E0E8EBF1E202C005900D9231
:10013000AC32B107D9F722E0ACE2B1E001C01D92C8
:10014000AD3EB207E1F710E0CAE8D0E004C0219765
:10015000FE010E941D0EC938D107C9F70E9474091B
:100160000C94DA100C940000E0911E02F0E0E45EC2
:10017000FD4FDF0111979C918081089580911902B4
:1001800090E0FC01E95FFD4F24852F5F2487243632
:10019000A8F020911A0230911B020396880F991F34
:1001A000820F931F2AE035E0FC0131832083E09128
:1001B0001902F0E0E95FFD4F84E68487089580919D
:1001C00019028F5F80931902833038F080911802F2
:1001D0008F5F8093180210921902089590E0FC013D
:1001E000E250FF4F2491FC01E651FF4F3491FC0196
:1001F000EA52FF4FE491EE23C9F0222339F0233075
:1002000001F1A8F4213019F1223029F1F0E0EE0FCC
:10021000FF1FE453FF4FA591B4918FB7F894EC9171
:10022000611126C030953E233C938FBF089527303F
:10023000A9F02830C9F0243049F7809180008F7DE3
:1002400003C0809180008F7780938000DFCF84B5DA
:100250008F7784BDDBCF84B58F7DFBCF8091B000DD
:100260008F778093B000D2CF8091B0008F7DF9CF8F
:100270003E2BDACF3FB7F8948091030290910402AD
:10028000A0910502B091060226B5A89B05C02F3F9C
:1002900019F00196A11DB11D3FBFBA2FA92F982FAC
:1002A0008827BC01CD01620F711D811D911D42E0A7
:1002B000660F771F881F991F4A95D1F708958F926F
:1002C0009F92AF92BF92CF92DF92EF92FF924B013B
:1002D0005C010E943A016B017C010E943A016C1999
:1002E0007D098E099F09683E734081059105A8F339
:1002F00021E0821A9108A108B10888EEC80E83E0B7
:10030000D81EE11CF11C81149104A104B10429F749
:10031000FF90EF90DF90CF90BF90AF909F908F9025
:1003200008952FB7F8946091FF01709100028091B9
:100330000102909102022FBF0895E091C401F09153
:10034000C501309729F01092C1011092C0010994A3
:100350000895CF93DF93AC01E091C601F091C701FE
:100360003097F1F09091C3018091C2019817C0F0CD
:1003700090E0292F30E02617370754F4D901A45D07
:10038000BE4F240F351FE90128812C939F5FF1CFC9
:100390001092C3016093C201CB01DF91CF91099408
:1003A000DF91CF910895AF92BF92CF92DF92EF92FB
:1003B000FF920F931F93CF93DF936C017B018B010F
:1003C000040F151FEB015E01AE18BF08C017D1075F
:1003D00059F06991D601ED91FC910190F081E02DE9
:1003E000C6010995892B79F7C501DF91CF911F913E
:1003F0000F91FF90EF90DF90CF90BF90AF90089556
:10040000FC01538D448D252F30E0842F90E0821B1A
:10041000930B541710F0CF96089501970895FC019F
:10042000918D828D981761F0A28DAE0FBF2FB11DF7
:100430005D968C91928D9F5F9F73928F90E008954F
:100440008FEF9FEF0895FC01918D828D981731F009
:10045000828DE80FF11D858D90E008958FEF9FEF5D
:100460000895FC01918D228D892F90E0805C9F4F33
:10047000821B91098F73992708958FE292E00E9461
:10048000310221E0892B09F420E0822F089580E0D9
:1004900090E0892B29F00E943D0281110C9400000C
:1004A0000895FC01A48DA80FB92FB11DA35ABF4F09
:1004B0002C91848D90E001968F739927848FA68963
:1004C000B7892C93A089B1898C91837080648C93B7
:1004D000938D848D981306C00288F389E02D808166
:1004E0008F7D80830895EF92FF920F931F93CF9398
:1004F000DF93EC0181E0888F9B8D8C8D98131AC05F
:10050000E889F989808185FF15C09FB7F894EE8945
:10051000FF896083E889F9898081837080648083A2
:100520009FBF81E090E0DF91CF911F910F91FF90ED
:10053000EF900895F62E0B8D10E00F5F1F4F0F7395
:100540001127E02E8C8D8E110CC00FB607FCFACF50
:10055000E889F989808185FFF5CFCE010E9451029B
:10056000F1CFEB8DEC0FFD2FF11DE35AFF4FF08221
:100570009FB7F8940B8FEA89FB8980818062CFCF87
:10058000CF93DF93EC01888D8823B9F0AA89BB89CA
:10059000E889F9898C9185FD03C0808186FD0DC0B5
:1005A0000FB607FCF7CF8C9185FFF2CF808185FFD6
:1005B000EDCFCE010E945102E9CFDF91CF91089596
:1005C00020917201260F3327331F21323105ECF4BD
:1005D00020919601FC0190E080E0243069F082E0F7
:1005E0000895A09172012191AC014E5A5E4FA40F63
:1005F000B52FB11D2C930196861798F38091720147
:10060000680F6093720180E0089581E00895109270
:10061000960181E0809398011092970161E082E158
:100620000E94EE0061E083E10E94EE00E9EBF0E061
:1006300080818E7F808380818D7F808388E480931A
:10064000B80085E48093BC0008950895E091C3014B
:100650008091C201E81730F4F0E0E45DFE4F808144
:1006600090E008958FEF9FEF08959091C3018091DE
:10067000C2012FEF3FEF981748F4E92FF0E0E45D57
:10068000FE4F208130E09F5F9093C301C901089520
:100690008091C2019091C301891B990B0895CF935A
:1006A000DF93CB01EA01642F0E94E002CE01DF91CB
:1006B000CF910895E8EDF2E01686178681E0808BF1
:1006C00043E050E066EE72E08CEC92E00C944F0355
:1006D000CF93DF931F92CDB7DEB7698361E0CE0180
:1006E00001960E94E00281E090E00F90DF91CF91AF
:1006F000089590E080E00895CF92DF92EF92FF920C
:100700001F93CF93DF93009709F451C1C090C201AA
:100710002091C301C21609F44AC1EC018CEC92E0AD
:100720000E9435038093E0028091E0028093D90219
:10073000F12CE12CD12C11E01E0D8091C30196010A
:10074000281B3109C9011816190694F43FEFE31A62
:10075000F30A81E1E81687E2F80651F08CEC92E0AA
:100760000E943503E12FF0E0E852FD4F8183E3CF93
:100770003C2F3150E8EDF2E090E080E031969317A5
:1007800020F4208182279F5FF9CFC952DD4F9981E4
:1007900098130FC081E08093D8028091E002E0E0DE
:1007A000F1E09191891709F4FBC091E0E730F90776
:1007B000C1F7D0E0C0E08091C2019091C301891BD4
:1007C000990B181619060CF0F2C02196C13127E2D8
:1007D000D20709F4ECC08CEC92E00E943503EBCF19
:1007E000E091E002EB50E53108F0DEC0F0E0E550CA
:1007F000FC4F0C941D0E100424043804B804D404D7
:10080000D404D404D4048904D404D404D404D40473
:10081000D404D404D404D404D404D4045C047004F4
:10082000E091DA028091DB02A091E902B091EA0244
:10083000EA0FFB2FF11D93A5891709F4BACF83A7FF
:1008400081E0D3968C93B5CFE091DA028091DB0200
:10085000A091E902B091EA02EA0FFB2FF11D96A5E3
:10086000891709F4A6CF86A781E0D4968C93A1CFEF
:100870008091DA022091DB02A091E902B091EA02B4
:100880009AE0299F9001112490E0FC013696EE0F2A
:10089000FF1FEA0FFB1F408151812417350709F420
:1008A00088CF880F991FFD01E80FF91F368F258F1C
:1008B00081E05C968C937DCFE091DA028091DB023F
:1008C000A091E902B091EA02EA0FFB2FF11D918D90
:1008D000891709F46ECF868B81E055968C9369CF8A
:1008E000E091DA02F0E08091DB02DF01A852BD4F17
:1008F00019968C93A091E902B091EA02EA0FFB1FCE
:1009000093818383891709F454CF81E0D5968C9322
:1009100050CF8091DA023091DB022091DC02353039
:1009200008F447CF243208F044CF321708F041CF03
:10093000833008F03ECFA091E902B091EA0290E046
:10094000FC01EE0FFF1FEA0FFB1F44A1341304C08C
:1009500045A1241709F42DCF34A3FC017296EE0FA4
:10096000FF1FEA0FFB1F218381E093968C9321CF19
:10097000E091DA029091DB0281E0911101C080E008
:10098000A091E902B091EA02EA0FFB2FF11D9289D2
:10099000891709F40ECF828B81E0D2968C9309CF10
:1009A0008091D80281111CCF0E945A0302CFDF919F
:1009B000CF911F91FF90EF90DF90CF900895FC01B1
:1009C0008FEF9FEF30E020E026173707C4F4DF01F8
:1009D000A20FB31F4C91842748E050E0DC01A170C6
:1009E000BB2796958795AB2B21F0A1E08A27A0EA3B
:1009F0009A274150510991F72F5F3F4FE5CF089556
:100A00008F929F92AF92BF92CF92DF92EF92FF921E
:100A1000882309F48FC08091EC028E3008F08E504C
:100A20008770806480937C0080917A0080648093DA
:100A30007A0080917A0086FDFCCF809178006091E9
:100A40007900762F682F072E000C880B990B0E94D7
:100A5000380F6B017C0120E030E0A9010E94900E6C
:100A6000882309F46AC020E030E040EA50E4C7017E
:100A7000B6010E94381020E030EC4FE754E40E94A9
:100A8000950E9B01AC0160E070E080E291E40E9471
:100A9000950E20E030E040EA50E40E94381020E05B
:100AA00030E040E251E40E94230E20E030E04AE7CB
:100AB00054E40E9438100E94F00F6B017C0129E57C
:100AC00037E44CEB53E30E943810A70196010E94D3
:100AD0003810A70196010E9438104B015C0123E7F2
:100AE0003FE745E759E3C701B6010E9438102BEEF6
:100AF0003FEF43E95AE30E94240E9B01AC01C5017C
:100B0000B4010E94240E9B01AC0160E070E080E81B
:100B10009FE30E94950E23E333E948E853E40E94E3
:100B2000230EFF90EF90DF90CF90BF90AF909F90FB
:100B30008F9008958091EB0270CF60E070E481EABD
:100B400094E4EFCFCF938091D802811103C0CF916D
:100B50000C945A038091E0028431B1F1E8F48930B9
:100B600009F457C08A3099F781E08093E6028093B8
:100B7000E7028091E6029091E70289278093E802DC
:100B800043E050E066EE72E08CEC92E00E944F038E
:100B90001092E002CF910895863181F130F18931D0
:100BA000B1F6E091DA02E093E5028091E9029091DA
:100BB000EA02E80FF92FF11D80818093E40280930F
:100BC000E6021092E702D5CF8091DA02E091E902C5
:100BD000F091EA0290E00396880F991FE80FF91F41
:100BE000908181819093E602C2CF8091DA02E091F8
:100BF000E902F091EA0290E00696EECFE091DA0287
:100C00008091E9029091EA02E80FF92FF11D818DA0
:100C1000D6CF8091DA02C1E0811101C0C0E08C2FF3
:100C20000E94000520E030E040E251E40E943810CC
:100C30000E94070F6093E6028C2F0E94000520E0BF
:100C400030E040E251E40E9438100E94070F709398
:100C5000E7028FCFCF92DF92EF92FF92CF93DF9395
:100C6000C82FF12CE12C8FE292E00E940F02019636
:100C700041F08FEFE81AF80AA1E1EA16A7E2FA06B6
:100C800091F7EFE1F2E088E0DF011D928A95E9F744
:100C900061E08EE00E94EE008FE090E00197F1F7B6
:100CA00048E050E067E272E08FE292E00E94D301F8
:100CB0008FE292E00E94C00260E08EE00E94EE00AF
:100CC0000E9491016B017C01C0931E02D0E08FE273
:100CD00092E00E943102181619065CF48FE292E04D
:100CE0000E940F02ED2FF0E0E45EFD4F8383C150C0
:100CF000DF5F0E9491016C197D098E099F09693C93
:100D000071058105910540F080E0DF91CF91FF9062
:100D1000EF90DF90CF900895C111D9CF6EE170E0D0
:100D200080E090E00E945F0160911E026250770BAC
:100D30008FE192E00E94DF04E0911E02F0E0E45EA9
:100D4000FD4F2281318123273227232782179307E2
:100D5000D9F690911F02809127029813D5CF8091E8
:100D60002002863099F4C0911C02D0911D020E948D
:100D70009101688779878A879B87E7E2F2E088E0BC
:100D8000DF011D928A95E9F781E0BFCF8430A9F792
:100D9000C0911C02D0911D020E9491016C837D8341
:100DA0008E839F83EACFCF93DF93CCE1D2E08B8712
:100DB00084E08C871D866E871F8681E0888B66E0C5
:100DC00070E087E292E00E94DF04898B9A8B87E0D3
:100DD000DF91CF910C942A06CF93DF93CCE1D2E040
:100DE0008B8786E08C871D866E875F87488B66E0E1
:100DF00070E087E292E00E94DF04898B9A8B88E0A2
:100E0000DF91CF910C942A06CF93DF9385ED8093E9
:100E1000BC0080914E0190914F01A0915001B09182
:100E200051010796A11DB11D23E0B695A795979591
:100E300087952A95D1F72091BC0024FD03C010921C
:100E4000960136C040914E0150914F016091500182
:100E500070915101452B462B472B69F30097A10553
:100E6000B10541F025E32A95F1F700000197A109AA
:100E7000B109E1CF80914D0191E090934C0188231D
:100E8000B9F0C091B800D091BA008091BC008A7BC3
:100E90008093BC0060E082E10E94EE0060E083E1AC
:100EA0000E94EE000E940703D093BA00C093B800DE
:100EB000DF91CF910895FF920F931F93CF93DF930C
:100EC000EC01F62E08811981C8010E94070EF81660
:100ED00021F06F2DC8010E940F0ECE01DF91CF913E
:100EE0001F910F91FF9008951F920F920FB60F92CE
:100EF00011242F933F938F939F93AF93BF93809130
:100F0000FF0190910002A0910102B0910202309184
:100F1000FE0123E0230F2D3758F50196A11DB11DC9
:100F20002093FE018093FF0190930002A0930102A1
:100F3000B09302028091030290910402A0910502F5
:100F4000B09106020196A11DB11D809303029093FA
:100F50000402A0930502B0930602BF91AF919F9146
:100F60008F913F912F910F900FBE0F901F9018956A
:100F700026E8230F0296A11DB11DD2CF1F920F921A
:100F80000FB60F9211242F933F934F935F936F935C
:100F90007F938F939F93AF93BF93EF93FF938FE2D2
:100FA00092E00E945102FF91EF91BF91AF919F910A
:100FB0008F917F916F915F914F913F912F910F9002
:100FC0000FBE0F901F9018951F920F920FB60F92A1
:100FD00011242F938F939F93EF93FF93E0913F0200
:100FE000F09140028081E0914502F091460282FD3D
:100FF0001BC09081809148028F5F8F7320914902BE
:10100000821741F0E0914802F0E0E15DFD4F958FDD
:1010100080934802FF91EF919F918F912F910F90B4
:101020000FBE0F901F9018958081F4CF1F920F92E2
:101030000FB60F9211242F933F934F935F936F93AB
:101040007F938F939F93AF93BF93EF93FF93809181
:10105000B900887F803609F44AC0F0F5883209F477
:10106000A7C018F5803109F49BC0B8F4882309F4AF
:10107000F9C0883009F494C0FF91EF91BF91AF910E
:101080009F918F917F916F915F914F913F912F91A0
:101090000F900FBE0F901F901895883109F488C0EB
:1010A000803251F78093950114C0803409F49DC0BB
:1010B00040F48033B9F38833F9F68093950185ECD9
:1010C000B0C0803509F485C0883509F496C08834ED
:1010D00099F60E940407D0CF883909F48CC038F5FE
:1010E000883729F050F4883611F0803729F683E0EC
:1010F000809396011092940157C0883809F47BC000
:10110000803919F0803809F0B7CF8091940180328E
:1011100008F071C0E091940181E08E0F80939401FA
:101120008091BB00F0E0EC58FE4F80833DC0803BD7
:1011300039F0E0F4803A09F479C0883A09F09CCF9C
:1011400084E0809396011092730110927201E091F5
:10115000BE01F091BF0109958091720181110FC00C
:1011600081E0809372011092520109C0803C09F421
:10117000A6CF883C09F4A3CF883B09F07DCFE0914E
:10118000730181E08E0F80937301F0E0EE5AFE4F01
:1011900080818093BB00909173018091720129C07E
:1011A0008091BB018093BB0085EC8093BC0064CF31
:1011B0009091BA018091B901981758F5E091BA0160
:1011C00081E08E0F8093BA01F0E0E756FE4F8081F8
:1011D000E9CFE091BA0181E08E0F8093BA0180914E
:1011E000BB00F0E0E756FE4F80839091BA018091FA
:1011F000B9019817C8F285E8D8CFE091BA0181E02B
:101200008E0F8093BA018091BB00F0E0E756FE4F4D
:1012100080838091980181115CCF81E08093970158
:1012200084EA8093BC001092960126CF85EC8093CF
:10123000BC001092960180919401803230F4E091CC
:101240009401F0E0EC58FE4F10826091940170E040
:10125000E091BC01F091BD0184E791E00995109205
:1012600094010ACF1092950134CFEFE2F2E013829D
:10127000128288EE93E0A0E0B0E084839583A68399
:10128000B7832BE031E03183208325EC30E03587D4
:10129000248724EC30E03787268720EC30E0318B40
:1012A000208B21EC30E0338B228B22EC30E0358B2D
:1012B000248B26EC30E0378B268B118E128E138E0A
:1012C000148EECECF2E01382128284839583A68361
:1012D000B7838DE191E091838083E8EDF2E08FE0C8
:1012E000838B80E1848B0895CF93DF9300D0CDB7BB
:1012F000DEB7789484B5826084BD84B5816084BD96
:1013000085B5826085BD85B5816085BD80916E00A3
:10131000816080936E0010928100809181008260D4
:101320008093810080918100816080938100809111
:1013300080008160809380008091B1008460809300
:10134000B1008091B00081608093B00080917A00FC
:10135000846080937A0080917A00826080937A0022
:1013600080917A00816080937A0080917A00806811
:1013700080937A001092C10088E199E20FB6F89448
:10138000A895809360000FBE909360001092C301F7
:101390001092C2011092C1011092C0010E94070375
:1013A0008DE991E09093BF018093BE0189EA91E0BD
:1013B0009093BD018093BC0186E08093BA0082EADD
:1013C00095E09093C5018093C4018CE793E09093DE
:1013D000C7018093C6018091DE0184608093DE01A5
:1013E0008091E10184608093E1011092DA0181E053
:1013F0008093C8019091DF0194609093DF019091F8
:10140000E20194609093E2011092DB018093C901A4
:101410009091E00194609093E0019091E3019460D9
:101420009093E3011092DC018093CA011092E401D1
:101430001092EB011092F20168ECC62E61E0D62EFC
:1014400086017AE0E72EF12CC7010E94070E9FEF7C
:10145000980FF8019E3F08F0BBC083A7C70188968C
:101460000E94070E823008F0B0C08170F801828BB4
:10147000A895FFEFEF1AFF0A0F5F1F4F2DE0E2164E
:10148000F10411F708E210E0C8010E94070E9FEF77
:10149000980F9E3F10F4F60186A7A8950F5F1F4F87
:1014A000FFEFCF1ADF0A0B32110571F788EC91E0DC
:1014B00090931B0280931A0287E092E090931D02A2
:1014C00080931C02E0913F02F091400282E0808311
:1014D000E0913B02F0913C021082E0913D02F091DC
:1014E0003E028FEC808310924702E0914302F0911C
:1014F000440286E08083E0914102F09142028081C3
:1015000080618083E0914102F09142028081886095
:101510008083E0914102F091420280818068808363
:10152000E0914102F091420280818F7D8083E8EF5B
:10153000F0E02491E4EEF0E08491882399F090E0CB
:10154000880F991FFC01EE53FF4FA591B491FC0148
:10155000E453FF4F859194918FB7F894EC91E22B6F
:10156000EC938FBF1092180210921902109217027A
:10157000A89588EC91E09093EA028093E902A895FF
:1015800080E0C82E80E0D82E662463949AE0792EFD
:1015900029E0B22E38E0A32E46E0942E02E0802E01
:1015A000E0911802EB3008F018C3F0E0E652F54F76
:1015B0000C941D0EEA0AE40B4C0C770CE80CFA0CA8
:1015C000210D330D670D800DB00DF801128A50CF3B
:1015D00013A64ECF80911A0290911B02E09119023E
:1015E000E80FF92FF11D83A5882341F063E070E037
:1015F0000E94D3068111C4C00E94BE000E94DF0079
:10160000809118028B3020F010921902109218026B
:10161000E0911A02F0911B0283A594A5892B95A550
:10162000892B91F10E94910100910B0210910C0203
:1016300020910D0230910E02601B710B820B930BF7
:1016400061367A4E8105910530F068EA71E680E0F6
:1016500090E00E945F010E94910100910F021091A1
:1016600010022091110230911202601B710B820B4B
:10167000930B61367A4E8105910530F068EA71E688
:1016800080E090E00E945F01A8958091FB01882393
:10169000C1F01092FB0103EF11E03AE0E32EF12CD0
:1016A000F80161918F01FA82E982CE0101960E94D0
:1016B0005B07A895FFEFEF1AFF0A2DE0E216F10491
:1016C00079F78091FA018823C1F01092FA010AEDAE
:1016D00011E022E3E22EF12CF80161918F01FA82F0
:1016E000E982CE0101960E945B07A895FFEFEF1AF1
:1016F000FF0A25E3E216F10479F78091FD018823C2
:10170000B9F01092FD019BECE92E91E0F92E0CE36B
:1017100010E0F70161917F011A830983CE010196E0
:101720000E945B07A8950F5F1F4F0F33110589F7C4
:101730008091FC018823B9F01092FC0186EFE82E1D
:1017400081E0F82E08E210E0F70161917F011A8331
:101750000983CE0101960E945B07A8950F5F1F4F7A
:101760000B32110589F7A895C114D10409F418CFDB
:101770000E943D02882309F411CF0E9400000ECF81
:101780000091190210E0F801E95FFD4F14860E94F4
:10179000B400E0911A02F0911B02958991112ECFAD
:1017A000E00FF11F218D982F9227937021F0609206
:1017B0001702809316029091170291111FCF821782
:1017C00009F41CCF818F1ACFA0911A02B0911B028D
:1017D00055968C915597882361F1E0911902E2307A
:1017E00018F055961C925597EA0FFB2FF11D83A513
:1017F000882309F403CF1689412F50E070E060E0A0
:101800000E94EC06882309F4F7CEE09119028E2F8E
:1018100090E0FC01E95FFD4F1486E0911A02F0911F
:101820001B02E80FF91F818D181709F4E7CE118FFD
:10183000E5CE80911702882351F180911902A80FFB
:10184000B11D59969C915997409116024370292FCA
:101850002C7F422B941719F059964C93599782304C
:1018600010F0109217029B968C9150E070E060E0AF
:10187000882309F4C3CE0E94EC06882309F4BCCE69
:10188000E0911902F0E0E95FFD4F1486B7CE809237
:10189000180210921902B4CE80911A0290911B0284
:1018A000E0911902E80FF92FF11D83A5882309F4AF
:1018B000A5CE61E070E00E94D306882309F49CCE97
:1018C0000091190210E0F801E95FFD4F14860E94B3
:1018D000B40020911A0230911B020D5F1F4F000FC0
:1018E000111F020F131FF8019183808387CEA091EF
:1018F0001A02B0911B0290911902492F50E09D01EC
:10190000240F351FF90183A55C962C915C97222347
:1019100009F440C093962C91939721113BC09230CB
:1019200008F052C0882309F469CEFA01EE0FFF1FB8
:10193000EA0FFB1F058D168D0115110509F45ECE0A
:10194000A80162E070E00E94EC06882309F454CEFE
:101950008091190290E0FC01E95FFD4F148620910F
:101960001A0230911B020696880F991F820F931F4F
:10197000FC011183008320911A0230911B02809197
:10198000190290E0880F991F820F931FFC01168E99
:10199000158E34CE882309F431CE62E070E00E94C7
:1019A000D306882309F428CE0091190210E0F8012B
:1019B000E95FFD4F14860E94B40020911A02309115
:1019C0001B020A5F1F4F8BCF5C961C925C97AACFBD
:1019D00080911A0290911B02E0911902E80FF92FF1
:1019E000F11D83A5882309F409CE438150E061E00D
:1019F00070E041CFE0911A02F0911B0283A188238D
:101A0000E9F020911902223008F013A230E0DF0142
:101A1000A20FB31F9B968C91882309F4EFCD2E5E05
:101A20003F4F220F331FE20FF31F4081518165E0CA
:101A300070E04115510509F4E1CD1DCF90921802D7
:101A400028CF80911A0290911B02E0911902E80FB1
:101A5000F92FF11D83A5882309F4D0CD428950E0E8
:101A600068E070E008CF20911A0230911B0280914B
:101A7000190290E0F901E80FF91F16A5112321F1D1
:101A80000696880F991F820F931FFC016081718158
:101A900090E080E00E94360F2DEC3CEC4CEC5DE3D6
:101AA0000E9438100E94070F9B012A5031092531EE
:101AB000310508F0A3CDAB014250510970E060E060
:101AC000812F0E94EC069ACDA0921802E2CE80915E
:101AD0001A0290911B02E0911902E80FF92FF11DF3
:101AE00086A5882351F0928943E050E0992311F0B4
:101AF00042E050E070E060E0E4CFB0921802C9CE5E
:101B000080911A0290911B02E0911902E80FF92FBF
:101B1000F11D86A5882309F1918D92FB992790F9F3
:101B2000238121FF04C046E050E09111E3CF2381DF
:101B300022FF04C045E050E09111DCCF238120FD5D
:101B400007C041E050E09111D5CF50E040E0D2CF46
:101B50009923D9F344E050E0CDCF7092180299CE8A
:101B60000E94910100910702109108022091090240
:101B700030910A02601B710B820B930B613D774021
:101B80008105910550F180911902823050F00E9438
:101B90009101609307027093080280930902909369
:101BA0000A0280911A0290911B02E0911902E80F3B
:101BB000F92FF11D83A5882341F067E070E00E94B2
:101BC000D30681110FC00E94BE00809119028F5F61
:101BD00080931902843008F413CD109219021092E8
:101BE00018020ECD0091190210E0F801E95FFD4FD7
:101BF00014860E94B40020911A0230911B02020F39
:101C0000131F91E0811190E0F8019083DECFF999E4
:101C1000FECF92BD81BDF89A992780B50895262FF1
:101C2000F999FECF1FBA92BD81BD20BD0FB6F894C1
:101C3000FA9AF99A0FBE01960895EE0FFF1F0590CC
:101C4000F491E02D09945058BB27AA270E943B0E1F
:101C50000C94AE0F0E94A00F38F00E94A70F20F046
:101C600039F49F3F19F426F40C949D0F0EF4E0957F
:101C7000E7FB0C94970FE92F0E94BF0F58F3BA1798
:101C8000620773078407950720F079F4A6F50C9492
:101C9000E10F0EF4E0950B2EBA2FA02D0B01B90128
:101CA00090010C01CA01A0011124FF27591B99F0D2
:101CB000593F50F4503E68F11A16F040A22F232FDE
:101CC000342F4427585FF3CF469537952795A7952E
:101CD000F0405395C9F77EF41F16BA0B620B730BD5
:101CE000840BBAF09150A1F0FF0FBB1F661F771F46
:101CF000881FC2F70EC0BA0F621F731F841F48F4FB
:101D0000879577956795B795F7959E3F08F0B0CF83
:101D10009395880F08F09927EE0F9795879508956A
:101D20000E94730F08F481E008950E94A90E0C949C
:101D3000AE0F0E94A70F58F00E94A00F40F029F4A8
:101D40005F3F29F00C94970F51110C94E20F0C9403
:101D50009D0F0E94BF0F68F39923B1F3552391F3B0
:101D6000951B550BBB27AA2762177307840738F00A
:101D70009F5F5F4F220F331F441FAA1FA9F335D067
:101D80000E2E3AF0E0E832D091505040E695001C1B
:101D9000CAF72BD0FE2F29D0660F771F881FBB1FD5
:101DA000261737074807AB07B0E809F0BB0B802DB3
:101DB000BF01FF2793585F4F3AF09E3F510578F0DF
:101DC0000C94970F0C94E20F5F3FE4F3983ED4F32A
:101DD000869577956795B795F7959F5FC9F7880FB3
:101DE000911D9695879597F90895E1E0660F771F05
:101DF000881FBB1F621773078407BA0720F0621B96
:101E0000730B840BBA0BEE1F88F7E09508950E94C0
:101E1000C70F88F09F5798F0B92F9927B751B0F0A6
:101E2000E1F0660F771F881F991F1AF0BA95C9F75E
:101E300014C0B13091F00E94E10FB1E008950C940C
:101E4000E10F672F782F8827B85F39F0B93FCCF3BF
:101E5000869577956795B395D9F73EF490958095DB
:101E6000709561957F4F8F4F9F4F0895E89409C0FB
:101E700097FB3EF490958095709561957F4F8F4FBD
:101E80009F4F9923A9F0F92F96E9BB279395F695D3
:101E9000879577956795B795F111F8CFFAF4BB0F51
:101EA00011F460FF1BC06F5F7F4F8F4F9F4F16C0B5
:101EB000882311F096E911C0772321F09EE8872F3F
:101EC000762F05C0662371F096E8862F70E060E0FB
:101ED0002AF09A95660F771F881FDAF7880F969574
:101EE000879597F90895990F0008550FAA0BE0E818
:101EF000FEEF16161706E807F907C0F012161306CC
:101F0000E407F50798F0621B730B840B950B39F40B
:101F10000A2661F0232B242B252B21F408950A2671
:101F200009F4A140A6958FEF811D811D089597F9B1
:101F30009F6780E870E060E008959FEF80EC08956F
:101F400000240A9416161706180609060895002498
:101F50000A9412161306140605060895092E039412
:101F6000000C11F4882352F0BB0F40F4BF2B11F486
:101F700060FF04C06F5F7F4F8F4F9F4F089557FDE5
:101F80009058440F551F59F05F3F71F04795880FE7
:101F900097FB991F61F09F3F79F08795089512167E
:101FA00013061406551FF2CF4695F1DF08C016162A
:101FB00017061806991FF1CF8695710561050894DB
:101FC0000895E894BB2766277727CB0197F90895F2
:101FD00016F00C94A5100C949D0F68940C94970F18
:101FE0000E94C70FA8F39923C1F3AEF3DF93CF93F9
:101FF0001F930F93FF92C92FDD2788232AF0219783
:10200000660F771F881FDAF720E030E040E85FEBCB
:102010009FE3883920F0803E38F021968F770E9428
:10202000240EE8E6F0E004C00E94240EE5E9F0E0AA
:102030000E94B3108B01BE01EC01FB2E6F5771099A
:102040007595771F880B990B0E94380F28E132E7AE
:1020500041E35FE30E944B10AF2D9801AE01FF906A
:102060000F911F91CF91DF910E943B0E0C94AE0F08
:102070000E944B100C94AE0F0E94A00F38F00E94EB
:10208000A70F20F0952311F00C94970F0C949D0F3F
:1020900011240C94E20F0E94BF0F70F3959FC1F3BF
:1020A000950F50E0551F629FF001729FBB27F00D06
:1020B000B11D639FAA27F00DB11DAA1F649F66275B
:1020C000B00DA11D661F829F2227B00DA11D621FAA
:1020D000739FB00DA11D621F839FA00D611D221F64
:1020E000749F3327A00D611D231F849F600D211D48
:1020F000822F762F6A2F11249F5750409AF0F1F0CB
:1021000088234AF0EE0FFF1FBB1F661F771F881F33
:1021100091505040A9F79E3F510580F00C94970FC5
:102120000C94E20F5F3FE4F3983ED4F386957795E5
:102130006795B795F795E7959F5FC1F7FE2B880FD9
:10214000911D9695879597F908959F3F31F091508D
:1021500020F4879577956795B795880F911D96958B
:10216000879597F90895DF93CF931F930F93FF926D
:10217000EF92DF927B018C01689406C0DA2EEF01AA
:102180000E944B10FE01E894A5912591359145914F
:102190005591A6F3EF010E943B0EFE019701A801A5
:1021A000DA9469F7DF90EF90FF900F911F91CF9134
:0821B000DF910895F894FFCFC0
:1021B8000B0C0D0E131E1F000000007302D301004C
:1021C80002C00231020F0223020000000068034F20
:0C21D800037903250348033503260300A8
:00000001FF
