:10800000820131EE820130AC820132C1820130AD99
:10801000820130AE820130AF820130B0820130B1D6
:10802000820130B2820130B3820130B4820130B5B6
:10803000820130B6820130B7820130B8820130B996
:10804000820130BA820130BB820130BC820130BD76
:10805000820130BE820130BF820130C082012B3CE0
:10806000820129CC82012B66820130C1820130C29B
:10807000820130C3820130C4820130C5820130C622
:1080800001324700D400100000012243B600B804BA
:108090002A03CC840E872609B604B400B700875B98
:1080A00002AC008571854FCC83B0901E0004200087
:1080B000CD832720D720DE20DD20E420E84F72F298
:1080C00001270D2B209372FB011F01AE0000201A27
:1080D000BE0272B00006B601B2054FAE00042430F5
:1080E000AE0000202B9050AE000490A3001A251182
:1080F000E6016F01EA026F02EA036F03404F492075
:108100000F640166026603462402AA01905A26F112
:1081100090AE0004A30004260490AE000088B600D0
:10812000B8042B21BE0272BB0006BF02B601B9051E
:10813000B7018485240C5C360136023603462402DE
:10814000AA01CC83B090F6B700000190E603E203E9
:10815000B70390E602E202B70290E601E201B7013E
:1081600084852B1788BA01BA02BA038426033F001C
:10817000875A483903390239012AF6CC83B08D0178
:10818000321B2000B604A480B800B700CD8327209E
:1081900071206D206E2071207472F90172A2007E30
:1081A00017015F894B0090AE00034B0090E6042757
:1081B0002C3D032710BE024272FB031F0324060C52
:1081C0000226020C013D02270CBE014272FB021F77
:1081D0000224020C01BE004272FB011F01905A26CC
:1081E000C95B02320003849085905D2702AA01904A
:1081F000855D2B0648390359905ABF0193CC83B053
:1082000027038725FDCC840E5B02CC84025F3800F7
:1082100056BF005FBF025B02878726FDCC840EB687
:1082200004A480B800B700CD832720F020EB20EA1B
:1082300020DB20D472F20117013F04BE02905FB62A
:10824000019097B306B20524095890590C022602F2
:108250000C0172B000062402905A72B200044FB7AB
:10826000023501000358905990B3042602B3062545
:108270000C72B000062402905A72B200043903391D
:10828000024924E13303330243509059AE007F7218
:10829000F0015B022D26A300FF2503CC840202908F
:1082A0005049380056BF0036023603240C4D2709CA
:1082B0003C0326053C0226015CBF0087B7019050B5
:1082C0004F469936013602360346CC83B0BF002AAA
:1082D000055020023F003F039E4D261202270CA6A8
:1082E000874A5824FC38004656B700BF0187A68E3F
:1082F00020F0BE01B6005849A07F2529A11025090C
:10830000AE7FFF3D002A015C87995640AB0FA10864
:108310002509884F0184A008200154A00124FB3DB9
:10832000002A0150875F879085B60148B60049272B
:1083300030A1FF271C721E0001884B00B60548B60D
:108340000449273EA1FF2733721E00055F9751ECB9
:108350000AAD4B2648AD4F2240250290FC5D90ECC3
:1083600002AD3B270E5F5C5A3803390239012AF708
:108370008920C9AD3122225D90EC04AD29221890EC
:10838000EC06AD225D270D5F5C5A380739063905CA
:108390002AF720BA90EC085B02AC00857187B60121
:1083A00048BA02BA0381BE0650BE0459A3FF008139
:1083B0005D9C2C24A3FFE72C0D4FB703B702B70138
:1083C000380046B70087340136023603462402AA35
:1083D000015CA3000126EF5F7201000302AA01A362
:1083E00000FE2C1E380138004146B700360141A17D
:1083F00081250E3C03260A3C0226063C0126023C4F
:108400000087AEFF00380056BF005FBF02875F5A8B
:10841000BF00BF028788A608200588A60C20008818
:108420007B02887B02891E061F045F977B086B0610
:10843000FE1F07858487891E06BF082007891E0640
:10844000BF0C20001E041F061E021F04855B02874E
:10845000887B03887B03887B03887B076B04B601DA
:108460006B05B6026B06B6036B078487887B0388AF
:108470007B03887B03887B076B04B6056B05B60618
:108480006B06B6076B078487887B03887B03887B32
:1084900003887B076B04B6096B05B60A6B06B60B3F
:1084A0006B078487887B03887B03887B03887B0733
:1084B0006B04B60D6B05B60E6B06B60F6B078487A3
:1084C000887B05B7097B06B70A7B07B70B200F88A7
:1084D0007B05B70D7B06B70E7B07B70F20007B042B
:1084E0006B07846B03846B03846B03848788A6000B
:1084F000200F88A604200A88A608200588A60C203C
:108500000088897B04887B04891E081F045F977B91
:108510000A6B061F09FE1F071E095C5CFE1F09850A
:108520008487891E06BF001E08BF022021891E06FF
:10853000BF041E08BF062016891E06BF081E08BFFE
:108540000A200B891E06BF0C1E08BF0E20001E034A
:108550001F071E041F08855B04878D0085438D005F
:108560008538878D00843D8D008538878D00843661
:108570008745040045050145060245070387450870
:1085800000450901450A02450B0387450C00450DCE
:1085900001450E02450F03874500044501054502CC
:1085A0000645030787450804450905450A06450BA6
:1085B0000787450C04450D05450E06450F07874501
:1085C000000845010945020A45030B874504084593
:1085D000050945060A45070B8745000C45010D4571
:1085E000020E45030F8745040C45050D45060E4553
:1085F000070F8745090D450A0E450B0F87AE00088A
:1086000020006C0326096C0226056C0126017C877C
:10861000AE000820006D03260D6D0226076D0126B1
:10862000017A6A016A026A0387AE0004B603EB03AB
:10863000B703B602E902B702B601E901B701B60015
:10864000F9B70087AE0004B603E003B703B602E251
:1086500002B702B601E201B701B600F2B70087B671
:1086600000BE06429FB700B601BE05429FBB00B7E1
:1086700000B602BE04429FBB00B700B603BE034271
:108680009FBB00B700B601BE06423F0172BB0000AF
:10869000BF00B602BE054272BB0000BF00B603BEFB
:1086A000044272BB0000BF00B602BE06423F027227
:1086B000BB0001BF0124023C00B603BE054272BBF1
:1086C0000001BF0124023C00B603BE06423F037214
:1086D000BB0002BF022405BE005CBF0087BE0026AF
:1086E0001E90BE04260CBE0290BE0665BF0290BF5F
:1086F0000687BF04450206450307BF00BF0287A6E1
:10870000203D00260DBE01BF004503023F033A0392
:10871000A0085F905F992017905959B304260390E1
:10872000B306250B72B2000624015A72B000043958
:10873000033902390139004A2ADEBF0490BF06BE60
:108740000053BF00BE0253BF02878D01321B2004BD
:108750008D01321B4B004B003D002A0BAE00008DFB
:1087600000878F030103023D042A09AE00048D0037
:10877000878F03018D0086DD844D2707AE00008DB5
:1087800000878F844D2707AE00048D00878F876098
:10879000034FE202E7024FE201E7014FF2F787BE23
:1087A00000B3042604BE02B30687BE00B30426103D
:1087B000BE02B3068A84A47BA5012702AA04888688
:1087C00087BF025F3D022A0153BF008700B100BC92
:1087D00000C700D300E000ED00FB010901190128EA
:1087E0000139014A015C016F0183019701AD01C3A9
:1087F00001DA01F1020A0223023E025902750292D5
:1088000002B002CF02EE030F033003520375039947
:1088100003BD03E20408042F0456047E04A704D019
:1088200004FA0524054F057A05A505D105FD062A9C
:108830000656068306B006DD07090735076307906D
:1088400007BC07E808140840086C089708C108EC42
:108850000916093F0968099009B809DF0A060A2BB9
:108860000A510A760A9A0ABD0AE00B020B210B4450
:108870000B640B830BA20BC00BDD0BFA0C160C3137
:108880000C4C0C660C7F0C980CB00CC70CDE0CF476
:108890000D0A0D1F0D330D470D5A0D6D0D7F0D91F6
:1088A0000DA20DB30DC30DD30DE20DF20E000E0E91
:1088B0000E1C0E280E360E430E4F0E5B0E660E710A
:1088C0000E7C0E870E910E9B0EA40EAD0EB70EBF42
:1088D0000EC88D0084888D0084A48D0085C2A602F8
:1088E0003500000135500002351E00038D012F7147
:1088F000A1002704AC0089E1AE00068D00858172DD
:10890000BB0002BF0292BC0001A1002704AC008999
:10891000F3AE00048992BC0009B7055F5C92AF001A
:1089200009B7065C92AF0009B707AE000A72BB0038
:1089300006BF0692BC0005B7015F5C92AF0005B7A9
:10894000025C92AF0005B703858D011BC4BE00A376
:1089500000002605BE02A300332548AE00068D00A8
:10896000858172BB0002BF02A60192BD00018D008D
:1089700085818D011A4A92BC0009B7015F5C92AFF4
:108980000009B7025C92AF0009B703AE000D72BBDD
:108990000002BF025F9E92BD000190AE00019F9158
:1089A000A70001AE00078992BC0009B7055F5C9281
:1089B000AF0009B7065C92AF0009B707AE000A72B4
:1089C000BB0006BF0692BC0005B7015F5C92AF001A
:1089D00005B7025C92AF0005B703858D011D252008
:1089E00012AE00068D00858172BB0002BF024F925D
:1089F000BD0001A6043500000135500002351E00FF
:108A0000038D012F71A1002704AC008C0EAE00076E
:108A10008D00858172BB0002BF0292BC0001A100E3
:108A20002704AC008C205F8992BC0009B7055F5C0D
:108A300092AF0009B7065C92AF0009B707AE000A13
:108A400072BB0006BF0692BC0005B7015F5C92AF27
:108A50000005B7025C92AF0005B703858D011BC40A
:108A6000BE00A300002605BE02A300332404AC0010
:108A70008C20AE00078D00858172BB0002BF02A66C
:108A80000192BD000192BC0009B7015F5C92AF008A
:108A900009B7025C92AF0009B703AE000D72BB00CC
:108AA00002BF0292BC00019590AE000191AF00019F
:108AB00097A300022615AE00038D00858172BB00CE
:108AC00002BF028D00A2F9AC008BD092BC0009B7A6
:108AD000015F5C92AF0009B7025C92AF0009B70377
:108AE000AE000D72BB0002BF0292BC00019590AEB9
:108AF000000191AF0001975D2704AC008BD092BCC0
:108B00000009B7015F5C92AF0009B7025C92AF0049
:108B100009B703AE001872BB0002BF0292BC00018D
:108B2000A10026088D0085818D011B4792BC00099C
:108B3000B7015F5C92AF0009B7025C92AF0009B762
:108B400003AE001872BB0002BF0292BC0001A1027A
:108B5000267E92BC0009B7015F5C92AF0009B702A4
:108B60005C92AF0009B7038D0124434CAE00128D17
:108B700000858172BB0002BF0292BD0001AE0012EF
:108B80008D00858172BB0002BF0292BC0001A1046E
:108B90002612AE00128D00858172BB0002BF024F0B
:108BA00092BD0001AE00128D00858172BB0002BF34
:108BB0000292BC00018892BC0009B7015F5C92AFD1
:108BC0000009B7025C92AF0009B703848D010088E9
:108BD000AE00078992BC0009B7055F5C92AF00093F
:108BE000B7065C92AF0009B707AE000A72BB000679
:108BF000BF0692BC0005B7015F5C92AF0005B702EB
:108C00005C92AF0005B703858D011D252012AE00D3
:108C1000078D00858172BB0002BF024F92BD00012B
:108C2000A6083500000135500002351E00038D01F5
:108C30002F71A1002704AC008DFEAE00088D0085C9
:108C40008172BB0002BF0292BC0001A1002704ACEC
:108C5000008D505F5C8992BC0009B7055F5C92AFE4
:108C60000009B7065C92AF0009B707AE000A72BBF5
:108C70000006BF0692BC0005B7015F5C92AF00051D
:108C8000B7025C92AF0005B703858D011BC4BE001F
:108C9000A300002605BE02A300332404AC008E10FE
:108CA000AE00088D00858172BB0002BF02A6019252
:108CB000BD000192BC0009B7015F5C92AF0009B72B
:108CC000025C92AF0009B703AE000D72BB0002BF99
:108CD0000292BC00019590AE000191AF0001975D3A
:108CE000262E92BC0009B7015F5C92AF0009B70263
:108CF0005C92AF0009B703AE001872BB0002BF025E
:108D000092BC0001A10026088D0085818D011AC941
:108D1000AE00078992BC0009B7055F5C92AF0009FD
:108D2000B7065C92AF0009B707AE000A72BB000637
:108D3000BF0692BC0005B7015F5C92AF0005B702A9
:108D40005C92AF0005B703858D011D25AC008E1028
:108D500092BC0009B7015F5C92AF0009B7025C9258
:108D6000AF0009B703AE000D72BB0002BF0292BC98
:108D700000019590AE000191AF000197A30002277A
:108D800004AC008E105F5C8992BC0009B7055F5C83
:108D900092AF0009B7065C92AF0009B707AE000AB0
:108DA00072BB0006BF0692BC0005B7015F5C92AFC4
:108DB0000005B7025C92AF0005B703858D011BC4A7
:108DC000BE00A300002605BE02A300332542AE006C
:108DD000038D00858172BB0002BF028D00AE81A6AB
:108DE000018892BC0009B7015F5C92AF0009B7022D
:108DF0005C92AF0009B703848D01158F2012AE007D
:108E0000088D00858172BB0002BF024F92BD000138
:108E100092BC0009B7015F5C92AF0009B7025C9297
:108E2000AF0009B703AE001872BB0002BF0292BCCC
:108E30000001A102265492BC0009B7015F5C92AF09
:108E40000009B7025C92AF0009B7038D012FB0A1F2
:108E500000273792BC0009B7015F5C92AF0009B7E9
:108E6000025C92AF0009B703AE000D72BB0002BFF7
:108E70000292BC00019590AE000191AF0001975D98
:108E800026088D0085818D00FD5BA68035000001E0
:108E900035500002350000038D012F71A100270419
:108EA000AC0090E5AE00098D00858172BB0002BF69
:108EB0000292BC0001A1002704AC00901FAE00028A
:108EC0008992BC0009B7055F5C92AF0009B7065CE8
:108ED00092AF0009B707AE000A72BB0006BF069248
:108EE000BC0005B7015F5C92AF0005B7025C92AFB2
:108EF0000005B703858D011BC4BE00A30000260535
:108F0000BE02A300152404AC0090F7AE00098D004A
:108F1000858172BB0002BF02A60192BD000192BC16
:108F20000009B7015F5C92AF0009B7025C92AF0025
:108F300009B703AE000D72BB0002BF0292BC000174
:108F40009590AE000191AF000197A300022613AEE9
:108F500000038D00858172BB0002BF028D00E4C654
:108F6000204192BC0009B7015F5C92AF0009B702D3
:108F70005C92AF0009B703AE000D72BB0002BF02E6
:108F800092BC00019590AE000191AF0001975D2663
:108F90000A8D0085818D0119CB20088D0085818D7A
:108FA000010A01AE00028992BC0009B7055F5C921C
:108FB000AF0009B7065C92AF0009B707AE000A72AE
:108FC000BB0006BF0692BC0005B7015F5C92AF0014
:108FD00005B7025C92AF0005B703858D011D25AE74
:108FE00000078992BC0009B7055F5C92AF0009B722
:108FF000065C92AF0009B707AE000A72BB0006BF5D
:109000000692BC0005B7015F5C92AF0005B7025C39
:1090100092AF0005B703858D011D25AC0090F79236
:10902000BC0009B7015F5C92AF0009B7025C92AF68
:109030000009B703AE000D72BB0002BF0292BC0074
:10904000019590AE000191AF0001975D2704AC003F
:1090500090F792BC0009B7015F5C92AF0009B702BC
:109060005C92AF0009B7038D012FB0A1002704ACBB
:109070000090F7AE000B8D00858172BB0002BF022D
:1090800092BC0001A100276FAE00028992BC0009CA
:10909000B7055F5C92AF0009B7065C92AF0009B7F5
:1090A00007AE000A72BB0006BF0692BC0005B701FE
:1090B0005F5C92AF0005B7025C92AF0005B7038515
:1090C0008D011BC4BE00A300002605BE02A301F54E
:1090D0002525AE00038D00858172BB0002BF028D85
:1090E00000FF8F2012AE00098D00858172BB000247
:1090F000BF024F92BD0001A60135000001355000AE
:1091000002351E00038D012F71A1002704AC0093CE
:109110003FAE000A8D00858172BB0002BF0292BC87
:109120000001A1002704AC00928CAE00038992BC20
:109130000009B7055F5C92AF0009B7065C92AF000B
:1091400009B707AE000A72BB0006BF0692BC000555
:10915000B7015F5C92AF0005B7025C92AF0005B744
:1091600003858D011BC4BE00A300002605BE02A31B
:1091700000152404AC009363AE000A8D0085817253
:10918000BB0002BF02A60192BD000192BC0009B75C
:10919000015F5C92AF0009B7025C92AF0009B703B0
:1091A000AE000D72BB0002BF0292BC00019590AEF2
:1091B000000191AF000197A300022613AE00038DBA
:1091C00000858172BB0002BF028D00DC7E204192CF
:1091D000BC0009B7015F5C92AF0009B7025C92AFB7
:1091E0000009B703AE000D72BB0002BF0292BC00C3
:1091F000019590AE000191AF0001975D260A8D00A8
:1092000085818D0119CB20088D0085818D010AC9CA
:10921000AE00038992BC0009B7055F5C92AF0009FC
:10922000B7065C92AF0009B707AE000A72BB000632
:10923000BF0692BC0005B7015F5C92AF0005B702A4
:109240005C92AF0005B703858D011D25AE0007892F
:1092500092BC0009B7055F5C92AF0009B7065C924B
:10926000AF0009B707AE000A72BB0006BF0692BC8A
:109270000005B7015F5C92AF0005B7025C92AF00DA
:1092800005B703858D011D25AC00936392BC0009D1
:10929000B7015F5C92AF0009B7025C92AF0009B7FB
:1092A00003AE000D72BB0002BF0292BC000195909C
:1092B000AE000191AF0001975D2704AC009363926B
:1092C000BC0009B7015F5C92AF0009B7025C92AFC6
:1092D0000009B7038D012FB0A1002704AC009363F0
:1092E000AE00038992BC0009B7055F5C92AF00092C
:1092F000B7065C92AF0009B707AE000A72BB000662
:10930000BF0692BC0005B7015F5C92AF0005B702D3
:109310005C92AF0005B703858D011BC4BE00A3009E
:10932000002605BE02A301F52539AE000B8D008590
:109330008172BB0002BF02A60192BD00012024AED3
:10934000000A8D00858172BB0002BF024F92BD00F2
:1093500001AE000B8D00858172BB0002BF024F92EF
:10936000BD000192BC0009B7015F5C92AF0009B774
:10937000025C92AF0009B703AE000D72BB0002BFE2
:109380000292BC00019590AE000191AF000197A33D
:109390000001267FAE00068992BC0009B7055F5C1C
:1093A00092AF0009B7065C92AF0009B707AE000A9A
:1093B00072BB0006BF0692BC0005B7015F5C92AFAE
:1093C0000005B7025C92AF0005B703858D011BC491
:1093D000BE00A300002605BE02A301F52404AC00D4
:1093E00094DC92BC0009B7015F5C92AF0009B70240
:1093F0005C92AF0009B703AE000D72BB0002BF0262
:109400005F9E92BD000190AE00019F91A70001AC4C
:109410000094DC92BC0009B7015F5C92AF0009B711
:10942000025C92AF0009B703AE000D72BB0002BF31
:109430000292BC00019590AE000191AF000197A38C
:1094400000022704AC0094DCAE00088992BC00093D
:10945000B7055F5C92AF0009B7065C92AF0009B731
:1094600007AE000A72BB0006BF0692BC0005B7013A
:109470005F5C92AF0005B7025C92AF0005B7038551
:109480008D011BC4BE00A300002605BE02A303E994
:10949000254A92BC0009B7015F5C92AF0009B70290
:1094A0005C92AF0009B703AE000D72BB0002BF02B1
:1094B0005F9E92BD000190AE00019F91A70001A6A2
:1094C000018892BC0009B7015F5C92AF0009B70246
:1094D0005C92AF0009B703848D01158F92BC00091F
:1094E000B7015F5C92AF0009B7025C92AF0009B7A9
:1094F000038D012FA2B70092BC0009B7015F5C92F7
:10950000AF0009B7025C92AF0009B703AE00177253
:10951000BB0002BF0292BC0001B100276492BC00F4
:1095200009B7015F5C92AF0009B7025C92AF000916
:10953000B7038D012FA2B70092BC0009B7015F5C91
:1095400092AF0009B7025C92AF0009B703AE0017F3
:1095500072BB0002BF02B60092BD000192BC0009BE
:10956000B7015F5C92AF0009B7025C92AF0009B728
:10957000038D012FA2B700A60B8D0085818D0128D8
:109580002792BC0009B7015F5C92AF0009B7025C8B
:1095900092AF0009B7038D012FB0B70092BC00094C
:1095A000B7015F5C92AF0009B7025C92AF0009B7E8
:1095B00003AE001E72BB0002BF0292BC0001B100EC
:1095C000276492BC0009B7015F5C92AF0009B70243
:1095D0005C92AF0009B7038D012FB0B70092BC00B9
:1095E00009B7015F5C92AF0009B7025C92AF000956
:1095F000B703AE001E72BB0002BF02B60092BD00F0
:109600000192BC0009B7015F5C92AF0009B7025C30
:1096100092AF0009B7038D012FB0B700A6058D00EA
:1096200085818D01282792BC0009B7015F5C92AF4C
:109630000009B7025C92AF0009B7038D012FBEB7D6
:109640000092BC0009B7015F5C92AF0009B7025CF1
:1096500092AF0009B703AE001F72BB0002BF0292B7
:10966000BC0001B100276492BC0009B7015F5C92A5
:10967000AF0009B7025C92AF0009B7038D012FBE9E
:10968000B70092BC0009B7015F5C92AF0009B70256
:109690005C92AF0009B703AE001F72BB0002BF02AD
:1096A000B60092BD000192BC0009B7015F5C92AFA9
:1096B0000009B7025C92AF0009B7038D012FBEB756
:1096C00000A6068D0085818D01282792BC0009B770
:1096D000015F5C92AF0009B7025C92AF0009B7036B
:1096E0008D012FCCB70092BC0009B7015F5C92AF2F
:1096F0000009B7025C92AF0009B703AE002072BB4D
:109700000002BF0292BC0001B100276492BC0009B4
:10971000B7015F5C92AF0009B7025C92AF0009B776
:10972000038D012FCCB70092BC0009B7015F5C929A
:10973000AF0009B7025C92AF0009B703AE00207218
:10974000BB0002BF02B60092BD000192BC0009B787
:10975000015F5C92AF0009B7025C92AF0009B703EA
:109760008D012FCCB700A6078D0085818D0128279C
:1097700092BC0009B7015F5C92AF0009B7025C922E
:10978000AF0009B7038D012E07BF04AE00138D0093
:10979000858172BB0002BF0292BC00019590AE00B1
:1097A0000191AF000197B3042604AC0098C792BCA6
:1097B0000009B7055F5C92AF0009B7065C92AF0085
:1097C00009B707AE000A72BB0006BF0692BC0005CF
:1097D000B7015F5C92AF0005B7025C92AF0005B7BE
:1097E000038D012B12BE00A300002605BE02A300BC
:1097F000102404AC0098C792BC0009B7055F5C92C6
:10980000AF0009B7065C92AF0009B707AE000A7255
:10981000BB0006BF0692BC0005B7015F5C92AF00BB
:1098200005B7025C92AF0005B7038D012B12AE00A5
:10983000158D0085F372BB000EBF0E92BC000DB7F4
:10984000045F5C92AF000DB7055C92AF000DB706E8
:109850005C92AF000DB7078D008644BE00A30000E8
:109860002605BE02A301F5255E92BC0009B7015F83
:109870005C92AF0009B7025C92AF0009B7038D019B
:109880002E079093AE00138D00858172BB0002BF3E
:1098900002909E92BD00015F5C909F92A700019292
:1098A000BC0009B7015F5C92AF0009B7025C92AFE0
:1098B0000009B7038D012E07BF065FBF04A61C8DEC
:1098C0000085818D0128A392BC0009B7015F5C92DD
:1098D000AF0009B7025C92AF0009B7038D012E1FDC
:1098E000BF0492BC0009B7015F5C92AF0009B702E8
:1098F0005C92AF0009B703AE001A72BB0002BF0250
:1099000092BC00019590AE000191AF000197B304A5
:10991000276F92BC0009B7015F5C92AF0009B702E4
:109920005C92AF0009B7038D012E1F909392BC008B
:1099300009B7015F5C92AF0009B7025C92AF000902
:10994000B703AE001A72BB0002BF02909E92BD0028
:10995000015F5C909F92A7000192BC0009B7015F74
:109960005C92AF0009B7025C92AF0009B7038D01AA
:109970002E1FBF065FBF04A6148D0085818D0128B0
:10998000A392BC0009B7015F5C92AF0009B7025C0B
:1099900092AF0009B7038D012E37BF0492BC0009B6
:1099A000B7015F5C92AF0009B7025C92AF0009B7E4
:1099B00003AE001C72BB0002BF0292BC0001959076
:1099C000AE000191AF000197B304276F92BC00096C
:1099D000B7015F5C92AF0009B7025C92AF0009B7B4
:1099E000038D012E37909392BC0009B7015F5C9202
:1099F000AF0009B7025C92AF0009B703AE001C725A
:109A0000BB0002BF02909E92BD00015F5C909F92DE
:109A1000A7000192BC0009B7015F5C92AF0009B7D3
:109A2000025C92AF0009B7038D012E37BF065FBFFE
:109A300004A6188D0085818D0128A38D0084CF8D0B
:109A40000084C0878D0084F78D0084A48D0085C2BA
:109A5000AE000B8D00858172BB0002BF0292BC007C
:109A600001B7055F5C92AF0001B7065C92AF0001E1
:109A7000B707AE001172BB0006BF0692BC0005908E
:109A80005F9097AE00048D00858172BB0002BF021B
:109A900092BC0001B7045F5C92AF0001B70590B3C0
:109AA000042671AE000B8D00858172BB0002BF02DF
:109AB00092BC0001B70D5F5C92AF0001B70E5C92E3
:109AC000AF0001B70FAE001272BB000EBF0E92BC0A
:109AD000000DB7045F5C92AF000DB7055C92AF005C
:109AE0000DB7065C92AF000DB707AE00068D00857E
:109AF0008172BB0002BF0292BC00019590AE0001D2
:109B000091AF000197BF025FBF008D00879F2604C1
:109B1000AC00A2F1AE000B8D00858172BB0002BFCC
:109B20000292BC0001B7055F5C92AF0001B7065C12
:109B300092AF0001B707AE001172BB0006BF0692DC
:109B4000BC0005905F9097AE00048D00858172BBCC
:109B50000002BF02909E92BD00015F5C909F92A7A1
:109B60000001AE000B8D00858172BB0002BF029226
:109B7000BC0001B7055F5C92AF0001B7065C92AF15
:109B80000001B707AE001272BB0006BF0692BC0010
:109B900005B7005F5C92AF0005B7015C92AF0005AE
:109BA000B7025C92AF0005B703AE00068D0085A832
:109BB00072BB0006BF06B60292BD00055F5CB6032D
:109BC00092A700054F8D012A9135010000AE000BD0
:109BD0008D00858172BB0002BF0292BC0001B705F7
:109BE0005F5C92AF0001B7065C92AF0001B707AEB1
:109BF000001172BB0006BF0692BC00055F975C9027
:109C0000AE000A8D0130E59F8D00CD823501000048
:109C1000AE000B8D00858172BB0002BF0292BC00BA
:109C200001B7055F5C92AF0001B7065C92AF00011F
:109C3000B707AE001172BB0006BF0692BC00055FFD
:109C4000975C90AE000A8D0130FE909F8D00D0860B
:109C5000AE000B8D00858172BB0002BF0292BC007A
:109C600001B7055F5C92AF0001B7065C92AF0001DF
:109C7000B707AE001172BB0006BF0692BC0005A17B
:109C8000002604AC009D5BAE000B8D00858172BB8D
:109C90000002BF0292BC0001B7055F5C92AF0001F9
:109CA000B7065C92AF0001B707AE001172BB0006A9
:109CB000BF0692BC0005A1032604AC009D5BAE006C
:109CC0000B8D00858172BB0002BF0292BC0001B700
:109CD000055F5C92AF0001B7065C92AF0001B70769
:109CE000AE001172BB0006BF0692BC0005A108279A
:109CF0006AAE000B8D00858172BB0002BF0292BC70
:109D00000001B7055F5C92AF0001B7065C92AF003F
:109D100001B707AE001172BB0006BF0692BC00057A
:109D2000A1092737AE000B8D00858172BB0002BFF1
:109D30000292BC0001B7055F5C92AF0001B7065C00
:109D400092AF0001B707AE001172BB0006BF0692CA
:109D5000BC0005A10A2704AC009ED1AE000B8D000B
:109D6000858172BB0002BF0292BC0001B7055F5C37
:109D700092AF0001B7065C92AF0001B707AE0012C8
:109D800072BB0006BF0692BC0005B7005F5C92AFD5
:109D90000005B7015C92AF0005B7025C92AF000509
:109DA000B703AE000BBF065FBF048D0087AA2E0469
:109DB000AC009E7635010000450008AE000B8D001A
:109DC000858172BB0002BF0292BC0001B7055F5CD7
:109DD00092AF0001B7065C92AF0001B707AE001268
:109DE00072BB0006BF0692BC0005B7005F5C92AF75
:109DF0000005B7015C92AF0005B7025C92AF0005A9
:109E0000B7038D0087500000000AB6034508008D97
:109E100000BC4835010000450008AE000B8D0085F0
:109E20008172BB0002BF0292BC0001B7055F5C9269
:109E3000AF0001B7065C92AF0001B707AE00127227
:109E4000BB0006BF0692BC0005B7005F5C92AF0086
:109E500005B7015C92AF0005B7025C92AF0005B791
:109E6000038D00874A0000000AB6074508008D00F0
:109E7000C404AC00A2F135010000450004AE000BA3
:109E80008D00858172BB0002BF0292BC0001B70544
:109E90005F5C92AF0001B7065C92AF0001B707AEFE
:109EA000001272BB0006BF0692BC0005B7005F5CE3
:109EB00092AF0005B7015C92AF0005B7025C92AFAC
:109EC0000005B703B6034504008D00C404AC00A22E
:109ED000F1AE000B8D00858172BB0002BF0292BC07
:109EE0000001B7055F5C92AF0001B7065C92AF005E
:109EF00001B707AE001172BB0006BF0692BC000599
:109F0000A1012604AC009FDCAE000B8D00858172A0
:109F1000BB0002BF0292BC0001B7055F5C92AF00BC
:109F200001B7065C92AF0001B707AE001172BB002B
:109F300006BF0692BC0005A1042604AC009FDCAE5F
:109F4000000B8D00858172BB0002BF0292BC000134
:109F5000B7055F5C92AF0001B7065C92AF0001B736
:109F600007AE001172BB0006BF0692BC0005A1053A
:109F7000276AAE000B8D00858172BB0002BF029282
:109F8000BC0001B7055F5C92AF0001B7065C92AF01
:109F90000001B707AE001172BB0006BF0692BC00FD
:109FA00005A1062737AE000B8D00858172BB00022C
:109FB000BF0292BC0001B7055F5C92AF0001B7061B
:109FC0005C92AF0001B707AE001172BB0006BF067E
:109FD00092BC0005A1072704AC00A271AE000B8D56
:109FE00000858172BB0002BF0292BC0001B7055F11
:109FF0005C92AF0001B7065C92AF0001B707AE00FC
:10A000001272BB0006BF0692BC0005B7005F5C92EF
:10A01000AF0005B7015C92AF0005B7025C92AF00DC
:10A0200005B7033D002B04AC00A1058D0123F235DB
:10A030000100004500085F5ABF06BF04AE000B8D4B
:10A0400000858172BB0002BF0292BC0001B70D5FA8
:10A050005C92AF0001B70E5C92AF0001B70FAE008B
:10A060001272BB000EBF0E92BC000DB7005F5C9277
:10A07000AF000DB7015C92AF000DB7025C92AF006C
:10A080000DB7038D00865F8D0087500000000AB673
:10A09000034508008D00C404350100004500085F39
:10A0A0005ABF06BF04AE000B8D00858172BB000253
:10A0B000BF0292BC0001B70D5F5C92AF0001B70E0A
:10A0C0005C92AF0001B70FAE001272BB000EBF0E64
:10A0D00092BC000DB7005F5C92AF000DB7015C92BF
:10A0E000AF000DB7025C92AF000DB7038D00865F25
:10A0F0008D00874A0000000AB6074508008D00C79A
:10A100003AAC00A2F1AE000B8D00858172BB00025B
:10A11000BF0292BC0001B7055F5C92AF0001B706B9
:10A120005C92AF0001B707AE001272BB0006BF061B
:10A1300092BC0005B7005F5C92AF0005B7015C926E
:10A14000AF0005B7025C92AF0005B703AE0064BF75
:10A15000065FBF048D0087AA2F04AC00A220350142
:10A160000000450008AE000B8D00858172BB000227
:10A17000BF0292BC0001B7055F5C92AF0001B70659
:10A180005C92AF0001B707AE001272BB0006BF06BB
:10A1900092BC0005B7005F5C92AF0005B7015C920E
:10A1A000AF0005B7025C92AF0005B7038D00875082
:10A1B0000000000AB6034508008D00C40435010004
:10A1C00000450008AE000B8D00858172BB0002BF08
:10A1D0000292BC0001B7055F5C92AF0001B7065C5C
:10A1E00092AF0001B707AE001272BB0006BF069225
:10A1F000BC0005B7005F5C92AF0005B7015C92AF91
:10A200000005B7025C92AF0005B7038D00874A00D6
:10A2100000000AB6074508008D00C73AAC00A2F15D
:10A22000AE000B8D00858172BB0002BF0292BC00A4
:10A2300001B7055F5C92AF0001B7065C92AF000109
:10A24000B707AE001272BB0006BF0692BC0005B78E
:10A25000005F5C92AF0005B7015C92AF0005B702EA
:10A260005C92AF0005B703BE028D01269AAC00A236
:10A27000F1AE000B8D00858172BB0002BF0292BC63
:10A280000001B7055F5C92AF0001B7065C92AF00BA
:10A2900001B707AE001172BB0006BF0692BC0005F5
:10A2A000A102264DAE000B8D00858172BB0002BF5E
:10A2B0000292BC0001B7055F5C92AF0001B7065C7B
:10A2C00092AF0001B707AE001272BB0006BF069244
:10A2D000BC0005B7005F5C92AF0005B7015C92AFB0
:10A2E0000005B7025C92AF0005B703BE028D0126E0
:10A2F0009A8D0084CFAC00855E8D0084888D0085AA
:10A30000C2AE00088992BC0009B7055F5C92AF003D
:10A3100009B7065C92AF0009B707AE000A72BB002E
:10A3200006BF0692BC0005B7015F5C92AF0005B79F
:10A33000025C92AF0005B703858D011D2592BC001C
:10A3400009B7015F5C92AF0009B7025C92AF0009E8
:10A35000B703AE001172BB0002BF0292BC00014DF8
:10A36000274A4A2604AC00A43E4A2604AC00A4A80E
:10A370004A2604AC00A5334A2604AC00A5B94A26F7
:10A3800004AC00A63F4A2604AC00A6BF4A2604AC93
:10A3900000A73F4A2604AC00A7CA4A2604AC00A87E
:10A3A000544A2604AC00A8DDAC00A8E592BC000924
:10A3B000B7015F5C92AF0009B7025C92AF0009B7CA
:10A3C00003AE001172BB0002BF02A60192BD0001E4
:10A3D00092BC0009B7015F5C92AF0009B7025C92C2
:10A3E000AF0009B703AE000F72BB0002BF0292BC00
:10A3F00000019590AE000191AF0001978D0087C1DB
:10A4000092BC0009B7055F5C92AF0009B7065C9289
:10A41000AF0009B707AE001272BB0006BF06B60058
:10A4200092BD00055F5CB60192A700055CB6029282
:10A43000A700055CB60392A70005AC00A8E592BC96
:10A440000009B7015F5C92AF0009B7025C92AF00F0
:10A4500009B703AE001172BB0002BF02A60292BD93
:10A46000000192BC0009B7015F5C92AF0009B7021E
:10A470005C92AF0009B703AE001272BB0002BF02CC
:10A48000AE005EBF065FBF04B60492BD00015F5C14
:10A49000B60592A700015CB60692A700015CB6075C
:10A4A00092A70001AC00A8E592BC0009B7015F5C6F
:10A4B00092AF0009B7025C92AF0009B703AE00117A
:10A4C00072BB0002BF02A60392BD000192BC00094C
:10A4D000B7015F5C92AF0009B7025C92AF0009B7A9
:10A4E00003AE001872BB0002BF0292BC00015F976E
:10A4F000BF025FBF0092BC0009B7055F5C92AF006E
:10A5000009B7065C92AF0009B707AE001272BB0034
:10A5100006BF06B60092BD00055F5CB60192A700BB
:10A52000055CB60292A700055CB60392A70005ACD5
:10A5300000A8E592BC0009B7015F5C92AF0009B7C3
:10A54000025C92AF0009B703AE001172BB0002BFFC
:10A5500002A60492BD000192BC0009B7015F5C92A3
:10A56000AF0009B7025C92AF0009B7038D012FDA83
:10A57000B70092BC0009B7015F5C92AF0009B70257
:10A580005C92AF0009B703AE001272BB0002BF02BB
:10A590005FB60097BF065FBF04B60492BD00015FBF
:10A5A0005CB60592A700015CB60692A700015CB6F6
:10A5B0000792A70001AC00A8E592BC0009B7015FB3
:10A5C0005C92AF0009B7025C92AF0009B703AE001E
:10A5D0001172BB0002BF02A60592BD000192BC0031
:10A5E00009B7015F5C92AF0009B7025C92AF000946
:10A5F000B7038D012FE8B70092BC0009B7015F5C7B
:10A6000092AF0009B7025C92AF0009B703AE001227
:10A6100072BB0002BF025FB60097BF065FBF04B601
:10A620000492BD00015F5CB60592A700015CB6060E
:10A6300092A700015CB60792A70001AC00A8E592C2
:10A64000BC0009B7015F5C92AF0009B7025C92AF32
:10A650000009B703AE001172BB0002BF02A606924A
:10A66000BD000192BC0009B7015F5C92AF0009B761
:10A67000025C92AF0009B7038D012E1FBF0292BC8E
:10A680000009B7055F5C92AF0009B7065C92AF00A6
:10A6900009B707AE001272BB0006BF065FBF00B667
:10A6A0000092BD00055F5CB60192A700055CB60292
:10A6B00092A700055CB60392A70005AC00A8E5923E
:10A6C000BC0009B7015F5C92AF0009B7025C92AFB2
:10A6D0000009B703AE001172BB0002BF02A60792C9
:10A6E000BD000192BC0009B7015F5C92AF0009B7E1
:10A6F000025C92AF0009B7038D012E37BF0292BCF6
:10A700000009B7055F5C92AF0009B7065C92AF0025
:10A7100009B707AE001272BB0006BF065FBF00B6E6
:10A720000092BD00055F5CB60192A700055CB60211
:10A7300092A700055CB60392A70005AC00A8E592BD
:10A74000BC0009B7015F5C92AF0009B7025C92AF31
:10A750000009B703AE001172BB0002BF02A6089247
:10A76000BD000192BC0009B7015F5C92AF0009B760
:10A77000025C92AF0009B703AE001672BB0002BFC5
:10A780000292BC00015F97BF025FBF0092BC00094C
:10A79000B7055F5C92AF0009B7065C92AF0009B7DE
:10A7A00007AE001272BB0006BF06B60092BD0005E0
:10A7B0005F5CB60192A700055CB60292A700055C3B
:10A7C000B60392A70005AC00A8E592BC0009B7014A
:10A7D0005F5C92AF0009B7025C92AF0009B703AEAD
:10A7E000001172BB0002BF02A60992BD000192BC1B
:10A7F0000009B7015F5C92AF0009B7025C92AF003D
:10A8000009B7035F5C72BB0002BF0292BC00015F2C
:10A8100097BF025FBF0092BC0009B7055F5C92AFB3
:10A820000009B7065C92AF0009B707AE001272BB11
:10A830000006BF06B60092BD00055F5CB60192A798
:10A8400000055CB60292A700055CB60392A700055E
:10A85000AC00A8E592BC0009B7015F5C92AF0009AB
:10A86000B7025C92AF0009B703AE001172BB0002E1
:10A87000BF02A60A92BD000192BC0009B7015F5C4D
:10A8800092AF0009B7025C92AF0009B703AE002592
:10A8900072BB0002BF0292BC00015F97BF025FBFA4
:10A8A0000092BC0009B7055F5C92AF0009B7065C77
:10A8B00092AF0009B707AE001272BB0006BF06B622
:10A8C0000092BD00055F5CB60192A700055CB60270
:10A8D00092A700055CB60392A7000520088D0085AD
:10A8E000818D00FF8F8D0084C0878D0084888D004E
:10A8F00085C2AE000B8D00858172BB0002BF029243
:10A90000BC0001B7055F5C92AF0001B7065C92AF77
:10A910000001B707AE000D72BB0006BF0692BC0077
:10A92000059590AE000191AF000597A30001273C6B
:10A93000AE000B8D00858172BB0002BF0292BC008D
:10A9400001B7055F5C92AF0001B7065C92AF0001F2
:10A95000B707AE000D72BB0006BF0692BC0005959E
:10A9600090AE000191AF0005975D2638AE000B8DCB
:10A970000085A872BB0006BF0692BC0005B7015F48
:10A980005C92AF0005B7025C92AF0005B7038D0182
:10A990002FB0A100270EBC005412AA02BD00541211
:10A9A000AC00AA53AE000B8D00858172BB0002BFC4
:10A9B0000292BC0001B7055F5C92AF0001B7065C74
:10A9C00092AF0001B707AE000D72BB0006BF069242
:10A9D000BC00059590AE000191AF0005975D26691A
:10A9E000AE000B8D0085A872BB0006BF0692BC00AE
:10A9F00005B7015F5C92AF0005B7025C92AF00053E
:10AA0000B7038D012FB0A100263FAE000B8D00854E
:10AA10008172BB0002BF0292BC0001B7055F5C926D
:10AA2000AF0001B7065C92AF0001B707AE00187225
:10AA3000BB0006BF0692BC0005A102260CBC005458
:10AA400012AA02BD005412200ABC005412A4FDBD7B
:10AA5000005412AE000B8D0085A872BB0006BF0625
:10AA600092BC0005B7015F5C92AF0005B7025C9233
:10AA7000AF0005B7038D012FCCA1002749AE000B15
:10AA80008D00858172BB0002BF0292BC0001B70538
:10AA90005F5C92AF0001B7065C92AF0001B707AEF2
:10AAA000001872BB0006BF0692BC0005A100261666
:10AAB000BC005413AA02BD005413BC00540FAA20BA
:10AAC000BD00540F2014BC005413A4FDBD0054134A
:10AAD000BC00540FA4DFBD00540FAE000B8D0085E9
:10AAE0008172BB0002BF0292BC0001B7055F5C929D
:10AAF000AF0001B7065C92AF0001B707AE00167257
:10AB0000BB0006BF0692BC0005A1002704AC00AB49
:10AB10009EAE000B8D0085A872BB0006BF0692BCDE
:10AB20000005B7015F5C92AF0005B7025C92AF0011
:10AB300005B7038D012FB0A100264BAE000B8D0091
:10AB4000858172BB0002BF0292BC0001B7055F5C49
:10AB500092AF0001B7065C92AF0001B707AE0018D4
:10AB600072BB0006BF0692BC0005A1022618BC00FD
:10AB70005410A47FBD005410BC005414A4F7BD00B1
:10AB80005414AC00AC25BC005410AA80BD00541075
:10AB9000BC005414A4F7BD005414AC00AC25AE00A6
:10ABA0000B8D0085A872BB0006BF0692BC0005B7DE
:10ABB000015F5C92AF0005B7025C92AF0005B7037E
:10ABC0008D012FB0A1002649AE000B8D008581724A
:10ABD000BB0002BF0292BC0001B7055F5C92AF00F0
:10ABE00001B7065C92AF0001B707AE001872BB0058
:10ABF00006BF0692BC0005A1022616BC005410A494
:10AC00007FBD005410BC005414A4F7BD00541420A0
:10AC100014BC005410A47FBD005410BC005414AAEE
:10AC200008BD005414AE000B8D0085A872BB000651
:10AC3000BF0692BC0005B7015F5C92AF0005B7028A
:10AC40005C92AF0005B7038D012FBEA100273FAE78
:10AC5000000B8D00858172BB0002BF0292BC000117
:10AC6000B7055F5C92AF0001B7065C92AF0001B719
:10AC700007AE001872BB0006BF0692BC0005A1001B
:10AC8000260CBC00540CAA02BD00540C200ABC00C7
:10AC9000540CA4FDBD00540CAE000B8D00858172D8
:10ACA000BB0002BF0292BC0001B7055F5C92AF001F
:10ACB00001B7065C92AF0001B707AE000272BB009D
:10ACC00006BF0692BC0005A100270CBC00540CAACC
:10ACD00008BD00540C200ABC00540CA4F7BD00545D
:10ACE0000CAE000B8D00858172BB0002BF0292BCCE
:10ACF0000001B7055F5C92AF0001B7065C92AF0040
:10AD000001B707AE000372BB0006BF0692BC000588
:10AD1000A100270CBC005410AA20BD005410200A2A
:10AD2000BC005410A4DFBD005410AE000B8D008594
:10AD30008172BB0002BF0292BC0001B7055F5C924A
:10AD4000AF0001B7065C92AF0001B707AE00047216
:10AD5000BB0006BF0692BC0005A100270CBC005436
:10AD60000DAA02BD00540D200ABC00540DA4FDBD67
:10AD700000540DAE000B8D00858172BB0002BF0236
:10AD800092BC0001B7055F5C92AF0001B7065C9210
:10AD9000AF0001B707AE000572BB0006BF0692BC4C
:10ADA0000005A100270CBC00540CAA80BD00540C67
:10ADB000200ABC00540CA47FBD00540CAE000B8DC7
:10ADC00000858172BB0002BF0292BC0001B7055F23
:10ADD0005C92AF0001B7065C92AF0001B70792BC6E
:10ADE0000005A100270CBC005419AA02BD0054198B
:10ADF000200ABC005419A4FDBD005419AE000B8DEF
:10AE00000085A872BB0006BF0692BC0005B7015FB3
:10AE10005C92AF0005B7025C92AF0005B7038D01ED
:10AE200018CAA100270CBC00540DAA04BD00540D83
:10AE3000200ABC00540DA4FBBD00540DAE000B8DC8
:10AE40000085A872BB0006BF0692BC0005B7015F73
:10AE50005C92AF0005B7025C92AF0005B7038D01AD
:10AE60002574A100270CBC005414AA10BD00541472
:10AE7000200ABC005414A4EFBD0054148D0084C0FB
:10AE8000878D0084888D0085C292BC0009B7015F60
:10AE90005C92AF0009B7025C92AF0009B703AE0045
:10AEA0001172BB0002BF0292BC00014D27444A262A
:10AEB00004AC00AF4DA0022604AC00AFB74A260494
:10AEC000AC00B0194A2604AC00B0744A2604AC00A9
:10AED000B0CF4A2604AC00B12A4A2604AC00B185A2
:10AEE0004A2604AC00B1FD4A2604AC00B272AC00A4
:10AEF000B2E692BC0009B7055F5C92AF0009B706E5
:10AF00005C92AF0009B707AE001272BB0006BF0625
:10AF100092BC0005B7005F5C92AF0005B7015C9280
:10AF2000AF0005B7025C92AF0005B703B603889285
:10AF3000BC0009B7015F5C92AF0009B7025C92AF39
:10AF40000009B703848D010D17AC00B2E692BC0076
:10AF500009B7055F5C92AF0009B7065C92AF0009C4
:10AF6000B707AE001272BB0006BF0692BC0005B761
:10AF7000005F5C92AF0005B7015C92AF0005B702BD
:10AF80005C92AF0005B70392BC0009B7055F5C9205
:10AF9000AF0009B7065C92AF0009B707AE000F72A9
:10AFA000BB0006BF06B60292BD00055F5CB6039209
:10AFB000A70005AC00B2E692BC0009B7055F5C9241
:10AFC000AF0009B7065C92AF0009B707AE00127276
:10AFD000BB0006BF0692BC0005B7005F5C92AF00E5
:10AFE00005B7015C92AF0005B7025C92AF0005B7F0
:10AFF0000392BC0009B7055F5C92AF0009B7065C1D
:10B0000092AF0009B707AE001872BB0006BF06B6C4
:10B010000392BD0005AC00B2E692BC0009B7055F23
:10B020005C92AF0009B7065C92AF0009B707AE00AB
:10B030001272BB0006BF0692BC0005B7005F5C92AF
:10B04000AF0005B7015C92AF0005B7025C92AF009C
:10B0500005B703B6038892BC0009B7015F5C92AFE5
:10B060000009B7025C92AF0009B703848D012F2A53
:10B07000AC00B2E692BC0009B7055F5C92AF000974
:10B08000B7065C92AF0009B707AE001272BB0006AC
:10B09000BF0692BC0005B7005F5C92AF0005B70128
:10B0A0005C92AF0005B7025C92AF0005B703B60330
:10B0B0008892BC0009B7015F5C92AF0009B7025CDF
:10B0C00092AF0009B703848D012F3CAC00B2E69229
:10B0D000BC0009B7055F5C92AF0009B7065C92AF90
:10B0E0000009B707AE001272BB0006BF0692BC0093
:10B0F00005B7005F5C92AF0005B7015C92AF000539
:10B10000B7025C92AF0005B703BE028992BC00098A
:10B11000B7015F5C92AF0009B7025C92AF0009B75C
:10B1200003858D0120C9AC00B2E692BC0009B705C9
:10B130005F5C92AF0009B7065C92AF0009B707AE3B
:10B14000001272BB0006BF0692BC0005B7005F5C30
:10B1500092AF0005B7015C92AF0005B7025C92AFF9
:10B160000005B703BE028992BC0009B7015F5C927B
:10B17000AF0009B7025C92AF0009B703858D0121CA
:10B1800029AC00B2E692BC0009B7015F5C92AF0047
:10B1900009B7025C92AF0009B703AE001272BB00A0
:10B1A00002BF0292BC0001B7045F5C92AF0001B71E
:10B1B000055C92AF0001B7065C92AF0001B707BE15
:10B1C00004A300002605BE06A300002706350100E3
:10B1D0000020023F0092BC0009B7015F5C92AF0003
:10B1E00009B7025C92AF0009B703AE001672BB004C
:10B1F00002BF02B60092BD0001AC00B2E692BC00F4
:10B2000009B7015F5C92AF0009B7025C92AF000919
:10B21000B703AE001272BB0002BF0292BC0001B7BE
:10B22000045F5C92AF0001B7055C92AF0001B70606
:10B230005C92AF0001B707BE04A300002605BE065E
:10B24000A3000027063501000020023F0092BC0049
:10B2500009B7015F5C92AF0009B7025C92AF0009C9
:10B26000B7035F5C72BB0002BF02B60092BD000173
:10B27000207492BC0009B7015F5C92AF0009B7026D
:10B280005C92AF0009B703AE001272BB0002BF02AE
:10B2900092BC0001B7045F5C92AF0001B7055C92FD
:10B2A000AF0001B7065C92AF0001B707BE04A30070
:10B2B000002605BE06A30000270635010000200277
:10B2C0003F0092BC0009B7015F5C92AF0009B70272
:10B2D0005C92AF0009B703AE002572BB0002BF024B
:10B2E000B60092BD000192BC0009B7015F5C92AF4D
:10B2F0000009B7025C92AF0009B7038D0120689284
:10B30000BC0009B7015F5C92AF0009B7025C92AF65
:10B310000009B7038D00E7568D00E235AE2710BF58
:10B32000025FBF008D0127678D01306D8D0084C0E5
:10B33000878D0084F78D0084FC52028D0085C2AE9B
:10B3400000058D00858172BB0002BF0292BC000126
:10B35000B708AE00078D00858172BB0002BF029264
:10B36000BC0001B700AE00068D00858172BB0002F3
:10B37000BF0292BC00018D012F601F01AE00098D3C
:10B3800000858172BB0002BF0292BC0001B700AE13
:10B3900000088D00858172BB0002BF0292BC0001D3
:10B3A0008D012F60BF0E3F0D3F0CB608A10427048E
:10B3B000AC00B55B1E015A273F5A27725A2604ACCF
:10B3C00000B4645A2604AC00B49E5A2604AC00B4FF
:10B3D000D85A2604AC00B4E65A2604AC00B4F45A99
:10B3E0002604AC00B5305A2604AC00B53E5A2604FB
:10B3F000AC00B54CAC00B7D4AE00168D0085A87279
:10B40000BB0006BF0692BC0005B7015F5C92AF00AF
:10B4100005B7025C92AF0005B7038D012DA28D0127
:10B4200027E98D0085818D010FFFAC00B7D4AE00F8
:10B43000168D0085A872BB0006BF0692BC0005B73A
:10B44000015F5C92AF0005B7025C92AF0005B703E5
:10B450008D012DA28D012E078D0085818D010FFF9D
:10B46000AC00B7D4AE00168D0085A872BB0006BF35
:10B470000692BC0005B7015F5C92AF0005B7025CA5
:10B4800092AF0005B7038D012DA28D012189BF0C5C
:10B49000BE0C8D0085818D010FFFAC00B7D4AE00CE
:10B4A000168D0085A872BB0006BF0692BC0005B7CA
:10B4B000015F5C92AF0005B7025C92AF0005B70375
:10B4C0008D012DA28D01194BBF0CBE0C8D00858105
:10B4D0008D010FFFAC00B7D4BE0C8D0085818D01AE
:10B4E0000FFFAC00B7D4BE0C8D0085818D010FFF1E
:10B4F000AC00B7D4AE00168D0085A872BB0006BFA5
:10B500000692BC0005B7015F5C92AF0005B7025C14
:10B5100092AF0005B7038D012DA292BC00018D01F1
:10B5200032B05F978D0085818D010FFFAC00B7D4DD
:10B53000BE0C8D0085818D010FFFAC00B7D45F5C20
:10B540008D0085818D010FFFAC00B7D4AE005E8DFC
:10B550000085818D010FFFAC00B7D4B608A1062786
:10B5600004AC00B7D41E015D273C5A27695A260453
:10B57000AC00B6061D00032604AC00B63E5A2604F5
:10B58000AC00B6D05A2604AC00B6D45A2604AC009F
:10B59000B6D81D00022604AC00B7855A2604AC00BC
:10B5A000B634AC00B7BAAE00168D0085A872BB00E9
:10B5B00006BF0692BC0005B7015F5C92AF0005B7FD
:10B5C000025C92AF0005B7038D012DA2BE0E8D0166
:10B5D0000272AC00B7BAAE00168D0085A872BB002F
:10B5E00006BF0692BC0005B7015F5C92AF0005B7CD
:10B5F000025C92AF0005B7038D012DA2BE0E8D0136
:10B600000B91AC00B7BABE0E89AE00168D0085A8AE
:10B6100072BB0006BF0692BC0005B7015F5C92AF2B
:10B620000005B7025C92AF0005B703858D00F89D59
:10B63000AC00B7BAA680BD0050D3AC00B7BAAE001C
:10B64000088D00858172BB0002BF0292BC00019090
:10B650005F9097AE000ABF00938D0130C789AE009E
:10B66000168D0085A872BB0006BF0692BC0005B708
:10B67000015F5C92AF0005B7025C92AF0005B703B3
:10B68000858D011FA4AE00098D00858172BB00026B
:10B69000BF0292BC0001905F9097AE000ABF00937A
:10B6A0008D0130C789AE00168D0085A872BB0006DB
:10B6B000BF0692BC0005B7015F5C92AF0005B70200
:10B6C0005C92AF0005B703858D012006AC00B7BAC8
:10B6D000AC00B7BAAC00B7BAAE00168D0085A87240
:10B6E000BB0006BF0692BC0005B7015F5C92AF00CD
:10B6F00005B7025C92AF0005B7038D012DA2AE0025
:10B700001872BB0002BF0292BC0001A1002737AE35
:10B7100000168D0085A872BB0006BF0692BC00050E
:10B72000B7015F5C92AF0005B7025C92AF0005B74E
:10B73000038D012DA2AE001872BB0002BF0292BCA5
:10B740000001A101263DAE00168D0085A872BB0048
:10B7500006BF0692BC0005B7015F5C92AF0005B75B
:10B76000025C92AF0005B7038D012DA2BE0E5D27CE
:10B7700004A60120014FAE001672BB0002BF029268
:10B78000BD00012035AE00168D0085A872BB0006F5
:10B79000BF0692BC0005B7015F5C92AF0005B7021F
:10B7A0005C92AF0005B7038D012DA2AE001872BBED
:10B7B0000002BF02B60F92BD0001AE000889AE00C4
:10B7C000048D0085A872BB0006BF06858D008581AB
:10B7D0008D010DD95B02AC00855A8D0084F78D0078
:10B7E00084FC5211C600704D2604AC00BC42C60059
:10B7F000586B0BAE00583F01BF028D012FDA6B0A68
:10B80000AE00583F01BF028D012FE86B09C6005AF8
:10B810006B08AE00583F01BF028D0124436B05AE9B
:10B8200000583F01BF028D012E071F06AE00583F92
:10B8300001BF028D0127E9BF0CA6646B04A6416B12
:10B8400003AE00583F01BF028D012E1F1F10AE0036
:10B85000583F01BF028D012E371F0E55006E000E9E
:10B86000B60EA101260635FF0008200435010008A8
:10B870001E0E130624061E0E1F06200A1E06131097
:10B8800024041E101F067B0AB70FB60EA101260462
:10B890007B09B70FA6055F01B60F026241B70A41E7
:10B8A0003C0A5FB60F978D0082D48D00817E3F00E9
:10B8B00000008D008598B6088D013116BF001E0668
:10B8C0008D0130C78D0082D48D0080B08D0082F252
:10B8D0001F013F00450F011E0172B000001F0C1E2A
:10B8E00001CF00D87B035F971CFFEC3F00450A01A6
:10B8F0008D0130C78D0082CD8D00817E3DCCCCCDB9
:10B900008D0085981E018D0082CD8D0080AA8D004E
:10B9100082F2CF00DA7B045F971CFFEC3F00450A00
:10B92000018D0130C78D0082CD8D00817E3DCCCC54
:10B93000CD8D0085981E018D0082CD8D0080AA8D51
:10B940000082F2CF00DC1E0CCF00DE7B03B700418B
:10B95000B60A41B600428D0082CD8D00817E3DCC7D
:10B96000CCCD8D0085981E018D0082CD8D0080AAE2
:10B970008D0082F2CF00E07B04B70041B60A41B6E9
:10B9800000428D0082CD8D00817E3DCCCCCD8D00DE
:10B9900085981E018D0082CD8D0080AA8D0082F2D7
:10B9A000CF00E23F093F0BB6088D013116BF00BE44
:10B9B0000C8D0130C7BF021E0CB3022506A601B7CD
:10B9C0000B201AB6088D013116BF00BE0C8D013058
:10B9D000C7130125043F0B20047B08B70BC600707A
:10B9E000A102262E3D0B2724AE00983F01BF028DF9
:10B9F000012FF6A102250DAE00983F01BF028D0177
:10BA00002FF62002A601B709AC00BB8D3F09AC00A0
:10BA1000BB8DC60070A1012704AC00BB8D7B054D1A
:10BA200027154A276F4A2604AC00BAED4A2604AC13
:10BA300000BB40AC00BB8DB6088D013116BF00BE07
:10BA40000C8D0130C7BF02CE00E2B3022506A6036B
:10BA5000B709203CB6088D013116BF00BE0C8D0120
:10BA600030C7BF02CE00E0B3022506A602B7092008
:10BA70001FB6088D013116BF00BE0C8D0130C7BF47
:10BA800002CE00DEB3022506A601B70920023F0957
:10BA9000AC00BB8DB6088D013116BF00BE0C8D0108
:10BAA00030C7BF02CE00E2B3022506A603B70920C5
:10BAB00038B6088D013116BF00BE0C8D0130C7BFEE
:10BAC00002CE00E0B3022506A602B709201BB60885
:10BAD0008D013116BF00BE0C8D0130C7C300D825C3
:10BAE000043F092004A601B709AC00BB8DB6088D40
:10BAF000013116BF00BE0C8D0130C7BF02CE00E27F
:10BB0000B3022506A603B7092034B6088D01311605
:10BB1000BF00BE0C8D0130C7C300D825043F0920EB
:10BB20001DB6088D013116BF00BE0C8D0130C7C394
:10BB300000DA2506A601B7092004A602B709204DA0
:10BB4000B6088D013116BF00BE0C8D0130C7C30091
:10BB5000D825043F092036B6088D013116BF00BE36
:10BB60000C8D0130C7C300DA2506A601B709201DD8
:10BB7000B6088D013116BF00BE0C8D0130C7C30061
:10BB8000DC2506A602B7092004A603B709B60BA157
:10BB900001260220023F090D0B27043F093F0BAE8F
:10BBA00000583F01BF028D012574A100270BC6007C
:10BBB00070A10126043F093F0BAE00583F01BF02B0
:10BBC0008D012FB0A100265DC6005A4D2708350112
:10BBD0000071725F005AC600714D273BAE000489A8
:10BBE000AE00628D0131BA858D011BC4BE00A30079
:10BBF000002605BE02A307D1250E4FAE00583F0117
:10BC0000BF028D010088203A7B05AE00583F01BF7E
:10BC1000028D010088202B4FAE00583F01BF028DDE
:10BC2000010088201D3D0B2704A60120014FC700FD
:10BC30005AB609AE00583F01BF028D010088725FFD
:10BC400000715B11AC00855AB7013D002604AC00C1
:10BC5000BFE2BC005417A4EFBD005417BC0054143D
:10BC6000A4FEBD005414BC005410A4EFBD00541039
:10BC7000BC00540DA4FEBD00540DBC005417A4F725
:10BC8000BD005417BC005413A47FBD005413BC0066
:10BC90005410A4F7BD005410B6014D276D4A260478
:10BCA000AC00BD4A4A2604AC00BD624A2604AC0082
:10BCB000BD984A2604AC00BDCE4A2604AC00BDFAAD
:10BCC0004A2604AC00BE304A2604AC00BE704A26A8
:10BCD00004AC00BE924A2604AC00BEDC4A2604AC8A
:10BCE00000BF1CA03B2604AC00BF2A4A2604AC00BF
:10BCF000BFB6A0022604AC00BF82A0042604AC009C
:10BD0000BF60A0032704AC00BFE0BC005417AA101A
:10BD1000BD005417BC005414AA01BD005414BC004B
:10BD20005410AA10BD005410BC00540DAA01BD004F
:10BD3000540DBC005417AA08BD005417BC00541081
:10BD4000AA08BD005410AC00C028BC005417AA08B3
:10BD5000BD005417BC005410AA08BD005410AC001C
:10BD6000C028BC005417AA10BD005417BC005410C2
:10BD7000AA10BD005410BC00540DAA01BD00540D02
:10BD8000BC005417AA08BD005417BC005413AA8065
:10BD9000BD005413AC00C028BC005417AA10BD004D
:10BDA0005417BC00540DAA01BD00540DBC0054171B
:10BDB000AA08BD005417BC005413AA80BD00541338
:10BDC000BC005410AA08BD005410AC00C028BC0030
:10BDD0005414AA01BD005414BC005417AA08BD0095
:10BDE0005417BC005413AA80BD005413BC00541057
:10BDF000AA08BD005410AC00C028BC005417AA10FB
:10BE0000BD005417BC005414AA01BD005414BC005A
:10BE1000540DAA01BD00540DBC005413AA80BD00EE
:10BE20005413BC005410AA08BD005410AC00C02824
:10BE3000BC005417AA10BD005417BC005414AA012A
:10BE4000BD005414BC005410AA10BD005410BC0016
:10BE5000540DAA01BD00540DBC005413AA80BD00AE
:10BE60005413BC005410AA08BD005410AC00C028E4
:10BE7000BC005417AA10BD005417BC005417AA08E0
:10BE8000BD005417BC005410AA08BD005410AC00EB
:10BE9000C028BC005417AA10BD005417BC0054148D
:10BEA000AA01BD005414BC005410AA10BD005410C7
:10BEB000BC00540DAA01BD00540DBC005417AA08C3
:10BEC000BD005417BC005413AA80BD005413BC001D
:10BED0005410AA08BD005410AC00C028BC00541770
:10BEE000AA10BD005417BC005414AA01BD0054147C
:10BEF000BC00540DAA01BD00540DBC005417AA0883
:10BF0000BD005417BC005413AA80BD005413BC00DC
:10BF10005410AA08BD005410AC00C028BC00541333
:10BF2000AA80BD005413AC00C028BC005417AA104E
:10BF3000BD005417BC005414AA01BD005414BC0029
:10BF40005410AA10BD005410BC00540DAA01BD002D
:10BF5000540DBC005413AA80BD005413AC00C0287B
:10BF6000BC005414AA01BD005414BC005410AA1003
:10BF7000BD005410BC00540DAA01BD00540DAC000E
:10BF8000C028BC005414AA01BD005414BC005410B5
:10BF9000AA10BD005410BC005417AA08BD005417C5
:10BFA000BC005413AA80BD005413BC005410AA084E
:10BFB000BD0054102072BC005417AA10BD005417C5
:10BFC000BC005414AA01BD005414BC005410AA10A3
:10BFD000BD005410BC005413AA80BD005413204867
:10BFE0002046BC005417A4EFBD005417BC005414E5
:10BFF000A4FEBD005414BC005410A4EFBD005410A6
:10C00000BC00540DA4FEBD00540DBC005417A4F791
:10C01000BD005417BC005413A47FBD005413BC00D2
:10C020005410A4F7BD005410878D0084888D0085BE
:10C03000C2AE000B8D00858172BB0002BF0292BCB4
:10C040000001B7055F5C92AF0001B7065C92AF00DC
:10C0500001B707AE000D72BB0006BF0692BC00051B
:10C060009590AE000191AF0005975D2704AC00C22A
:10C07000A8BC005410A4BFBD005410AE000B8D002E
:10C0800085A872BB0006BF0692BC0005B7015F5CC5
:10C0900092AF0005B7025C92AF0005B7038D012F88
:10C0A000B0A1002704AC00C171AE000B8D008581EA
:10C0B00072BB0002BF0292BC0001B7055F5C92AF89
:10C0C0000001B7065C92AF0001B707AE001872BB63
:10C0D0000006BF0692BC0005A1002733AE000B8D01
:10C0E00000858172BB0002BF0292BC0001B7055FF0
:10C0F0005C92AF0001B7065C92AF0001B707AE00DB
:10C100001872BB0006BF0692BC0005A1012662AEF4
:10C1100000088D00858172BB0002BF0292BC000145
:10C12000A1002704AC00C3FFAE00088D008581721A
:10C13000BB0002BF02A60192BD000135010000A6AE
:10C140004F8D00BC4835010000A6468D00C4043563
:10C15000010000A6468D00C73ABC00540CA4DFBD08
:10C1600000540CBC005417A4BFBD005417AC00C34E
:10C17000FFBC00540CAA20BD00540CBC005417AAEC
:10C1800040BD005417AE00088D00858172BB0002CF
:10C19000BF0292BC0001A100273CAE00088D0085C3
:10C1A0008172BB0002BF024F92BD0001AE000B8D39
:10C1B0000085A872BB0006BF0692BC0005B7015FF0
:10C1C0005C92AF0005B7025C92AF0005B7038D012A
:10C1D00027E98D01269AAE000689AE000B8D0085F9
:10C1E0008172BB0002BF0292BC0001B7055F5C9286
:10C1F000AF0001B7065C92AF0001B707AE000A724C
:10C20000BB0006BF0692BC0005B7015F5C92AF00A1
:10C2100005B7025C92AF0005B703858D011BC4BE54
:10C2200000A300002605BE02A301F52404AC00C350
:10C23000FFAE000B8D0085A872BB0006BF0692BC46
:10C240000005B7015F5C92AF0005B7025C92AF00DA
:10C2500005B7038D0127E98D01269AAE000689AE48
:10C26000000B8D00858172BB0002BF0292BC0001F1
:10C27000B7055F5C92AF0001B7065C92AF0001B7F3
:10C2800007AE000A72BB0006BF0692BC0005B701EC
:10C290005F5C92AF0005B7025C92AF0005B7038503
:10C2A0008D011D25AC00C3FFAE000B8D0085817292
:10C2B000BB0002BF0292BC0001B7055F5C92AF00F9
:10C2C00001B7065C92AF0001B707AE000D72BB006C
:10C2D00006BF0692BC00059590AE000191AF000527
:10C2E00097A300012704AC00C3FFBC005417A4BFF0
:10C2F000BD005417AE000B8D0085A872BB0006BFB1
:10C300000692BC0005B7015F5C92AF0005B7025C06
:10C3100092AF0005B7038D012E07BF04AE00098D53
:10C3200000858172BB0002BF0292BC00019590AEF5
:10C33000000191AF000197B3042604AC00C3FFBC19
:10C34000005410AA40BD005410AE000B8D0085A80B
:10C3500072BB0006BF0692BC0005B7015F5C92AFDE
:10C360000005B7025C92AF0005B7038D012E078D63
:10C3700001269AAE000689AE000B8D00858172BB46
:10C380000002BF0292BC0001B7055F5C92AF0001E2
:10C39000B7065C92AF0001B707AE000A72BB000699
:10C3A000BF0692BC0005B7015F5C92AF0005B70203
:10C3B0005C92AF0005B703858D011D25AE000B8D86
:10C3C0000085A872BB0006BF0692BC0005B7015FDE
:10C3D0005C92AF0005B7025C92AF0005B7038D0118
:10C3E0002E079093AE00098D00858172BB0002BFBD
:10C3F00002909E92BD00015F5C909F92A700018D0C
:10C400000084C087B7013D002604AC00C711BC0002
:10C410005417A4FBBD005417BC005413A4BFBD00A7
:10C420005413BC005410A4FBBD005410BC00540CA9
:10C43000A4BFBD00540CBC005417A4FDBD0054178C
:10C44000BC005413A4DFBD005413BC005410A4FD61
:10C45000BD005410B6014D275A4A2604AC00C4F35F
:10C460004A2604AC00C50B4A2604AC00C5414A2646
:10C4700004AC00C5774A2604AC00C5A34A2604AC28
:10C4800000C5D94A2604AC00C6194A2604AC00C629
:10C490003B4A2604AC00C6854A2604AC00C6C3A0AD
:10C4A0003C2604AC00C6E5A0032604AC00C6CFAC15
:10C4B00000C70FBC005417AA04BD005417BC005499
:10C4C00013AA40BD005413BC005410AA04BD00546C
:10C4D00010BC00540CAA40BD00540CBC005417AA58
:10C4E00002BD005417BC005410AA02BD005410AC89
:10C4F00000C739BC005417AA02BD005417BC005431
:10C5000010AA02BD005410AC00C739BC005417AAD1
:10C5100004BD005417BC005410AA04BD005410BC44
:10C5200000540CAA40BD00540CBC005417AA02BD14
:10C53000005417BC005413AA20BD005413AC00C70C
:10C5400039BC005417AA04BD005417BC00540CAAEF
:10C5500040BD00540CBC005417AA02BD005417BCC7
:10C56000005413AA20BD005413BC005410AA02BDED
:10C57000005410AC00C739BC005413AA40BD00548D
:10C5800013BC005417AA02BD005417BC005413AAD0
:10C5900020BD005413BC005410AA02BD005410ACBE
:10C5A00000C739BC005417AA04BD005417BC00547E
:10C5B00013AA40BD005413BC00540CAA40BD005443
:10C5C0000CBC005413AA20BD005413BC005410AA84
:10C5D00002BD005410AC00C739BC005417AA04BDFA
:10C5E000005417BC005413AA40BD005413BC00549F
:10C5F00010AA04BD005410BC00540CAA40BD005445
:10C600000CBC005413AA20BD005413BC005410AA43
:10C6100002BD005410AC00C739BC005417AA04BDB9
:10C62000005417BC005417AA02BD005417BC005494
:10C6300010AA02BD005410AC00C739BC005417AAA0
:10C6400004BD005417BC005413AA40BD005413BCD1
:10C65000005410AA04BD005410BC00540CAA40BDE4
:10C6600000540CBC005417AA02BD005417BC00545F
:10C6700013AA20BD005413BC005410AA02BD0054DC
:10C6800010AC00C739BC005417AA04BD005417BC35
:10C69000005413AA40BD005413BC00540CAA40BD62
:10C6A00000540CBC005417AA02BD005417BC00541F
:10C6B00013AA20BD005413BC005410AA02BD00549C
:10C6C000102076BC005413AA20BD005413206ABC6D
:10C6D000005413AA40BD005413BC005410AA04BD5A
:10C6E0000054102054BC005417AA04BD005417BCB9
:10C6F000005413AA40BD005413BC005410AA04BD3A
:10C70000005410BC005413AA20BD005413202A204A
:10C7100028BC00540DA4F9BD00540DBC005410A455
:10C720009FBD005410BC005414A4F9BD005414BCA7
:10C73000005417A4BFBD00541787B7013D0026045D
:10C74000AC00CA29BC005417A4FEBD005417BC009D
:10C750005413A4EFBD005413BC005410A4FEBD003C
:10C760005410BC00540CA4EFBD00540CBC00541673
:10C77000A47FBD005416BC005413A4F7BD0054138D
:10C78000BC00540FA47FBD00540FB6014D27524A80
:10C790002604AC00C8214A2604AC00C8394A260445
:10C7A000AC00C86F4A2604AC00C8A54A2604AC00F9
:10C7B000C8D14A2604AC00C9074A2604AC00C947C0
:10C7C0004A2604AC00C9694A2604AC00C9B34A260B
:10C7D00004AC00C9F1A03C2604AC00C9FDAC00CA01
:10C7E00027BC005417AA01BD005417BC005413AA5B
:10C7F00010BD005413BC005410AA01BD005410BC5D
:10C8000000540CAA10BD00540CBC005416AA80BDE4
:10C81000005416BC00540FAA80BD00540FAC00CACF
:10C820006FBC005416AA80BD005416BC00540FAA59
:10C8300080BD00540FAC00CA6FBC005417AA01BDE4
:10C84000005417BC005410AA01BD005410BC005481
:10C850000CAA10BD00540CBC005416AA80BD005494
:10C8600016BC005413AA08BD005413AC00CA6FBC18
:10C87000005417AA01BD005417BC00540CAA10BDE7
:10C8800000540CBC005416AA80BD005416BC0054C1
:10C8900013AA08BD005413BC00540FAA80BD005455
:10C8A0000FAC00CA6FBC005413AA10BD005413BCD7
:10C8B000005416AA80BD005416BC005413AA08BD2B
:10C8C000005413BC00540FAA80BD00540FAC00CA22
:10C8D0006FBC005417AA01BD005417BC005413AA22
:10C8E00010BD005413BC00540CAA10BD00540CBC65
:10C8F000005413AA08BD005413BC00540FAA80BDF5
:10C9000000540FAC00CA6FBC005417AA01BD0054FC
:10C9100017BC005413AA10BD005413BC005410AA35
:10C9200001BD005410BC00540CAA10BD00540CBC36
:10C93000005413AA08BD005413BC00540FAA80BDB4
:10C9400000540FAC00CA6FBC005417AA01BD0054BC
:10C9500017BC005416AA80BD005416BC00540FAA80
:10C9600080BD00540FAC00CA6FBC005417AA01BDB3
:10C97000005417BC005413AA10BD005413BC00543B
:10C9800010AA01BD005410BC00540CAA10BD0054E4
:10C990000CBC005416AA80BD005416BC005413AA47
:10C9A00008BD005413BC00540FAA80BD00540FAC46
:10C9B00000CA6FBC005417AA01BD005417BC005434
:10C9C00013AA10BD005413BC00540CAA10BD00548F
:10C9D0000CBC005416AA80BD005416BC005413AA07
:10C9E00008BD005413BC00540FAA80BD00540F2092
:10C9F0007EBC005413AA08BD0054132072BC00541E
:10CA000017AA01BD005417BC005413AA10BD00544E
:10CA100013BC005410AA01BD005410BC005413AA4A
:10CA200008BD00541320482046BC005417A4FBBD89
:10CA3000005417BC005413A4BFBD005413BC0054D1
:10CA400010A4FBBD005410BC00540CA4BFBD005486
:10CA50000CBC005417A4FDBD005417BC005413A413
:10CA6000DFBD005413BC005410A4FDBD005410875A
:10CA70008D0084888D0085C2AE000D8D0085817289
:10CA8000BB0002BF0292BC00019590AE000191AFC5
:10CA90000001975D2666AE000589AE000A8D00850F
:10CAA000A872BB0006BF0692BC0005B7015F5C928E
:10CAB000AF0005B7025C92AF0005B703858D011B7F
:10CAC000C4BE00A300002605BE02A301F525108DFB
:10CAD0000085818D0107A98D0085818D012958AEC2
:10CAE00000258D00858172BB0002BF0292BC00014F
:10CAF000A10027088D0085818D00DF628D00858172
:10CB00008D012574A1002604AC00CBD6AE00188D93
:10CB100000858172BB0002BF0292BC0001A1002708
:10CB200019AE00188D00858172BB0002BF0292BC55
:10CB30000001A1012704AC00CC01AE025535000074
:10CB4000013553000235F000038D013058AE000D61
:10CB500089AE000A8D0085A872BB0006BF0692BC94
:10CB60000005B7015F5C92AF0005B7025C92AF00B1
:10CB700005B703858D011BC4BE00A300002605BEBA
:10CB800002A303E9257BAE00028D00858172BB0004
:10CB900002BF024F92BD0001AE00038D008581727D
:10CBA000BB0002BF024F92BD0001AE00048D0085A4
:10CBB0008172BB0002BF024F92BD0001AE00058D25
:10CBC00000858172BB0002BF024F92BD0001A680AA
:10CBD000BD0050D3202BAE000D89AE000A8D00851C
:10CBE000A872BB0006BF0692BC0005B7015F5C924D
:10CBF000AF0005B7025C92AF0005B703858D011D3C
:10CC000025AE00188D00858172BB0002BF0292BC68
:10CC10000001A1002604AC00CD7DAE000A89AE0063
:10CC20000A8D0085A872BB0006BF0692BC0005B73E
:10CC3000015F5C92AF0005B7025C92AF0005B703DD
:10CC4000858D011BC4BE00A300002605BE02A30102
:10CC5000F52404AC00CD7DAE000A89AE000A8D003B
:10CC600085A872BB0006BF0692BC0005B7015F5CD9
:10CC700092AF0005B7025C92AF0005B703858D0146
:10CC80001D25AE00338D00858172BB0002BF02926C
:10CC9000BC0001B7045F5C92AF0001B705AE003184
:10CCA0008D00858172BB0002BF0292BC000195908D
:10CCB000AE000191AF000197B304253EAE00318D67
:10CCC00000858172BB0002BF0292BC0001B7045F05
:10CCD0005C92AF0001B705AE00358D00858172BB57
:10CCE0000002BF0292BC00019590AE000191AF001E
:10CCF0000197B3042504AC00CD7DAE00168D0085F0
:10CD00008172BB0002BF0292BC0001A1002638AEB6
:10CD100000338D00858172BB0002BF0292BC00010E
:10CD200090955F5C92AF00019097AE00318D0085C9
:10CD30008172BB0002BF02909E92BD00015F5C90B9
:10CD40009F92A700012036AE00358D00858172BB11
:10CD50000002BF0292BC000190955F5C92AF00019F
:10CD60009097AE00318D00858172BB0002BF0290AA
:10CD70009E92BD00015F5C909F92A700018D008490
:10CD8000C087B7013D002604AC00D03FBC0054185A
:10CD9000A4DFBD005418BC005415A4FDBD005415FB
:10CDA000BC005411A4DFBD005411BC00540EA4FDFE
:10CDB000BD00540EBC005421A4FEBD005421BC0093
:10CDC000541FA4FEBD00541FBC00541DA4FEBD0092
:10CDD000541DB6014D274A4A2604AC00CE614A26AE
:10CDE00004AC00CE794A2604AC00CEAF4A2604AC8F
:10CDF00000CEE54A2604AC00CF114A2604AC00CF91
:10CE0000474A2604AC00CF874A2604AC00CFA94A83
:10CE10002604AC00CFF34A2604AC00D031AC00D0DD
:10CE20003DBC005418AA20BD005418BC005415AADB
:10CE300002BD005415BC005411AA20BD005411BC01
:10CE400000540EAA02BD00540EBC005421AA01BD1C
:10CE5000005421BC00541DAA01BD00541DAC00D0DB
:10CE600085BC005421AA01BD005421BC00541DAA58
:10CE700001BD00541DAC00D085BC005418AA20BDD3
:10CE8000005418BC005411AA20BD005411BC005419
:10CE90000EAA02BD00540EBC005421AA01BD0054CC
:10CEA00021BC00541FAA01BD00541FAC00D085BC9A
:10CEB000005418AA20BD005418BC00540EAA02BD8C
:10CEC00000540EBC005421AA01BD005421BC0054E2
:10CED0001FAA01BD00541FBC00541DAA01BD00546F
:10CEE0001DAC00D085BC005415AA02BD005415BC71
:10CEF000005421AA01BD005421BC00541FAA01BD49
:10CF000000541FBC00541DAA01BD00541DAC00D02C
:10CF100085BC005418AA20BD005418BC005415AAA2
:10CF200002BD005415BC00540EAA02BD00540EBC34
:10CF300000541FAA01BD00541FBC00541DAA01BD0E
:10CF400000541DAC00D085BC005418AA20BD00546C
:10CF500018BC005415AA02BD005415BC005411AAF7
:10CF600020BD005411BC00540EAA02BD00540EBCDA
:10CF700000541FAA01BD00541FBC00541DAA01BDCE
:10CF800000541DAC00D085BC005418AA20BD00542C
:10CF900018BC005421AA01BD005421BC00541DAA94
:10CFA00001BD00541DAC00D085BC005418AA20BDA2
:10CFB000005418BC005415AA02BD005415BC0054FE
:10CFC00011AA20BD005411BC00540EAA02BD005489
:10CFD0000EBC005421AA01BD005421BC00541FAA5C
:10CFE00001BD00541FBC00541DAA01BD00541DAC5E
:10CFF00000D085BC005418AA20BD005418BC0054B1
:10D0000015AA02BD005415BC00540EAA02BD00545E
:10D010000EBC005421AA01BD005421BC00541FAA1B
:10D0200001BD00541FBC00541DAA01BD00541D20A9
:10D0300054BC00541FAA01BD00541F20482046BC08
:10D04000005418A4DFBD005418BC005415A4FDBD45
:10D05000005415BC005411A4DFBD005411BC005491
:10D060000EA4FDBD00540EBC005421A4FEBD00540E
:10D0700021BC00541FA4FEBD00541FBC00541DA4BD
:10D08000FEBD00541D87B7013D002604AC00D3430C
:10D09000BC005421A4FDBD005421BC00541FA4FDBC
:10D0A000BD00541FBC00541DA4FDBD00541DBC0098
:10D0B000541BA4FDBD00541BBC005421A4FBBD00A7
:10D0C0005421BC00541FA4FBBD00541FBC00541DC0
:10D0D000A4FBBD00541DB6014D274A4A2604AC00EE
:10D0E000D1654A2604AC00D17D4A2604AC00D1B3F8
:10D0F0004A2604AC00D1E94A2604AC00D2154A26DF
:10D1000004AC00D24B4A2604AC00D28B4A2604ACB5
:10D1100000D2AD4A2604AC00D2F74A2604AC00D3B4
:10D1200035AC00D341BC005421AA02BD005421BC3F
:10D1300000541FAA02BD00541FBC00541DAA02BD0A
:10D1400000541DBC00541BAA02BD00541BBC00545B
:10D1500021AA04BD005421BC00541DAA04BD0054E2
:10D160001DAC00D389BC005421AA04BD005421BCCD
:10D1700000541DAA04BD00541DAC00D389BC00544A
:10D1800021AA02BD005421BC00541DAA02BD0054B6
:10D190001DBC00541BAA02BD00541BBC005421AA94
:10D1A00004BD005421BC00541FAA04BD00541FAC90
:10D1B00000D389BC005421AA02BD005421BC0054F4
:10D1C0001BAA02BD00541BBC005421AA04BD00547C
:10D1D00021BC00541FAA04BD00541FBC00541DAA4A
:10D1E00004BD00541DAC00D389BC00541FAA02BD6D
:10D1F00000541FBC005421AA04BD005421BC00549B
:10D200001FAA04BD00541FBC00541DAA04BD005435
:10D210001DAC00D389BC005421AA02BD005421BC1E
:10D2200000541FAA02BD00541FBC00541BAA02BD1B
:10D2300000541BBC00541FAA04BD00541FBC005462
:10D240001DAA04BD00541DAC00D389BC005421AA02
:10D2500002BD005421BC00541FAA02BD00541FBCD3
:10D2600000541DAA02BD00541DBC00541BAA02BDDF
:10D2700000541BBC00541FAA04BD00541FBC005422
:10D280001DAA04BD00541DAC00D389BC005421AAC2
:10D2900002BD005421BC005421AA04BD005421BC8D
:10D2A00000541DAA04BD00541DAC00D389BC005419
:10D2B00021AA02BD005421BC00541FAA02BD005483
:10D2C0001FBC00541DAA02BD00541DBC00541BAA63
:10D2D00002BD00541BBC005421AA04BD005421BC53
:10D2E00000541FAA04BD00541FBC00541DAA04BD55
:10D2F00000541DAC00D389BC005421AA02BD0054C7
:10D3000021BC00541FAA02BD00541FBC00541BAA1C
:10D3100002BD00541BBC005421AA04BD005421BC12
:10D3200000541FAA04BD00541FBC00541DAA04BD14
:10D3300000541D2054BC00541FAA04BD00541F20DB
:10D34000482046BC005421A4FDBD005421BC00541B
:10D350001FA4FDBD00541FBC00541DA4FDBD0054FE
:10D360001DBC00541BA4FDBD00541BBC005421A4D3
:10D37000FBBD005421BC00541FA4FBBD00541FBCC6
:10D3800000541DA4FBBD00541D87B7013D002604B9
:10D39000AC00D647BC005421A4F7BD005421BC000A
:10D3A0005418A4BFBD005418BC00541FA4F7BD00FE
:10D3B000541FBC005415A4FBBD005415BC00541DE3
:10D3C000A4F7BD00541DBC005411A4BFBD005411EE
:10D3D000BC00541BA4F7BD00541BB6014D274A4A9C
:10D3E0002604AC00D4694A2604AC00D4814A260441
:10D3F000AC00D4B74A2604AC00D4ED4A2604AC00F5
:10D40000D5194A2604AC00D54F4A2604AC00D58F66
:10D410004A2604AC00D5B14A2604AC00D5FB4A2606
:10D4200004AC00D639AC00D645BC005421AA08BDD6
:10D43000005421BC005418AA40BD005418BC00542C
:10D440001FAA08BD00541FBC00541DAA08BD0054EB
:10D450001DBC005411AA40BD005411BC00541BAAAD
:10D4600008BD00541BAC00D68DBC005418AA40BDAA
:10D47000005418BC005411AA40BD005411AC00D691
:10D480008DBC005421AA08BD005421BC005418AA28
:10D4900040BD005418BC005415AA04BD005415BC6E
:10D4A00000541DAA08BD00541DBC00541BAA08BD91
:10D4B00000541BAC00D68DBC005421AA08BD0054FA
:10D4C00021BC005418AA40BD005418BC005415AA31
:10D4D00004BD005415BC005411AA40BD005411BC39
:10D4E00000541BAA08BD00541BAC00D68DBC0054D0
:10D4F00018AA40BD005418BC00541FAA08BD00540F
:10D500001FBC005415AA04BD005415BC005411AA38
:10D5100040BD005411AC00D68DBC005421AA08BDFA
:10D52000005421BC00541FAA08BD00541FBC005465
:10D5300015AA04BD005415BC005411AA40BD0054E6
:10D5400011BC00541BAA08BD00541BAC00D68DBCF6
:10D55000005421AA08BD005421BC00541FAA08BDD4
:10D5600000541FBC005415AA04BD005415BC00543F
:10D570001DAA08BD00541DBC005411AA40BD005492
:10D5800011BC00541BAA08BD00541BAC00D68DBCB6
:10D59000005421AA08BD005421BC005418AA40BD63
:10D5A000005418BC005411AA40BD005411AC00D660
:10D5B0008DBC005421AA08BD005421BC005418AAF7
:10D5C00040BD005418BC00541FAA08BD00541FBC25
:10D5D000005415AA04BD005415BC00541DAA08BD72
:10D5E00000541DBC005411AA40BD005411BC00548D
:10D5F0001BAA08BD00541BAC00D68DBC005421AA48
:10D6000008BD005421BC005418AA40BD005418BCE9
:10D6100000541FAA08BD00541FBC005415AA04BD25
:10D62000005415BC005411AA40BD005411BC005454
:10D630001BAA08BD00541B2054BC005415AA04BDED
:10D6400000541520482046BC005421A4F7BD0054C6
:10D6500021BC005418A4BFBD005418BC00541FA422
:10D66000F7BD00541FBC005415A4FBBD005415BCED
:10D6700000541DA4F7BD00541DBC005411A4BFBD2F
:10D68000005411BC00541BA4F7BD00541B87B70104
:10D690003D002604AC00D94BBC005418A47FBD004B
:10D6A0005418BC005419A4FEBD005419BC005415F4
:10D6B000A4F7BD005415BC005415A4EFBD005415CB
:10D6C000BC005411A47FBD005411BC005412A4FE30
:10D6D000BD005412BC00540EA4FBBD00540EB60194
:10D6E0004D274A4A2604AC00D76D4A2604AC00D721
:10D6F000854A2604AC00D7BB4A2604AC00D7F14AC1
:10D700002604AC00D81D4A2604AC00D8534A26048F
:10D71000AC00D8934A2604AC00D8B54A2604AC0025
:10D72000D8FF4A2604AC00D93DAC00D949BC00540E
:10D7300018AA80BD005418BC005419AA01BD005499
:10D7400019BC005415AA08BD005415BC005411AAF8
:10D7500080BD005411BC005412AA01BD005412BC7B
:10D7600000540EAA08BD00540EAC00D991BC005460
:10D7700019AA01BD005419BC005412AA01BD0054DD
:10D7800012AC00D991BC005418AA80BD005418BC3A
:10D79000005419AA01BD005419BC005415AA10BDAB
:10D7A000005415BC005411AA80BD005411BC005493
:10D7B0000EAA08BD00540EAC00D991BC005418AAA2
:10D7C00080BD005418BC005419AA01BD005419BCF6
:10D7D000005415AA10BD005415BC005412AA01BD76
:10D7E000005412BC00540EAA08BD00540EAC00D95F
:10D7F00091BC005419AA01BD005419BC005415AACB
:10D8000008BD005415BC005415AA10BD005415BC29
:10D81000005412AA01BD005412AC00D991BC0054AE
:10D8200018AA80BD005418BC005415AA08BD0054A5
:10D8300015BC005415AA10BD005415BC005412AA02
:10D8400001BD005412BC00540EAA08BD00540EAC19
:10D8500000D991BC005418AA80BD005418BC0054D3
:10D8600015AA08BD005415BC005415AA10BD0054DB
:10D8700015BC005411AA80BD005411BC005412AA5A
:10D8800001BD005412BC00540EAA08BD00540EACD9
:10D8900000D991BC005418AA80BD005418BC005493
:10D8A00019AA01BD005419BC005412AA01BD0054AC
:10D8B00012AC00D991BC005418AA80BD005418BC09
:10D8C000005419AA01BD005419BC005415AA08BD82
:10D8D000005415BC005415AA10BD005415BC0054CA
:10D8E00011AA80BD005411BC005412AA01BD0054FD
:10D8F00012BC00540EAA08BD00540EAC00D991BC55
:10D90000005418AA80BD005418BC005419AA01BDC7
:10D91000005419BC005415AA08BD005415BC00548D
:10D9200015AA10BD005415BC005412AA01BD005424
:10D9300012BC00540EAA08BD00540E2054BC005462
:10D9400015AA10BD00541520482046BC005418A448
:10D950007FBD005418BC005419A4FEBD005419BC6E
:10D96000005415A4F7BD005415BC005415A4EFBD18
:10D97000005415BC005411A47FBD005411BC0054C8
:10D9800012A4FEBD005412BC00540EA4F7BD0054F6
:10D990000E878D0084883B000D8D0085C25FBF001F
:10D9A0005CBF028D012C23A1002704A60120014F9A
:10D9B000AE00028D00858172BB0002BF0292BD00E5
:10D9C000015FBF005C5CBF028D012C23A100270416
:10D9D000A60120014FAE00038D00858172BB0002BD
:10D9E000BF0292BD0001AE0003BF025FBF008D0108
:10D9F0002C23A1002704A60120014FAE00048D00B6
:10DA0000858172BB0002BF0292BD0001AE0004BF5F
:10DA1000025FBF008D012C23A1002704A601200175
:10DA20004FAE00058D00858172BB0002BF0292BD22
:10DA30000001AE0005BF025FBF008D012C23A100D5
:10DA40002704A60120014FAE00268D00858172BB00
:10DA50000002BF0292BD0001AE00268D00858172DA
:10DA6000BB0002BF0292BC0001AE001E8D0085818A
:10DA700072BB0002BF0292BD0001AE0006BF025F92
:10DA8000BF008D012C23A1002704A60120014FAE69
:10DA900000278D00858172BB0002BF0292BD00018C
:10DAA000AE0007BF025FBF008D012C23A100270439
:10DAB000A60120014FAE00288D00858172BB0002B7
:10DAC000BF0292BD00018D0085818D0113C4B70D89
:10DAD0003D0D2721AE002F8D00858172BB0002BF56
