:100000000C9462000C9413090C94EC080C948A0074
:100010000C948A000C948A000C948A000C948A0038
:100020000C948A000C948A000C948A000C948A0028
:100030000C948A000C948A000C948A000C948A0018
:100040000C94A2080C948A000C9460090C943A0950
:100050000C948A000C948A000C948A000C948A00F8
:100060000C948A000C948A000000000024002700F1
:100070002A0000000000250028002B0000000000DE
:1000800023002600290004040404040404040202DA
:100090000202020203030303030301020408102007
:1000A0004080010204081020010204081020000012
:1000B0000008000201000003040700000000000027
:1000C0000000C00A11241FBECFEFD8E0DEBFCDBFB5
:1000D00011E0A0E0B1E0E8EDF6E202C005900D927B
:1000E000A234B107D9F722E0A2E4B1E001C01D9229
:1000F000AD3BB207E1F710E0C2E6D0E004C02197C3
:10010000FE010E943F12C136D107C9F70E94FB0AC7
:100110000C946A130C940000833081F028F4813031
:1001200099F08230A9F008958730A9F08830C9F09D
:100130008430B1F4809180008F7D03C08091800075
:100140008F7780938000089584B58F7784BD08955C
:1001500084B58F7DFBCF8091B0008F778093B00006
:1001600008958091B0008F7DF9CFCF93DF93282F32
:1001700030E0F901E255FF4F8491F901E656FF4F57
:10018000D491F901EA57FF4FC491CC23A1F081111A
:100190000E948C00EC2FF0E0EE0FFF1FE458FF4FA1
:1001A000A591B491EC91ED2381E090E009F480E019
:1001B000DF91CF91089580E090E0FACF1F93CF9325
:1001C000DF93282F30E0F901E255FF4F8491F901C8
:1001D000E656FF4FD491F901EA57FF4FC491CC2363
:1001E000A9F0162F81110E948C00EC2FF0E0EE0F89
:1001F000FF1FEE58FF4FA591B4918FB7F894EC9183
:10020000111108C0D095DE23DC938FBFDF91CF9111
:100210001F910895DE2BF8CFCF93DF9390E0FC0180
:10022000E656FF4F24918A579F4FFC018491882303
:10023000C9F090E0880F991FFC01E859FF4FA59184
:10024000B491FC01EE58FF4FC591D49161110DC0DE
:100250009FB7F8948C91209582238C9388812823D2
:1002600028839FBFDF91CF910895623051F49FB7EB
:10027000F8943C91822F809583238C93E8812E2BD8
:10028000EFCF8FB7F894EC912E2B2C938FBFEACF42
:100290008E508770806480937C0080917A008064A7
:1002A00080937A0080917A0086FDFCCF809178005F
:1002B0009091790008953FB7F894809163019091EF
:1002C0006401A0916501B091660126B5A89B05C0A7
:1002D0002F3F19F00196A11DB11D3FBFBA2FA92FC5
:1002E000982F8827BC01CD01620F711D811D911DC2
:1002F00042E0660F771F881F991F4A95D1F708952E
:100300008F929F92AF92BF92CF92DF92EF92FF9225
:100310004B015C010E945B016B017C010E945B014F
:100320006C197D098E099F09683E7340810591050E
:10033000A8F321E0821A9108A108B10888EEC80E3E
:1003400083E0D81EE11CF11C81149104A104B104C6
:1003500029F7FF90EF90DF90CF90BF90AF909F90E4
:100360008F9008952FB7F89460915F0170916001AC
:1003700080916101909162012FBF08950895AF921D
:10038000BF92CF92DF92EF92FF920F931F93CF9382
:10039000DF936C017B018B01040F151FEB015E01E4
:1003A000AE18BF08C017D10759F06991D601ED9179
:1003B000FC910190F081E02DC6010995892B79F718
:1003C000C501DF91CF911F910F91FF90EF90DF90CA
:1003D000CF90BF90AF900895FC01538D448D252F91
:1003E00030E0842F90E0821B930B541710F0CF96CF
:1003F000089501970895FC01918D828D981761F001
:10040000A28DAE0FBF2FB11D5D968C91928D9F5F17
:100410009F73928F90E008958FEF9FEF0895FC01F6
:10042000918D828D981731F0828DE80FF11D858DA9
:1004300090E008958FEF9FEF0895FC01918D228D3C
:10044000892F90E0805C9F4F821B91098F739927C1
:10045000089583E891E00E941D0221E0892B09F4B0
:1004600020E0822F089580E090E0892B29F00E94FF
:10047000290281110C9400000895FC01A48DA80F9D
:10048000B92FB11DA35ABF4F2C91848D90E00196D6
:100490008F739927848FA689B7892C93A089B189F6
:1004A0008C91837080648C93938D848D981306C097
:1004B0000288F389E02D80818F7D80830895EF92FB
:1004C000FF920F931F93CF93DF93EC0181E0888F0E
:1004D0009B8D8C8D98131AC0E889F989808185FFDE
:1004E00015C09FB7F894EE89FF896083E889F98980
:1004F00080818370806480839FBF81E090E0DF9182
:10050000CF911F910F91FF90EF900895F62E0B8DD4
:1005100010E00F5F1F4F0F731127E02E8C8D8E118F
:100520000CC00FB607FCFACFE889F989808185FFF6
:10053000F5CFCE010E943D02F1CFEB8DEC0FFD2FE8
:10054000F11DE35AFF4FF0829FB7F8940B8FEA89B1
:10055000FB8980818062CFCFCF93DF93EC01888DC0
:100560008823B9F0AA89BB89E889F9898C9185FD2E
:1005700003C0808186FD0DC00FB607FCF7CF8C91BC
:1005800085FFF2CF808185FFEDCFCE010E943D0235
:10059000E9CFDF91CF910895FF920F931F93CF93EF
:1005A000DF9380E010E000E0D7E197E0F92EC1E0B2
:1005B000C80FC03139F4C801DF91CF911F910F915D
:1005C000FF900895C13091F08D50823078F08C2FDB
:1005D0000E94B5002F2DC83008F02D2F2C1B02C013
:1005E000880F991F2A95E2F7082B192B8C2FDFCF44
:1005F000CF93DF93EC017B836A830E94CC021C8241
:100600001D821E821F82DF91CF9108950895CF939E
:10061000DF93EB0188818C3029F0813169F0DF9123
:10062000CF91089561E08A81813009F060E089818D
:10063000DF91CF910C94DE000E94CC0289839A83D3
:100640001B828AE08C838BE08D838CE08E83E7CFE6
:10065000EF92FF920F931F93CF93DF93EC017B01F7
:100660000E94B2016C837D838E839F8311E0F7012A
:100670008181813009F010E001E0F7018081813053
:1006800009F000E0602F86E00E94DE000987612FFC
:1006900085E00E94DE0086E0888785E08A871B87E8
:1006A000DF91CF911F910F91FF90EF9008950F93DD
:1006B0001F93CF93DF93FC0144815581668177813D
:1006C000452B462B472B31F1EC010E94B2010C81E6
:1006D0001D812E813F81601B710B820B930B69384A
:1006E000734181059105B0F01C821D821E821F821C
:1006F0008985882321F060E088850E94DE008B8553
:10070000882341F060E08A85DF91CF911F910F919E
:100710000C94DE00DF91CF911F910F910895089501
:10072000DC019C96EC919C979D962C91E21730F4FD
:10073000E80FF92FF11D848590E008958FEF9FEF6A
:100740000895FC0194A585A52FEF3FEF981740F47D
:10075000DF01A90FB11D1C962C9130E09F5F94A77B
:10076000C9010895FC0185A594A5891B990B0895DD
:10077000CF92DF92EF92FF920F931F93CF93DF936D
:100780006C01EB017B01E40EF51E10E000E0CE15DC
:10079000DF0561F06991D601ED91FC910190F08146
:1007A000E02DC6010995080F191FF1CFC801DF918F
:1007B000CF911F910F91FF90EF90DF90CF90089510
:1007C0000F931F93CF93DF93EC01888D998D009742
:1007D00011F421E02D8B2D89211107C0198E188E5F
:1007E000DF91CF911F910F910895892BE9F40E9419
:1007F0005B01EC8DFD8D0081118122813381601BB5
:10080000710B820B930B6F3E72408105910540F492
:1008100061E08FE0DF91CF911F910F910C94DE008A
:1008200060E08FE00E94DE008E8D9F8D1816190605
:10083000E4F583E891E00E94EC01288D398D4FE0CA
:1008400050E0421B530B8417950728F483E891E08E
:100850000E94EC01AC014115510589F0888D998DFC
:10086000BE016A5F7F4F680F791F83E891E00E94A5
:10087000BF01288D398D820F931F998F888F83E850
:1008800091E00E94EC012E8D3F8D821793074CF46E
:100890000C8D1D8D0E945B01F80160837183828342
:1008A000938383E891E00E94AC02888D998D0F9725
:1008B00008F496CF0E945B01EC8DFD8D00811181C3
:1008C00022813381601B710B820B930B6F3E724050
:1008D0008105910508F484CF61E08FE00E94DE007D
:1008E0001D8A198E188E83E891E00E941D02892BC3
:1008F00009F476CF83E891E00E94FB01F4CFDC019C
:1009000016969B01215F3F4FFB0141914D93E217EA
:10091000F307D9F7675F7F4F20E032912327E6176F
:10092000F707D9F7FC0126870C94E003DC01169643
:100930001C92169717966C9317975696ED91FC910B
:10094000579718969F012A5F3F4F61916D93E21769
:10095000F307D9F7FA01DC011F969A012A5F3F4F8E
:1009600041914D93E217F307D9F7BC016A5F7F4FBE
:100970000C947F0490E080E0089590E080E02FEFF9
:10098000FC01EE5BFE4F2083019689309105C1F793
:100990000895BF92CF92DF92EF92FF920F931F9331
:1009A000CF93DF93E62FF0E0379623E0F595E795B8
:1009B0002A95E1F73E2F482FEF5AFE4FDC012A2FF0
:1009C000241B231718F42D912293F9CF683029F1B5
:1009D00060F4643011F1DF91CF911F910F91FF907E
:1009E000EF90DF90CF90BF900895683111F06032A2
:1009F00091F78091510190915201A0915301B091D2
:100A000054018093560190935701A0935801B093DD
:100A100059016E5F60935501DECFFC01208182E2B7
:100A2000809355012A3009F45DC02B3051F180913B
:100A30004A018F3F89F090E080E0AC014F5F5F4F4B
:100A4000FA01EE5BFE4F30818E5B9E4FFC013083DE
:100A5000CA014830510589F720934A011092560186
:100A60001092570110925801109259010E94B20140
:100A700060935A0170935B0180935C0190935D01D8
:100A8000AACFE8E0F0E0C12CD12C760108E010E01C
:100A9000E801CE1BDF0BCE5BDE4F88818F3F69F113
:100AA000B12C21E030E040E050E0BE161F0640F4DB
:100AB000AAE0B0E00E94FB119B01AC01B394F5CF1A
:100AC000A881B0E00E94FB11C60ED71EE81EF91ED9
:100AD0003197F0F6C0925601D0925701E09258013A
:100AE000F0925901DF91CF911F910F91FF90EF90FC
:100AF000DF90CF90BF900C94BD04C12CD12C760117
:100B0000E7CFE62FF0E023E0F595E7952A95E1F7AA
:100B1000E80FF91F8081677020E830E002C035954A
:100B200027956A95E2F7442319F0282B208308952E
:100B300020952823FBCF5F926F927F928F929F9296
:100B4000AF92BF92CF92DF92EF92FF920F931F93DB
:100B5000CF93DF93CDB7DEB728970FB6F894DEBFFB
:100B60000FBECDBF8C01562ED42ED61A6D2C712CF3
:100B7000730147E0E40EF11C93E0F594E7949A9535
:100B8000E1F7CE2CCC0CCC0CCC0CCD181982B12CAE
:100B9000A12C20E8822E912CA614B7045CF0DE0173
:100BA0001196F801E00EF11EEE15FF0541F18D9151
:100BB0008193FACF6A2D252D2A0DE22FF0E083E0F4
:100BC000F595E7958A95E1F7E00FF11F808190E0B8
:100BD0002770A40102C0559547952A95E2F79A011E
:100BE0008423932341E0892B09F440E06C0DCE016E
:100BF00001960E9481055FEFA51AB50ACDCF8D2D14
:100C000028960FB6F894DEBF0FBECDBFDF91CF910F
:100C10001F910F91FF90EF90DF90CF90BF90AF901A
:100C20009F908F907F906F905F900895DF92EF92EA
:100C3000FF920F931F93CF93DF931F92CDB7DEB731
:100C400040916901442309F458C0809167018823C9
:100C500009F453C090916A01907F21F1809179014C
:100C600090917A01892B09F448C060E08FE691E009
:100C70000E949B05482F8093690180916A01E09151
:100C80007901F0917A0120917F01309180016FE626
:100C900071E085FF04C081E090E009952EC090E0EE
:100CA00080E0FBCF4817E9F08F3FD9F080917901C0
:100CB00090917A01892B09F160E08FE691E00E9422
:100CC0009B058093690120917F0130918001E09123
:100CD0007901F0917A01482F6FE671E082E090E0AF
:100CE000DCCF80916801811111C0809177019091D2
:100CF000780160E0892B09F0ABC00F90DF91CF91B4
:100D00001F910F91FF90EF90DF900895443069F3A9
:100D10004830F1F540916F01242F2F70298330E086
:100D2000C901F4E0880F991FFA95E1F750EF852784
:100D3000822B932B4817190679F4E0917701F091F3
:100D400078013097D1F240917D0150917E0164E0AD
:100D5000CE0101960995D1CF8091790190917A01C8
:100D600048E0892B51F260E08FE691E00E949B05FC
:100D70008093690120917F0130918001E091790198
:100D8000F0917A01482F6FE671E084E090E085CF22
:100D90004A3119F0423209F075C0642F70E0DB016E
:100DA0001196B595A79590E080E0D12C00E810E071
:100DB000A817B907E1F09C0153E0359527955A959E
:100DC000E1F721593E4FF901208130E0582F57704B
:100DD000780102C0F594E7945A95E2F72E213F215D
:100DE00051E0232B09F450E0D5260196E1CF842F62
:100DF000869590E050E000E810E086179707DCF455
:100E0000DC0123E0B595A7952A95E1F7A159BE4FDE
:100E10002C9130E0F82FF770D80102C0B595A79556
:100E2000FA95E2F72A233B23F1E0232B09F4F0E0C3
:100E30005F270196E2CFD1101DC05523D9F08091D4
:100E4000770190917801892B09F457CF415061E0E7
:100E50008FE691E00E949B058093690140917D019E
:100E600050917E01E0917701F0917801682F8FE633
:100E700091E070CF8091790190917A01892B09F0EE
:100E800072CF3BCF8091790190917A01892B09F43F
:100E900034CF60E08FE691E00E949B05809369016A
:100EA00020917F0130918001E0917901F0917A01E8
:100EB000482F6FE671E083E090E0EFCE0E941606C7
:100EC0001092690190916A01892F8F70937093300D
:100ED00019F480936A0108958061FBCF0F931F93EB
:100EE0000E94B20100916B0110916C0120916D0183
:100EF00030916E01601B710B820B930B6A3171058F
:100F00008105910520F01F910F910C945E071F91B0
:100F10000F9108951F93CF93DF93D82F162FC1E021
:100F20008111C2E00E946E0780916A018C2391E0DA
:100F300009F490E0911709F44AC00E94B20160934D
:100F40006B0170936C0180936D0190936E018091A1
:100F50006A011123F9F08C2B80936A0180916A0158
:100F6000982F93709330B9F582FF22C06091690188
:100F7000603498F0806280936A01809167018823D1
:100F800031F190916901891322C0DF91CF911F91B6
:100F90000C945E07C0958C23DFCF81E0860F809391
:100FA00069014D2F41708FE691E00E948105E5CFE8
:100FB0008B70846180936A01E0917B01F0917C01E8
:100FC000609181017091820181E0309741F5DF915C
:100FD000CF911F9108959111FACF82FFF8CF8061D0
:100FE00080936A010E9416061092690190916A012D
:100FF000892F8F7093709330B1F480936A01809140
:101000006A018B7080936A01E0917B01F0917C0111
:101010003097E9F2609181017091820180E0DF9167
:10102000CF911F9109948061E8CF83E00E94B500C1
:1010300061E0892B09F460E080E00E948A0782E089
:101040000E94B50061E0892B09F460E081E00C9416
:101050008A07CF92DF92EF92FF92809177028430DD
:10106000B9F148F4813021F1823079F1FF90EF90AD
:10107000DF90CF9008958B3009F443C08431B1F7ED
:101080001092530210922C0210923F0280914D0256
:1010900090914E02DC01ED91FC910480F581E02DF0
:1010A00046E06FE772E0FF90EF90DF90CF900994F9
:1010B00082E08093770266E772E08FE492E0FF902F
:1010C000EF90DF90CF900C947F0410925302CECF1C
:1010D00080914D0290914E02DC01ED91FC910680D1
:1010E000F781E02D6EE772E0099582E08093770248
:1010F00066E772E08FE492E00E947F0410922C0277
:10110000B5CF109246020E94B2016B017C010E9491
:101110006E1120E737E140E050E00E94DC11685199
:101120007C4F8F4F9F4FC60ED71EE81EF91EC092F0
:101130004702D0924802E0924902F0924A0296CFCA
:101140000C94E1121F920F920FB60F9211242F935D
:101150003F938F939F93AF93BF9380915F01909143
:101160006001A0916101B091620130915E0123E0C4
:10117000230F2D3758F50196A11DB11D20935E0157
:1011800080935F0190936001A0936101B09362012D
:101190008091630190916401A0916501B091660115
:1011A0000196A11DB11D8093630190936401A093EA
:1011B0006501B0936601BF91AF919F918F913F916F
:1011C0002F910F900FBE0F901F90189526E8230FB8
:1011D0000296A11DB11DD2CF1F920F920FB60F9292
:1011E00011242F933F934F935F936F937F938F932C
:1011F0009F93AF93BF93EF93FF93E0910201F09120
:1012000003010995FF91EF91BF91AF919F918F914C
:101210007F916F915F914F913F912F910F900FBEF2
:101220000F901F9018951F920F920FB60F921124D6
:101230002F933F934F935F936F937F938F939F93DE
:10124000AF93BF93EF93FF93E0910001F091010101
:101250000995FF91EF91BF91AF919F918F917F91F0
:101260006F915F914F913F912F910F900FBE0F9013
:101270001F9018951F920F920FB60F9211242F9363
:101280003F934F935F936F937F938F939F93AF930E
:10129000BF93EF93FF9383E891E00E943D02FF919B
:1012A000EF91BF91AF919F918F917F916F915F91DE
:1012B0004F913F912F910F900FBE0F901F90189557
:1012C0001F920F920FB60F9211242F938F939F931B
:1012D000EF93FF93E0919301F09194018081E0916D
:1012E0009901F0919A0182FD1BC0908180919C012F
:1012F0008F5F8F7320919D01821741F0E0919C01D7
:10130000F0E0ED57FE4F958F80939C01FF91EF9198
:101310009F918F912F910F900FBE0F901F90189556
:101320008081F4CF71E0239A24980000000000002F
:101330000E94BB0A23980E94BB0AA89400000000E8
:1013400000001B9B0E94A30AD2F088941C99089469
:10135000771F48F7239A803019F024980C94B1092C
:10136000249A0000000000000E94BB0A2398A89461
:10137000000000001B9B0E94A30A0E94BB0A000001
:101380000000239A872F9927089580E208950894F2
:10139000881F0C94CC09880FF1F0239A00000000FC
:1013A000000020F4000024980C94D909249A0C948D
:1013B000D9090E94BB0A2398A894000000000000ED
:1013C0001B9B0E94A30A1AF488270C94FE090E9412
:1013D000BB0A0C94CB09239A0000000024980E94B9
:1013E000BB0A992788272398A89400001B9B0E947A
:1013F000A30A52F31C9B81E00E94BB0A000000007C
:10140000239A089581E00895CF93DF93EC01862F0E
:101410000E94C709811108C08FA5811102C083E015
:101420008FA790E080E002C081E090E0DF91CF9153
:101430000895239A249A0E94BB0A23980E94BB0A0B
:101440001B9B0E94A30A24980E94BB0A08958F93B5
:10145000F1E0E4EF8F918F931B9B0E94A30A249AE3
:101460000E94BB0A0E94C709882331F40E94190A0E
:10147000319711F00C942A0A99270F90089581E072
:101480000895239A0E94BB0A24980E94BB0A2398BD
:101490000E94BB0A1B9B0E94A30A249A0E94BB0ABB
:1014A0000E94C709089581E008951B9B0E94A30A2A
:1014B000249A0E94BB0A0E94C709089581E00895FA
:1014C000CF93C091B702880FCC2371F00E94410ADC
:1014D000882341F080E08093B80281E08093B702D6
:1014E000CF91089582E0F7CF0E94550A811101C083
:1014F000C2E0C093B802F1CFCF93DF93D62FC42FB1
:101500000E94600A6D2F89E892E00E94040A6C2F05
:1015100089E892E00E94040A0E94190AE9E8F2E0D0
:1015200016A617A6DF91CF910895249823982C989A
:101530002B98882799271C9B08951B9B089581E071
:10154000089581E00895B1E0A0E900240E94B30A63
:101550003AF40A94D9F71197C1F728940C94BA0A6F
:10156000A8940C94BA0AA8941B990C94B80A2894CD
:1015700000000895089591E09A95F1F7089508956F
:10158000E3E8F1E01382128288EE93E0A0E0B0E09D
:1015900084839583A683B78322E231E0318320835D
:1015A00025EC30E03587248724EC30E03787268728
:1015B00020EC30E0318B208B21EC30E0338B228B20
:1015C00022EC30E0358B248B26EC30E0378B268BF9
:1015D000118E128E138E148EE9E8F2E013821282BD
:1015E00084839583A683B78384E391E0918380838A
:1015F00010922C020895CF93DF93CDB7DEB72F97CB
:101600000FB6F894DEBF0FBECDBF789484B582606C
:1016100084BD84B5816084BD85B5826085BD85B596
:10162000816085BD80916E00816080936E00109214
:10163000810080918100826080938100809181008F
:101640008160809381008091800081608093800020
:101650008091B10084608093B1008091B00081607E
:101660008093B00080917A00846080937A008091AA
:101670007A00826080937A0080917A008160809302
:101680007A0080917A00806880937A001092C1007D
:1016900088E198E20FB6F894A895809360000FBE99
:1016A0009093600004E0812C912C54011EE0812F66
:1016B0000E944801092E000CAA0BBB0B880E991E34
:1016C000AA1EBB1E61E070E080E090E00E948001F5
:1016D0001F5F163161F7F12C8F2D0E94B500092E86
:1016E000000CAA0BBB0B880E991EAA1EBB1EF394FE
:1016F0002EE0F212F1CF0150C9F681149104A10439
:10170000B10421F0C501B4010E94BD1168EC70E084
:1017100080E090E00E948001A895FBE4CF2EF1E0EC
:10172000DF2E10E000E0C8010E94C611D6018D93A3
:101730006D010F5F1F4F06301105A9F70BE411E093
:10174000B12CF80181918F018F3F09F4B394F1E03E
:1017500001351F07B1F7C12C412C512C32018F2DBF
:101760000E944801092E000CAA0BBB0B480E591E03
:101770006A1E7B1E8F2D0E9448018170C80E61E099
:1017800070E080E090E00E948001F39426E1F21284
:10179000E6CF0E946E11D12CF12CE12C2FE130E02C
:1017A00040E050E00E94DC1104C0CC0CDD1CEE1CBB
:1017B000FF1C6A95D2F7C701B601642975298629ED
:1017C0009729611571058105910511F00E94BD11E0
:1017D00086E0B81237C07BE4E72E71E0F72E412C8B
:1017E000512C32014A940E946E11A30192010E9471
:1017F000DC11D7016D937D010A171B07A1F7EBE4FC
:10180000F1E08191DF0111978C93EE15FF05C9F787
:101810006BE4E62E61E0F62E10E000E0F701D190D7
:101820007F01C8010E94C611D81621F06D2DC80194
:101830000E94CE110F5F1F4F0630110579F7BA9441
:10184000B110E6CF61E08FE00E940C0161E08FE013
:101850000E94DE00A895A895E0919301F091940173
:1018600082E08083E0918F01F09190011082E091FD
:101870009101F091920183E3808310929B01E091AA
:101880009701F091980186E08083E0919501F091B5
:101890009601808180618083E0919501F0919601AD
:1018A000808188608083E0919501F091960180812C
:1018B00080688083E0919501F091960180818F7D11
:1018C00080830BE411E0109341020093400280E713
:1018D00092E090936C0280936B0283E891E00E9407
:1018E000EC0190936E0280936D0210936602009358
:1018F000650262E08AE00E940C0162E089E00E94D9
:101900000C0162E088E00E940C0162E087E00E9426
:101910000C0160E084E00E940C0161E086E00E941E
:101920000C0161E085E00E940C0189EC94E0909349
:1019300078018093770110927E0110927D018FEFE4
:101940008093670181E080936801109269010E9491
:10195000B20160936B0170936C0180936D01909361
:101960006E0180916A018770886180936A0160E0EE
:1019700082E00E940C0160E083E00E940C0125E1FE
:1019800038E03093010120930001809169008C7F41
:10199000816080936900E89A3093030120930201EB
:1019A00080916900837F846080936900E99A0E9436
:1019B00015088FE492E09093240280932302109202
:1019C000B5021092B6021092B8021092B7020E94AD
:1019D000950A1092250284E70E94600A1091B802CD
:1019E0000E94190A1092B7021092B80281E01111F8
:1019F00080E08093250240E066E084E70E947C0A54
:101A000040E067E084E70E947C0A40E066E085E70A
:101A10000E947C0A40E067E085E70E947C0A80E241
:101A2000E82E82E0F82E8FEF9FEFDC0180932602F4
:101A300090932702A0932802B0932902809140023C
:101A40009091410290934C0280934B020E946E1140
:101A500020E737E140E050E00E94DC1168517C4F04
:101A60008F4F9F4F609347027093480280934902C3
:101A700090934A0210924602F0924302E092420290
:101A80008FE492E090934502809344020E945B01B0
:101A9000609370027093710280937202909373024C
:101AA00010927502109274028CE090E00E94451230
:101AB0008C0182E191E0D80111969C938E93109352
:101AC0004E0200934D021396FC92EE9212970E94E2
:101AD000CC02F8011482158216821782A895772409
:101AE00073949FE0C92ED12C20E0A22E20E0B22ECC
:101AF0003AE0432E44E0642E53E0552E8091460296
:101B0000882309F440C380916402882309F457C2F2
:101B10008FE492E00E94E003809153028823E9F170
:101B20000E94B20100914F02109150022091510287
:101B300030915202601B710B820B930B6F35714019
:101B40008105910550F10E94B2010091850210912A
:101B500086022091870230918802601B710B820BF4
:101B6000930B6536710581059105B8F0809154029B
:101B70008F5F80935402833011F4109253020E94BD
:101B8000B2016093850270938602809387029093DE
:101B900088028FE492E00E94E00380914D029091D0
:101BA0004E02DC01ED91FC910280F381E02D09955C
:101BB00084E00E94B500892B79F187E00E94B5008E
:101BC000892B61F40E94B201609332027093330258
:101BD00080933402909335027092310280913102E9
:101BE0008823D1F00E94B201009132021091330299
:101BF0002091340230913502601B710B820B930BE4
:101C0000693873418105910508F4F6C260E086E009
:101C10000E94DE00109231020E94B20100915A012E
:101C200010915B0120915C0130915D01601B710B93
:101C3000820B930B693873418105910510F00E9466
:101C4000BD04F8940E946E077894A8950E94B20192
:101C500000912D0210912E0220912F02309130021E
:101C6000601B710B820B930B693E734081059105DC
:101C700008F456C08091560190915701A0915801E7
:101C8000B0915901892B8A2B8B2B09F449C0809183
:101C9000560190915701A0915801B091590120919E
:101CA000550129838A839B83AC83BD831E827092F6
:101CB0002C020E94B20160932D0270932E02809339
:101CC0002F0290933002AE014F5F5F4F63E180912E
:101CD0002302909124020E94960400912302109105
:101CE00024020E94B201D8016D937D938D939C9341
:101CF000139714967C92149715961C92109251018A
:101D000010925201109253011092540110925601F8
:101D100010925701109258011092590110925501DA
:101D20000E94CC0290932B0280932A02A8950E94D5
:101D3000B20120912002621B710981099109653667
:101D400071058105910508F4A0C00E94B20121E04F
:101D5000672B682B692B09F420E020932002209147
:101D60002A0230912B02A9014770507E80912102F6
:101D7000909122024817590709F487C080912502E3
:101D8000882309F482C0509322024093210280915B
:101D9000260290912702A0912802B091290221FFEA
:101DA00030C28D7F8093260290932702A093280251
:101DB000B09329028091260290912702A0912802D7
:101DC000B091290222FF1FC28B7F8093260290933D
:101DD0002702A0932802B0932902809126029091B5
:101DE0002702A0912802B091290220FD0EC2AF7BEC
:101DF0008093260290932702A0932802B093290291
:101E00008091260290912702A0912802B091290288
:101E100057FDFDC1AF7D8093260290932702A093CA
:101E20002802B09329028091260290912702A09166
:101E30002802B091290236FDECC1AF7E80932602C4
:101E400090932702A0932802B09329028091260242
:101E500090912702A0912802B091290235FDDBC1A3
:101E6000A77F8093260290932702A0932802B09325
:101E700029024091260262E084E70E947C0A409198
:101E8000280263E084E70E947C0AA89580912C02D6
:101E90008823E9F00E94B20100912D0210912E02D8
:101EA00020912F0230913002601B710B820B930B3B
:101EB0006D3B72408105910550F010922C0280918B
:101EC0003F028F5F833008F0A8C180933F020E94D9
:101ED000B20161347F418105910508F463C08091AE
:101EE0002A0290912B028170907E209136023091CF
:101EF000370282179307A1F03093390220933802FA
:101F000090933702809336020E94B20160933B02A5
:101F100070933C0280933D0290933E0270923A028D
:101F200080913A028823F1F10E94B20100913B02B4
:101F300010913C0220913D0230913E02601B710BDA
:101F4000820B930B6D3271408105910558F16982C6
:101F500080912A028A8380912B028B8380913802A0
:101F60008C83809139028D831E82AE014F5F5F4F5B
:101F700063E080912302909124020E9496040091D4
:101F80002302109124020E94B201D8016D937D9327
:101F90008D939C93139714967C92149715961C928C
:101FA00010923A02A895A114B10409F4A7CD0E9499
:101FB0002902882309F4A2CD0E9400009FCD83E866
:101FC00091E00E941D0220916F02892B09F487C0C5
:101FD00021111AC00E945B010091700210917102E0
:101FE0002091720230917302601B710B820B930B74
:101FF0006F3E72408105910508F46CC01092750225
:102000001092740270926F0280916F02882309F41B
:1020100056C000917402109175024601801A910A0F
:102020000A581D4FF12CE12C8E149F0459F10E9487
:10203000B20160938B0170938C0180938D0190931A
:102040008E0183E891E00E94FB0197FFF1C00E949E
:10205000B20120918B0130918C0140918D01509102
:102060008E01621B730B840B950B209187013091BD
:1020700088014091890150918A0162177307840792
:102080009507F8F28091740290917502873091055E
:1020900080F0E0914002F0914102A8E7B2E09F0198
:1020A0002A5F3F4F51914D915413C9C02E173F07DE
:1020B000C9F7E80EF91EF0927502E09274020E94D0
:1020C0005B0160937002709371028093720290932F
:1020D000730222CD83E891E00E94FB0195CF222379
:1020E00009F41ACD0E945B010091700210917102F7
:1020F0002091720230917302601B710B820B930B63
:102100006F3E72408105910508F406CD10926F0272
:1021100080917402909175020F9708F4FDCCA8E7A6
:10212000B2E0FD0180E09191913009F48F5F92E07F
:10213000EE37F907C1F7863019F40E942908ECCC74
:10214000E0914002F0914102CF01069631912D912C
:102150003213E2CCE817F907C9F780918202909117
:102160008302892790918102892790918002892793
:1021700090917F028927909184028927909176021D
:102180009813CACCDACF0E94B20100914702109195
:1021900048022091490230914A0206171707280782
:1021A000390708F0FACC809146028111F6CC0E94E2
:1021B000CC0219824A82E0914B02F0914C02DE017E
:1021C00013969F012A5F3F4F41914D932E173F0772
:1021D000D9F719866A868B879C871D861E865F863F
:1021E000BE016F5F7F4F80914402909145020E9433
:1021F0007F0470924602D1CC61E086E00E94DE004E
:102200000BCD8260CFCD8460E0CDA064F1CDA06223
:1022100002CEA06113CEA86024CE88E198E00FB66C
:10222000F894A895809360000FBE90936000FFCF54
:10223000F80181938F01FFEFEF1AFF0AF5CE10929C
:102240006F0237CF8F929F92AF92BF92CF92DF9261
:10225000EF92FF92CF93DF93EC01688179818A81BD
:102260009B81611571058105910521F464E279ED89
:102270008BE597E02DE133EF41E050E00E94DC1167
:1022800049015A019B01AC01A7EAB1E40E94FB118C
:102290006B017C01ACEEB4EFA50194010E94091220
:1022A000C60ED71EE81EF91EF7FE06C081E0C81A4A
:1022B000D108E10880E8F80AC882D982EA82FB8264
:1022C000C701B6019F77DF91CF91FF90EF90DF902C
:1022D000CF90BF90AF909F908F9008958F929F92D4
:1022E000AF92BF92CF92DF92EF92FF926091040182
:1022F00070910501809106019091070161157105AA
:102300008105910521F464E279ED8BE597E02DE1FB
:1023100033EF41E050E00E94DC1149015A019B017A
:10232000AC01A7EAB1E40E94FB116B017C01ACEEA9
:10233000B4EFA50194010E940912C60ED71EE81E33
:10234000F91EF7FE06C081E0C81AD108E10880E84E
:10235000F80AC0920401D0920501E0920601F092C1
:102360000701C701B6019F77FF90EF90DF90CF90F4
:10237000BF90AF909F908F900895609304017093E9
:10238000050180930601909307010895F999FECF06
:1023900092BD81BDF89A992780B50895262FF999A5
:1023A000FECF1FBA92BD81BD20BD0FB6F894FA9A38
:1023B000F99A0FBE01960895052E97FB1EF400941E
:1023C0000E94F31157FD07D00E940E1207FC03D0A4
:1023D0004EF40C94F31150954095309521953F4F54
:1023E0004F4F5F4F089590958095709561957F4F01
:1023F0008F4F9F4F08950E943012A59F900DB49F5C
:10240000900DA49F800D911D11240895B7FF0C9489
:10241000FB110E94FB11821B930B0895A1E21A2E5F
:10242000AA1BBB1BFD010DC0AA1FBB1FEE1FFF1F78
:10243000A217B307E407F50720F0A21BB30BE40BC8
:10244000F50B661F771F881F991F1A9469F760950F
:102450007095809590959B01AC01BD01CF010895C9
:10246000A29FB001B39FC001A39F700D811D1124D5
:10247000911DB29F700D811D1124911D0895EE0FC5
:10248000FF1F0590F491E02D09940F931F93CF93B4
:10249000DF938230910510F482E090E0E091BB027E
:1024A000F091BC0230E020E0B0E0A0E0309799F479
:1024B0002115310509F44AC0281B390B2430310598
:1024C000D8F58A819B816115710589F1FB019383A0
:1024D0008283FE0111C0408151810281138148171E
:1024E0005907E0F04817590799F4109761F01296D0
:1024F0000C93129713961C933296CF01DF91CF91D4
:102500001F910F9108950093BB021093BC02F4CF6A
:102510002115310551F04217530738F0A901DB01AD
:102520009A01BD01DF01F801C1CFEF01F9CF90930E
:10253000BC028093BB02CDCFFE01E20FF31F81935B
:1025400091932250310939832883D7CF2091B90242
:102550003091BA02232B41F420910A0130910B01F2
:102560003093BA022093B9022091080130910901F9
:102570002115310541F42DB73EB740910C01509122
:102580000D01241B350BE091B902F091BA02E2175C
:10259000F307A0F42E1B3F0B2817390778F0AC0186
:1025A0004E5F5F4F2417350748F04E0F5F1F509363
:1025B000BA024093B902819391939FCFF0E0E0E09B
:1025C0009CCFCF93DF930097E9F0FC013297138201
:1025D0001282A091BB02B091BC02ED0130E020E07C
:1025E0001097A1F420813181820F931F2091B902AD
:1025F0003091BA022817390709F061C0F093BA0286
:10260000E093B902DF91CF910895EA01CE17DF0779
:10261000E8F54A815B819E0141155105B1F7E90159
:10262000FB83EA8349915991C40FD51FEC17FD072D
:1026300061F4808191810296840F951FE90199834D
:102640008883828193819B838A83F0E0E0E0129605
:102650008D919C9113970097B9F52D913C9111970D
:10266000CD010296820F931F2091B9023091BA02D8
:102670002817390739F6309751F51092BC0210929D
:10268000BB02B093BA02A093B902BCCFD383C2837A
:1026900040815181840F951FC817D90761F44E5F9F
:1026A0005F4F88819981480F591F518340838A81E8
:1026B0009B81938382832115310509F0B0CFF0937C
:1026C000BC02E093BB029ECFFD01DC01C0CF1382B0
:0826D0001282D7CFF894FFCF6E
:1026D800BE01BE01010000000000BD028000000034
:1026E8000000F8025703280307030603A0080000A8
:1026F80000005F02BF01EC01AC021D02FB010F02EA
:1027080000000000040AB803BA048F03B203A1034F
:0227180090032C
:00000001FF
